{
  "abi": [
    {
      "inputs": [],
      "stateMutability": "nonpayable",
      "type": "constructor"
    },
    {
      "anonymous": false,
      "inputs": [
        {
          "indexed": false,
          "internalType": "address",
          "name": "previousAdmin",
          "type": "address"
        },
        {
          "indexed": false,
          "internalType": "address",
          "name": "newAdmin",
          "type": "address"
        }
      ],
      "name": "AdminChanged",
      "type": "event"
    },
    {
      "anonymous": false,
      "inputs": [
        {
          "indexed": true,
          "internalType": "address",
          "name": "beacon",
          "type": "address"
        }
      ],
      "name": "BeaconUpgraded",
      "type": "event"
    },
    {
      "anonymous": false,
      "inputs": [
        {
          "indexed": true,
          "internalType": "uint32",
          "name": "sourceChainId",
          "type": "uint32"
        },
        {
          "indexed": true,
          "internalType": "uint64",
          "name": "nonce",
          "type": "uint64"
        },
        {
          "indexed": true,
          "internalType": "bytes32",
          "name": "msgHash",
          "type": "bytes32"
        },
        {
          "indexed": false,
          "internalType": "bytes",
          "name": "message",
          "type": "bytes"
        },
        {
          "indexed": false,
          "internalType": "bool",
          "name": "status",
          "type": "bool"
        }
      ],
      "name": "ExecutedMessage",
      "type": "event"
    },
    {
      "anonymous": false,
      "inputs": [
        {
          "indexed": true,
          "internalType": "uint32",
          "name": "chainId",
          "type": "uint32"
        }
      ],
      "name": "Freeze",
      "type": "event"
    },
    {
      "anonymous": false,
      "inputs": [],
      "name": "FreezeAll",
      "type": "event"
    },
    {
      "anonymous": false,
      "inputs": [
        {
          "indexed": false,
          "internalType": "uint8",
          "name": "version",
          "type": "uint8"
        }
      ],
      "name": "Initialized",
      "type": "event"
    },
    {
      "anonymous": false,
      "inputs": [
        {
          "indexed": true,
          "internalType": "bytes32",
          "name": "role",
          "type": "bytes32"
        },
        {
          "indexed": true,
          "internalType": "bytes32",
          "name": "previousAdminRole",
          "type": "bytes32"
        },
        {
          "indexed": true,
          "internalType": "bytes32",
          "name": "newAdminRole",
          "type": "bytes32"
        }
      ],
      "name": "RoleAdminChanged",
      "type": "event"
    },
    {
      "anonymous": false,
      "inputs": [
        {
          "indexed": true,
          "internalType": "bytes32",
          "name": "role",
          "type": "bytes32"
        },
        {
          "indexed": true,
          "internalType": "address",
          "name": "account",
          "type": "address"
        },
        {
          "indexed": true,
          "internalType": "address",
          "name": "sender",
          "type": "address"
        }
      ],
      "name": "RoleGranted",
      "type": "event"
    },
    {
      "anonymous": false,
      "inputs": [
        {
          "indexed": true,
          "internalType": "bytes32",
          "name": "role",
          "type": "bytes32"
        },
        {
          "indexed": true,
          "internalType": "address",
          "name": "account",
          "type": "address"
        },
        {
          "indexed": true,
          "internalType": "address",
          "name": "sender",
          "type": "address"
        }
      ],
      "name": "RoleRevoked",
      "type": "event"
    },
    {
      "anonymous": false,
      "inputs": [
        {
          "indexed": false,
          "internalType": "bool",
          "name": "enabled",
          "type": "bool"
        }
      ],
      "name": "SendingEnabled",
      "type": "event"
    },
    {
      "anonymous": false,
      "inputs": [
        {
          "indexed": true,
          "internalType": "uint64",
          "name": "nonce",
          "type": "uint64"
        },
        {
          "indexed": true,
          "internalType": "bytes32",
          "name": "msgHash",
          "type": "bytes32"
        },
        {
          "indexed": false,
          "internalType": "bytes",
          "name": "message",
          "type": "bytes"
        }
      ],
      "name": "SentMessage",
      "type": "event"
    },
    {
      "anonymous": false,
      "inputs": [
        {
          "indexed": true,
          "internalType": "uint32",
          "name": "chainId",
          "type": "uint32"
        },
        {
          "indexed": false,
          "internalType": "address",
          "name": "lightClient",
          "type": "address"
        },
        {
          "indexed": false,
          "internalType": "address",
          "name": "broadcaster",
          "type": "address"
        }
      ],
      "name": "SetLightClientAndBroadcaster",
      "type": "event"
    },
    {
      "anonymous": false,
      "inputs": [
        {
          "indexed": true,
          "internalType": "uint32",
          "name": "chainId",
          "type": "uint32"
        }
      ],
      "name": "SourceChainAdded",
      "type": "event"
    },
    {
      "anonymous": false,
      "inputs": [
        {
          "indexed": true,
          "internalType": "uint32",
          "name": "chainId",
          "type": "uint32"
        }
      ],
      "name": "Unfreeze",
      "type": "event"
    },
    {
      "anonymous": false,
      "inputs": [],
      "name": "UnfreezeAll",
      "type": "event"
    },
    {
      "anonymous": false,
      "inputs": [
        {
          "indexed": true,
          "internalType": "address",
          "name": "implementation",
          "type": "address"
        }
      ],
      "name": "Upgraded",
      "type": "event"
    },
    {
      "inputs": [],
      "name": "DEFAULT_ADMIN_ROLE",
      "outputs": [
        {
          "internalType": "bytes32",
          "name": "",
          "type": "bytes32"
        }
      ],
      "stateMutability": "view",
      "type": "function"
    },
    {
      "inputs": [],
      "name": "GUARDIAN_ROLE",
      "outputs": [
        {
          "internalType": "bytes32",
          "name": "",
          "type": "bytes32"
        }
      ],
      "stateMutability": "view",
      "type": "function"
    },
    {
      "inputs": [],
      "name": "MIN_LIGHT_CLIENT_DELAY",
      "outputs": [
        {
          "internalType": "uint256",
          "name": "",
          "type": "uint256"
        }
      ],
      "stateMutability": "view",
      "type": "function"
    },
    {
      "inputs": [],
      "name": "TIMELOCK_ROLE",
      "outputs": [
        {
          "internalType": "bytes32",
          "name": "",
          "type": "bytes32"
        }
      ],
      "stateMutability": "view",
      "type": "function"
    },
    {
      "inputs": [],
      "name": "VERSION",
      "outputs": [
        {
          "internalType": "uint8",
          "name": "",
          "type": "uint8"
        }
      ],
      "stateMutability": "view",
      "type": "function"
    },
    {
      "inputs": [
        {
          "internalType": "uint32",
          "name": "",
          "type": "uint32"
        }
      ],
      "name": "broadcasters",
      "outputs": [
        {
          "internalType": "address",
          "name": "",
          "type": "address"
        }
      ],
      "stateMutability": "view",
      "type": "function"
    },
    {
      "inputs": [
        {
          "internalType": "uint64",
          "name": "slot",
          "type": "uint64"
        },
        {
          "internalType": "bytes",
          "name": "messageBytes",
          "type": "bytes"
        },
        {
          "internalType": "bytes[]",
          "name": "accountProof",
          "type": "bytes[]"
        },
        {
          "internalType": "bytes[]",
          "name": "storageProof",
          "type": "bytes[]"
        }
      ],
      "name": "executeMessage",
      "outputs": [],
      "stateMutability": "nonpayable",
      "type": "function"
    },
    {
      "inputs": [
        {
          "internalType": "bytes",
          "name": "srcSlotTxSlotPack",
          "type": "bytes"
        },
        {
          "internalType": "bytes",
          "name": "messageBytes",
          "type": "bytes"
        },
        {
          "internalType": "bytes32[]",
          "name": "receiptsRootProof",
          "type": "bytes32[]"
        },
        {
          "internalType": "bytes32",
          "name": "receiptsRoot",
          "type": "bytes32"
        },
        {
          "internalType": "bytes[]",
          "name": "receiptProof",
          "type": "bytes[]"
        },
        {
          "internalType": "bytes",
          "name": "txIndexRLPEncoded",
          "type": "bytes"
        },
        {
          "internalType": "uint256",
          "name": "logIndex",
          "type": "uint256"
        }
      ],
      "name": "executeMessageFromLog",
      "outputs": [],
      "stateMutability": "nonpayable",
      "type": "function"
    },
    {
      "inputs": [
        {
          "internalType": "uint32",
          "name": "chainId",
          "type": "uint32"
        }
      ],
      "name": "freeze",
      "outputs": [],
      "stateMutability": "nonpayable",
      "type": "function"
    },
    {
      "inputs": [],
      "name": "freezeAll",
      "outputs": [],
      "stateMutability": "nonpayable",
      "type": "function"
    },
    {
      "inputs": [
        {
          "internalType": "uint32",
          "name": "",
          "type": "uint32"
        }
      ],
      "name": "frozen",
      "outputs": [
        {
          "internalType": "bool",
          "name": "",
          "type": "bool"
        }
      ],
      "stateMutability": "view",
      "type": "function"
    },
    {
      "inputs": [
        {
          "internalType": "bytes32",
          "name": "role",
          "type": "bytes32"
        }
      ],
      "name": "getRoleAdmin",
      "outputs": [
        {
          "internalType": "bytes32",
          "name": "",
          "type": "bytes32"
        }
      ],
      "stateMutability": "view",
      "type": "function"
    },
    {
      "inputs": [
        {
          "internalType": "bytes32",
          "name": "role",
          "type": "bytes32"
        },
        {
          "internalType": "address",
          "name": "account",
          "type": "address"
        }
      ],
      "name": "grantRole",
      "outputs": [],
      "stateMutability": "nonpayable",
      "type": "function"
    },
    {
      "inputs": [
        {
          "internalType": "bytes32",
          "name": "role",
          "type": "bytes32"
        },
        {
          "internalType": "address",
          "name": "account",
          "type": "address"
        }
      ],
      "name": "hasRole",
      "outputs": [
        {
          "internalType": "bool",
          "name": "",
          "type": "bool"
        }
      ],
      "stateMutability": "view",
      "type": "function"
    },
    {
      "inputs": [
        {
          "internalType": "uint32[]",
          "name": "_sourceChainIds",
          "type": "uint32[]"
        },
        {
          "internalType": "address[]",
          "name": "_lightClients",
          "type": "address[]"
        },
        {
          "internalType": "address[]",
          "name": "_broadcasters",
          "type": "address[]"
        },
        {
          "internalType": "address",
          "name": "_timelock",
          "type": "address"
        },
        {
          "internalType": "address",
          "name": "_guardian",
          "type": "address"
        },
        {
          "internalType": "bool",
          "name": "_sendingEnabled",
          "type": "bool"
        }
      ],
      "name": "initialize",
      "outputs": [],
      "stateMutability": "nonpayable",
      "type": "function"
    },
    {
      "inputs": [
        {
          "internalType": "uint32",
          "name": "",
          "type": "uint32"
        }
      ],
      "name": "lightClients",
      "outputs": [
        {
          "internalType": "contract ILightClient",
          "name": "",
          "type": "address"
        }
      ],
      "stateMutability": "view",
      "type": "function"
    },
    {
      "inputs": [
        {
          "internalType": "bytes32",
          "name": "",
          "type": "bytes32"
        }
      ],
      "name": "messageStatus",
      "outputs": [
        {
          "internalType": "enum MessageStatus",
          "name": "",
          "type": "uint8"
        }
      ],
      "stateMutability": "view",
      "type": "function"
    },
    {
      "inputs": [
        {
          "internalType": "uint64",
          "name": "",
          "type": "uint64"
        }
      ],
      "name": "messages",
      "outputs": [
        {
          "internalType": "bytes32",
          "name": "",
          "type": "bytes32"
        }
      ],
      "stateMutability": "view",
      "type": "function"
    },
    {
      "inputs": [],
      "name": "nonce",
      "outputs": [
        {
          "internalType": "uint64",
          "name": "",
          "type": "uint64"
        }
      ],
      "stateMutability": "view",
      "type": "function"
    },
    {
      "inputs": [],
      "name": "proxiableUUID",
      "outputs": [
        {
          "internalType": "bytes32",
          "name": "",
          "type": "bytes32"
        }
      ],
      "stateMutability": "view",
      "type": "function"
    },
    {
      "inputs": [
        {
          "internalType": "bytes32",
          "name": "role",
          "type": "bytes32"
        },
        {
          "internalType": "address",
          "name": "account",
          "type": "address"
        }
      ],
      "name": "renounceRole",
      "outputs": [],
      "stateMutability": "nonpayable",
      "type": "function"
    },
    {
      "inputs": [
        {
          "internalType": "bytes32",
          "name": "role",
          "type": "bytes32"
        },
        {
          "internalType": "address",
          "name": "account",
          "type": "address"
        }
      ],
      "name": "revokeRole",
      "outputs": [],
      "stateMutability": "nonpayable",
      "type": "function"
    },
    {
      "inputs": [
        {
          "internalType": "uint32",
          "name": "destinationChainId",
          "type": "uint32"
        },
        {
          "internalType": "address",
          "name": "destinationAddress",
          "type": "address"
        },
        {
          "internalType": "bytes",
          "name": "data",
          "type": "bytes"
        }
      ],
      "name": "send",
      "outputs": [
        {
          "internalType": "bytes32",
          "name": "",
          "type": "bytes32"
        }
      ],
      "stateMutability": "nonpayable",
      "type": "function"
    },
    {
      "inputs": [
        {
          "internalType": "uint32",
          "name": "destinationChainId",
          "type": "uint32"
        },
        {
          "internalType": "bytes32",
          "name": "destinationAddress",
          "type": "bytes32"
        },
        {
          "internalType": "bytes",
          "name": "data",
          "type": "bytes"
        }
      ],
      "name": "send",
      "outputs": [
        {
          "internalType": "bytes32",
          "name": "",
          "type": "bytes32"
        }
      ],
      "stateMutability": "nonpayable",
      "type": "function"
    },
    {
      "inputs": [
        {
          "internalType": "uint32",
          "name": "destinationChainId",
          "type": "uint32"
        },
        {
          "internalType": "address",
          "name": "destinationAddress",
          "type": "address"
        },
        {
          "internalType": "bytes",
          "name": "data",
          "type": "bytes"
        }
      ],
      "name": "sendViaStorage",
      "outputs": [
        {
          "internalType": "bytes32",
          "name": "",
          "type": "bytes32"
        }
      ],
      "stateMutability": "nonpayable",
      "type": "function"
    },
    {
      "inputs": [
        {
          "internalType": "uint32",
          "name": "destinationChainId",
          "type": "uint32"
        },
        {
          "internalType": "bytes32",
          "name": "destinationAddress",
          "type": "bytes32"
        },
        {
          "internalType": "bytes",
          "name": "data",
          "type": "bytes"
        }
      ],
      "name": "sendViaStorage",
      "outputs": [
        {
          "internalType": "bytes32",
          "name": "",
          "type": "bytes32"
        }
      ],
      "stateMutability": "nonpayable",
      "type": "function"
    },
    {
      "inputs": [],
      "name": "sendingEnabled",
      "outputs": [
        {
          "internalType": "bool",
          "name": "",
          "type": "bool"
        }
      ],
      "stateMutability": "view",
      "type": "function"
    },
    {
      "inputs": [
        {
          "internalType": "uint32",
          "name": "chainId",
          "type": "uint32"
        },
        {
          "internalType": "address",
          "name": "lightclient",
          "type": "address"
        },
        {
          "internalType": "address",
          "name": "broadcaster",
          "type": "address"
        }
      ],
      "name": "setLightClientAndBroadcaster",
      "outputs": [],
      "stateMutability": "nonpayable",
      "type": "function"
    },
    {
      "inputs": [
        {
          "internalType": "bool",
          "name": "enabled",
          "type": "bool"
        }
      ],
      "name": "setSendingEnabled",
      "outputs": [],
      "stateMutability": "nonpayable",
      "type": "function"
    },
    {
      "inputs": [
        {
          "internalType": "uint256",
          "name": "",
          "type": "uint256"
        }
      ],
      "name": "sourceChainIds",
      "outputs": [
        {
          "internalType": "uint32",
          "name": "",
          "type": "uint32"
        }
      ],
      "stateMutability": "view",
      "type": "function"
    },
    {
      "inputs": [],
      "name": "sourceChainIdsLength",
      "outputs": [
        {
          "internalType": "uint256",
          "name": "",
          "type": "uint256"
        }
      ],
      "stateMutability": "view",
      "type": "function"
    },
    {
      "inputs": [
        {
          "internalType": "bytes32",
          "name": "",
          "type": "bytes32"
        }
      ],
      "name": "storageRootCache",
      "outputs": [
        {
          "internalType": "bytes32",
          "name": "",
          "type": "bytes32"
        }
      ],
      "stateMutability": "view",
      "type": "function"
    },
    {
      "inputs": [
        {
          "internalType": "bytes4",
          "name": "interfaceId",
          "type": "bytes4"
        }
      ],
      "name": "supportsInterface",
      "outputs": [
        {
          "internalType": "bool",
          "name": "",
          "type": "bool"
        }
      ],
      "stateMutability": "view",
      "type": "function"
    },
    {
      "inputs": [
        {
          "internalType": "uint32",
          "name": "chainId",
          "type": "uint32"
        }
      ],
      "name": "unfreeze",
      "outputs": [],
      "stateMutability": "nonpayable",
      "type": "function"
    },
    {
      "inputs": [],
      "name": "unfreezeAll",
      "outputs": [],
      "stateMutability": "nonpayable",
      "type": "function"
    },
    {
      "inputs": [
        {
          "internalType": "address",
          "name": "newImplementation",
          "type": "address"
        }
      ],
      "name": "upgradeTo",
      "outputs": [],
      "stateMutability": "nonpayable",
      "type": "function"
    },
    {
      "inputs": [
        {
          "internalType": "address",
          "name": "newImplementation",
          "type": "address"
        },
        {
          "internalType": "bytes",
          "name": "data",
          "type": "bytes"
        }
      ],
      "name": "upgradeToAndCall",
      "outputs": [],
      "stateMutability": "payable",
      "type": "function"
    },
    {
      "inputs": [],
      "name": "version",
      "outputs": [
        {
          "internalType": "uint8",
          "name": "",
          "type": "uint8"
        }
      ],
      "stateMutability": "view",
      "type": "function"
    }
  ],
  "bytecode": {
    "object": "0x60a0604052306080523480156200001557600080fd5b506200002062000026565b620000e8565b603254610100900460ff1615620000935760405162461bcd60e51b815260206004820152602760248201527f496e697469616c697a61626c653a20636f6e747261637420697320696e697469604482015266616c697a696e6760c81b606482015260840160405180910390fd5b60325460ff9081161015620000e6576032805460ff191660ff9081179091556040519081527f7f26b83ff96e1f2b6a682f133852f6798a09c465da95921460cefb38474024989060200160405180910390a15b565b608051615f3662000120600039600081816109f701528181610a3701528181610d9f01528181610ddf0152610e6e0152615f366000f3fe6080604052600436106102255760003560e01c806366c5c4a0116101235780639a2ed203116100ab578063d547741f1161006f578063d547741f146106fb578063e4407b151461071b578063ed762d4414610730578063f288a2e214610750578063ffa1ad741461077257600080fd5b80639a2ed203146106395780639efeff1c14610659578063a217fddf1461068e578063a96a2e92146106a3578063affed0e0146106c357600080fd5b80637acc6754116100f25780637acc6754146105975780638d080d1d146105b757806391cd8bfd146105e457806391d148541461060457806399464c891461062457600080fd5b806366c5c4a01461050c57806368346a92146105215780636fdbccbf146105415780637599735c1461056157600080fd5b806336ae7c18116101b15780634f1ef286116101755780634f1ef2861461044a57806352d1902d1461045d57806354fd4d501461047257806359f897871461049e5780635cb77819146104ec57600080fd5b806336ae7c181461038e57806337d5af84146103be5780633c6cf473146103de5780633e99e9ce1461041b5780634552f5631461043557600080fd5b8063248a9ca3116101f8578063248a9ca3146102dc57806324ea54f41461030c5780632f2ff15d1461032e57806336568abe1461034e5780633659cfe61461036e57600080fd5b806301ffc9a71461022a578063029d67131461025f578063147bce491461029a5780631f3d25a9146102ba575b600080fd5b34801561023657600080fd5b5061024a610245366004614f74565b610787565b60405190151581526020015b60405180910390f35b34801561026b57600080fd5b5061028c61027a366004614fad565b60016020526000908152604090205481565b604051908152602001610256565b3480156102a657600080fd5b5061028c6102b5366004615034565b6107be565b3480156102c657600080fd5b506102da6102d5366004615094565b6108cb565b005b3480156102e857600080fd5b5061028c6102f73660046150af565b600090815260c9602052604090206001015490565b34801561031857600080fd5b5061028c600080516020615ee183398151915281565b34801561033a57600080fd5b506102da6103493660046150c8565b610945565b34801561035a57600080fd5b506102da6103693660046150c8565b61096f565b34801561037a57600080fd5b506102da6103893660046150f4565b6109ed565b34801561039a57600080fd5b5061024a6103a9366004615094565b60066020526000908152604090205460ff1681565b3480156103ca57600080fd5b506102da6103d9366004615208565b610acc565b3480156103ea57600080fd5b5061040e6103f93660046150af565b60076020526000908152604090205460ff1681565b604051610256919061531b565b34801561042757600080fd5b5060005461024a9060ff1681565b34801561044157600080fd5b5060035461028c565b6102da610458366004615343565b610d95565b34801561046957600080fd5b5061028c610e61565b34801561047e57600080fd5b5060085461048c9060ff1681565b60405160ff9091168152602001610256565b3480156104aa57600080fd5b506104d46104b9366004615094565b6005602052600090815260409020546001600160a01b031681565b6040516001600160a01b039091168152602001610256565b3480156104f857600080fd5b506102da61050736600461543e565b610f14565b34801561051857600080fd5b506102da611217565b34801561052d57600080fd5b5061028c61053c366004615034565b6112fc565b34801561054d57600080fd5b5061028c61055c366004615552565b61137b565b34801561056d57600080fd5b506104d461057c366004615094565b6004602052600090815260409020546001600160a01b031681565b3480156105a357600080fd5b506102da6105b2366004615593565b6113d2565b3480156105c357600080fd5b5061028c6105d23660046150af565b60096020526000908152604090205481565b3480156105f057600080fd5b506102da6105ff36600461563d565b6116e7565b34801561061057600080fd5b5061024a61061f3660046150c8565b611898565b34801561063057600080fd5b506102da6118c3565b34801561064557600080fd5b506102da610654366004615094565b6119a8565b34801561066557600080fd5b506106796106743660046150af565b611a25565b60405163ffffffff9091168152602001610256565b34801561069a57600080fd5b5061028c600081565b3480156106af57600080fd5b5061028c6106be366004615552565b611a5f565b3480156106cf57600080fd5b506002546106e3906001600160401b031681565b6040516001600160401b039091168152602001610256565b34801561070757600080fd5b506102da6107163660046150c8565b611ab6565b34801561072757600080fd5b5061028c607881565b34801561073c57600080fd5b506102da61074b366004615680565b611adb565b34801561075c57600080fd5b5061028c600080516020615e5a83398151915281565b34801561077e57600080fd5b5061048c600181565b60006001600160e01b03198216637965db0b60e01b14806107b857506301ffc9a760e01b6001600160e01b03198316145b92915050565b6000805460ff166107ea5760405162461bcd60e51b81526004016107e19061569d565b60405180910390fd5b468563ffffffff160361080f5760405162461bcd60e51b81526004016107e1906156ca565b600080610828876001600160a01b0388165b8787611b56565b600280546001600160401b03908116600090815260016020526040812084905582549496509294508493169161085d83615717565b91906101000a8154816001600160401b0302191690836001600160401b031602179055506001600160401b03167fe5944a34d67c652e0ebf2304b48432aae0b55e40f79ba8a21a4d7054c169ffac846040516108b9919061578d565b60405180910390a39695505050505050565b6108e3600080516020615ee183398151915233611898565b6108ff5760405162461bcd60e51b81526004016107e1906157a0565b63ffffffff8116600081815260066020526040808220805460ff19169055517f9fd67bd682613b07687b42f99d8b24402d09feabb75df93abdb26b8fcf9845839190a250565b600082815260c9602052604090206001015461096081611bcd565b61096a8383611bd7565b505050565b6001600160a01b03811633146109df5760405162461bcd60e51b815260206004820152602f60248201527f416363657373436f6e74726f6c3a2063616e206f6e6c792072656e6f756e636560448201526e103937b632b9903337b91039b2b63360891b60648201526084016107e1565b6109e98282611c5d565b5050565b6001600160a01b037f0000000000000000000000000000000000000000000000000000000000000000163003610a355760405162461bcd60e51b81526004016107e1906157f5565b7f00000000000000000000000000000000000000000000000000000000000000006001600160a01b0316610a7e600080516020615e9a833981519152546001600160a01b031690565b6001600160a01b031614610aa45760405162461bcd60e51b81526004016107e190615841565b610aad81611cc4565b60408051600080825260208201909252610ac991839190611cf8565b50565b610ad4611e63565b600080610ae18b8b611ebc565b91509150610af28260400151612126565b610aff8260400151612255565b6000808e8e810190610b11919061588d565b91509150610b238285604001516122b1565b60408481015163ffffffff166000908152600460208190528282205492516356f90d7960e01b81526001600160401b0386169181019190915290916001600160a01b0316906356f90d7990602401602060405180830381865afa158015610b8e573d6000803e3d6000fd5b505050506040513d601f19601f82011682018060405250810190610bb291906158b7565b905080610bf95760405162461bcd60e51b8152602060048201526015602482015274486561646572526f6f74206973206d697373696e6760581b60448201526064016107e1565b6000610c3d8b8e8e808060200260200160405190810160405280939291908181526020018383602002808284376000920191909152508792508991508890506124e5565b905080610c8c5760405162461bcd60e51b815260206004820152601b60248201527f496e76616c696420726563656970747320726f6f742070726f6f66000000000060448201526064016107e1565b505050506000610cf1878790610ca291906158d0565b60408086015163ffffffff166000908152600560205220548a90889088906001600160a01b03167fe5944a34d67c652e0ebf2304b48432aae0b55e40f79ba8a21a4d7054c169ffac600261268d565b9050818114610d3a5760405162461bcd60e51b815260206004820152601560248201527424b73b30b634b21036b2b9b9b0b3b2903430b9b41760591b60448201526064016107e1565b50610d7c82828d8d8080601f016020809104026020016040519081016040528093929190818152602001838380828437600092019190915250612a4092505050565b5050610d886001603355565b5050505050505050505050565b6001600160a01b037f0000000000000000000000000000000000000000000000000000000000000000163003610ddd5760405162461bcd60e51b81526004016107e1906157f5565b7f00000000000000000000000000000000000000000000000000000000000000006001600160a01b0316610e26600080516020615e9a833981519152546001600160a01b031690565b6001600160a01b031614610e4c5760405162461bcd60e51b81526004016107e190615841565b610e5582611cc4565b6109e982826001611cf8565b6000306001600160a01b037f00000000000000000000000000000000000000000000000000000000000000001614610f015760405162461bcd60e51b815260206004820152603860248201527f555550535570677261646561626c653a206d757374206e6f742062652063616c60448201527f6c6564207468726f7567682064656c656761746563616c6c000000000000000060648201526084016107e1565b50600080516020615e9a83398151915290565b603254610100900460ff1615808015610f345750603254600160ff909116105b80610f4e5750303b158015610f4e575060325460ff166001145b610fb15760405162461bcd60e51b815260206004820152602e60248201527f496e697469616c697a61626c653a20636f6e747261637420697320616c72656160448201526d191e481a5b9a5d1a585b1a5e995960921b60648201526084016107e1565b6032805460ff191660011790558015610fd4576032805461ff0019166101001790555b610fdc612bee565b610fe4612c1f565b610ffc600080516020615ee183398151915284611bd7565b611014600080516020615e5a83398151915285611bd7565b61101f600085611bd7565b611027612c1f565b855187511461103557600080fd5b845187511461104357600080fd5b86516110569060039060208a0190614e9a565b5060005b60035463ffffffff821610156111aa57868163ffffffff168151811061108257611082615937565b60200260200101516004600060038463ffffffff16815481106110a7576110a7615937565b90600052602060002090600891828204019190066004029054906101000a900463ffffffff1663ffffffff1663ffffffff16815260200190815260200160002060006101000a8154816001600160a01b0302191690836001600160a01b03160217905550858163ffffffff168151811061112357611123615937565b60200260200101516005600060038463ffffffff168154811061114857611148615937565b6000918252602080832060088304015460079092166004026101000a90910463ffffffff168352820192909252604001902080546001600160a01b0319166001600160a01b0392909216919091179055806111a28161594d565b91505061105a565b506000805483151560ff1991821617909155600880549091166001179055801561120e576032805461ff0019169055604051600181527f7f26b83ff96e1f2b6a682f133852f6798a09c465da95921460cefb38474024989060200160405180910390a15b50505050505050565b61122f600080516020615ee183398151915233611898565b61124b5760405162461bcd60e51b81526004016107e1906157a0565b60005b60035463ffffffff821610156112d05760006006600060038463ffffffff168154811061127d5761127d615937565b6000918252602080832060088304015460079092166004026101000a90910463ffffffff1683528201929092526040019020805460ff1916911515919091179055806112c88161594d565b91505061124e565b506040517fe6fdbf73945dd61794a752b9181ea29f77170a7b1ffd37e0a7ff9d2c6f7258b990600090a1565b6000805460ff1661131f5760405162461bcd60e51b81526004016107e19061569d565b468563ffffffff16036113445760405162461bcd60e51b81526004016107e1906156ca565b60008061135a876001600160a01b038816610821565b6002805492945090925082916001600160401b031690600061085d83615717565b6000805460ff1661139e5760405162461bcd60e51b81526004016107e19061569d565b468563ffffffff16036113c35760405162461bcd60e51b81526004016107e1906156ca565b60008061082887878787611b56565b6113da611e63565b6000806113e78888611ebc565b915091506113f88260400151612126565b6114058260400151612255565b6114138983604001516122b1565b60408281015163ffffffff811660009081526005602090815283822054845160e09490941b6001600160e01b0319168483015260c08e901b6001600160c01b031916602485015260601b6001600160601b031916602c840152835180840382018152928401845282519281019290922080825260099092529182205482036115c55760408085015163ffffffff16600090815260046020819052828220549251637623ee2960e01b81526001600160401b038f169181019190915290916001600160a01b031690637623ee2990602401602060405180830381865afa158015611500573d6000803e3d6000fd5b505050506040513d601f19601f8201168201806040525081019061152491906158b7565b905060008190036115775760405162461bcd60e51b815260206004820152601f60248201527f457865637574696f6e20537461746520526f6f74206973206e6f74207365740060448201526064016107e1565b6115ab611584898b6158d0565b60408088015163ffffffff166000908152600560205220546001600160a01b031683612c46565b600083815260096020526040902081905592506115d79050565b60008181526009602052604090205491505b6000846020015160016040516020016116059291906001600160401b03929092168252602082015260400190565b60408051808303601f1901815282825280516020918201208184015281518084038201815292820190915281519101209050600061164d82856116488a8c6158d0565b612d3d565b90508481146116965760405162461bcd60e51b815260206004820152601560248201527424b73b30b634b21036b2b9b9b0b3b2903430b9b41760591b60448201526064016107e1565b505050506116db82828a8a8080601f016020809104026020016040519081016040528093929190818152602001838380828437600092019190915250612a4092505050565b505061120e6001603355565b6116ff600080516020615e5a83398151915233611898565b61171b5760405162461bcd60e51b81526004016107e190615966565b6000805b600354811015611787578463ffffffff166003828154811061174357611743615937565b6000918252602090912060088204015460079091166004026101000a900463ffffffff16036117755760019150611787565b8061177f816159bb565b91505061171f565b508061181057600380546001810182556000918252600881047fc2575a0e9e593c00f959f8c92f12db2869c3395a3b0502d05e2516446f71f85b01805463ffffffff80891660046007909516949094026101000a84810291021990911617905560405190917f65a791dc0a39717013964ace2b78f8307f275c293b7fdb425346ce8e18cb318891a25b63ffffffff8416600081815260046020908152604080832080546001600160a01b038981166001600160a01b031992831681179093556005855294839020805495891695909116851790558151908152918201929092527f0205eaadbbed4fbe918b2a594d41bceb212a89010cc678c6762b18d65679b2ef910160405180910390a250505050565b600091825260c9602090815260408084206001600160a01b0393909316845291905290205460ff1690565b6118db600080516020615ee183398151915233611898565b6118f75760405162461bcd60e51b81526004016107e1906157a0565b60005b60035463ffffffff8216101561197c5760016006600060038463ffffffff168154811061192957611929615937565b6000918252602080832060088304015460079092166004026101000a90910463ffffffff1683528201929092526040019020805460ff1916911515919091179055806119748161594d565b9150506118fa565b506040517f61340a1b154d5d21d259a74bf95379201799b9d12cc6509bb46cb56dc281df5590600090a1565b6119c0600080516020615ee183398151915233611898565b6119dc5760405162461bcd60e51b81526004016107e1906157a0565b63ffffffff8116600081815260066020526040808220805460ff19166001179055517ff6cf9095f1dcea2429c26c832cbcc084fa0a1692b2c301601edd75b9d83520b29190a250565b60038181548110611a3557600080fd5b9060005260206000209060089182820401919006600402915054906101000a900463ffffffff1681565b6000805460ff16611a825760405162461bcd60e51b81526004016107e19061569d565b468563ffffffff1603611aa75760405162461bcd60e51b81526004016107e1906156ca565b60008061135a87878787611b56565b600082815260c96020526040902060010154611ad181611bcd565b61096a8383611c5d565b611af3600080516020615ee183398151915233611898565b611b0f5760405162461bcd60e51b81526004016107e1906157a0565b6000805460ff19168215159081179091556040519081527f3eea1dc6ce990571e1081137b38c853529a3893b52e9719a48a2f4ac5e3a956c9060200160405180910390a150565b600854600254604080516020601f8601819004810282018101909252848152606093600093611bb99360ff909216926001600160401b0390911691469133918c918c918c908c9081908401838280828437600092019190915250612dd992505050565b805160208201209097909650945050505050565b610ac98133612e14565b611be18282611898565b6109e957600082815260c9602090815260408083206001600160a01b03851684529091529020805460ff19166001179055611c193390565b6001600160a01b0316816001600160a01b0316837f2f8788117e7eff1d82e926ec794901d17c78024a50270940304540a733656f0d60405160405180910390a45050565b611c678282611898565b156109e957600082815260c9602090815260408083206001600160a01b0385168085529252808320805460ff1916905551339285917ff6391f5c32d9c69d2a47ea670b442974b53935d1edc7fd64eb21e047a839171b9190a45050565b611cdc600080516020615e5a83398151915233611898565b610ac95760405162461bcd60e51b81526004016107e190615966565b7f4910fdfa16fed3260ed0e7147f7cc6da11a60208b5b9406d12a635614ffd91435460ff1615611d2b5761096a83612e6d565b826001600160a01b03166352d1902d6040518163ffffffff1660e01b8152600401602060405180830381865afa925050508015611d85575060408051601f3d908101601f19168201909252611d82918101906158b7565b60015b611de85760405162461bcd60e51b815260206004820152602e60248201527f45524331393637557067726164653a206e657720696d706c656d656e7461746960448201526d6f6e206973206e6f74205555505360901b60648201526084016107e1565b600080516020615e9a8339815191528114611e575760405162461bcd60e51b815260206004820152602960248201527f45524331393637557067726164653a20756e737570706f727465642070726f786044820152681a58589b195555525160ba1b60648201526084016107e1565b5061096a838383612f09565b600260335403611eb55760405162461bcd60e51b815260206004820152601f60248201527f5265656e7472616e637947756172643a207265656e7472616e742063616c6c0060448201526064016107e1565b6002603355565b6040805160e08101825260008082526020820181905291810182905260608082018390526080820183905260a082019290925260c0810191909152600080611f3985858080601f016020809104026020016040519081016040528093929190818152602001838380828437600092019190915250612f3492505050565b905060008585604051611f4d9291906159d4565b60405190819003902090506000808281526007602052604090205460ff166002811115611f7c57611f7c615305565b14611fc95760405162461bcd60e51b815260206004820152601960248201527f4d65737361676520616c72656164792065786563757465642e0000000000000060448201526064016107e1565b46826080015163ffffffff16146120115760405162461bcd60e51b815260206004820152600c60248201526b2bb937b7339031b430b4b71760a11b60448201526064016107e1565b600854825160ff90811691161461205b5760405162461bcd60e51b815260206004820152600e60248201526d2bb937b733903b32b939b4b7b71760911b60448201526064016107e1565b60408083015163ffffffff166000908152600460205220546001600160a01b031615806120a6575060408083015163ffffffff166000908152600560205220546001600160a01b0316155b156121195760405162461bcd60e51b815260206004820152603760248201527f4c6967687420636c69656e74206f722062726f616463617374657220666f722060448201527f736f7572636520636861696e206973206e6f742073657400000000000000000060648201526084016107e1565b90925090505b9250929050565b63ffffffff81166000908152600460205260409020546001600160a01b031661218c5760405162461bcd60e51b81526020600482015260186024820152772634b3b43a1031b634b2b73a1034b9903737ba1039b2ba1760411b60448201526064016107e1565b63ffffffff8116600090815260046020818152604092839020548351632bcccca560e01b815293516001600160a01b0390911693632bcccca5938181019392918290030181865afa1580156121e5573d6000803e3d6000fd5b505050506040513d601f19601f8201168201806040525081019061220991906159e4565b610ac95760405162461bcd60e51b815260206004820152601d60248201527f4c6967687420636c69656e7420697320696e636f6e73697374656e742e00000060448201526064016107e1565b63ffffffff811660009081526006602052604090205460ff1615610ac95760405162461bcd60e51b815260206004820152601360248201527221b7b73a3930b1ba1034b990333937bd32b71760691b60448201526064016107e1565b63ffffffff81166000908152600460205260409020546001600160a01b03166123175760405162461bcd60e51b81526020600482015260186024820152772634b3b43a1031b634b2b73a1034b9903737ba1039b2ba1760411b60448201526064016107e1565b63ffffffff8116600090815260046020819052604091829020549151638bc33af360e01b81526001600160401b038516918101919091526001600160a01b0390911690638bc33af390602401602060405180830381865afa158015612380573d6000803e3d6000fd5b505050506040513d601f19601f820116820180604052508101906123a491906158b7565b6000036123f35760405162461bcd60e51b815260206004820152601e60248201527f54696d657374616d70206973206e6f742073657420666f7220736c6f742e000060448201526064016107e1565b63ffffffff81166000908152600460208190526040808320549051638bc33af360e01b81526001600160401b038616928101929092526001600160a01b031690638bc33af390602401602060405180830381865afa158015612459573d6000803e3d6000fd5b505050506040513d601f19601f8201168201806040525081019061247d91906158b7565b6124879042615a01565b9050607881101561096a5760405162461bcd60e51b815260206004820152602260248201527f4d7573742077616974206c6f6e67657220746f20757365207468697320736c6f6044820152613a1760f11b60648201526084016107e1565b600080826001600160401b0316846001600160401b0316036125235750600b61251081610200615a14565b61251c90610183615a33565b9050612676565b6120006125308486615a46565b6001600160401b0316116125925750600b61254c816020615a14565b612557906006615a33565b905061256e6120006001600160401b038516615a83565b61257a61200083615a14565b6125849190615a33565b905061251081610200615a14565b836001600160401b0316836001600160401b031610156126245750600b6125ba816020615a14565b6125c5906007615a33565b90506125d2816002615a14565b6125dd906000615a33565b90506125f46120006001600160401b038516615a97565b612602630100000083615a14565b61260c9190615a33565b9050612619816002615a14565b612557906001615a33565b60405162461bcd60e51b815260206004820152602160248201527f54727573746c657373414d423a20696e76616c69642074617267657420736c6f6044820152601d60fa1b60648201526084016107e1565b61268287828888612ff9565b979650505050505050565b60008061269b878a8a613013565b90506000816000815181106126b2576126b2615937565b01602001516001600160f81b03191690506000600160f81b8214806126e45750600160f91b6001600160f81b03198316145b156126f157506001612756565b600360fe1b6001600160f81b031983161061270e57506000612756565b60405162461bcd60e51b815260206004820152601c60248201527f556e737570706f72746564207472616e73616374696f6e20747970650000000060448201526064016107e1565b6000602084019050600060405180604001604052808487516127789190615a01565b81526020016127878585615a33565b905290506000612796826138b3565b905080516004146127e25760405162461bcd60e51b8152602060048201526016602482015275092dcecc2d8d2c840e4cac6cad2e0e840d8cadccee8d60531b60448201526064016107e1565b6000612807826003815181106127fa576127fa615937565b60200260200101516138b3565b905080518c106128595760405162461bcd60e51b815260206004820152601760248201527f4c6f6720696e646578206f7574206f6620626f756e647300000000000000000060448201526064016107e1565b6000612870828e815181106127fa576127fa615937565b905080516003146128ce5760405162461bcd60e51b815260206004820152602260248201527f4c6f672068617320696e636f7272656374206e756d626572206f66206669656c604482015261647360f01b60648201526084016107e1565b60006128f3826000815181106128e6576128e6615937565b6020026020010151613ad8565b90508c6001600160a01b0316816001600160a01b0316146129665760405162461bcd60e51b815260206004820152602760248201527f4576656e7420776173206e6f7420656d697474656420627920636c61696d656460448201526622b6b4ba3a32b960c91b60648201526084016107e1565b600061297e836001815181106127fa576127fa615937565b90508c6129a48260008151811061299757612997615937565b6020026020010151613b42565b14612a075760405162461bcd60e51b815260206004820152602d60248201527f4576656e74207369676e617475726520646f6573206e6f74206d61746368206560448201526c76656e745369676e617475726560981b60648201526084016107e1565b612a29818d81518110612a1c57612a1c615937565b6020026020010151613b49565b9a5050505050505050505050979650505050505050565b600060606000633bdc60d660e01b866040015187606001518860c00151604051602401612a6f93929190615aab565b60408051601f198184030181529190526020810180516001600160e01b03166001600160e01b03199093169290921790915260a0870151909150806001600160a01b031682604051612ac19190615adb565b6000604051808303816000865af19150503d8060008114612afe576040519150601f19603f3d011682016040523d82523d6000602084013e612b03565b606091505b5080519195509350600092506020039050612b4557600082806020019051810190612b2e9190615af7565b6001600160e01b031916631dee306b60e11b149150505b828015612b4f5750805b15612b72576000858152600760205260409020805460ff19166002179055612b8c565b6000858152600760205260409020805460ff191660011790555b8486602001516001600160401b0316876040015163ffffffff167f1f26985f3389d5ee1e49b37cdef193b3e98c927d7dd8b6a1f9cddd17a1fe89478787604051612bd7929190615b14565b60405180910390a4505050505050565b6001603355565b603254610100900460ff16612c155760405162461bcd60e51b81526004016107e190615b38565b612c1d613c4c565b565b603254610100900460ff16612c1d5760405162461bcd60e51b81526004016107e190615b38565b6040516001600160601b0319606084901b16602082015260009081906034016040516020818303038152906040528051906020012090506000612cab82604051602001612c9591815260200190565b6040516020818303038152906040528786613013565b90506000815111612cf75760405162461bcd60e51b81526020600482015260166024820152751058d8dbdd5b9d08191bd95cc81b9bdd08195e1a5cdd60521b60448201526064016107e1565b6000612d0a612d0583613c73565b6138b3565b90508051600414612d1a57600080fd5b612d308160028151811061299757612997615937565b93505050505b9392505050565b600080612d6c85604051602001612d5691815260200190565b6040516020818303038152906040528486613013565b90506000815111612dbf5760405162461bcd60e51b815260206004820152601c60248201527f53746f726167652076616c756520646f6573206e6f742065786973740000000060448201526064016107e1565b612dd0612dcb82613c73565b613b42565b95945050505050565b606087878787878787604051602001612df89796959493929190615b83565b6040516020818303038152906040529050979650505050505050565b612e1e8282611898565b6109e957612e2b81613cc6565b612e36836020613cd8565b604051602001612e47929190615c0a565b60408051601f198184030181529082905262461bcd60e51b82526107e19160040161578d565b6001600160a01b0381163b612eda5760405162461bcd60e51b815260206004820152602d60248201527f455243313936373a206e657720696d706c656d656e746174696f6e206973206e60448201526c1bdd08184818dbdb9d1c9858dd609a1b60648201526084016107e1565b600080516020615e9a83398151915280546001600160a01b0319166001600160a01b0392909216919091179055565b612f1283613e73565b600082511180612f1f5750805b1561096a57612f2e8383613eb3565b50505050565b6040805160e08101825260008082526020820181905291810182905260608082018390526080820183905260a082019290925260c081019190915260018201516009830151600d8401516021850151602586015160458088015160ff871688526001600160401b038616602089015263ffffffff80861660408a01526001600160a01b03851660608a01528316608089015260a0880181905288519091612fe8918a9190612fe3908290615a01565b613f9e565b60c088015250949695505050505050565b60008061300786868661408a565b90921495945050505050565b6060600084511161305e5760405162461bcd60e51b81526020600482015260156024820152744d65726b6c65547269653a20656d707479206b657960581b60448201526064016107e1565b600061306984614219565b9050600061307686614307565b905060008460405160200161308d91815260200190565b60405160208183030381529060405290506000805b845181101561385c5760008582815181106130bf576130bf615937565b6020026020010151905084518311156131315760405162461bcd60e51b815260206004820152602e60248201527f4d65726b6c65547269653a206b657920696e646578206578636565647320746f60448201526d0e8c2d840d6caf240d8cadccee8d60931b60648201526084016107e1565b826000036131d0578051805160209182012060405161317f9261315992910190815260200190565b604051602081830303815290604052858051602091820120825192909101919091201490565b6131cb5760405162461bcd60e51b815260206004820152601d60248201527f4d65726b6c65547269653a20696e76616c696420726f6f74206861736800000060448201526064016107e1565b6132c6565b80515160201161325657805180516020918201206040516131fa9261315992910190815260200190565b6131cb5760405162461bcd60e51b815260206004820152602760248201527f4d65726b6c65547269653a20696e76616c6964206c6172676520696e7465726e6044820152660c2d840d0c2e6d60cb1b60648201526084016107e1565b8051845160208087019190912082519190920120146132c65760405162461bcd60e51b815260206004820152602660248201527f4d65726b6c65547269653a20696e76616c696420696e7465726e616c206e6f646044820152650ca40d0c2e6d60d31b60648201526084016107e1565b6132d260106001615a33565b8160200151510361347f578451830361341757600061330e826020015160108151811061330157613301615937565b6020026020010151614421565b905060008151116133875760405162461bcd60e51b815260206004820152603b60248201527f4d65726b6c65547269653a2076616c7565206c656e677468206d75737420626560448201527f2067726561746572207468616e207a65726f20286272616e636829000000000060648201526084016107e1565b600187516133959190615a01565b83146134095760405162461bcd60e51b815260206004820152603a60248201527f4d65726b6c65547269653a2076616c7565206e6f6465206d757374206265206c60448201527f617374206e6f646520696e2070726f6f6620286272616e63682900000000000060648201526084016107e1565b9650612d3695505050505050565b600085848151811061342b5761342b615937565b602001015160f81c60f81b60f81c9050600082602001518260ff168151811061345657613456615937565b6020026020010151905061346981614544565b9550613476600186615a33565b94505050613849565b6002816020015151036137f057600061349782614569565b90506000816000815181106134ae576134ae615937565b016020015160f81c905060006134c5600283615c7f565b6134d0906002615ca1565b905060006134e1848360ff1661458d565b905060006134ef8a8961458d565b905060006134fd83836145c3565b9050808351146135755760405162461bcd60e51b815260206004820152603a60248201527f4d65726b6c65547269653a20706174682072656d61696e646572206d7573742060448201527f736861726520616c6c206e6962626c65732077697468206b657900000000000060648201526084016107e1565b60ff85166002148061358a575060ff85166003145b1561373057808251146136055760405162461bcd60e51b815260206004820152603d60248201527f4d65726b6c65547269653a206b65792072656d61696e646572206d757374206260448201527f65206964656e746963616c20746f20706174682072656d61696e64657200000060648201526084016107e1565b6000613621886020015160018151811061330157613301615937565b9050600081511161369a5760405162461bcd60e51b815260206004820152603960248201527f4d65726b6c65547269653a2076616c7565206c656e677468206d75737420626560448201527f2067726561746572207468616e207a65726f20286c656166290000000000000060648201526084016107e1565b60018d516136a89190615a01565b891461371c5760405162461bcd60e51b815260206004820152603860248201527f4d65726b6c65547269653a2076616c7565206e6f6465206d757374206265206c60448201527f617374206e6f646520696e2070726f6f6620286c65616629000000000000000060648201526084016107e1565b9c50612d369b505050505050505050505050565b60ff85161580613743575060ff85166001145b156137825761376f876020015160018151811061376257613762615937565b6020026020010151614544565b995061377b818a615a33565b98506137e5565b60405162461bcd60e51b815260206004820152603260248201527f4d65726b6c65547269653a2072656365697665642061206e6f64652077697468604482015271040c2dc40eadcd6dcdeeedc40e0e4caccd2f60731b60648201526084016107e1565b505050505050613849565b60405162461bcd60e51b815260206004820152602860248201527f4d65726b6c65547269653a20726563656976656420616e20756e706172736561604482015267626c65206e6f646560c01b60648201526084016107e1565b5080613854816159bb565b9150506130a2565b5060405162461bcd60e51b815260206004820152602560248201527f4d65726b6c65547269653a2072616e206f7574206f662070726f6f6620656c656044820152646d656e747360d81b60648201526084016107e1565b606060008060006138c385614642565b9194509250905060018160018111156138de576138de615305565b146139515760405162461bcd60e51b815260206004820152603860248201527f524c505265616465723a206465636f646564206974656d207479706520666f7260448201527f206c697374206973206e6f742061206c697374206974656d000000000000000060648201526084016107e1565b845161395d8385615a33565b146139c55760405162461bcd60e51b815260206004820152603260248201527f524c505265616465723a206c697374206974656d2068617320616e20696e76616044820152713634b2103230ba30903932b6b0b4b73232b960711b60648201526084016107e1565b6040805160208082526104208201909252600091816020015b60408051808201909152600080825260208201528152602001906001900390816139de5790505090506000845b8751811015613acc57600080613a516040518060400160405280858d60000151613a359190615a01565b8152602001858d60200151613a4a9190615a33565b9052614642565b509150915060405180604001604052808383613a6d9190615a33565b8152602001848c60200151613a829190615a33565b815250858581518110613a9757613a97615937565b6020908102919091010152613aad600185615a33565b9350613ab98183615a33565b613ac39084615a33565b92505050613a0b565b50815295945050505050565b8051600090600103613aec57506000919050565b8151601514613b3d5760405162461bcd60e51b815260206004820152601a60248201527f496e76616c696420524c5020616464726573732076616c75652e00000000000060448201526064016107e1565b6107b8825b60006107b8825b6000602182600001511115613ba05760405162461bcd60e51b815260206004820152601a60248201527f496e76616c696420524c5020627974657333322076616c75652e00000000000060448201526064016107e1565b6000806000613bae85614642565b919450925090506000816001811115613bc957613bc9615305565b14613c165760405162461bcd60e51b815260206004820152601a60248201527f496e76616c696420524c5020627974657333322076616c75652e00000000000060448201526064016107e1565b6000838660200151613c289190615a33565b80519091506020841015613c425760208490036101000a90045b9695505050505050565b603254610100900460ff16612be75760405162461bcd60e51b81526004016107e190615b38565b60408051808201909152600080825260208201526000825111613ca85760405162461bcd60e51b81526004016107e190615cba565b50604080518082019091528151815260209182019181019190915290565b60606107b86001600160a01b03831660145b60606000613ce7836002615a14565b613cf2906002615a33565b6001600160401b03811115613d0957613d09615153565b6040519080825280601f01601f191660200182016040528015613d33576020820181803683370190505b509050600360fc1b81600081518110613d4e57613d4e615937565b60200101906001600160f81b031916908160001a905350600f60fb1b81600181518110613d7d57613d7d615937565b60200101906001600160f81b031916908160001a9053506000613da1846002615a14565b613dac906001615a33565b90505b6001811115613e24576f181899199a1a9b1b9c1cb0b131b232b360811b85600f1660108110613de057613de0615937565b1a60f81b828281518110613df657613df6615937565b60200101906001600160f81b031916908160001a90535060049490941c93613e1d81615d2a565b9050613daf565b508315612d365760405162461bcd60e51b815260206004820181905260248201527f537472696e67733a20686578206c656e67746820696e73756666696369656e7460448201526064016107e1565b613e7c81612e6d565b6040516001600160a01b038216907fbc7cd75a20ee27fd9adebab32041f755214dbc6bffa90cc0225b39da2e5c2d3b90600090a250565b60606001600160a01b0383163b613f1b5760405162461bcd60e51b815260206004820152602660248201527f416464726573733a2064656c65676174652063616c6c20746f206e6f6e2d636f6044820152651b9d1c9858dd60d21b60648201526084016107e1565b600080846001600160a01b031684604051613f369190615adb565b600060405180830381855af49150503d8060008114613f71576040519150601f19603f3d011682016040523d82523d6000602084013e613f76565b606091505b5091509150612dd08282604051806060016040528060278152602001615eba60279139614d05565b606081613fac81601f615a33565b1015613fca5760405162461bcd60e51b81526004016107e190615d41565b613fd48284615a33565b845110156140185760405162461bcd60e51b8152602060048201526011602482015270736c6963655f6f75744f66426f756e647360781b60448201526064016107e1565b6060821580156140375760405191506000825260208201604052614081565b6040519150601f8416801560200281840101858101878315602002848b0101015b81831015614070578051835260209283019201614058565b5050858452601f01601f1916604052505b50949350505050565b6000828251600161409b9190615a33565b6140a6906002615e4d565b116140b057600080fd5b8360005b84600114614081576140c7600286615a83565b6001036141665760028482815181106140e2576140e2615937565b602002602001015183604051602001614105929190918252602082015260400190565b60408051601f198184030181529082905261411f91615adb565b602060405180830381855afa15801561413c573d6000803e3d6000fd5b5050506040513d601f19601f8201168201806040525081019061415f91906158b7565b91506141fa565b60028285838151811061417b5761417b615937565b602002602001015160405160200161419d929190918252602082015260400190565b60408051601f19818403018152908290526141b791615adb565b602060405180830381855afa1580156141d4573d6000803e3d6000fd5b5050506040513d601f19601f820116820180604052508101906141f791906158b7565b91505b614205600286615a97565b945080614211816159bb565b9150506140b4565b80516060906000816001600160401b0381111561423857614238615153565b60405190808252806020026020018201604052801561427d57816020015b60408051808201909152606080825260208201528152602001906001900390816142565790505b50905060005b828110156142ff5760405180604001604052808683815181106142a8576142a8615937565b602002602001015181526020016142d78784815181106142ca576142ca615937565b6020026020010151614d1e565b8152508282815181106142ec576142ec615937565b6020908102919091010152600101614283565b509392505050565b80516060906000614319826002615a14565b6001600160401b0381111561433057614330615153565b6040519080825280601f01601f19166020018201604052801561435a576020820181803683370190505b5090506000805b838110156144175785818151811061437b5761437b615937565b6020910101516001600160f81b03198116925060041c60ff60f41b16836143a3836002615a14565b815181106143b3576143b3615937565b60200101906001600160f81b031916908160001a905350600f60f81b8216836143dd836002615a14565b6143e8906001615a33565b815181106143f8576143f8615937565b60200101906001600160f81b031916908160001a905350600101614361565b5090949350505050565b6060600080600061443185614642565b91945092509050600081600181111561444c5761444c615305565b146144bf5760405162461bcd60e51b815260206004820152603960248201527f524c505265616465723a206465636f646564206974656d207479706520666f7260448201527f206279746573206973206e6f7420612064617461206974656d0000000000000060648201526084016107e1565b6144c98284615a33565b8551146145355760405162461bcd60e51b815260206004820152603460248201527f524c505265616465723a2062797465732076616c756520636f6e7461696e732060448201527330b71034b73b30b634b2103932b6b0b4b73232b960611b60648201526084016107e1565b612dd085602001518484614d2c565b606060208260000151106145605761455b82614421565b6107b8565b6107b882614dcc565b60606107b8614588836020015160008151811061330157613301615937565b614307565b6060825182106145ac57506040805160208101909152600081526107b8565b612d3683838486516145be9190615a01565b614de2565b600080600083518551106145d85783516145db565b84515b90505b808210801561463257508382815181106145fa576145fa615937565b602001015160f81c60f81b6001600160f81b03191685838151811061462157614621615937565b01602001516001600160f81b031916145b156142ff578160010191506145de565b60008060008084600001511161466a5760405162461bcd60e51b81526004016107e190615cba565b6020840151805160001a607f811161468f576000600160009450945094505050614cfe565b60b781116147ec5760006146a4608083615a01565b9050808760000151116147245760405162461bcd60e51b815260206004820152604e6024820152600080516020615e7a83398151915260448201527f742062652067726561746572207468616e20737472696e67206c656e6774682060648201526d2873686f727420737472696e672960901b608482015260a4016107e1565b6001838101516001600160f81b03191690821415806147515750600160ff1b6001600160f81b0319821610155b6147d95760405162461bcd60e51b815260206004820152604d60248201527f524c505265616465723a20696e76616c6964207072656669782c2073696e676c60448201527f652062797465203c203078383020617265206e6f74207072656669786564202860648201526c73686f727420737472696e672960981b608482015260a4016107e1565b5060019550935060009250614cfe915050565b60bf8111614a2d57600061480160b783615a01565b9050808760000151116148845760405162461bcd60e51b81526020600482015260516024820152600080516020615e7a83398151915260448201527f74206265203e207468616e206c656e677468206f6620737472696e67206c656e60648201527067746820286c6f6e6720737472696e672960781b608482015260a4016107e1565b60018301516001600160f81b031916600081900361490b5760405162461bcd60e51b815260206004820152604a6024820152600080516020615e7a83398151915260448201527f74206e6f74206861766520616e79206c656164696e67207a65726f7320286c6f6064820152696e6720737472696e672960b01b608482015260a4016107e1565b600184015160088302610100031c6037811161498e5760405162461bcd60e51b81526020600482015260486024820152600080516020615e7a83398151915260448201527f742062652067726561746572207468616e20353520627974657320286c6f6e6760648201526720737472696e672960c01b608482015260a4016107e1565b6149988184615a33565b895111614a105760405162461bcd60e51b815260206004820152604c6024820152600080516020615e7a83398151915260448201527f742062652067726561746572207468616e20746f74616c206c656e677468202860648201526b6c6f6e6720737472696e672960a01b608482015260a4016107e1565b614a1b836001615a33565b9750955060009450614cfe9350505050565b60f78111614acf576000614a4260c083615a01565b905080876000015111614abe5760405162461bcd60e51b815260206004820152604a6024820152600080516020615e7a83398151915260448201527f742062652067726561746572207468616e206c697374206c656e677468202873606482015269686f7274206c6973742960b01b608482015260a4016107e1565b600195509350849250614cfe915050565b6000614adc60f783615a01565b905080876000015111614b5b5760405162461bcd60e51b815260206004820152604d6024820152600080516020615e7a83398151915260448201527f74206265203e207468616e206c656e677468206f66206c697374206c656e677460648201526c6820286c6f6e67206c6973742960981b608482015260a4016107e1565b60018301516001600160f81b0319166000819003614be05760405162461bcd60e51b81526020600482015260486024820152600080516020615e7a83398151915260448201527f74206e6f74206861766520616e79206c656164696e67207a65726f7320286c6f6064820152676e67206c6973742960c01b608482015260a4016107e1565b600184015160088302610100031c60378111614c615760405162461bcd60e51b81526020600482015260466024820152600080516020615e7a83398151915260448201527f742062652067726561746572207468616e20353520627974657320286c6f6e67606482015265206c6973742960d01b608482015260a4016107e1565b614c6b8184615a33565b895111614ce15760405162461bcd60e51b815260206004820152604a6024820152600080516020615e7a83398151915260448201527f742062652067726561746572207468616e20746f74616c206c656e67746820286064820152696c6f6e67206c6973742960b01b608482015260a4016107e1565b614cec836001615a33565b9750955060019450614cfe9350505050565b9193909250565b60608315614d14575081612d36565b612d368383614e70565b60606107b8612d0583613c73565b60606000826001600160401b03811115614d4857614d48615153565b6040519080825280601f01601f191660200182016040528015614d72576020820181803683370190505b50905082600003614d84579050612d36565b6000614d908587615a33565b90506020820160005b85811015614db1578281015182820152602001614d99565b85811115614dc0576000868301525b50919695505050505050565b60606107b8826020015160008460000151614d2c565b60608182601f011015614e075760405162461bcd60e51b81526004016107e190615d41565b828284011015614e295760405162461bcd60e51b81526004016107e190615d41565b818301845110156140185760405162461bcd60e51b8152602060048201526011602482015270736c6963655f6f75744f66426f756e647360781b60448201526064016107e1565b815115614e805781518083602001fd5b8060405162461bcd60e51b81526004016107e1919061578d565b82805482825590600052602060002090600701600890048101928215614f395791602002820160005b83821115614f0757835183826101000a81548163ffffffff021916908363ffffffff1602179055509260200192600401602081600301049283019260010302614ec3565b8015614f375782816101000a81549063ffffffff0219169055600401602081600301049283019260010302614f07565b505b50614f45929150614f49565b5090565b5b80821115614f455760008155600101614f4a565b6001600160e01b031981168114610ac957600080fd5b600060208284031215614f8657600080fd5b8135612d3681614f5e565b80356001600160401b0381168114614fa857600080fd5b919050565b600060208284031215614fbf57600080fd5b612d3682614f91565b803563ffffffff81168114614fa857600080fd5b80356001600160a01b0381168114614fa857600080fd5b60008083601f84011261500557600080fd5b5081356001600160401b0381111561501c57600080fd5b60208301915083602082850101111561211f57600080fd5b6000806000806060858703121561504a57600080fd5b61505385614fc8565b935061506160208601614fdc565b925060408501356001600160401b0381111561507c57600080fd5b61508887828801614ff3565b95989497509550505050565b6000602082840312156150a657600080fd5b612d3682614fc8565b6000602082840312156150c157600080fd5b5035919050565b600080604083850312156150db57600080fd5b823591506150eb60208401614fdc565b90509250929050565b60006020828403121561510657600080fd5b612d3682614fdc565b60008083601f84011261512157600080fd5b5081356001600160401b0381111561513857600080fd5b6020830191508360208260051b850101111561211f57600080fd5b634e487b7160e01b600052604160045260246000fd5b604051601f8201601f191681016001600160401b038111828210171561519157615191615153565b604052919050565b600082601f8301126151aa57600080fd5b81356001600160401b038111156151c3576151c3615153565b6151d6601f8201601f1916602001615169565b8181528460208386010111156151eb57600080fd5b816020850160208301376000918101602001919091529392505050565b600080600080600080600080600080600060e08c8e03121561522957600080fd5b6001600160401b03808d35111561523f57600080fd5b61524c8e8e358f01614ff3565b909c509a5060208d013581101561526257600080fd5b6152728e60208f01358f01614ff3565b909a50985060408d013581101561528857600080fd5b6152988e60408f01358f0161510f565b909850965060608d0135955060808d01358110156152b557600080fd5b6152c58e60808f01358f0161510f565b909550935060a08d01358110156152db57600080fd5b506152ec8d60a08e01358e01615199565b915060c08c013590509295989b509295989b9093969950565b634e487b7160e01b600052602160045260246000fd5b602081016003831061533d57634e487b7160e01b600052602160045260246000fd5b91905290565b6000806040838503121561535657600080fd5b61535f83614fdc565b915060208301356001600160401b0381111561537a57600080fd5b61538685828601615199565b9150509250929050565b60006001600160401b038211156153a9576153a9615153565b5060051b60200190565b600082601f8301126153c457600080fd5b813560206153d96153d483615390565b615169565b82815260059290921b840181019181810190868411156153f857600080fd5b8286015b8481101561541a5761540d81614fdc565b83529183019183016153fc565b509695505050505050565b8015158114610ac957600080fd5b8035614fa881615425565b60008060008060008060c0878903121561545757600080fd5b86356001600160401b038082111561546e57600080fd5b818901915089601f83011261548257600080fd5b813560206154926153d483615390565b82815260059290921b8401810191818101908d8411156154b157600080fd5b948201945b838610156154d6576154c786614fc8565b825294820194908201906154b6565b9a50508a0135925050808211156154ec57600080fd5b6154f88a838b016153b3565b9650604089013591508082111561550e57600080fd5b5061551b89828a016153b3565b94505061552a60608801614fdc565b925061553860808801614fdc565b915061554660a08801615433565b90509295509295509295565b6000806000806060858703121561556857600080fd5b61557185614fc8565b93506020850135925060408501356001600160401b0381111561507c57600080fd5b60008060008060008060006080888a0312156155ae57600080fd5b6155b788614f91565b965060208801356001600160401b03808211156155d357600080fd5b6155df8b838c01614ff3565b909850965060408a01359150808211156155f857600080fd5b6156048b838c0161510f565b909650945060608a013591508082111561561d57600080fd5b5061562a8a828b0161510f565b989b979a50959850939692959293505050565b60008060006060848603121561565257600080fd5b61565b84614fc8565b925061566960208501614fdc565b915061567760408501614fdc565b90509250925092565b60006020828403121561569257600080fd5b8135612d3681615425565b60208082526013908201527214d95b991a5b99c81a5cc8191a5cd8589b1959606a1b604082015260600190565b60208082526019908201527f43616e6e6f742073656e6420746f2073616d6520636861696e00000000000000604082015260600190565b634e487b7160e01b600052601160045260246000fd5b60006001600160401b0380831681810361573357615733615701565b6001019392505050565b60005b83811015615758578181015183820152602001615740565b50506000910152565b6000815180845261577981602086016020860161573d565b601f01601f19169290920160200192915050565b602081526000612d366020830184615761565b60208082526035908201527f54656c657061746879526f757465723a206f6e6c7920677561726469616e206360408201527430b71031b0b636103a3434b990333ab731ba34b7b760591b606082015260800190565b6020808252602c908201527f46756e6374696f6e206d7573742062652063616c6c6564207468726f7567682060408201526b19195b1959d85d1958d85b1b60a21b606082015260800190565b6020808252602c908201527f46756e6374696f6e206d7573742062652063616c6c6564207468726f7567682060408201526b6163746976652070726f787960a01b606082015260800190565b600080604083850312156158a057600080fd5b6158a983614f91565b91506150eb60208401614f91565b6000602082840312156158c957600080fd5b5051919050565b60006158de6153d484615390565b80848252602080830192508560051b8501368111156158fc57600080fd5b855b81811015614dc05780356001600160401b0381111561591d5760008081fd5b61592936828a01615199565b8652509382019382016158fe565b634e487b7160e01b600052603260045260246000fd5b600063ffffffff80831681810361573357615733615701565b60208082526035908201527f54656c657061746879526f757465723a206f6e6c792074696d656c6f636b206360408201527430b71031b0b636103a3434b990333ab731ba34b7b760591b606082015260800190565b6000600182016159cd576159cd615701565b5060010190565b8183823760009101908152919050565b6000602082840312156159f657600080fd5b8151612d3681615425565b818103818111156107b8576107b8615701565b6000816000190483118215151615615a2e57615a2e615701565b500290565b808201808211156107b8576107b8615701565b6001600160401b03828116828216039080821115615a6657615a66615701565b5092915050565b634e487b7160e01b600052601260045260246000fd5b600082615a9257615a92615a6d565b500690565b600082615aa657615aa6615a6d565b500490565b63ffffffff841681526001600160a01b0383166020820152606060408201819052600090612dd090830184615761565b60008251615aed81846020870161573d565b9190910192915050565b600060208284031215615b0957600080fd5b8151612d3681614f5e565b604081526000615b276040830185615761565b905082151560208301529392505050565b6020808252602b908201527f496e697469616c697a61626c653a20636f6e7472616374206973206e6f74206960408201526a6e697469616c697a696e6760a81b606082015260800190565b6001600160f81b031960f889901b1681526001600160c01b031960c088901b1660018201526001600160e01b031960e087811b821660098401526001600160601b0319606088901b16600d84015285901b166021820152602581018390528151600090615bf781604585016020870161573d565b9190910160450198975050505050505050565b7f416363657373436f6e74726f6c3a206163636f756e7420000000000000000000815260008351615c4281601785016020880161573d565b7001034b99036b4b9b9b4b733903937b6329607d1b6017918401918201528351615c7381602884016020880161573d565b01602801949350505050565b600060ff831680615c9257615c92615a6d565b8060ff84160691505092915050565b60ff82811682821603908111156107b8576107b8615701565b6020808252604a908201527f524c505265616465723a206c656e677468206f6620616e20524c50206974656d60408201527f206d7573742062652067726561746572207468616e207a65726f20746f206265606082015269206465636f6461626c6560b01b608082015260a00190565b600081615d3957615d39615701565b506000190190565b6020808252600e908201526d736c6963655f6f766572666c6f7760901b604082015260600190565b600181815b80851115615da4578160001904821115615d8a57615d8a615701565b80851615615d9757918102915b93841c9390800290615d6e565b509250929050565b600082615dbb575060016107b8565b81615dc8575060006107b8565b8160018114615dde5760028114615de857615e04565b60019150506107b8565b60ff841115615df957615df9615701565b50506001821b6107b8565b5060208310610133831016604e8410600b8410161715615e27575081810a6107b8565b615e318383615d69565b8060001904821115615e4557615e45615701565b029392505050565b6000612d368383615dac56fef66846415d2bf9eabda9e84793ff9c0ea96d87f50fc41e66aa16469c6a442f05524c505265616465723a206c656e677468206f6620636f6e74656e74206d7573360894a13ba1a3210667c828492db98dca3e2076cc3735a920a3ca505d382bbc416464726573733a206c6f772d6c6576656c2064656c65676174652063616c6c206661696c656455435dd261a4b9b3364963f7738a7a662ad9c84396d64be3365284bb7f0a5041a2646970667358221220f963c2cdb21e7cd55c8073e6b7a59d7952e2e681906c27fcf9b57ed9ceac437d64736f6c63430008100033",
    "linkReferences": {}
  },
  "methodIdentifiers": {
    "DEFAULT_ADMIN_ROLE()": "a217fddf",
    "GUARDIAN_ROLE()": "24ea54f4",
    "MIN_LIGHT_CLIENT_DELAY()": "e4407b15",
    "TIMELOCK_ROLE()": "f288a2e2",
    "VERSION()": "ffa1ad74",
    "broadcasters(uint32)": "59f89787",
    "executeMessage(uint64,bytes,bytes[],bytes[])": "7acc6754",
    "executeMessageFromLog(bytes,bytes,bytes32[],bytes32,bytes[],bytes,uint256)": "37d5af84",
    "freeze(uint32)": "9a2ed203",
    "freezeAll()": "99464c89",
    "frozen(uint32)": "36ae7c18",
    "getRoleAdmin(bytes32)": "248a9ca3",
    "grantRole(bytes32,address)": "2f2ff15d",
    "hasRole(bytes32,address)": "91d14854",
    "initialize(uint32[],address[],address[],address,address,bool)": "5cb77819",
    "lightClients(uint32)": "7599735c",
    "messageStatus(bytes32)": "3c6cf473",
    "messages(uint64)": "029d6713",
    "nonce()": "affed0e0",
    "proxiableUUID()": "52d1902d",
    "renounceRole(bytes32,address)": "36568abe",
    "revokeRole(bytes32,address)": "d547741f",
    "send(uint32,address,bytes)": "68346a92",
    "send(uint32,bytes32,bytes)": "a96a2e92",
    "sendViaStorage(uint32,address,bytes)": "147bce49",
    "sendViaStorage(uint32,bytes32,bytes)": "6fdbccbf",
    "sendingEnabled()": "3e99e9ce",
    "setLightClientAndBroadcaster(uint32,address,address)": "91cd8bfd",
    "setSendingEnabled(bool)": "ed762d44",
    "sourceChainIds(uint256)": "9efeff1c",
    "sourceChainIdsLength()": "4552f563",
    "storageRootCache(bytes32)": "8d080d1d",
    "supportsInterface(bytes4)": "01ffc9a7",
    "unfreeze(uint32)": "1f3d25a9",
    "unfreezeAll()": "66c5c4a0",
    "upgradeTo(address)": "3659cfe6",
    "upgradeToAndCall(address,bytes)": "4f1ef286",
    "version()": "54fd4d50"
  },
  "id": 102
}