{
  "abi": [
    {
      "inputs": [],
      "stateMutability": "nonpayable",
      "type": "constructor"
    },
    {
      "inputs": [],
      "name": "CannotSendToSameChain",
      "type": "error"
    },
    {
      "inputs": [],
      "name": "SendingDisabled",
      "type": "error"
    },
    {
      "anonymous": false,
      "inputs": [
        {
          "indexed": false,
          "internalType": "address",
          "name": "previousAdmin",
          "type": "address"
        },
        {
          "indexed": false,
          "internalType": "address",
          "name": "newAdmin",
          "type": "address"
        }
      ],
      "name": "AdminChanged",
      "type": "event"
    },
    {
      "anonymous": false,
      "inputs": [
        {
          "indexed": true,
          "internalType": "address",
          "name": "beacon",
          "type": "address"
        }
      ],
      "name": "BeaconUpgraded",
      "type": "event"
    },
    {
      "anonymous": false,
      "inputs": [
        {
          "indexed": true,
          "internalType": "uint32",
          "name": "sourceChainId",
          "type": "uint32"
        },
        {
          "indexed": true,
          "internalType": "uint64",
          "name": "nonce",
          "type": "uint64"
        },
        {
          "indexed": true,
          "internalType": "bytes32",
          "name": "msgHash",
          "type": "bytes32"
        },
        {
          "indexed": false,
          "internalType": "bytes",
          "name": "message",
          "type": "bytes"
        },
        {
          "indexed": false,
          "internalType": "bool",
          "name": "status",
          "type": "bool"
        }
      ],
      "name": "ExecutedMessage",
      "type": "event"
    },
    {
      "anonymous": false,
      "inputs": [
        {
          "indexed": true,
          "internalType": "uint32",
          "name": "chainId",
          "type": "uint32"
        }
      ],
      "name": "Freeze",
      "type": "event"
    },
    {
      "anonymous": false,
      "inputs": [],
      "name": "FreezeAll",
      "type": "event"
    },
    {
      "anonymous": false,
      "inputs": [
        {
          "indexed": false,
          "internalType": "uint8",
          "name": "version",
          "type": "uint8"
        }
      ],
      "name": "Initialized",
      "type": "event"
    },
    {
      "anonymous": false,
      "inputs": [
        {
          "indexed": true,
          "internalType": "bytes32",
          "name": "role",
          "type": "bytes32"
        },
        {
          "indexed": true,
          "internalType": "bytes32",
          "name": "previousAdminRole",
          "type": "bytes32"
        },
        {
          "indexed": true,
          "internalType": "bytes32",
          "name": "newAdminRole",
          "type": "bytes32"
        }
      ],
      "name": "RoleAdminChanged",
      "type": "event"
    },
    {
      "anonymous": false,
      "inputs": [
        {
          "indexed": true,
          "internalType": "bytes32",
          "name": "role",
          "type": "bytes32"
        },
        {
          "indexed": true,
          "internalType": "address",
          "name": "account",
          "type": "address"
        },
        {
          "indexed": true,
          "internalType": "address",
          "name": "sender",
          "type": "address"
        }
      ],
      "name": "RoleGranted",
      "type": "event"
    },
    {
      "anonymous": false,
      "inputs": [
        {
          "indexed": true,
          "internalType": "bytes32",
          "name": "role",
          "type": "bytes32"
        },
        {
          "indexed": true,
          "internalType": "address",
          "name": "account",
          "type": "address"
        },
        {
          "indexed": true,
          "internalType": "address",
          "name": "sender",
          "type": "address"
        }
      ],
      "name": "RoleRevoked",
      "type": "event"
    },
    {
      "anonymous": false,
      "inputs": [
        {
          "indexed": false,
          "internalType": "bool",
          "name": "enabled",
          "type": "bool"
        }
      ],
      "name": "SendingEnabled",
      "type": "event"
    },
    {
      "anonymous": false,
      "inputs": [
        {
          "indexed": true,
          "internalType": "uint64",
          "name": "nonce",
          "type": "uint64"
        },
        {
          "indexed": true,
          "internalType": "bytes32",
          "name": "msgHash",
          "type": "bytes32"
        },
        {
          "indexed": false,
          "internalType": "bytes",
          "name": "message",
          "type": "bytes"
        }
      ],
      "name": "SentMessage",
      "type": "event"
    },
    {
      "anonymous": false,
      "inputs": [
        {
          "indexed": true,
          "internalType": "uint32",
          "name": "chainId",
          "type": "uint32"
        },
        {
          "indexed": false,
          "internalType": "address",
          "name": "lightClient",
          "type": "address"
        },
        {
          "indexed": false,
          "internalType": "address",
          "name": "broadcaster",
          "type": "address"
        }
      ],
      "name": "SetLightClientAndBroadcaster",
      "type": "event"
    },
    {
      "anonymous": false,
      "inputs": [
        {
          "indexed": true,
          "internalType": "uint32",
          "name": "chainId",
          "type": "uint32"
        }
      ],
      "name": "SourceChainAdded",
      "type": "event"
    },
    {
      "anonymous": false,
      "inputs": [
        {
          "indexed": true,
          "internalType": "uint32",
          "name": "chainId",
          "type": "uint32"
        }
      ],
      "name": "Unfreeze",
      "type": "event"
    },
    {
      "anonymous": false,
      "inputs": [],
      "name": "UnfreezeAll",
      "type": "event"
    },
    {
      "anonymous": false,
      "inputs": [
        {
          "indexed": true,
          "internalType": "address",
          "name": "implementation",
          "type": "address"
        }
      ],
      "name": "Upgraded",
      "type": "event"
    },
    {
      "inputs": [],
      "name": "DEFAULT_ADMIN_ROLE",
      "outputs": [
        {
          "internalType": "bytes32",
          "name": "",
          "type": "bytes32"
        }
      ],
      "stateMutability": "view",
      "type": "function"
    },
    {
      "inputs": [],
      "name": "GUARDIAN_ROLE",
      "outputs": [
        {
          "internalType": "bytes32",
          "name": "",
          "type": "bytes32"
        }
      ],
      "stateMutability": "view",
      "type": "function"
    },
    {
      "inputs": [],
      "name": "MIN_LIGHT_CLIENT_DELAY",
      "outputs": [
        {
          "internalType": "uint256",
          "name": "",
          "type": "uint256"
        }
      ],
      "stateMutability": "view",
      "type": "function"
    },
    {
      "inputs": [],
      "name": "TIMELOCK_ROLE",
      "outputs": [
        {
          "internalType": "bytes32",
          "name": "",
          "type": "bytes32"
        }
      ],
      "stateMutability": "view",
      "type": "function"
    },
    {
      "inputs": [],
      "name": "VERSION",
      "outputs": [
        {
          "internalType": "uint8",
          "name": "",
          "type": "uint8"
        }
      ],
      "stateMutability": "view",
      "type": "function"
    },
    {
      "inputs": [
        {
          "internalType": "uint32",
          "name": "",
          "type": "uint32"
        }
      ],
      "name": "broadcasters",
      "outputs": [
        {
          "internalType": "address",
          "name": "",
          "type": "address"
        }
      ],
      "stateMutability": "view",
      "type": "function"
    },
    {
      "inputs": [
        {
          "internalType": "uint64",
          "name": "slot",
          "type": "uint64"
        },
        {
          "internalType": "bytes",
          "name": "messageBytes",
          "type": "bytes"
        },
        {
          "internalType": "bytes[]",
          "name": "accountProof",
          "type": "bytes[]"
        },
        {
          "internalType": "bytes[]",
          "name": "storageProof",
          "type": "bytes[]"
        }
      ],
      "name": "executeMessage",
      "outputs": [],
      "stateMutability": "nonpayable",
      "type": "function"
    },
    {
      "inputs": [
        {
          "internalType": "bytes",
          "name": "srcSlotTxSlotPack",
          "type": "bytes"
        },
        {
          "internalType": "bytes",
          "name": "messageBytes",
          "type": "bytes"
        },
        {
          "internalType": "bytes32[]",
          "name": "receiptsRootProof",
          "type": "bytes32[]"
        },
        {
          "internalType": "bytes32",
          "name": "receiptsRoot",
          "type": "bytes32"
        },
        {
          "internalType": "bytes[]",
          "name": "receiptProof",
          "type": "bytes[]"
        },
        {
          "internalType": "bytes",
          "name": "txIndexRLPEncoded",
          "type": "bytes"
        },
        {
          "internalType": "uint256",
          "name": "logIndex",
          "type": "uint256"
        }
      ],
      "name": "executeMessageFromLog",
      "outputs": [],
      "stateMutability": "nonpayable",
      "type": "function"
    },
    {
      "inputs": [
        {
          "internalType": "uint32",
          "name": "chainId",
          "type": "uint32"
        }
      ],
      "name": "freeze",
      "outputs": [],
      "stateMutability": "nonpayable",
      "type": "function"
    },
    {
      "inputs": [],
      "name": "freezeAll",
      "outputs": [],
      "stateMutability": "nonpayable",
      "type": "function"
    },
    {
      "inputs": [
        {
          "internalType": "uint32",
          "name": "",
          "type": "uint32"
        }
      ],
      "name": "frozen",
      "outputs": [
        {
          "internalType": "bool",
          "name": "",
          "type": "bool"
        }
      ],
      "stateMutability": "view",
      "type": "function"
    },
    {
      "inputs": [
        {
          "internalType": "bytes32",
          "name": "role",
          "type": "bytes32"
        }
      ],
      "name": "getRoleAdmin",
      "outputs": [
        {
          "internalType": "bytes32",
          "name": "",
          "type": "bytes32"
        }
      ],
      "stateMutability": "view",
      "type": "function"
    },
    {
      "inputs": [
        {
          "internalType": "bytes32",
          "name": "role",
          "type": "bytes32"
        },
        {
          "internalType": "address",
          "name": "account",
          "type": "address"
        }
      ],
      "name": "grantRole",
      "outputs": [],
      "stateMutability": "nonpayable",
      "type": "function"
    },
    {
      "inputs": [
        {
          "internalType": "bytes32",
          "name": "role",
          "type": "bytes32"
        },
        {
          "internalType": "address",
          "name": "account",
          "type": "address"
        }
      ],
      "name": "hasRole",
      "outputs": [
        {
          "internalType": "bool",
          "name": "",
          "type": "bool"
        }
      ],
      "stateMutability": "view",
      "type": "function"
    },
    {
      "inputs": [
        {
          "internalType": "uint32[]",
          "name": "_sourceChainIds",
          "type": "uint32[]"
        },
        {
          "internalType": "address[]",
          "name": "_lightClients",
          "type": "address[]"
        },
        {
          "internalType": "address[]",
          "name": "_broadcasters",
          "type": "address[]"
        },
        {
          "internalType": "address",
          "name": "_timelock",
          "type": "address"
        },
        {
          "internalType": "address",
          "name": "_guardian",
          "type": "address"
        },
        {
          "internalType": "bool",
          "name": "_sendingEnabled",
          "type": "bool"
        }
      ],
      "name": "initialize",
      "outputs": [],
      "stateMutability": "nonpayable",
      "type": "function"
    },
    {
      "inputs": [
        {
          "internalType": "uint32",
          "name": "",
          "type": "uint32"
        }
      ],
      "name": "lightClients",
      "outputs": [
        {
          "internalType": "contract ILightClient",
          "name": "",
          "type": "address"
        }
      ],
      "stateMutability": "view",
      "type": "function"
    },
    {
      "inputs": [
        {
          "internalType": "bytes32",
          "name": "",
          "type": "bytes32"
        }
      ],
      "name": "messageStatus",
      "outputs": [
        {
          "internalType": "enum MessageStatus",
          "name": "",
          "type": "uint8"
        }
      ],
      "stateMutability": "view",
      "type": "function"
    },
    {
      "inputs": [
        {
          "internalType": "uint64",
          "name": "",
          "type": "uint64"
        }
      ],
      "name": "messages",
      "outputs": [
        {
          "internalType": "bytes32",
          "name": "",
          "type": "bytes32"
        }
      ],
      "stateMutability": "view",
      "type": "function"
    },
    {
      "inputs": [],
      "name": "nonce",
      "outputs": [
        {
          "internalType": "uint64",
          "name": "",
          "type": "uint64"
        }
      ],
      "stateMutability": "view",
      "type": "function"
    },
    {
      "inputs": [],
      "name": "proxiableUUID",
      "outputs": [
        {
          "internalType": "bytes32",
          "name": "",
          "type": "bytes32"
        }
      ],
      "stateMutability": "view",
      "type": "function"
    },
    {
      "inputs": [
        {
          "internalType": "bytes32",
          "name": "role",
          "type": "bytes32"
        },
        {
          "internalType": "address",
          "name": "account",
          "type": "address"
        }
      ],
      "name": "renounceRole",
      "outputs": [],
      "stateMutability": "nonpayable",
      "type": "function"
    },
    {
      "inputs": [
        {
          "internalType": "bytes32",
          "name": "role",
          "type": "bytes32"
        },
        {
          "internalType": "address",
          "name": "account",
          "type": "address"
        }
      ],
      "name": "revokeRole",
      "outputs": [],
      "stateMutability": "nonpayable",
      "type": "function"
    },
    {
      "inputs": [
        {
          "internalType": "uint32",
          "name": "destinationChainId",
          "type": "uint32"
        },
        {
          "internalType": "address",
          "name": "destinationAddress",
          "type": "address"
        },
        {
          "internalType": "bytes",
          "name": "data",
          "type": "bytes"
        }
      ],
      "name": "send",
      "outputs": [
        {
          "internalType": "bytes32",
          "name": "",
          "type": "bytes32"
        }
      ],
      "stateMutability": "nonpayable",
      "type": "function"
    },
    {
      "inputs": [
        {
          "internalType": "uint32",
          "name": "destinationChainId",
          "type": "uint32"
        },
        {
          "internalType": "bytes32",
          "name": "destinationAddress",
          "type": "bytes32"
        },
        {
          "internalType": "bytes",
          "name": "data",
          "type": "bytes"
        }
      ],
      "name": "send",
      "outputs": [
        {
          "internalType": "bytes32",
          "name": "",
          "type": "bytes32"
        }
      ],
      "stateMutability": "nonpayable",
      "type": "function"
    },
    {
      "inputs": [
        {
          "internalType": "uint32",
          "name": "destinationChainId",
          "type": "uint32"
        },
        {
          "internalType": "address",
          "name": "destinationAddress",
          "type": "address"
        },
        {
          "internalType": "bytes",
          "name": "data",
          "type": "bytes"
        }
      ],
      "name": "sendViaStorage",
      "outputs": [
        {
          "internalType": "bytes32",
          "name": "",
          "type": "bytes32"
        }
      ],
      "stateMutability": "nonpayable",
      "type": "function"
    },
    {
      "inputs": [
        {
          "internalType": "uint32",
          "name": "destinationChainId",
          "type": "uint32"
        },
        {
          "internalType": "bytes32",
          "name": "destinationAddress",
          "type": "bytes32"
        },
        {
          "internalType": "bytes",
          "name": "data",
          "type": "bytes"
        }
      ],
      "name": "sendViaStorage",
      "outputs": [
        {
          "internalType": "bytes32",
          "name": "",
          "type": "bytes32"
        }
      ],
      "stateMutability": "nonpayable",
      "type": "function"
    },
    {
      "inputs": [],
      "name": "sendingEnabled",
      "outputs": [
        {
          "internalType": "bool",
          "name": "",
          "type": "bool"
        }
      ],
      "stateMutability": "view",
      "type": "function"
    },
    {
      "inputs": [
        {
          "internalType": "uint32",
          "name": "chainId",
          "type": "uint32"
        },
        {
          "internalType": "address",
          "name": "lightclient",
          "type": "address"
        },
        {
          "internalType": "address",
          "name": "broadcaster",
          "type": "address"
        }
      ],
      "name": "setLightClientAndBroadcaster",
      "outputs": [],
      "stateMutability": "nonpayable",
      "type": "function"
    },
    {
      "inputs": [
        {
          "internalType": "bool",
          "name": "enabled",
          "type": "bool"
        }
      ],
      "name": "setSendingEnabled",
      "outputs": [],
      "stateMutability": "nonpayable",
      "type": "function"
    },
    {
      "inputs": [
        {
          "internalType": "uint256",
          "name": "",
          "type": "uint256"
        }
      ],
      "name": "sourceChainIds",
      "outputs": [
        {
          "internalType": "uint32",
          "name": "",
          "type": "uint32"
        }
      ],
      "stateMutability": "view",
      "type": "function"
    },
    {
      "inputs": [],
      "name": "sourceChainIdsLength",
      "outputs": [
        {
          "internalType": "uint256",
          "name": "",
          "type": "uint256"
        }
      ],
      "stateMutability": "view",
      "type": "function"
    },
    {
      "inputs": [
        {
          "internalType": "bytes32",
          "name": "",
          "type": "bytes32"
        }
      ],
      "name": "storageRootCache",
      "outputs": [
        {
          "internalType": "bytes32",
          "name": "",
          "type": "bytes32"
        }
      ],
      "stateMutability": "view",
      "type": "function"
    },
    {
      "inputs": [
        {
          "internalType": "bytes4",
          "name": "interfaceId",
          "type": "bytes4"
        }
      ],
      "name": "supportsInterface",
      "outputs": [
        {
          "internalType": "bool",
          "name": "",
          "type": "bool"
        }
      ],
      "stateMutability": "view",
      "type": "function"
    },
    {
      "inputs": [
        {
          "internalType": "uint32",
          "name": "chainId",
          "type": "uint32"
        }
      ],
      "name": "unfreeze",
      "outputs": [],
      "stateMutability": "nonpayable",
      "type": "function"
    },
    {
      "inputs": [],
      "name": "unfreezeAll",
      "outputs": [],
      "stateMutability": "nonpayable",
      "type": "function"
    },
    {
      "inputs": [
        {
          "internalType": "address",
          "name": "newImplementation",
          "type": "address"
        }
      ],
      "name": "upgradeTo",
      "outputs": [],
      "stateMutability": "nonpayable",
      "type": "function"
    },
    {
      "inputs": [
        {
          "internalType": "address",
          "name": "newImplementation",
          "type": "address"
        },
        {
          "internalType": "bytes",
          "name": "data",
          "type": "bytes"
        }
      ],
      "name": "upgradeToAndCall",
      "outputs": [],
      "stateMutability": "payable",
      "type": "function"
    },
    {
      "inputs": [],
      "name": "version",
      "outputs": [
        {
          "internalType": "uint8",
          "name": "",
          "type": "uint8"
        }
      ],
      "stateMutability": "view",
      "type": "function"
    }
  ],
  "bytecode": {
    "object": "0x60a0604052306080523480156200001557600080fd5b506200002062000026565b620000e8565b603254610100900460ff1615620000935760405162461bcd60e51b815260206004820152602760248201527f496e697469616c697a61626c653a20636f6e747261637420697320696e697469604482015266616c697a696e6760c81b606482015260840160405180910390fd5b60325460ff9081161015620000e6576032805460ff191660ff9081179091556040519081527f7f26b83ff96e1f2b6a682f133852f6798a09c465da95921460cefb38474024989060200160405180910390a15b565b608051615fb362000120600039600081816109f901528181610a3901528181610da601528181610de60152610e750152615fb36000f3fe6080604052600436106102255760003560e01c806366c5c4a0116101235780639a2ed203116100ab578063d547741f1161006f578063d547741f146106fb578063e4407b151461071b578063ed762d4414610730578063f288a2e214610750578063ffa1ad741461077257600080fd5b80639a2ed203146106395780639efeff1c14610659578063a217fddf1461068e578063a96a2e92146106a3578063affed0e0146106c357600080fd5b80637acc6754116100f25780637acc6754146105975780638d080d1d146105b757806391cd8bfd146105e457806391d148541461060457806399464c891461062457600080fd5b806366c5c4a01461050c57806368346a92146105215780636fdbccbf146105415780637599735c1461056157600080fd5b806336ae7c18116101b15780634f1ef286116101755780634f1ef2861461044a57806352d1902d1461045d57806354fd4d501461047257806359f897871461049e5780635cb77819146104ec57600080fd5b806336ae7c181461038e57806337d5af84146103be5780633c6cf473146103de5780633e99e9ce1461041b5780634552f5631461043557600080fd5b8063248a9ca3116101f8578063248a9ca3146102dc57806324ea54f41461030c5780632f2ff15d1461032e57806336568abe1461034e5780633659cfe61461036e57600080fd5b806301ffc9a71461022a578063029d67131461025f578063147bce491461029a5780631f3d25a9146102ba575b600080fd5b34801561023657600080fd5b5061024a610245366004615055565b610787565b60405190151581526020015b60405180910390f35b34801561026b57600080fd5b5061028c61027a36600461508e565b60016020526000908152604090205481565b604051908152602001610256565b3480156102a657600080fd5b5061028c6102b5366004615115565b6107be565b3480156102c657600080fd5b506102da6102d5366004615175565b6108c4565b005b3480156102e857600080fd5b5061028c6102f7366004615190565b600090815260c9602052604090206001015490565b34801561031857600080fd5b5061028c600080516020615f5e83398151915281565b34801561033a57600080fd5b506102da6103493660046151a9565b610947565b34801561035a57600080fd5b506102da6103693660046151a9565b610971565b34801561037a57600080fd5b506102da6103893660046151d5565b6109ef565b34801561039a57600080fd5b5061024a6103a9366004615175565b60066020526000908152604090205460ff1681565b3480156103ca57600080fd5b506102da6103d93660046152e9565b610ace565b3480156103ea57600080fd5b5061040e6103f9366004615190565b60076020526000908152604090205460ff1681565b60405161025691906153fc565b34801561042757600080fd5b5060005461024a9060ff1681565b34801561044157600080fd5b5060035461028c565b6102da610458366004615424565b610d9c565b34801561046957600080fd5b5061028c610e68565b34801561047e57600080fd5b5060085461048c9060ff1681565b60405160ff9091168152602001610256565b3480156104aa57600080fd5b506104d46104b9366004615175565b6005602052600090815260409020546001600160a01b031681565b6040516001600160a01b039091168152602001610256565b3480156104f857600080fd5b506102da61050736600461551f565b610f1b565b34801561051857600080fd5b506102da61121e565b34801561052d57600080fd5b5061028c61053c366004615115565b611303565b34801561054d57600080fd5b5061028c61055c366004615633565b611384565b34801561056d57600080fd5b506104d461057c366004615175565b6004602052600090815260409020546001600160a01b031681565b3480156105a357600080fd5b506102da6105b2366004615674565b6113dd565b3480156105c357600080fd5b5061028c6105d2366004615190565b60096020526000908152604090205481565b3480156105f057600080fd5b506102da6105ff36600461571e565b6116f2565b34801561061057600080fd5b5061024a61061f3660046151a9565b6118a3565b34801561063057600080fd5b506102da6118ce565b34801561064557600080fd5b506102da610654366004615175565b6119b3565b34801561066557600080fd5b50610679610674366004615190565b611a30565b60405163ffffffff9091168152602001610256565b34801561069a57600080fd5b5061028c600081565b3480156106af57600080fd5b5061028c6106be366004615633565b611a6a565b3480156106cf57600080fd5b506002546106e3906001600160401b031681565b6040516001600160401b039091168152602001610256565b34801561070757600080fd5b506102da6107163660046151a9565b611ac3565b34801561072757600080fd5b5061028c607881565b34801561073c57600080fd5b506102da61074b366004615761565b611ae8565b34801561075c57600080fd5b5061028c600080516020615ed783398151915281565b34801561077e57600080fd5b5061048c600181565b60006001600160e01b03198216637965db0b60e01b14806107b857506301ffc9a760e01b6001600160e01b03198316145b92915050565b6000805460ff166107e257604051631492b62f60e11b815260040160405180910390fd5b468563ffffffff16036108085760405163b0747d8160e01b815260040160405180910390fd5b600080610821876001600160a01b0388165b8787611b63565b600280546001600160401b03908116600090815260016020526040812084905582549496509294508493169161085683615794565b91906101000a8154816001600160401b0302191690836001600160401b031602179055506001600160401b03167fe5944a34d67c652e0ebf2304b48432aae0b55e40f79ba8a21a4d7054c169ffac846040516108b2919061580a565b60405180910390a39695505050505050565b6108dc600080516020615f5e833981519152336118a3565b6109015760405162461bcd60e51b81526004016108f89061581d565b60405180910390fd5b63ffffffff8116600081815260066020526040808220805460ff19169055517f9fd67bd682613b07687b42f99d8b24402d09feabb75df93abdb26b8fcf9845839190a250565b600082815260c9602052604090206001015461096281611bda565b61096c8383611be4565b505050565b6001600160a01b03811633146109e15760405162461bcd60e51b815260206004820152602f60248201527f416363657373436f6e74726f6c3a2063616e206f6e6c792072656e6f756e636560448201526e103937b632b9903337b91039b2b63360891b60648201526084016108f8565b6109eb8282611c6a565b5050565b6001600160a01b037f0000000000000000000000000000000000000000000000000000000000000000163003610a375760405162461bcd60e51b81526004016108f890615872565b7f00000000000000000000000000000000000000000000000000000000000000006001600160a01b0316610a80600080516020615f17833981519152546001600160a01b031690565b6001600160a01b031614610aa65760405162461bcd60e51b81526004016108f8906158be565b610aaf81611cd1565b60408051600080825260208201909252610acb91839190611d05565b50565b610ad6611e70565b600080610ae38b8b611ec9565b91509150610af48260400151612133565b610b018260400151612262565b6000808e8e810190610b13919061590a565b91509150610b258285604001516122be565b60408481015163ffffffff166000908152600460208190528282205492516356f90d7960e01b81526001600160401b0386169181019190915290916001600160a01b0316906356f90d7990602401602060405180830381865afa158015610b90573d6000803e3d6000fd5b505050506040513d601f19601f82011682018060405250810190610bb49190615934565b905080610bfb5760405162461bcd60e51b8152602060048201526015602482015274486561646572526f6f74206973206d697373696e6760581b60448201526064016108f8565b6000610c448b8e8e80806020026020016040519081016040528093929190818152602001838360200280828437600092019190915250505060408a0151869150889088906124f2565b905080610c935760405162461bcd60e51b815260206004820152601b60248201527f496e76616c696420726563656970747320726f6f742070726f6f66000000000060448201526064016108f8565b505050506000610cf8878790610ca9919061594d565b60408086015163ffffffff166000908152600560205220548a90889088906001600160a01b03167fe5944a34d67c652e0ebf2304b48432aae0b55e40f79ba8a21a4d7054c169ffac600261276e565b9050818114610d415760405162461bcd60e51b815260206004820152601560248201527424b73b30b634b21036b2b9b9b0b3b2903430b9b41760591b60448201526064016108f8565b50610d8382828d8d8080601f016020809104026020016040519081016040528093929190818152602001838380828437600092019190915250612b2192505050565b5050610d8f6001603355565b5050505050505050505050565b6001600160a01b037f0000000000000000000000000000000000000000000000000000000000000000163003610de45760405162461bcd60e51b81526004016108f890615872565b7f00000000000000000000000000000000000000000000000000000000000000006001600160a01b0316610e2d600080516020615f17833981519152546001600160a01b031690565b6001600160a01b031614610e535760405162461bcd60e51b81526004016108f8906158be565b610e5c82611cd1565b6109eb82826001611d05565b6000306001600160a01b037f00000000000000000000000000000000000000000000000000000000000000001614610f085760405162461bcd60e51b815260206004820152603860248201527f555550535570677261646561626c653a206d757374206e6f742062652063616c60448201527f6c6564207468726f7567682064656c656761746563616c6c000000000000000060648201526084016108f8565b50600080516020615f1783398151915290565b603254610100900460ff1615808015610f3b5750603254600160ff909116105b80610f555750303b158015610f55575060325460ff166001145b610fb85760405162461bcd60e51b815260206004820152602e60248201527f496e697469616c697a61626c653a20636f6e747261637420697320616c72656160448201526d191e481a5b9a5d1a585b1a5e995960921b60648201526084016108f8565b6032805460ff191660011790558015610fdb576032805461ff0019166101001790555b610fe3612ccf565b610feb612d00565b611003600080516020615f5e83398151915284611be4565b61101b600080516020615ed783398151915285611be4565b611026600085611be4565b61102e612d00565b855187511461103c57600080fd5b845187511461104a57600080fd5b865161105d9060039060208a0190614f7b565b5060005b60035463ffffffff821610156111b157868163ffffffff1681518110611089576110896159b4565b60200260200101516004600060038463ffffffff16815481106110ae576110ae6159b4565b90600052602060002090600891828204019190066004029054906101000a900463ffffffff1663ffffffff1663ffffffff16815260200190815260200160002060006101000a8154816001600160a01b0302191690836001600160a01b03160217905550858163ffffffff168151811061112a5761112a6159b4565b60200260200101516005600060038463ffffffff168154811061114f5761114f6159b4565b6000918252602080832060088304015460079092166004026101000a90910463ffffffff168352820192909252604001902080546001600160a01b0319166001600160a01b0392909216919091179055806111a9816159ca565b915050611061565b506000805483151560ff19918216179091556008805490911660011790558015611215576032805461ff0019169055604051600181527f7f26b83ff96e1f2b6a682f133852f6798a09c465da95921460cefb38474024989060200160405180910390a15b50505050505050565b611236600080516020615f5e833981519152336118a3565b6112525760405162461bcd60e51b81526004016108f89061581d565b60005b60035463ffffffff821610156112d75760006006600060038463ffffffff1681548110611284576112846159b4565b6000918252602080832060088304015460079092166004026101000a90910463ffffffff1683528201929092526040019020805460ff1916911515919091179055806112cf816159ca565b915050611255565b506040517fe6fdbf73945dd61794a752b9181ea29f77170a7b1ffd37e0a7ff9d2c6f7258b990600090a1565b6000805460ff1661132757604051631492b62f60e11b815260040160405180910390fd5b468563ffffffff160361134d5760405163b0747d8160e01b815260040160405180910390fd5b600080611363876001600160a01b03881661081a565b6002805492945090925082916001600160401b031690600061085683615794565b6000805460ff166113a857604051631492b62f60e11b815260040160405180910390fd5b468563ffffffff16036113ce5760405163b0747d8160e01b815260040160405180910390fd5b60008061082187878787611b63565b6113e5611e70565b6000806113f28888611ec9565b915091506114038260400151612133565b6114108260400151612262565b61141e8983604001516122be565b60408281015163ffffffff811660009081526005602090815283822054845160e09490941b6001600160e01b0319168483015260c08e901b6001600160c01b031916602485015260601b6001600160601b031916602c840152835180840382018152928401845282519281019290922080825260099092529182205482036115d05760408085015163ffffffff16600090815260046020819052828220549251637623ee2960e01b81526001600160401b038f169181019190915290916001600160a01b031690637623ee2990602401602060405180830381865afa15801561150b573d6000803e3d6000fd5b505050506040513d601f19601f8201168201806040525081019061152f9190615934565b905060008190036115825760405162461bcd60e51b815260206004820152601f60248201527f457865637574696f6e20537461746520526f6f74206973206e6f74207365740060448201526064016108f8565b6115b661158f898b61594d565b60408088015163ffffffff166000908152600560205220546001600160a01b031683612d27565b600083815260096020526040902081905592506115e29050565b60008181526009602052604090205491505b6000846020015160016040516020016116109291906001600160401b03929092168252602082015260400190565b60408051808303601f1901815282825280516020918201208184015281518084038201815292820190915281519101209050600061165882856116538a8c61594d565b612e1e565b90508481146116a15760405162461bcd60e51b815260206004820152601560248201527424b73b30b634b21036b2b9b9b0b3b2903430b9b41760591b60448201526064016108f8565b505050506116e682828a8a8080601f016020809104026020016040519081016040528093929190818152602001838380828437600092019190915250612b2192505050565b50506112156001603355565b61170a600080516020615ed7833981519152336118a3565b6117265760405162461bcd60e51b81526004016108f8906159e3565b6000805b600354811015611792578463ffffffff166003828154811061174e5761174e6159b4565b6000918252602090912060088204015460079091166004026101000a900463ffffffff16036117805760019150611792565b8061178a81615a38565b91505061172a565b508061181b57600380546001810182556000918252600881047fc2575a0e9e593c00f959f8c92f12db2869c3395a3b0502d05e2516446f71f85b01805463ffffffff80891660046007909516949094026101000a84810291021990911617905560405190917f65a791dc0a39717013964ace2b78f8307f275c293b7fdb425346ce8e18cb318891a25b63ffffffff8416600081815260046020908152604080832080546001600160a01b038981166001600160a01b031992831681179093556005855294839020805495891695909116851790558151908152918201929092527f0205eaadbbed4fbe918b2a594d41bceb212a89010cc678c6762b18d65679b2ef910160405180910390a250505050565b600091825260c9602090815260408084206001600160a01b0393909316845291905290205460ff1690565b6118e6600080516020615f5e833981519152336118a3565b6119025760405162461bcd60e51b81526004016108f89061581d565b60005b60035463ffffffff821610156119875760016006600060038463ffffffff1681548110611934576119346159b4565b6000918252602080832060088304015460079092166004026101000a90910463ffffffff1683528201929092526040019020805460ff19169115159190911790558061197f816159ca565b915050611905565b506040517f61340a1b154d5d21d259a74bf95379201799b9d12cc6509bb46cb56dc281df5590600090a1565b6119cb600080516020615f5e833981519152336118a3565b6119e75760405162461bcd60e51b81526004016108f89061581d565b63ffffffff8116600081815260066020526040808220805460ff19166001179055517ff6cf9095f1dcea2429c26c832cbcc084fa0a1692b2c301601edd75b9d83520b29190a250565b60038181548110611a4057600080fd5b9060005260206000209060089182820401919006600402915054906101000a900463ffffffff1681565b6000805460ff16611a8e57604051631492b62f60e11b815260040160405180910390fd5b468563ffffffff1603611ab45760405163b0747d8160e01b815260040160405180910390fd5b60008061136387878787611b63565b600082815260c96020526040902060010154611ade81611bda565b61096c8383611c6a565b611b00600080516020615f5e833981519152336118a3565b611b1c5760405162461bcd60e51b81526004016108f89061581d565b6000805460ff19168215159081179091556040519081527f3eea1dc6ce990571e1081137b38c853529a3893b52e9719a48a2f4ac5e3a956c9060200160405180910390a150565b600854600254604080516020601f8601819004810282018101909252848152606093600093611bc69360ff909216926001600160401b0390911691469133918c918c918c908c9081908401838280828437600092019190915250612eba92505050565b805160208201209097909650945050505050565b610acb8133612ef5565b611bee82826118a3565b6109eb57600082815260c9602090815260408083206001600160a01b03851684529091529020805460ff19166001179055611c263390565b6001600160a01b0316816001600160a01b0316837f2f8788117e7eff1d82e926ec794901d17c78024a50270940304540a733656f0d60405160405180910390a45050565b611c7482826118a3565b156109eb57600082815260c9602090815260408083206001600160a01b0385168085529252808320805460ff1916905551339285917ff6391f5c32d9c69d2a47ea670b442974b53935d1edc7fd64eb21e047a839171b9190a45050565b611ce9600080516020615ed7833981519152336118a3565b610acb5760405162461bcd60e51b81526004016108f8906159e3565b7f4910fdfa16fed3260ed0e7147f7cc6da11a60208b5b9406d12a635614ffd91435460ff1615611d385761096c83612f4e565b826001600160a01b03166352d1902d6040518163ffffffff1660e01b8152600401602060405180830381865afa925050508015611d92575060408051601f3d908101601f19168201909252611d8f91810190615934565b60015b611df55760405162461bcd60e51b815260206004820152602e60248201527f45524331393637557067726164653a206e657720696d706c656d656e7461746960448201526d6f6e206973206e6f74205555505360901b60648201526084016108f8565b600080516020615f178339815191528114611e645760405162461bcd60e51b815260206004820152602960248201527f45524331393637557067726164653a20756e737570706f727465642070726f786044820152681a58589b195555525160ba1b60648201526084016108f8565b5061096c838383612fea565b600260335403611ec25760405162461bcd60e51b815260206004820152601f60248201527f5265656e7472616e637947756172643a207265656e7472616e742063616c6c0060448201526064016108f8565b6002603355565b6040805160e08101825260008082526020820181905291810182905260608082018390526080820183905260a082019290925260c0810191909152600080611f4685858080601f01602080910402602001604051908101604052809392919081815260200183838082843760009201919091525061301592505050565b905060008585604051611f5a929190615a51565b60405190819003902090506000808281526007602052604090205460ff166002811115611f8957611f896153e6565b14611fd65760405162461bcd60e51b815260206004820152601960248201527f4d65737361676520616c72656164792065786563757465642e0000000000000060448201526064016108f8565b46826080015163ffffffff161461201e5760405162461bcd60e51b815260206004820152600c60248201526b2bb937b7339031b430b4b71760a11b60448201526064016108f8565b600854825160ff9081169116146120685760405162461bcd60e51b815260206004820152600e60248201526d2bb937b733903b32b939b4b7b71760911b60448201526064016108f8565b60408083015163ffffffff166000908152600460205220546001600160a01b031615806120b3575060408083015163ffffffff166000908152600560205220546001600160a01b0316155b156121265760405162461bcd60e51b815260206004820152603760248201527f4c6967687420636c69656e74206f722062726f616463617374657220666f722060448201527f736f7572636520636861696e206973206e6f742073657400000000000000000060648201526084016108f8565b90925090505b9250929050565b63ffffffff81166000908152600460205260409020546001600160a01b03166121995760405162461bcd60e51b81526020600482015260186024820152772634b3b43a1031b634b2b73a1034b9903737ba1039b2ba1760411b60448201526064016108f8565b63ffffffff8116600090815260046020818152604092839020548351632bcccca560e01b815293516001600160a01b0390911693632bcccca5938181019392918290030181865afa1580156121f2573d6000803e3d6000fd5b505050506040513d601f19601f820116820180604052508101906122169190615a61565b610acb5760405162461bcd60e51b815260206004820152601d60248201527f4c6967687420636c69656e7420697320696e636f6e73697374656e742e00000060448201526064016108f8565b63ffffffff811660009081526006602052604090205460ff1615610acb5760405162461bcd60e51b815260206004820152601360248201527221b7b73a3930b1ba1034b990333937bd32b71760691b60448201526064016108f8565b63ffffffff81166000908152600460205260409020546001600160a01b03166123245760405162461bcd60e51b81526020600482015260186024820152772634b3b43a1031b634b2b73a1034b9903737ba1039b2ba1760411b60448201526064016108f8565b63ffffffff8116600090815260046020819052604091829020549151638bc33af360e01b81526001600160401b038516918101919091526001600160a01b0390911690638bc33af390602401602060405180830381865afa15801561238d573d6000803e3d6000fd5b505050506040513d601f19601f820116820180604052508101906123b19190615934565b6000036124005760405162461bcd60e51b815260206004820152601e60248201527f54696d657374616d70206973206e6f742073657420666f7220736c6f742e000060448201526064016108f8565b63ffffffff81166000908152600460208190526040808320549051638bc33af360e01b81526001600160401b038616928101929092526001600160a01b031690638bc33af390602401602060405180830381865afa158015612466573d6000803e3d6000fd5b505050506040513d601f19601f8201168201806040525081019061248a9190615934565b6124949042615a7e565b9050607881101561096c5760405162461bcd60e51b815260206004820152602260248201527f4d7573742077616974206c6f6e67657220746f20757365207468697320736c6f6044820152613a1760f11b60648201526084016108f8565b60405163082b2af760e31b815263ffffffff82166004820152600090819073__$083586bac2d506cf8c8f15e692f942458b$__9063415957b890602401602060405180830381865af415801561254c573d6000803e3d6000fd5b505050506040513d601f19601f820116820180604052508101906125709190615934565b9050600081856001600160401b03161061258b57601b61258e565b60075b60ff169050600082866001600160401b0316106125ca576120006125bb846001600160401b038916615a7e565b6125c59190615aa7565b6125df565b6125df6120006001600160401b038816615aa7565b90506000866001600160401b0316886001600160401b03160361261e5750600b61260b81610200615abb565b61261790610183615ada565b9050612753565b61200061262b888a615aed565b6001600160401b03161161268d5750600b612647816020615abb565b612652906006615ada565b90506126696120006001600160401b038916615b14565b61267561200083615abb565b61267f9190615ada565b905061260b81610200615abb565b876001600160401b0316876001600160401b0316101561270b5750600b826126b6826020615abb565b6126c09190615ada565b90506126cd816002615abb565b6126d8906000615ada565b9050816126e9630100000083615abb565b6126f39190615ada565b9050612700816002615abb565b612652906001615ada565b60405162461bcd60e51b815260206004820152601e60248201527f546172676574414d423a20696e76616c69642074617267657420736c6f74000060448201526064016108f8565b61275f8b828c8c6130da565b9b9a5050505050505050505050565b60008061277c878a8a6130f4565b9050600081600081518110612793576127936159b4565b01602001516001600160f81b03191690506000600160f81b8214806127c55750600160f91b6001600160f81b03198316145b156127d257506001612837565b600360fe1b6001600160f81b03198316106127ef57506000612837565b60405162461bcd60e51b815260206004820152601c60248201527f556e737570706f72746564207472616e73616374696f6e20747970650000000060448201526064016108f8565b6000602084019050600060405180604001604052808487516128599190615a7e565b81526020016128688585615ada565b90529050600061287782613994565b905080516004146128c35760405162461bcd60e51b8152602060048201526016602482015275092dcecc2d8d2c840e4cac6cad2e0e840d8cadccee8d60531b60448201526064016108f8565b60006128e8826003815181106128db576128db6159b4565b6020026020010151613994565b905080518c1061293a5760405162461bcd60e51b815260206004820152601760248201527f4c6f6720696e646578206f7574206f6620626f756e647300000000000000000060448201526064016108f8565b6000612951828e815181106128db576128db6159b4565b905080516003146129af5760405162461bcd60e51b815260206004820152602260248201527f4c6f672068617320696e636f7272656374206e756d626572206f66206669656c604482015261647360f01b60648201526084016108f8565b60006129d4826000815181106129c7576129c76159b4565b6020026020010151613bb9565b90508c6001600160a01b0316816001600160a01b031614612a475760405162461bcd60e51b815260206004820152602760248201527f4576656e7420776173206e6f7420656d697474656420627920636c61696d656460448201526622b6b4ba3a32b960c91b60648201526084016108f8565b6000612a5f836001815181106128db576128db6159b4565b90508c612a8582600081518110612a7857612a786159b4565b6020026020010151613c23565b14612ae85760405162461bcd60e51b815260206004820152602d60248201527f4576656e74207369676e617475726520646f6573206e6f74206d61746368206560448201526c76656e745369676e617475726560981b60648201526084016108f8565b612b0a818d81518110612afd57612afd6159b4565b6020026020010151613c2a565b9a5050505050505050505050979650505050505050565b600060606000633bdc60d660e01b866040015187606001518860c00151604051602401612b5093929190615b28565b60408051601f198184030181529190526020810180516001600160e01b03166001600160e01b03199093169290921790915260a0870151909150806001600160a01b031682604051612ba29190615b58565b6000604051808303816000865af19150503d8060008114612bdf576040519150601f19603f3d011682016040523d82523d6000602084013e612be4565b606091505b5080519195509350600092506020039050612c2657600082806020019051810190612c0f9190615b74565b6001600160e01b031916631dee306b60e11b149150505b828015612c305750805b15612c53576000858152600760205260409020805460ff19166002179055612c6d565b6000858152600760205260409020805460ff191660011790555b8486602001516001600160401b0316876040015163ffffffff167f1f26985f3389d5ee1e49b37cdef193b3e98c927d7dd8b6a1f9cddd17a1fe89478787604051612cb8929190615b91565b60405180910390a4505050505050565b6001603355565b603254610100900460ff16612cf65760405162461bcd60e51b81526004016108f890615bb5565b612cfe613d2d565b565b603254610100900460ff16612cfe5760405162461bcd60e51b81526004016108f890615bb5565b6040516001600160601b0319606084901b16602082015260009081906034016040516020818303038152906040528051906020012090506000612d8c82604051602001612d7691815260200190565b60405160208183030381529060405287866130f4565b90506000815111612dd85760405162461bcd60e51b81526020600482015260166024820152751058d8dbdd5b9d08191bd95cc81b9bdd08195e1a5cdd60521b60448201526064016108f8565b6000612deb612de683613d54565b613994565b90508051600414612dfb57600080fd5b612e1181600281518110612a7857612a786159b4565b93505050505b9392505050565b600080612e4d85604051602001612e3791815260200190565b60405160208183030381529060405284866130f4565b90506000815111612ea05760405162461bcd60e51b815260206004820152601c60248201527f53746f726167652076616c756520646f6573206e6f742065786973740000000060448201526064016108f8565b612eb1612eac82613d54565b613c23565b95945050505050565b606087878787878787604051602001612ed99796959493929190615c00565b6040516020818303038152906040529050979650505050505050565b612eff82826118a3565b6109eb57612f0c81613da7565b612f17836020613db9565b604051602001612f28929190615c87565b60408051601f198184030181529082905262461bcd60e51b82526108f89160040161580a565b6001600160a01b0381163b612fbb5760405162461bcd60e51b815260206004820152602d60248201527f455243313936373a206e657720696d706c656d656e746174696f6e206973206e60448201526c1bdd08184818dbdb9d1c9858dd609a1b60648201526084016108f8565b600080516020615f1783398151915280546001600160a01b0319166001600160a01b0392909216919091179055565b612ff383613f54565b6000825111806130005750805b1561096c5761300f8383613f94565b50505050565b6040805160e08101825260008082526020820181905291810182905260608082018390526080820183905260a082019290925260c081019190915260018201516009830151600d8401516021850151602586015160458088015160ff871688526001600160401b038616602089015263ffffffff80861660408a01526001600160a01b03851660608a01528316608089015260a08801819052885190916130c9918a91906130c4908290615a7e565b61407f565b60c088015250949695505050505050565b6000806130e886868661416b565b90921495945050505050565b6060600084511161313f5760405162461bcd60e51b81526020600482015260156024820152744d65726b6c65547269653a20656d707479206b657960581b60448201526064016108f8565b600061314a846142fa565b90506000613157866143e8565b905060008460405160200161316e91815260200190565b60405160208183030381529060405290506000805b845181101561393d5760008582815181106131a0576131a06159b4565b6020026020010151905084518311156132125760405162461bcd60e51b815260206004820152602e60248201527f4d65726b6c65547269653a206b657920696e646578206578636565647320746f60448201526d0e8c2d840d6caf240d8cadccee8d60931b60648201526084016108f8565b826000036132b157805180516020918201206040516132609261323a92910190815260200190565b604051602081830303815290604052858051602091820120825192909101919091201490565b6132ac5760405162461bcd60e51b815260206004820152601d60248201527f4d65726b6c65547269653a20696e76616c696420726f6f74206861736800000060448201526064016108f8565b6133a7565b80515160201161333757805180516020918201206040516132db9261323a92910190815260200190565b6132ac5760405162461bcd60e51b815260206004820152602760248201527f4d65726b6c65547269653a20696e76616c6964206c6172676520696e7465726e6044820152660c2d840d0c2e6d60cb1b60648201526084016108f8565b8051845160208087019190912082519190920120146133a75760405162461bcd60e51b815260206004820152602660248201527f4d65726b6c65547269653a20696e76616c696420696e7465726e616c206e6f646044820152650ca40d0c2e6d60d31b60648201526084016108f8565b6133b360106001615ada565b8160200151510361356057845183036134f85760006133ef82602001516010815181106133e2576133e26159b4565b6020026020010151614502565b905060008151116134685760405162461bcd60e51b815260206004820152603b60248201527f4d65726b6c65547269653a2076616c7565206c656e677468206d75737420626560448201527f2067726561746572207468616e207a65726f20286272616e636829000000000060648201526084016108f8565b600187516134769190615a7e565b83146134ea5760405162461bcd60e51b815260206004820152603a60248201527f4d65726b6c65547269653a2076616c7565206e6f6465206d757374206265206c60448201527f617374206e6f646520696e2070726f6f6620286272616e63682900000000000060648201526084016108f8565b9650612e1795505050505050565b600085848151811061350c5761350c6159b4565b602001015160f81c60f81b60f81c9050600082602001518260ff1681518110613537576135376159b4565b6020026020010151905061354a81614625565b9550613557600186615ada565b9450505061392a565b6002816020015151036138d15760006135788261464a565b905060008160008151811061358f5761358f6159b4565b016020015160f81c905060006135a6600283615cfc565b6135b1906002615d1e565b905060006135c2848360ff1661466e565b905060006135d08a8961466e565b905060006135de83836146a4565b9050808351146136565760405162461bcd60e51b815260206004820152603a60248201527f4d65726b6c65547269653a20706174682072656d61696e646572206d7573742060448201527f736861726520616c6c206e6962626c65732077697468206b657900000000000060648201526084016108f8565b60ff85166002148061366b575060ff85166003145b1561381157808251146136e65760405162461bcd60e51b815260206004820152603d60248201527f4d65726b6c65547269653a206b65792072656d61696e646572206d757374206260448201527f65206964656e746963616c20746f20706174682072656d61696e64657200000060648201526084016108f8565b600061370288602001516001815181106133e2576133e26159b4565b9050600081511161377b5760405162461bcd60e51b815260206004820152603960248201527f4d65726b6c65547269653a2076616c7565206c656e677468206d75737420626560448201527f2067726561746572207468616e207a65726f20286c656166290000000000000060648201526084016108f8565b60018d516137899190615a7e565b89146137fd5760405162461bcd60e51b815260206004820152603860248201527f4d65726b6c65547269653a2076616c7565206e6f6465206d757374206265206c60448201527f617374206e6f646520696e2070726f6f6620286c65616629000000000000000060648201526084016108f8565b9c50612e179b505050505050505050505050565b60ff85161580613824575060ff85166001145b15613863576138508760200151600181518110613843576138436159b4565b6020026020010151614625565b995061385c818a615ada565b98506138c6565b60405162461bcd60e51b815260206004820152603260248201527f4d65726b6c65547269653a2072656365697665642061206e6f64652077697468604482015271040c2dc40eadcd6dcdeeedc40e0e4caccd2f60731b60648201526084016108f8565b50505050505061392a565b60405162461bcd60e51b815260206004820152602860248201527f4d65726b6c65547269653a20726563656976656420616e20756e706172736561604482015267626c65206e6f646560c01b60648201526084016108f8565b508061393581615a38565b915050613183565b5060405162461bcd60e51b815260206004820152602560248201527f4d65726b6c65547269653a2072616e206f7574206f662070726f6f6620656c656044820152646d656e747360d81b60648201526084016108f8565b606060008060006139a485614723565b9194509250905060018160018111156139bf576139bf6153e6565b14613a325760405162461bcd60e51b815260206004820152603860248201527f524c505265616465723a206465636f646564206974656d207479706520666f7260448201527f206c697374206973206e6f742061206c697374206974656d000000000000000060648201526084016108f8565b8451613a3e8385615ada565b14613aa65760405162461bcd60e51b815260206004820152603260248201527f524c505265616465723a206c697374206974656d2068617320616e20696e76616044820152713634b2103230ba30903932b6b0b4b73232b960711b60648201526084016108f8565b6040805160208082526104208201909252600091816020015b6040805180820190915260008082526020820152815260200190600190039081613abf5790505090506000845b8751811015613bad57600080613b326040518060400160405280858d60000151613b169190615a7e565b8152602001858d60200151613b2b9190615ada565b9052614723565b509150915060405180604001604052808383613b4e9190615ada565b8152602001848c60200151613b639190615ada565b815250858581518110613b7857613b786159b4565b6020908102919091010152613b8e600185615ada565b9350613b9a8183615ada565b613ba49084615ada565b92505050613aec565b50815295945050505050565b8051600090600103613bcd57506000919050565b8151601514613c1e5760405162461bcd60e51b815260206004820152601a60248201527f496e76616c696420524c5020616464726573732076616c75652e00000000000060448201526064016108f8565b6107b8825b60006107b8825b6000602182600001511115613c815760405162461bcd60e51b815260206004820152601a60248201527f496e76616c696420524c5020627974657333322076616c75652e00000000000060448201526064016108f8565b6000806000613c8f85614723565b919450925090506000816001811115613caa57613caa6153e6565b14613cf75760405162461bcd60e51b815260206004820152601a60248201527f496e76616c696420524c5020627974657333322076616c75652e00000000000060448201526064016108f8565b6000838660200151613d099190615ada565b80519091506020841015613d235760208490036101000a90045b9695505050505050565b603254610100900460ff16612cc85760405162461bcd60e51b81526004016108f890615bb5565b60408051808201909152600080825260208201526000825111613d895760405162461bcd60e51b81526004016108f890615d37565b50604080518082019091528151815260209182019181019190915290565b60606107b86001600160a01b03831660145b60606000613dc8836002615abb565b613dd3906002615ada565b6001600160401b03811115613dea57613dea615234565b6040519080825280601f01601f191660200182016040528015613e14576020820181803683370190505b509050600360fc1b81600081518110613e2f57613e2f6159b4565b60200101906001600160f81b031916908160001a905350600f60fb1b81600181518110613e5e57613e5e6159b4565b60200101906001600160f81b031916908160001a9053506000613e82846002615abb565b613e8d906001615ada565b90505b6001811115613f05576f181899199a1a9b1b9c1cb0b131b232b360811b85600f1660108110613ec157613ec16159b4565b1a60f81b828281518110613ed757613ed76159b4565b60200101906001600160f81b031916908160001a90535060049490941c93613efe81615da7565b9050613e90565b508315612e175760405162461bcd60e51b815260206004820181905260248201527f537472696e67733a20686578206c656e67746820696e73756666696369656e7460448201526064016108f8565b613f5d81612f4e565b6040516001600160a01b038216907fbc7cd75a20ee27fd9adebab32041f755214dbc6bffa90cc0225b39da2e5c2d3b90600090a250565b60606001600160a01b0383163b613ffc5760405162461bcd60e51b815260206004820152602660248201527f416464726573733a2064656c65676174652063616c6c20746f206e6f6e2d636f6044820152651b9d1c9858dd60d21b60648201526084016108f8565b600080846001600160a01b0316846040516140179190615b58565b600060405180830381855af49150503d8060008114614052576040519150601f19603f3d011682016040523d82523d6000602084013e614057565b606091505b5091509150612eb18282604051806060016040528060278152602001615f3760279139614de6565b60608161408d81601f615ada565b10156140ab5760405162461bcd60e51b81526004016108f890615dbe565b6140b58284615ada565b845110156140f95760405162461bcd60e51b8152602060048201526011602482015270736c6963655f6f75744f66426f756e647360781b60448201526064016108f8565b6060821580156141185760405191506000825260208201604052614162565b6040519150601f8416801560200281840101858101878315602002848b0101015b81831015614151578051835260209283019201614139565b5050858452601f01601f1916604052505b50949350505050565b6000828251600161417c9190615ada565b614187906002615eca565b1161419157600080fd5b8360005b84600114614162576141a8600286615b14565b6001036142475760028482815181106141c3576141c36159b4565b6020026020010151836040516020016141e6929190918252602082015260400190565b60408051601f198184030181529082905261420091615b58565b602060405180830381855afa15801561421d573d6000803e3d6000fd5b5050506040513d601f19601f820116820180604052508101906142409190615934565b91506142db565b60028285838151811061425c5761425c6159b4565b602002602001015160405160200161427e929190918252602082015260400190565b60408051601f198184030181529082905261429891615b58565b602060405180830381855afa1580156142b5573d6000803e3d6000fd5b5050506040513d601f19601f820116820180604052508101906142d89190615934565b91505b6142e6600286615aa7565b9450806142f281615a38565b915050614195565b80516060906000816001600160401b0381111561431957614319615234565b60405190808252806020026020018201604052801561435e57816020015b60408051808201909152606080825260208201528152602001906001900390816143375790505b50905060005b828110156143e0576040518060400160405280868381518110614389576143896159b4565b602002602001015181526020016143b88784815181106143ab576143ab6159b4565b6020026020010151614dff565b8152508282815181106143cd576143cd6159b4565b6020908102919091010152600101614364565b509392505050565b805160609060006143fa826002615abb565b6001600160401b0381111561441157614411615234565b6040519080825280601f01601f19166020018201604052801561443b576020820181803683370190505b5090506000805b838110156144f85785818151811061445c5761445c6159b4565b6020910101516001600160f81b03198116925060041c60ff60f41b1683614484836002615abb565b81518110614494576144946159b4565b60200101906001600160f81b031916908160001a905350600f60f81b8216836144be836002615abb565b6144c9906001615ada565b815181106144d9576144d96159b4565b60200101906001600160f81b031916908160001a905350600101614442565b5090949350505050565b6060600080600061451285614723565b91945092509050600081600181111561452d5761452d6153e6565b146145a05760405162461bcd60e51b815260206004820152603960248201527f524c505265616465723a206465636f646564206974656d207479706520666f7260448201527f206279746573206973206e6f7420612064617461206974656d0000000000000060648201526084016108f8565b6145aa8284615ada565b8551146146165760405162461bcd60e51b815260206004820152603460248201527f524c505265616465723a2062797465732076616c756520636f6e7461696e732060448201527330b71034b73b30b634b2103932b6b0b4b73232b960611b60648201526084016108f8565b612eb185602001518484614e0d565b606060208260000151106146415761463c82614502565b6107b8565b6107b882614ead565b60606107b861466983602001516000815181106133e2576133e26159b4565b6143e8565b60608251821061468d57506040805160208101909152600081526107b8565b612e17838384865161469f9190615a7e565b614ec3565b600080600083518551106146b95783516146bc565b84515b90505b808210801561471357508382815181106146db576146db6159b4565b602001015160f81c60f81b6001600160f81b031916858381518110614702576147026159b4565b01602001516001600160f81b031916145b156143e0578160010191506146bf565b60008060008084600001511161474b5760405162461bcd60e51b81526004016108f890615d37565b6020840151805160001a607f8111614770576000600160009450945094505050614ddf565b60b781116148cd576000614785608083615a7e565b9050808760000151116148055760405162461bcd60e51b815260206004820152604e6024820152600080516020615ef783398151915260448201527f742062652067726561746572207468616e20737472696e67206c656e6774682060648201526d2873686f727420737472696e672960901b608482015260a4016108f8565b6001838101516001600160f81b03191690821415806148325750600160ff1b6001600160f81b0319821610155b6148ba5760405162461bcd60e51b815260206004820152604d60248201527f524c505265616465723a20696e76616c6964207072656669782c2073696e676c60448201527f652062797465203c203078383020617265206e6f74207072656669786564202860648201526c73686f727420737472696e672960981b608482015260a4016108f8565b5060019550935060009250614ddf915050565b60bf8111614b0e5760006148e260b783615a7e565b9050808760000151116149655760405162461bcd60e51b81526020600482015260516024820152600080516020615ef783398151915260448201527f74206265203e207468616e206c656e677468206f6620737472696e67206c656e60648201527067746820286c6f6e6720737472696e672960781b608482015260a4016108f8565b60018301516001600160f81b03191660008190036149ec5760405162461bcd60e51b815260206004820152604a6024820152600080516020615ef783398151915260448201527f74206e6f74206861766520616e79206c656164696e67207a65726f7320286c6f6064820152696e6720737472696e672960b01b608482015260a4016108f8565b600184015160088302610100031c60378111614a6f5760405162461bcd60e51b81526020600482015260486024820152600080516020615ef783398151915260448201527f742062652067726561746572207468616e20353520627974657320286c6f6e6760648201526720737472696e672960c01b608482015260a4016108f8565b614a798184615ada565b895111614af15760405162461bcd60e51b815260206004820152604c6024820152600080516020615ef783398151915260448201527f742062652067726561746572207468616e20746f74616c206c656e677468202860648201526b6c6f6e6720737472696e672960a01b608482015260a4016108f8565b614afc836001615ada565b9750955060009450614ddf9350505050565b60f78111614bb0576000614b2360c083615a7e565b905080876000015111614b9f5760405162461bcd60e51b815260206004820152604a6024820152600080516020615ef783398151915260448201527f742062652067726561746572207468616e206c697374206c656e677468202873606482015269686f7274206c6973742960b01b608482015260a4016108f8565b600195509350849250614ddf915050565b6000614bbd60f783615a7e565b905080876000015111614c3c5760405162461bcd60e51b815260206004820152604d6024820152600080516020615ef783398151915260448201527f74206265203e207468616e206c656e677468206f66206c697374206c656e677460648201526c6820286c6f6e67206c6973742960981b608482015260a4016108f8565b60018301516001600160f81b0319166000819003614cc15760405162461bcd60e51b81526020600482015260486024820152600080516020615ef783398151915260448201527f74206e6f74206861766520616e79206c656164696e67207a65726f7320286c6f6064820152676e67206c6973742960c01b608482015260a4016108f8565b600184015160088302610100031c60378111614d425760405162461bcd60e51b81526020600482015260466024820152600080516020615ef783398151915260448201527f742062652067726561746572207468616e20353520627974657320286c6f6e67606482015265206c6973742960d01b608482015260a4016108f8565b614d4c8184615ada565b895111614dc25760405162461bcd60e51b815260206004820152604a6024820152600080516020615ef783398151915260448201527f742062652067726561746572207468616e20746f74616c206c656e67746820286064820152696c6f6e67206c6973742960b01b608482015260a4016108f8565b614dcd836001615ada565b9750955060019450614ddf9350505050565b9193909250565b60608315614df5575081612e17565b612e178383614f51565b60606107b8612de683613d54565b60606000826001600160401b03811115614e2957614e29615234565b6040519080825280601f01601f191660200182016040528015614e53576020820181803683370190505b50905082600003614e65579050612e17565b6000614e718587615ada565b90506020820160005b85811015614e92578281015182820152602001614e7a565b85811115614ea1576000868301525b50919695505050505050565b60606107b8826020015160008460000151614e0d565b60608182601f011015614ee85760405162461bcd60e51b81526004016108f890615dbe565b828284011015614f0a5760405162461bcd60e51b81526004016108f890615dbe565b818301845110156140f95760405162461bcd60e51b8152602060048201526011602482015270736c6963655f6f75744f66426f756e647360781b60448201526064016108f8565b815115614f615781518083602001fd5b8060405162461bcd60e51b81526004016108f8919061580a565b8280548282559060005260206000209060070160089004810192821561501a5791602002820160005b83821115614fe857835183826101000a81548163ffffffff021916908363ffffffff1602179055509260200192600401602081600301049283019260010302614fa4565b80156150185782816101000a81549063ffffffff0219169055600401602081600301049283019260010302614fe8565b505b5061502692915061502a565b5090565b5b80821115615026576000815560010161502b565b6001600160e01b031981168114610acb57600080fd5b60006020828403121561506757600080fd5b8135612e178161503f565b80356001600160401b038116811461508957600080fd5b919050565b6000602082840312156150a057600080fd5b612e1782615072565b803563ffffffff8116811461508957600080fd5b80356001600160a01b038116811461508957600080fd5b60008083601f8401126150e657600080fd5b5081356001600160401b038111156150fd57600080fd5b60208301915083602082850101111561212c57600080fd5b6000806000806060858703121561512b57600080fd5b615134856150a9565b9350615142602086016150bd565b925060408501356001600160401b0381111561515d57600080fd5b615169878288016150d4565b95989497509550505050565b60006020828403121561518757600080fd5b612e17826150a9565b6000602082840312156151a257600080fd5b5035919050565b600080604083850312156151bc57600080fd5b823591506151cc602084016150bd565b90509250929050565b6000602082840312156151e757600080fd5b612e17826150bd565b60008083601f84011261520257600080fd5b5081356001600160401b0381111561521957600080fd5b6020830191508360208260051b850101111561212c57600080fd5b634e487b7160e01b600052604160045260246000fd5b604051601f8201601f191681016001600160401b038111828210171561527257615272615234565b604052919050565b600082601f83011261528b57600080fd5b81356001600160401b038111156152a4576152a4615234565b6152b7601f8201601f191660200161524a565b8181528460208386010111156152cc57600080fd5b816020850160208301376000918101602001919091529392505050565b600080600080600080600080600080600060e08c8e03121561530a57600080fd5b6001600160401b03808d35111561532057600080fd5b61532d8e8e358f016150d4565b909c509a5060208d013581101561534357600080fd5b6153538e60208f01358f016150d4565b909a50985060408d013581101561536957600080fd5b6153798e60408f01358f016151f0565b909850965060608d0135955060808d013581101561539657600080fd5b6153a68e60808f01358f016151f0565b909550935060a08d01358110156153bc57600080fd5b506153cd8d60a08e01358e0161527a565b915060c08c013590509295989b509295989b9093969950565b634e487b7160e01b600052602160045260246000fd5b602081016003831061541e57634e487b7160e01b600052602160045260246000fd5b91905290565b6000806040838503121561543757600080fd5b615440836150bd565b915060208301356001600160401b0381111561545b57600080fd5b6154678582860161527a565b9150509250929050565b60006001600160401b0382111561548a5761548a615234565b5060051b60200190565b600082601f8301126154a557600080fd5b813560206154ba6154b583615471565b61524a565b82815260059290921b840181019181810190868411156154d957600080fd5b8286015b848110156154fb576154ee816150bd565b83529183019183016154dd565b509695505050505050565b8015158114610acb57600080fd5b803561508981615506565b60008060008060008060c0878903121561553857600080fd5b86356001600160401b038082111561554f57600080fd5b818901915089601f83011261556357600080fd5b813560206155736154b583615471565b82815260059290921b8401810191818101908d84111561559257600080fd5b948201945b838610156155b7576155a8866150a9565b82529482019490820190615597565b9a50508a0135925050808211156155cd57600080fd5b6155d98a838b01615494565b965060408901359150808211156155ef57600080fd5b506155fc89828a01615494565b94505061560b606088016150bd565b9250615619608088016150bd565b915061562760a08801615514565b90509295509295509295565b6000806000806060858703121561564957600080fd5b615652856150a9565b93506020850135925060408501356001600160401b0381111561515d57600080fd5b60008060008060008060006080888a03121561568f57600080fd5b61569888615072565b965060208801356001600160401b03808211156156b457600080fd5b6156c08b838c016150d4565b909850965060408a01359150808211156156d957600080fd5b6156e58b838c016151f0565b909650945060608a01359150808211156156fe57600080fd5b5061570b8a828b016151f0565b989b979a50959850939692959293505050565b60008060006060848603121561573357600080fd5b61573c846150a9565b925061574a602085016150bd565b9150615758604085016150bd565b90509250925092565b60006020828403121561577357600080fd5b8135612e1781615506565b634e487b7160e01b600052601160045260246000fd5b60006001600160401b038083168181036157b0576157b061577e565b6001019392505050565b60005b838110156157d55781810151838201526020016157bd565b50506000910152565b600081518084526157f68160208601602086016157ba565b601f01601f19169290920160200192915050565b602081526000612e1760208301846157de565b60208082526035908201527f54656c657061746879526f757465723a206f6e6c7920677561726469616e206360408201527430b71031b0b636103a3434b990333ab731ba34b7b760591b606082015260800190565b6020808252602c908201527f46756e6374696f6e206d7573742062652063616c6c6564207468726f7567682060408201526b19195b1959d85d1958d85b1b60a21b606082015260800190565b6020808252602c908201527f46756e6374696f6e206d7573742062652063616c6c6564207468726f7567682060408201526b6163746976652070726f787960a01b606082015260800190565b6000806040838503121561591d57600080fd5b61592683615072565b91506151cc60208401615072565b60006020828403121561594657600080fd5b5051919050565b600061595b6154b584615471565b80848252602080830192508560051b85013681111561597957600080fd5b855b81811015614ea15780356001600160401b0381111561599a5760008081fd5b6159a636828a0161527a565b86525093820193820161597b565b634e487b7160e01b600052603260045260246000fd5b600063ffffffff8083168181036157b0576157b061577e565b60208082526035908201527f54656c657061746879526f757465723a206f6e6c792074696d656c6f636b206360408201527430b71031b0b636103a3434b990333ab731ba34b7b760591b606082015260800190565b600060018201615a4a57615a4a61577e565b5060010190565b8183823760009101908152919050565b600060208284031215615a7357600080fd5b8151612e1781615506565b818103818111156107b8576107b861577e565b634e487b7160e01b600052601260045260246000fd5b600082615ab657615ab6615a91565b500490565b6000816000190483118215151615615ad557615ad561577e565b500290565b808201808211156107b8576107b861577e565b6001600160401b03828116828216039080821115615b0d57615b0d61577e565b5092915050565b600082615b2357615b23615a91565b500690565b63ffffffff841681526001600160a01b0383166020820152606060408201819052600090612eb1908301846157de565b60008251615b6a8184602087016157ba565b9190910192915050565b600060208284031215615b8657600080fd5b8151612e178161503f565b604081526000615ba460408301856157de565b905082151560208301529392505050565b6020808252602b908201527f496e697469616c697a61626c653a20636f6e7472616374206973206e6f74206960408201526a6e697469616c697a696e6760a81b606082015260800190565b6001600160f81b031960f889901b1681526001600160c01b031960c088901b1660018201526001600160e01b031960e087811b821660098401526001600160601b0319606088901b16600d84015285901b166021820152602581018390528151600090615c748160458501602087016157ba565b9190910160450198975050505050505050565b7f416363657373436f6e74726f6c3a206163636f756e7420000000000000000000815260008351615cbf8160178501602088016157ba565b7001034b99036b4b9b9b4b733903937b6329607d1b6017918401918201528351615cf08160288401602088016157ba565b01602801949350505050565b600060ff831680615d0f57615d0f615a91565b8060ff84160691505092915050565b60ff82811682821603908111156107b8576107b861577e565b6020808252604a908201527f524c505265616465723a206c656e677468206f6620616e20524c50206974656d60408201527f206d7573742062652067726561746572207468616e207a65726f20746f206265606082015269206465636f6461626c6560b01b608082015260a00190565b600081615db657615db661577e565b506000190190565b6020808252600e908201526d736c6963655f6f766572666c6f7760901b604082015260600190565b600181815b80851115615e21578160001904821115615e0757615e0761577e565b80851615615e1457918102915b93841c9390800290615deb565b509250929050565b600082615e38575060016107b8565b81615e45575060006107b8565b8160018114615e5b5760028114615e6557615e81565b60019150506107b8565b60ff841115615e7657615e7661577e565b50506001821b6107b8565b5060208310610133831016604e8410600b8410161715615ea4575081810a6107b8565b615eae8383615de6565b8060001904821115615ec257615ec261577e565b029392505050565b6000612e178383615e2956fef66846415d2bf9eabda9e84793ff9c0ea96d87f50fc41e66aa16469c6a442f05524c505265616465723a206c656e677468206f6620636f6e74656e74206d7573360894a13ba1a3210667c828492db98dca3e2076cc3735a920a3ca505d382bbc416464726573733a206c6f772d6c6576656c2064656c65676174652063616c6c206661696c656455435dd261a4b9b3364963f7738a7a662ad9c84396d64be3365284bb7f0a5041a26469706673582212209920968ca2549dc136114884cdd68cb7192890d709c1df8ba30e5a5f0825170164736f6c63430008100033",
    "linkReferences": {
      "src/libraries/BeaconChainForks.sol": {
        "BeaconChainForks": [
          {
            "start": 9778,
            "length": 20
          }
        ]
      }
    }
  },
  "methodIdentifiers": {
    "DEFAULT_ADMIN_ROLE()": "a217fddf",
    "GUARDIAN_ROLE()": "24ea54f4",
    "MIN_LIGHT_CLIENT_DELAY()": "e4407b15",
    "TIMELOCK_ROLE()": "f288a2e2",
    "VERSION()": "ffa1ad74",
    "broadcasters(uint32)": "59f89787",
    "executeMessage(uint64,bytes,bytes[],bytes[])": "7acc6754",
    "executeMessageFromLog(bytes,bytes,bytes32[],bytes32,bytes[],bytes,uint256)": "37d5af84",
    "freeze(uint32)": "9a2ed203",
    "freezeAll()": "99464c89",
    "frozen(uint32)": "36ae7c18",
    "getRoleAdmin(bytes32)": "248a9ca3",
    "grantRole(bytes32,address)": "2f2ff15d",
    "hasRole(bytes32,address)": "91d14854",
    "initialize(uint32[],address[],address[],address,address,bool)": "5cb77819",
    "lightClients(uint32)": "7599735c",
    "messageStatus(bytes32)": "3c6cf473",
    "messages(uint64)": "029d6713",
    "nonce()": "affed0e0",
    "proxiableUUID()": "52d1902d",
    "renounceRole(bytes32,address)": "36568abe",
    "revokeRole(bytes32,address)": "d547741f",
    "send(uint32,address,bytes)": "68346a92",
    "send(uint32,bytes32,bytes)": "a96a2e92",
    "sendViaStorage(uint32,address,bytes)": "147bce49",
    "sendViaStorage(uint32,bytes32,bytes)": "6fdbccbf",
    "sendingEnabled()": "3e99e9ce",
    "setLightClientAndBroadcaster(uint32,address,address)": "91cd8bfd",
    "setSendingEnabled(bool)": "ed762d44",
    "sourceChainIds(uint256)": "9efeff1c",
    "sourceChainIdsLength()": "4552f563",
    "storageRootCache(bytes32)": "8d080d1d",
    "supportsInterface(bytes4)": "01ffc9a7",
    "unfreeze(uint32)": "1f3d25a9",
    "unfreezeAll()": "66c5c4a0",
    "upgradeTo(address)": "3659cfe6",
    "upgradeToAndCall(address,bytes)": "4f1ef286",
    "version()": "54fd4d50"
  },
  "id": 102
}