{
  "abi": [
    {
      "inputs": [
        {
          "internalType": "address",
          "name": "_telepathyPubSub",
          "type": "address"
        },
        {
          "internalType": "uint32",
          "name": "_sourceChainId",
          "type": "uint32"
        },
        {
          "internalType": "address",
          "name": "_sourceAddress",
          "type": "address"
        },
        {
          "internalType": "uint64",
          "name": "_startSlot",
          "type": "uint64"
        },
        {
          "internalType": "uint64",
          "name": "_endSlot",
          "type": "uint64"
        },
        {
          "internalType": "address",
          "name": "_homeAMB",
          "type": "address"
        },
        {
          "internalType": "address",
          "name": "_owner",
          "type": "address"
        }
      ],
      "stateMutability": "nonpayable",
      "type": "constructor"
    },
    {
      "inputs": [
        {
          "internalType": "uint64",
          "name": "slot",
          "type": "uint64"
        }
      ],
      "name": "InvalidSlot",
      "type": "error"
    },
    {
      "inputs": [
        {
          "internalType": "address",
          "name": "sourceAddress",
          "type": "address"
        }
      ],
      "name": "InvalidSourceAddress",
      "type": "error"
    },
    {
      "inputs": [
        {
          "internalType": "uint32",
          "name": "sourceChainId",
          "type": "uint32"
        }
      ],
      "name": "InvalidSourceChain",
      "type": "error"
    },
    {
      "inputs": [
        {
          "internalType": "bytes32",
          "name": "subscriptionId",
          "type": "bytes32"
        }
      ],
      "name": "InvalidSubscriptionId",
      "type": "error"
    },
    {
      "inputs": [
        {
          "internalType": "address",
          "name": "sender",
          "type": "address"
        }
      ],
      "name": "NotFromTelepathyPubSub",
      "type": "error"
    },
    {
      "anonymous": false,
      "inputs": [
        {
          "indexed": true,
          "internalType": "bytes32",
          "name": "messageId",
          "type": "bytes32"
        },
        {
          "indexed": false,
          "internalType": "bytes",
          "name": "header",
          "type": "bytes"
        },
        {
          "indexed": false,
          "internalType": "bytes",
          "name": "data",
          "type": "bytes"
        }
      ],
      "name": "AffirmationHandled",
      "type": "event"
    },
    {
      "anonymous": false,
      "inputs": [
        {
          "indexed": true,
          "internalType": "address",
          "name": "previousOwner",
          "type": "address"
        },
        {
          "indexed": true,
          "internalType": "address",
          "name": "newOwner",
          "type": "address"
        }
      ],
      "name": "OwnershipTransferred",
      "type": "event"
    },
    {
      "inputs": [
        {
          "internalType": "bytes32",
          "name": "_subscriptionId",
          "type": "bytes32"
        },
        {
          "internalType": "uint32",
          "name": "_sourceChainId",
          "type": "uint32"
        },
        {
          "internalType": "address",
          "name": "_sourceAddress",
          "type": "address"
        },
        {
          "internalType": "uint64",
          "name": "_slot",
          "type": "uint64"
        },
        {
          "internalType": "bytes32[]",
          "name": "_eventTopics",
          "type": "bytes32[]"
        },
        {
          "internalType": "bytes",
          "name": "_eventdata",
          "type": "bytes"
        }
      ],
      "name": "handlePublish",
      "outputs": [
        {
          "internalType": "bytes4",
          "name": "",
          "type": "bytes4"
        }
      ],
      "stateMutability": "nonpayable",
      "type": "function"
    },
    {
      "inputs": [],
      "name": "owner",
      "outputs": [
        {
          "internalType": "address",
          "name": "",
          "type": "address"
        }
      ],
      "stateMutability": "view",
      "type": "function"
    },
    {
      "inputs": [],
      "name": "renounceOwnership",
      "outputs": [],
      "stateMutability": "nonpayable",
      "type": "function"
    },
    {
      "inputs": [],
      "name": "subscribeToAffirmationEvent",
      "outputs": [
        {
          "internalType": "bytes32",
          "name": "",
          "type": "bytes32"
        }
      ],
      "stateMutability": "nonpayable",
      "type": "function"
    },
    {
      "inputs": [],
      "name": "subscriptionId",
      "outputs": [
        {
          "internalType": "bytes32",
          "name": "",
          "type": "bytes32"
        }
      ],
      "stateMutability": "view",
      "type": "function"
    },
    {
      "inputs": [],
      "name": "telepathyPubSub",
      "outputs": [
        {
          "internalType": "contract TelepathyPubSub",
          "name": "",
          "type": "address"
        }
      ],
      "stateMutability": "view",
      "type": "function"
    },
    {
      "inputs": [],
      "name": "toggleExecuteAffirmations",
      "outputs": [],
      "stateMutability": "nonpayable",
      "type": "function"
    },
    {
      "inputs": [
        {
          "internalType": "address",
          "name": "newOwner",
          "type": "address"
        }
      ],
      "name": "transferOwnership",
      "outputs": [],
      "stateMutability": "nonpayable",
      "type": "function"
    }
  ],
  "bytecode": {
    "object": "0x6101206040523480156200001257600080fd5b5060405162000ddf38038062000ddf833981016040819052620000359162000213565b600080546001600160a01b0319166001600160a01b038916179055620000626200005c3390565b620000ab565b63ffffffff86166080526001600160a01b0380861660a0526001600160401b0380861660c052841660e0528216610100526200009e81620000fd565b50505050505050620002b2565b600180546001600160a01b038381166001600160a01b0319831681179093556040519116919082907f8be0079c531659141344cd1fd0a4f28419497f9722a3daafe3b4186f6b6457e090600090a35050565b6200010762000180565b6001600160a01b038116620001725760405162461bcd60e51b815260206004820152602660248201527f4f776e61626c653a206e6577206f776e657220697320746865207a65726f206160448201526564647265737360d01b60648201526084015b60405180910390fd5b6200017d81620000ab565b50565b6001546001600160a01b03163314620001dc5760405162461bcd60e51b815260206004820181905260248201527f4f776e61626c653a2063616c6c6572206973206e6f7420746865206f776e6572604482015260640162000169565b565b80516001600160a01b0381168114620001f657600080fd5b919050565b80516001600160401b0381168114620001f657600080fd5b600080600080600080600060e0888a0312156200022f57600080fd5b6200023a88620001de565b9650602088015163ffffffff811681146200025457600080fd5b95506200026460408901620001de565b94506200027460608901620001fb565b93506200028460808901620001fb565b92506200029460a08901620001de565b9150620002a460c08901620001de565b905092959891949750929550565b60805160a05160c05160e05161010051610ac56200031a60003960006106230152600081816102140152818161053501526105600152600081816101ec01526104ef015260008181610186015261049201526000818161015f015261043e0152610ac56000f3fe608060405234801561001057600080fd5b50600436106100885760003560e01c80638da5cb5b1161005b5780638da5cb5b146100e6578063a27c0863146100f7578063a2c12a3a146100ff578063f2fde38b1461012b57600080fd5b80630908a3861461008d57806309c1ba2e146100a857806335cb25c3146100b1578063715018a6146100dc575b600080fd5b61009561013e565b6040519081526020015b60405180910390f35b61009560025481565b6000546100c4906001600160a01b031681565b6040516001600160a01b03909116815260200161009f565b6100e4610293565b005b6001546001600160a01b03166100c4565b6100e46102a7565b61011261010d36600461084a565b6102c3565b6040516001600160e01b0319909116815260200161009f565b6100e46101393660046108fc565b610317565b6000610148610390565b600054604051636513895960e01b815263ffffffff7f00000000000000000000000000000000000000000000000000000000000000001660048201527f00000000000000000000000000000000000000000000000000000000000000006001600160a01b0390811660248301523060448301527f482515ce3d9494a37ce83f18b72b363449458435fafdd7a53ddea7460fe01b58606483015267ffffffffffffffff7f0000000000000000000000000000000000000000000000000000000000000000811660848401527f00000000000000000000000000000000000000000000000000000000000000001660a48301529091169063651389599060c4016020604051808303816000875af1158015610265573d6000803e3d6000fd5b505050506040513d601f19601f82011682018060405250810190610289919061091e565b6002819055905090565b61029b610390565b6102a560006103ea565b565b6102af610390565b6003805460ff19811660ff90911615179055565b600080546001600160a01b031633146102f65760405163d664887b60e01b81523360048201526024015b60405180910390fd5b61030487878787878761043c565b50635160951d60e11b9695505050505050565b61031f610390565b6001600160a01b0381166103845760405162461bcd60e51b815260206004820152602660248201527f4f776e61626c653a206e6577206f776e657220697320746865207a65726f206160448201526564647265737360d01b60648201526084016102ed565b61038d816103ea565b50565b6001546001600160a01b031633146102a55760405162461bcd60e51b815260206004820181905260248201527f4f776e61626c653a2063616c6c6572206973206e6f7420746865206f776e657260448201526064016102ed565b600180546001600160a01b038381166001600160a01b0319831681179093556040519116919082907f8be0079c531659141344cd1fd0a4f28419497f9722a3daafe3b4186f6b6457e090600090a35050565b7f000000000000000000000000000000000000000000000000000000000000000063ffffffff168563ffffffff161461049057604051632542b8c360e21b815263ffffffff861660048201526024016102ed565b7f00000000000000000000000000000000000000000000000000000000000000006001600160a01b0316846001600160a01b0316146104ed576040516398785edb60e01b81526001600160a01b03851660048201526024016102ed565b7f000000000000000000000000000000000000000000000000000000000000000067ffffffffffffffff168367ffffffffffffffff161080610596575067ffffffffffffffff7f0000000000000000000000000000000000000000000000000000000000000000161580159061059657507f000000000000000000000000000000000000000000000000000000000000000067ffffffffffffffff168367ffffffffffffffff16115b156105c057604051637dbbfbf960e11b815267ffffffffffffffff841660048201526024016102ed565b60025486146105e55760405163adc1a22b60e01b8152600481018790526024016102ed565b600080828060200190518101906105fc91906109a8565b600354919350915060ff161561068b5760405163e7a2c01f60e01b81526001600160a01b037f0000000000000000000000000000000000000000000000000000000000000000169063e7a2c01f90610658908490600401610a38565b600060405180830381600087803b15801561067257600080fd5b505af1158015610686573d6000803e3d6000fd5b505050505b8360018151811061069e5761069e610a4b565b60200260200101517f1349f9d18880da727492fb01e16c8e4c37fef7ee9f8e1ac2cd9805c22b5844fa83836040516106d7929190610a61565b60405180910390a25050505050505050565b80356001600160a01b038116811461070057600080fd5b919050565b634e487b7160e01b600052604160045260246000fd5b604051601f8201601f1916810167ffffffffffffffff8111828210171561074457610744610705565b604052919050565b600082601f83011261075d57600080fd5b8135602067ffffffffffffffff82111561077957610779610705565b8160051b61078882820161071b565b92835284810182019282810190878511156107a257600080fd5b83870192505b848310156107c1578235825291830191908301906107a8565b979650505050505050565b600067ffffffffffffffff8211156107e6576107e6610705565b50601f01601f191660200190565b600082601f83011261080557600080fd5b8135610818610813826107cc565b61071b565b81815284602083860101111561082d57600080fd5b816020850160208301376000918101602001919091529392505050565b60008060008060008060c0878903121561086357600080fd5b86359550602087013563ffffffff8116811461087e57600080fd5b945061088c604088016106e9565b9350606087013567ffffffffffffffff80821682146108aa57600080fd5b909350608088013590808211156108c057600080fd5b6108cc8a838b0161074c565b935060a08901359150808211156108e257600080fd5b506108ef89828a016107f4565b9150509295509295509295565b60006020828403121561090e57600080fd5b610917826106e9565b9392505050565b60006020828403121561093057600080fd5b5051919050565b60005b8381101561095257818101518382015260200161093a565b50506000910152565b600082601f83011261096c57600080fd5b815161097a610813826107cc565b81815284602083860101111561098f57600080fd5b6109a0826020830160208701610937565b949350505050565b600080604083850312156109bb57600080fd5b825167ffffffffffffffff808211156109d357600080fd5b6109df8683870161095b565b935060208501519150808211156109f557600080fd5b50610a028582860161095b565b9150509250929050565b60008151808452610a24816020860160208601610937565b601f01601f19169290920160200192915050565b6020815260006109176020830184610a0c565b634e487b7160e01b600052603260045260246000fd5b604081526000610a746040830185610a0c565b8281036020840152610a868185610a0c565b9594505050505056fea264697066735822122081ae5fefe82e920bbae0235e9674a3916abbb86f6a4eb94273229f2a4b7e33b964736f6c63430008100033",
    "linkReferences": {}
  },
  "methodIdentifiers": {
    "handlePublish(bytes32,uint32,address,uint64,bytes32[],bytes)": "a2c12a3a",
    "owner()": "8da5cb5b",
    "renounceOwnership()": "715018a6",
    "subscribeToAffirmationEvent()": "0908a386",
    "subscriptionId()": "09c1ba2e",
    "telepathyPubSub()": "35cb25c3",
    "toggleExecuteAffirmations()": "a27c0863",
    "transferOwnership(address)": "f2fde38b"
  },
  "id": 12
}