{
  "abi": [
    {
      "inputs": [
        {
          "internalType": "address",
          "name": "_telepathyRouter",
          "type": "address"
        }
      ],
      "stateMutability": "nonpayable",
      "type": "constructor"
    },
    {
      "inputs": [
        {
          "internalType": "uint64",
          "name": "startSlot",
          "type": "uint64"
        },
        {
          "internalType": "uint64",
          "name": "endSlot",
          "type": "uint64"
        }
      ],
      "name": "InvalidSlotRange",
      "type": "error"
    },
    {
      "inputs": [
        {
          "internalType": "bytes32",
          "name": "subscriptionId",
          "type": "bytes32"
        }
      ],
      "name": "SubscriptionAlreadyActive",
      "type": "error"
    },
    {
      "inputs": [
        {
          "internalType": "bytes32",
          "name": "subscriptionId",
          "type": "bytes32"
        }
      ],
      "name": "SubscriptionNotActive",
      "type": "error"
    },
    {
      "anonymous": false,
      "inputs": [
        {
          "indexed": true,
          "internalType": "bytes32",
          "name": "subscriptionId",
          "type": "bytes32"
        },
        {
          "indexed": true,
          "internalType": "uint32",
          "name": "sourceChainId",
          "type": "uint32"
        },
        {
          "indexed": true,
          "internalType": "address",
          "name": "sourceAddress",
          "type": "address"
        },
        {
          "indexed": false,
          "internalType": "address",
          "name": "callbackAddress",
          "type": "address"
        },
        {
          "indexed": false,
          "internalType": "bool",
          "name": "success",
          "type": "bool"
        }
      ],
      "name": "Publish",
      "type": "event"
    },
    {
      "anonymous": false,
      "inputs": [
        {
          "indexed": true,
          "internalType": "bytes32",
          "name": "subscriptionId",
          "type": "bytes32"
        },
        {
          "indexed": true,
          "internalType": "uint64",
          "name": "startSlot",
          "type": "uint64"
        },
        {
          "indexed": true,
          "internalType": "uint64",
          "name": "endSlot",
          "type": "uint64"
        },
        {
          "components": [
            {
              "internalType": "uint32",
              "name": "sourceChainId",
              "type": "uint32"
            },
            {
              "internalType": "address",
              "name": "sourceAddress",
              "type": "address"
            },
            {
              "internalType": "address",
              "name": "callbackAddress",
              "type": "address"
            },
            {
              "internalType": "bytes32",
              "name": "eventSig",
              "type": "bytes32"
            }
          ],
          "indexed": false,
          "internalType": "struct Subscription",
          "name": "subscription",
          "type": "tuple"
        }
      ],
      "name": "Subscribe",
      "type": "event"
    },
    {
      "anonymous": false,
      "inputs": [
        {
          "indexed": true,
          "internalType": "bytes32",
          "name": "subscriptionId",
          "type": "bytes32"
        },
        {
          "components": [
            {
              "internalType": "uint32",
              "name": "sourceChainId",
              "type": "uint32"
            },
            {
              "internalType": "address",
              "name": "sourceAddress",
              "type": "address"
            },
            {
              "internalType": "address",
              "name": "callbackAddress",
              "type": "address"
            },
            {
              "internalType": "bytes32",
              "name": "eventSig",
              "type": "bytes32"
            }
          ],
          "indexed": false,
          "internalType": "struct Subscription",
          "name": "subscription",
          "type": "tuple"
        }
      ],
      "name": "Unsubscribe",
      "type": "event"
    },
    {
      "inputs": [],
      "name": "VERSION",
      "outputs": [
        {
          "internalType": "uint8",
          "name": "",
          "type": "uint8"
        }
      ],
      "stateMutability": "view",
      "type": "function"
    },
    {
      "inputs": [
        {
          "internalType": "bytes32",
          "name": "",
          "type": "bytes32"
        }
      ],
      "name": "eventsPublished",
      "outputs": [
        {
          "internalType": "enum PublishStatus",
          "name": "",
          "type": "uint8"
        }
      ],
      "stateMutability": "view",
      "type": "function"
    },
    {
      "inputs": [
        {
          "internalType": "bytes",
          "name": "srcSlotTxSlotPack",
          "type": "bytes"
        },
        {
          "internalType": "bytes32[]",
          "name": "receiptsRootProof",
          "type": "bytes32[]"
        },
        {
          "internalType": "bytes32",
          "name": "receiptsRoot",
          "type": "bytes32"
        },
        {
          "internalType": "bytes[]",
          "name": "receiptProof",
          "type": "bytes[]"
        },
        {
          "internalType": "bytes",
          "name": "txIndexRLPEncoded",
          "type": "bytes"
        },
        {
          "internalType": "uint256",
          "name": "logIndex",
          "type": "uint256"
        },
        {
          "components": [
            {
              "internalType": "uint32",
              "name": "sourceChainId",
              "type": "uint32"
            },
            {
              "internalType": "address",
              "name": "sourceAddress",
              "type": "address"
            },
            {
              "internalType": "address",
              "name": "callbackAddress",
              "type": "address"
            },
            {
              "internalType": "bytes32",
              "name": "eventSig",
              "type": "bytes32"
            }
          ],
          "internalType": "struct Subscription",
          "name": "subscription",
          "type": "tuple"
        }
      ],
      "name": "publishEvent",
      "outputs": [],
      "stateMutability": "nonpayable",
      "type": "function"
    },
    {
      "inputs": [
        {
          "internalType": "uint32",
          "name": "_sourceChainId",
          "type": "uint32"
        },
        {
          "internalType": "address",
          "name": "_sourceAddress",
          "type": "address"
        },
        {
          "internalType": "address",
          "name": "_callbackAddress",
          "type": "address"
        },
        {
          "internalType": "bytes32",
          "name": "_eventSig",
          "type": "bytes32"
        },
        {
          "internalType": "uint64",
          "name": "_startSlot",
          "type": "uint64"
        },
        {
          "internalType": "uint64",
          "name": "_endSlot",
          "type": "uint64"
        }
      ],
      "name": "subscribe",
      "outputs": [
        {
          "internalType": "bytes32",
          "name": "",
          "type": "bytes32"
        }
      ],
      "stateMutability": "nonpayable",
      "type": "function"
    },
    {
      "inputs": [
        {
          "internalType": "bytes32",
          "name": "",
          "type": "bytes32"
        }
      ],
      "name": "subscriptions",
      "outputs": [
        {
          "internalType": "enum SubscriptionStatus",
          "name": "",
          "type": "uint8"
        }
      ],
      "stateMutability": "view",
      "type": "function"
    },
    {
      "inputs": [
        {
          "internalType": "uint32",
          "name": "_sourceChainId",
          "type": "uint32"
        },
        {
          "internalType": "address",
          "name": "_sourceAddress",
          "type": "address"
        },
        {
          "internalType": "bytes32",
          "name": "_eventSig",
          "type": "bytes32"
        }
      ],
      "name": "unsubscribe",
      "outputs": [
        {
          "internalType": "bytes32",
          "name": "",
          "type": "bytes32"
        }
      ],
      "stateMutability": "nonpayable",
      "type": "function"
    }
  ],
  "bytecode": {
    "object": "0x60806040523480156200001157600080fd5b5060405162003b1638038062003b1683398101604081905262000034916200005a565b600080546001600160a01b0319166001600160a01b03929092169190911790556200008c565b6000602082840312156200006d57600080fd5b81516001600160a01b03811681146200008557600080fd5b9392505050565b613a7a806200009c6000396000f3fe608060405234801561001057600080fd5b50600436106100625760003560e01c80633cca331c1461006757806365138959146100a057806394259c6c146100c157806397229719146100f1578063bbe6d64214610104578063ffa1ad7414610119575b600080fd5b61008a6100753660046130cf565b60016020526000908152604090205460ff1681565b60405161009791906130fe565b60405180910390f35b6100b36100ae366004613158565b610133565b604051908152602001610097565b6100e46100cf3660046130cf565b60026020526000908152604090205460ff1681565b60405161009791906131c9565b6100b36100ff3660046131dd565b61029a565b610117610112366004613375565b6103a4565b005b610121600181565b60405160ff9091168152602001610097565b60008060405180608001604052808963ffffffff168152602001886001600160a01b03168152602001876001600160a01b031681526020018681525090506000816040516020016101849190613457565b60408051601f1981840301815291905280516020909101209050600160008281526002602052604090205460ff1660018111156101c3576101c36130e8565b036101e957604051634702100760e11b8152600481018290526024015b60405180910390fd5b6000818152600260205260409020805460ff191660011790556001600160401b03808616908516101561024257604051633c04832160e21b81526001600160401b038087166004830152851660248201526044016101e0565b836001600160401b0316856001600160401b0316827f5c727204c662dd3d053e4f52d9c6872a50938b7af3f1497df385c3b5f4e5eb73856040516102869190613457565b60405180910390a498975050505050505050565b60008060405180608001604052808663ffffffff168152602001856001600160a01b03168152602001336001600160a01b031681526020018481525090506000816040516020016102eb9190613457565b60408051601f19818403018152919052805160209091012090506000808281526002602052604090205460ff166001811115610329576103296130e8565b036103495760405162191d2960e11b8152600481018290526024016101e0565b60008181526002602052604090819020805460ff191690555181907f0a82aeeb867dc22c12ad75195fd9acfc1a0f838cd64348e4ed6a25e199def9c890610391908590613457565b60405180910390a29150505b9392505050565b6103b96103b46020830183613499565b6106fe565b6103ce6103c96020830183613499565b6108e4565b6000816040516020016103e191906134b4565b60405160208183030381529060405280519060200120905060008b8b86868560405160200161041495949392919061355d565b60408051601f19818403018152919052805160209091012090506000808281526001602052604090205460ff166002811115610452576104526130e8565b1461049f5760405162461bcd60e51b815260206004820152601760248201527f4576656e7420616c7265616479207075626c697368656400000000000000000060448201526064016101e0565b6000806104ae8d8f018f6135b0565b90925090506104c9826104c46020880188613499565b610999565b600080546001600160a01b0316637599735c6104e86020890189613499565b6040516001600160e01b031960e084901b16815263ffffffff919091166004820152602401602060405180830381865afa15801561052a573d6000803e3d6000fd5b505050506040513d601f19601f8201168201806040525081019061054e91906135e3565b6040516356f90d7960e01b81526001600160401b03851660048201526001600160a01b0391909116906356f90d7990602401602060405180830381865afa15801561059d573d6000803e3d6000fd5b505050506040513d601f19601f820116820180604052508101906105c19190613600565b9050806106085760405162461bcd60e51b8152602060048201526015602482015274486561646572526f6f74206973206d697373696e6760581b60448201526064016101e0565b60006106598c8f8f8080602002602001604051908101604052809392919081815260200183836020028082843760009201919091525087925089915088905061065460208e018e613499565b610d57565b9050806106a85760405162461bcd60e51b815260206004820152601b60248201527f496e76616c696420726563656970747320726f6f742070726f6f66000000000060448201526064016101e0565b6000806106d86106b88d8f613619565b8f8d8d8d60200160208101906106ce919061369c565b8e60600135610f61565b915091506106ea888a898886866112ac565b505050505050505050505050505050505050565b60008054604051631d665cd760e21b815263ffffffff841660048201526001600160a01b0390911690637599735c90602401602060405180830381865afa15801561074d573d6000803e3d6000fd5b505050506040513d601f19601f8201168201806040525081019061077191906135e3565b6001600160a01b0316036107c25760405162461bcd60e51b81526020600482015260186024820152772634b3b43a1031b634b2b73a1034b9903737ba1039b2ba1760411b60448201526064016101e0565b600054604051631d665cd760e21b815263ffffffff831660048201526001600160a01b0390911690637599735c90602401602060405180830381865afa158015610810573d6000803e3d6000fd5b505050506040513d601f19601f8201168201806040525081019061083491906135e3565b6001600160a01b0316632bcccca56040518163ffffffff1660e01b8152600401602060405180830381865afa158015610871573d6000803e3d6000fd5b505050506040513d601f19601f8201168201806040525081019061089591906136b9565b6108e15760405162461bcd60e51b815260206004820152601d60248201527f4c6967687420636c69656e7420697320696e636f6e73697374656e742e00000060448201526064016101e0565b50565b6000546040516306d5cf8360e31b815263ffffffff831660048201526001600160a01b03909116906336ae7c1890602401602060405180830381865afa158015610932573d6000803e3d6000fd5b505050506040513d601f19601f8201168201806040525081019061095691906136b9565b156108e15760405162461bcd60e51b815260206004820152601360248201527221b7b73a3930b1ba1034b990333937bd32b71760691b60448201526064016101e0565b60008054604051631d665cd760e21b815263ffffffff841660048201526001600160a01b0390911690637599735c90602401602060405180830381865afa1580156109e8573d6000803e3d6000fd5b505050506040513d601f19601f82011682018060405250810190610a0c91906135e3565b6001600160a01b031603610a5d5760405162461bcd60e51b81526020600482015260186024820152772634b3b43a1031b634b2b73a1034b9903737ba1039b2ba1760411b60448201526064016101e0565b600054604051631d665cd760e21b815263ffffffff831660048201526001600160a01b0390911690637599735c90602401602060405180830381865afa158015610aab573d6000803e3d6000fd5b505050506040513d601f19601f82011682018060405250810190610acf91906135e3565b604051638bc33af360e01b81526001600160401b03841660048201526001600160a01b039190911690638bc33af390602401602060405180830381865afa158015610b1e573d6000803e3d6000fd5b505050506040513d601f19601f82011682018060405250810190610b429190613600565b600003610b915760405162461bcd60e51b815260206004820152601e60248201527f54696d657374616d70206973206e6f742073657420666f7220736c6f742e000060448201526064016101e0565b60008054604051631d665cd760e21b815263ffffffff841660048201526001600160a01b0390911690637599735c90602401602060405180830381865afa158015610be0573d6000803e3d6000fd5b505050506040513d601f19601f82011682018060405250810190610c0491906135e3565b604051638bc33af360e01b81526001600160401b03851660048201526001600160a01b039190911690638bc33af390602401602060405180830381865afa158015610c53573d6000803e3d6000fd5b505050506040513d601f19601f82011682018060405250810190610c779190613600565b610c8190426136f1565b905060008054906101000a90046001600160a01b03166001600160a01b031663e4407b156040518163ffffffff1660e01b8152600401602060405180830381865afa158015610cd4573d6000803e3d6000fd5b505050506040513d601f19601f82011682018060405250810190610cf89190613600565b811015610d525760405162461bcd60e51b815260206004820152602260248201527f4d7573742077616974206c6f6e67657220746f20757365207468697320736c6f6044820152613a1760f11b60648201526084016101e0565b505050565b600080610d63836114a1565b9050600081856001600160401b031610610d7e57601b610d81565b60075b60ff169050600082866001600160401b031610610dbd57612000610dae846001600160401b0389166136f1565b610db8919061371a565b610dd2565b610dd26120006001600160401b03881661371a565b90506000866001600160401b0316886001600160401b031603610e115750600b610dfe8161020061372e565b610e0a9061018361374d565b9050610f46565b612000610e1e888a613760565b6001600160401b031611610e805750600b610e3a81602061372e565b610e4590600661374d565b9050610e5c6120006001600160401b038916613780565b610e686120008361372e565b610e72919061374d565b9050610dfe8161020061372e565b876001600160401b0316876001600160401b03161015610efe5750600b82610ea982602061372e565b610eb3919061374d565b9050610ec081600261372e565b610ecb90600061374d565b905081610edc63010000008361372e565b610ee6919061374d565b9050610ef381600261372e565b610e4590600161374d565b60405162461bcd60e51b815260206004820152601e60248201527f546172676574414d423a20696e76616c69642074617267657420736c6f74000060448201526064016101e0565b610f528b828c8c6114e1565b9b9a5050505050505050505050565b6060806000610f71878a8a6114fb565b9050600081600081518110610f8857610f88613794565b01602001516001600160f81b03191690506000600160f81b821480610fba5750600160f91b6001600160f81b03198316145b15610fc75750600161102c565b600360fe1b6001600160f81b0319831610610fe45750600061102c565b60405162461bcd60e51b815260206004820152601c60248201527f556e737570706f72746564207472616e73616374696f6e20747970650000000060448201526064016101e0565b60006020840190506000604051806040016040528084875161104e91906136f1565b815260200161105d858561374d565b90529050600061106c82611d8e565b905080516004146110b85760405162461bcd60e51b8152602060048201526016602482015275092dcecc2d8d2c840e4cac6cad2e0e840d8cadccee8d60531b60448201526064016101e0565b60006110dd826003815181106110d0576110d0613794565b6020026020010151611d8e565b905080518c1061112f5760405162461bcd60e51b815260206004820152601760248201527f4c6f6720696e646578206f7574206f6620626f756e647300000000000000000060448201526064016101e0565b6000611146828e815181106110d0576110d0613794565b9050600061116d8260008151811061116057611160613794565b6020026020010151611fb3565b90508c6001600160a01b0316816001600160a01b0316146111e15760405162461bcd60e51b815260206004820152602860248201527f4576656e7420776173206e6f7420656d697474656420627920736f757263652060448201526718dbdb9d1c9858dd60c21b60648201526084016101e0565b60006112016111fc846001815181106110d0576110d0613794565b612027565b90508c8160008151811061121757611217613794565b60200260200101511461126c5760405162461bcd60e51b815260206004820152601e60248201527f4576656e74207369676e617475726520646f6573206e6f74206d61746368000060448201526064016101e0565b60006112918460028151811061128457611284613794565b60200260200101516120d7565b919c50909a5050505050505050505050965096945050505050565b6000606081635160951d60e11b896112c760208b018b613499565b6112d760408c0160208d0161369c565b8989896040516024016112ef969594939291906137aa565b60408051601f198184030181529181526020820180516001600160e01b03166001600160e01b03199094169390931790925291506113339060608a01908a0161369c565b6001600160a01b03168160405161134a919061382a565b6000604051808303816000865af19150503d8060008114611387576040519150601f19603f3d011682016040523d82523d6000602084013e61138c565b606091505b5080519194509250600091506020036113cc576000828060200190518101906113b59190613846565b6001600160e01b031916635160951d60e11b149150505b8280156113d65750805b156113f9576000878152600160205260409020805460ff19166002179055611416565b6000878152600160208190526040909120805460ff191690911790555b6114266040890160208a0161369c565b6001600160a01b031661143c60208a018a613499565b63ffffffff168a7f47168527703e2b64019824d3deab18f025015c94de1e8bfe6091ab32e02d12ed61147460608d0160408e0161369c565b604080516001600160a01b03909216825288151560208301520160405180910390a4505050505050505050565b60008163ffffffff166001036114bb5750625ec000919050565b8163ffffffff166005036114d35750624f4000919050565b50600019919050565b919050565b6000806114ef868686612203565b90921495945050505050565b606060008451116115465760405162461bcd60e51b81526020600482015260156024820152744d65726b6c65547269653a20656d707479206b657960581b60448201526064016101e0565b60006115518461239b565b9050600061155e86612489565b905060008460405160200161157591815260200190565b60405160208183030381529060405290506000805b8451811015611d375760008582815181106115a7576115a7613794565b6020026020010151905084518311156116195760405162461bcd60e51b815260206004820152602e60248201527f4d65726b6c65547269653a206b657920696e646578206578636565647320746f60448201526d0e8c2d840d6caf240d8cadccee8d60931b60648201526084016101e0565b826000036116b857805180516020918201206040516116679261164192910190815260200190565b604051602081830303815290604052858051602091820120825192909101919091201490565b6116b35760405162461bcd60e51b815260206004820152601d60248201527f4d65726b6c65547269653a20696e76616c696420726f6f74206861736800000060448201526064016101e0565b6117ae565b80515160201161173e57805180516020918201206040516116e29261164192910190815260200190565b6116b35760405162461bcd60e51b815260206004820152602760248201527f4d65726b6c65547269653a20696e76616c6964206c6172676520696e7465726e6044820152660c2d840d0c2e6d60cb1b60648201526084016101e0565b8051845160208087019190912082519190920120146117ae5760405162461bcd60e51b815260206004820152602660248201527f4d65726b6c65547269653a20696e76616c696420696e7465726e616c206e6f646044820152650ca40d0c2e6d60d31b60648201526084016101e0565b6117ba6010600161374d565b8160200151510361195a57845183036118f25760006117e9826020015160108151811061128457611284613794565b905060008151116118625760405162461bcd60e51b815260206004820152603b60248201527f4d65726b6c65547269653a2076616c7565206c656e677468206d75737420626560448201527f2067726561746572207468616e207a65726f20286272616e636829000000000060648201526084016101e0565b6001875161187091906136f1565b83146118e45760405162461bcd60e51b815260206004820152603a60248201527f4d65726b6c65547269653a2076616c7565206e6f6465206d757374206265206c60448201527f617374206e6f646520696e2070726f6f6620286272616e63682900000000000060648201526084016101e0565b965061039d95505050505050565b600085848151811061190657611906613794565b602001015160f81c60f81b60f81c9050600082602001518260ff168151811061193157611931613794565b60200260200101519050611944816125a3565b955061195160018661374d565b94505050611d24565b600281602001515103611ccb576000611972826125c8565b905060008160008151811061198957611989613794565b016020015160f81c905060006119a0600283613870565b6119ab906002613892565b905060006119bc848360ff166125ec565b905060006119ca8a896125ec565b905060006119d88383612622565b905080835114611a505760405162461bcd60e51b815260206004820152603a60248201527f4d65726b6c65547269653a20706174682072656d61696e646572206d7573742060448201527f736861726520616c6c206e6962626c65732077697468206b657900000000000060648201526084016101e0565b60ff851660021480611a65575060ff85166003145b15611c0b5780825114611ae05760405162461bcd60e51b815260206004820152603d60248201527f4d65726b6c65547269653a206b65792072656d61696e646572206d757374206260448201527f65206964656e746963616c20746f20706174682072656d61696e64657200000060648201526084016101e0565b6000611afc886020015160018151811061128457611284613794565b90506000815111611b755760405162461bcd60e51b815260206004820152603960248201527f4d65726b6c65547269653a2076616c7565206c656e677468206d75737420626560448201527f2067726561746572207468616e207a65726f20286c656166290000000000000060648201526084016101e0565b60018d51611b8391906136f1565b8914611bf75760405162461bcd60e51b815260206004820152603860248201527f4d65726b6c65547269653a2076616c7565206e6f6465206d757374206265206c60448201527f617374206e6f646520696e2070726f6f6620286c65616629000000000000000060648201526084016101e0565b9c5061039d9b505050505050505050505050565b60ff85161580611c1e575060ff85166001145b15611c5d57611c4a8760200151600181518110611c3d57611c3d613794565b60200260200101516125a3565b9950611c56818a61374d565b9850611cc0565b60405162461bcd60e51b815260206004820152603260248201527f4d65726b6c65547269653a2072656365697665642061206e6f64652077697468604482015271040c2dc40eadcd6dcdeeedc40e0e4caccd2f60731b60648201526084016101e0565b505050505050611d24565b60405162461bcd60e51b815260206004820152602860248201527f4d65726b6c65547269653a20726563656976656420616e20756e706172736561604482015267626c65206e6f646560c01b60648201526084016101e0565b5080611d2f816138ab565b91505061158a565b5060405162461bcd60e51b815260206004820152602560248201527f4d65726b6c65547269653a2072616e206f7574206f662070726f6f6620656c656044820152646d656e747360d81b60648201526084016101e0565b60606000806000611d9e856126a1565b919450925090506001816001811115611db957611db96130e8565b14611e2c5760405162461bcd60e51b815260206004820152603860248201527f524c505265616465723a206465636f646564206974656d207479706520666f7260448201527f206c697374206973206e6f742061206c697374206974656d000000000000000060648201526084016101e0565b8451611e38838561374d565b14611ea05760405162461bcd60e51b815260206004820152603260248201527f524c505265616465723a206c697374206974656d2068617320616e20696e76616044820152713634b2103230ba30903932b6b0b4b73232b960711b60648201526084016101e0565b6040805160208082526104208201909252600091816020015b6040805180820190915260008082526020820152815260200190600190039081611eb95790505090506000845b8751811015611fa757600080611f2c6040518060400160405280858d60000151611f1091906136f1565b8152602001858d60200151611f25919061374d565b90526126a1565b509150915060405180604001604052808383611f48919061374d565b8152602001848c60200151611f5d919061374d565b815250858581518110611f7257611f72613794565b6020908102919091010152611f8860018561374d565b9350611f94818361374d565b611f9e908461374d565b92505050611ee6565b50815295945050505050565b8051600090600103611fc757506000919050565b81516015146120185760405162461bcd60e51b815260206004820152601a60248201527f496e76616c696420524c5020616464726573732076616c75652e00000000000060448201526064016101e0565b61202182612d64565b92915050565b6060600082516001600160401b03811115612044576120446132a8565b60405190808252806020026020018201604052801561206d578160200160208202803683370190505b50905060005b83518110156120d05761209e84828151811061209157612091613794565b6020026020010151612d64565b60001b8282815181106120b3576120b3613794565b6020908102919091010152806120c8816138ab565b915050612073565b5092915050565b606060008060006120e7856126a1565b919450925090506000816001811115612102576121026130e8565b146121755760405162461bcd60e51b815260206004820152603960248201527f524c505265616465723a206465636f646564206974656d207479706520666f7260448201527f206279746573206973206e6f7420612064617461206974656d0000000000000060648201526084016101e0565b61217f828461374d565b8551146121eb5760405162461bcd60e51b815260206004820152603460248201527f524c505265616465723a2062797465732076616c756520636f6e7461696e732060448201527330b71034b73b30b634b2103932b6b0b4b73232b960611b60648201526084016101e0565b6121fa85602001518484612d6f565b95945050505050565b60008282516001612214919061374d565b61221f9060026139a8565b1161222957600080fd5b8360005b8460011461239257612240600286613780565b6001036122df57600284828151811061225b5761225b613794565b60200260200101518360405160200161227e929190918252602082015260400190565b60408051601f19818403018152908290526122989161382a565b602060405180830381855afa1580156122b5573d6000803e3d6000fd5b5050506040513d601f19601f820116820180604052508101906122d89190613600565b9150612373565b6002828583815181106122f4576122f4613794565b6020026020010151604051602001612316929190918252602082015260400190565b60408051601f19818403018152908290526123309161382a565b602060405180830381855afa15801561234d573d6000803e3d6000fd5b5050506040513d601f19601f820116820180604052508101906123709190613600565b91505b61237e60028661371a565b94508061238a816138ab565b91505061222d565b50949350505050565b80516060906000816001600160401b038111156123ba576123ba6132a8565b6040519080825280602002602001820160405280156123ff57816020015b60408051808201909152606080825260208201528152602001906001900390816123d85790505b50905060005b8281101561248157604051806040016040528086838151811061242a5761242a613794565b6020026020010151815260200161245987848151811061244c5761244c613794565b6020026020010151612e0f565b81525082828151811061246e5761246e613794565b6020908102919091010152600101612405565b509392505050565b8051606090600061249b82600261372e565b6001600160401b038111156124b2576124b26132a8565b6040519080825280601f01601f1916602001820160405280156124dc576020820181803683370190505b5090506000805b83811015612599578581815181106124fd576124fd613794565b6020910101516001600160f81b03198116925060041c60ff60f41b168361252583600261372e565b8151811061253557612535613794565b60200101906001600160f81b031916908160001a905350600f60f81b82168361255f83600261372e565b61256a90600161374d565b8151811061257a5761257a613794565b60200101906001600160f81b031916908160001a9053506001016124e3565b5090949350505050565b606060208260000151106125bf576125ba826120d7565b612021565b61202182612e22565b60606120216125e7836020015160008151811061128457611284613794565b612489565b60608251821061260b5750604080516020810190915260008152612021565b61039d838384865161261d91906136f1565b612e38565b6000806000835185511061263757835161263a565b84515b90505b8082108015612691575083828151811061265957612659613794565b602001015160f81c60f81b6001600160f81b03191685838151811061268057612680613794565b01602001516001600160f81b031916145b156124815781600101915061263d565b6000806000808460000151116126c95760405162461bcd60e51b81526004016101e0906139b4565b6020840151805160001a607f81116126ee576000600160009450945094505050612d5d565b60b7811161284b5760006127036080836136f1565b9050808760000151116127835760405162461bcd60e51b815260206004820152604e6024820152600080516020613a2583398151915260448201527f742062652067726561746572207468616e20737472696e67206c656e6774682060648201526d2873686f727420737472696e672960901b608482015260a4016101e0565b6001838101516001600160f81b03191690821415806127b05750600160ff1b6001600160f81b0319821610155b6128385760405162461bcd60e51b815260206004820152604d60248201527f524c505265616465723a20696e76616c6964207072656669782c2073696e676c60448201527f652062797465203c203078383020617265206e6f74207072656669786564202860648201526c73686f727420737472696e672960981b608482015260a4016101e0565b5060019550935060009250612d5d915050565b60bf8111612a8c57600061286060b7836136f1565b9050808760000151116128e35760405162461bcd60e51b81526020600482015260516024820152600080516020613a2583398151915260448201527f74206265203e207468616e206c656e677468206f6620737472696e67206c656e60648201527067746820286c6f6e6720737472696e672960781b608482015260a4016101e0565b60018301516001600160f81b031916600081900361296a5760405162461bcd60e51b815260206004820152604a6024820152600080516020613a2583398151915260448201527f74206e6f74206861766520616e79206c656164696e67207a65726f7320286c6f6064820152696e6720737472696e672960b01b608482015260a4016101e0565b600184015160088302610100031c603781116129ed5760405162461bcd60e51b81526020600482015260486024820152600080516020613a2583398151915260448201527f742062652067726561746572207468616e20353520627974657320286c6f6e6760648201526720737472696e672960c01b608482015260a4016101e0565b6129f7818461374d565b895111612a6f5760405162461bcd60e51b815260206004820152604c6024820152600080516020613a2583398151915260448201527f742062652067726561746572207468616e20746f74616c206c656e677468202860648201526b6c6f6e6720737472696e672960a01b608482015260a4016101e0565b612a7a83600161374d565b9750955060009450612d5d9350505050565b60f78111612b2e576000612aa160c0836136f1565b905080876000015111612b1d5760405162461bcd60e51b815260206004820152604a6024820152600080516020613a2583398151915260448201527f742062652067726561746572207468616e206c697374206c656e677468202873606482015269686f7274206c6973742960b01b608482015260a4016101e0565b600195509350849250612d5d915050565b6000612b3b60f7836136f1565b905080876000015111612bba5760405162461bcd60e51b815260206004820152604d6024820152600080516020613a2583398151915260448201527f74206265203e207468616e206c656e677468206f66206c697374206c656e677460648201526c6820286c6f6e67206c6973742960981b608482015260a4016101e0565b60018301516001600160f81b0319166000819003612c3f5760405162461bcd60e51b81526020600482015260486024820152600080516020613a2583398151915260448201527f74206e6f74206861766520616e79206c656164696e67207a65726f7320286c6f6064820152676e67206c6973742960c01b608482015260a4016101e0565b600184015160088302610100031c60378111612cc05760405162461bcd60e51b81526020600482015260466024820152600080516020613a2583398151915260448201527f742062652067726561746572207468616e20353520627974657320286c6f6e67606482015265206c6973742960d01b608482015260a4016101e0565b612cca818461374d565b895111612d405760405162461bcd60e51b815260206004820152604a6024820152600080516020613a2583398151915260448201527f742062652067726561746572207468616e20746f74616c206c656e67746820286064820152696c6f6e67206c6973742960b01b608482015260a4016101e0565b612d4b83600161374d565b9750955060019450612d5d9350505050565b9193909250565b600061202182612f79565b60606000826001600160401b03811115612d8b57612d8b6132a8565b6040519080825280601f01601f191660200182016040528015612db5576020820181803683370190505b50905082600003612dc757905061039d565b6000612dd3858761374d565b90506020820160005b85811015612df4578281015182820152602001612ddc565b85811115612e03576000868301525b50919695505050505050565b6060612021612e1d8361307c565b611d8e565b6060612021826020015160008460000151612d6f565b60608182601f011015612e7e5760405162461bcd60e51b815260206004820152600e60248201526d736c6963655f6f766572666c6f7760901b60448201526064016101e0565b828284011015612ec15760405162461bcd60e51b815260206004820152600e60248201526d736c6963655f6f766572666c6f7760901b60448201526064016101e0565b81830184511015612f085760405162461bcd60e51b8152602060048201526011602482015270736c6963655f6f75744f66426f756e647360781b60448201526064016101e0565b606082158015612f275760405191506000825260208201604052612392565b6040519150601f8416801560200281840101858101878315602002848b0101015b81831015612f60578051835260209283019201612f48565b5050858452601f01601f19166040525050949350505050565b6000602182600001511115612fd05760405162461bcd60e51b815260206004820152601a60248201527f496e76616c696420524c5020627974657333322076616c75652e00000000000060448201526064016101e0565b6000806000612fde856126a1565b919450925090506000816001811115612ff957612ff96130e8565b146130465760405162461bcd60e51b815260206004820152601a60248201527f496e76616c696420524c5020627974657333322076616c75652e00000000000060448201526064016101e0565b6000838660200151613058919061374d565b805190915060208410156130725760208490036101000a90045b9695505050505050565b604080518082019091526000808252602082015260008251116130b15760405162461bcd60e51b81526004016101e0906139b4565b50604080518082019091528151815260209182019181019190915290565b6000602082840312156130e157600080fd5b5035919050565b634e487b7160e01b600052602160045260246000fd5b6020810160038310613112576131126130e8565b91905290565b803563ffffffff811681146114dc57600080fd5b6001600160a01b03811681146108e157600080fd5b80356001600160401b03811681146114dc57600080fd5b60008060008060008060c0878903121561317157600080fd5b61317a87613118565b9550602087013561318a8161312c565b9450604087013561319a8161312c565b9350606087013592506131af60808801613141565b91506131bd60a08801613141565b90509295509295509295565b6020810160028310613112576131126130e8565b6000806000606084860312156131f257600080fd5b6131fb84613118565b9250602084013561320b8161312c565b929592945050506040919091013590565b60008083601f84011261322e57600080fd5b5081356001600160401b0381111561324557600080fd5b60208301915083602082850101111561325d57600080fd5b9250929050565b60008083601f84011261327657600080fd5b5081356001600160401b0381111561328d57600080fd5b6020830191508360208260051b850101111561325d57600080fd5b634e487b7160e01b600052604160045260246000fd5b604051601f8201601f191681016001600160401b03811182821017156132e6576132e66132a8565b604052919050565b600082601f8301126132ff57600080fd5b81356001600160401b03811115613318576133186132a8565b61332b601f8201601f19166020016132be565b81815284602083860101111561334057600080fd5b816020850160208301376000918101602001919091529392505050565b60006080828403121561336f57600080fd5b50919050565b6000806000806000806000806000806101408b8d03121561339557600080fd5b8a356001600160401b03808211156133ac57600080fd5b6133b88e838f0161321c565b909c509a5060208d01359150808211156133d157600080fd5b6133dd8e838f01613264565b909a50985060408d0135975060608d01359150808211156133fd57600080fd5b6134098e838f01613264565b909750955060808d013591508082111561342257600080fd5b5061342f8d828e016132ee565b93505060a08b013591506134468c60c08d0161335d565b90509295989b9194979a5092959850565b815163ffffffff1681526020808301516001600160a01b0390811691830191909152604080840151909116908201526060918201519181019190915260800190565b6000602082840312156134ab57600080fd5b61039d82613118565b6080810163ffffffff6134c684613118565b16825260208301356134d78161312c565b6001600160a01b0390811660208401526040840135906134f68261312c565b166040830152606092830135929091019190915290565b60005b83811015613528578181015183820152602001613510565b50506000910152565b6000815180845261354981602086016020860161350d565b601f01601f19169290920160200192915050565b60808152846080820152848660a0830137600060a086830101526000601f19601f870116820160a083820301602084015261359b60a0820187613531565b60408401959095525050606001529392505050565b600080604083850312156135c357600080fd5b6135cc83613141565b91506135da60208401613141565b90509250929050565b6000602082840312156135f557600080fd5b815161039d8161312c565b60006020828403121561361257600080fd5b5051919050565b60006001600160401b0380841115613633576136336132a8565b8360051b60206136448183016132be565b86815291850191818101903684111561365c57600080fd5b865b84811015613690578035868111156136765760008081fd5b61368236828b016132ee565b84525091830191830161365e565b50979650505050505050565b6000602082840312156136ae57600080fd5b813561039d8161312c565b6000602082840312156136cb57600080fd5b8151801515811461039d57600080fd5b634e487b7160e01b600052601160045260246000fd5b81810381811115612021576120216136db565b634e487b7160e01b600052601260045260246000fd5b60008261372957613729613704565b500490565b6000816000190483118215151615613748576137486136db565b500290565b80820180821115612021576120216136db565b6001600160401b038281168282160390808211156120d0576120d06136db565b60008261378f5761378f613704565b500690565b634e487b7160e01b600052603260045260246000fd5b86815263ffffffff86166020808301919091526001600160a01b03861660408301526001600160401b038516606083015260c06080830181905284519083018190526000918581019160e0850190845b81811015613816578451835293830193918301916001016137fa565b505084810360a0860152610f528187613531565b6000825161383c81846020870161350d565b9190910192915050565b60006020828403121561385857600080fd5b81516001600160e01b03198116811461039d57600080fd5b600060ff83168061388357613883613704565b8060ff84160691505092915050565b60ff8281168282160390811115612021576120216136db565b6000600182016138bd576138bd6136db565b5060010190565b600181815b808511156138ff5781600019048211156138e5576138e56136db565b808516156138f257918102915b93841c93908002906138c9565b509250929050565b60008261391657506001612021565b8161392357506000612021565b816001811461393957600281146139435761395f565b6001915050612021565b60ff841115613954576139546136db565b50506001821b612021565b5060208310610133831016604e8410600b8410161715613982575081810a612021565b61398c83836138c4565b80600019048211156139a0576139a06136db565b029392505050565b600061039d8383613907565b6020808252604a908201527f524c505265616465723a206c656e677468206f6620616e20524c50206974656d60408201527f206d7573742062652067726561746572207468616e207a65726f20746f206265606082015269206465636f6461626c6560b01b608082015260a0019056fe524c505265616465723a206c656e677468206f6620636f6e74656e74206d7573a26469706673582212207d38ec67345e6bd95cda9dcd48b432f06d282b10b764f6f5e44c193a3c2daee364736f6c63430008100033",
    "linkReferences": {}
  },
  "methodIdentifiers": {
    "VERSION()": "ffa1ad74",
    "eventsPublished(bytes32)": "3cca331c",
    "publishEvent(bytes,bytes32[],bytes32,bytes[],bytes,uint256,(uint32,address,address,bytes32))": "bbe6d642",
    "subscribe(uint32,address,address,bytes32,uint64,uint64)": "65138959",
    "subscriptions(bytes32)": "94259c6c",
    "unsubscribe(uint32,address,bytes32)": "97229719"
  },
  "id": 123
}