{
  "abi": [
    {
      "inputs": [
        {
          "internalType": "address",
          "name": "_telepathyRouter",
          "type": "address"
        }
      ],
      "stateMutability": "nonpayable",
      "type": "constructor"
    },
    {
      "inputs": [
        {
          "internalType": "uint64",
          "name": "startSlot",
          "type": "uint64"
        },
        {
          "internalType": "uint64",
          "name": "endSlot",
          "type": "uint64"
        }
      ],
      "name": "InvalidSlotRange",
      "type": "error"
    },
    {
      "inputs": [
        {
          "internalType": "bytes32",
          "name": "subscriptionId",
          "type": "bytes32"
        }
      ],
      "name": "SubscriptionAlreadyActive",
      "type": "error"
    },
    {
      "inputs": [
        {
          "internalType": "bytes32",
          "name": "subscriptionId",
          "type": "bytes32"
        }
      ],
      "name": "SubscriptionNotActive",
      "type": "error"
    },
    {
      "anonymous": false,
      "inputs": [
        {
          "indexed": true,
          "internalType": "bytes32",
          "name": "subscriptionId",
          "type": "bytes32"
        },
        {
          "indexed": true,
          "internalType": "uint32",
          "name": "sourceChainId",
          "type": "uint32"
        },
        {
          "indexed": true,
          "internalType": "address",
          "name": "sourceAddress",
          "type": "address"
        },
        {
          "indexed": false,
          "internalType": "address",
          "name": "callbackAddress",
          "type": "address"
        },
        {
          "indexed": false,
          "internalType": "bool",
          "name": "success",
          "type": "bool"
        }
      ],
      "name": "Publish",
      "type": "event"
    },
    {
      "anonymous": false,
      "inputs": [
        {
          "indexed": true,
          "internalType": "bytes32",
          "name": "subscriptionId",
          "type": "bytes32"
        },
        {
          "indexed": true,
          "internalType": "uint64",
          "name": "startSlot",
          "type": "uint64"
        },
        {
          "indexed": true,
          "internalType": "uint64",
          "name": "endSlot",
          "type": "uint64"
        },
        {
          "components": [
            {
              "internalType": "uint32",
              "name": "sourceChainId",
              "type": "uint32"
            },
            {
              "internalType": "address",
              "name": "sourceAddress",
              "type": "address"
            },
            {
              "internalType": "address",
              "name": "callbackAddress",
              "type": "address"
            },
            {
              "internalType": "bytes32",
              "name": "eventSig",
              "type": "bytes32"
            }
          ],
          "indexed": false,
          "internalType": "struct Subscription",
          "name": "subscription",
          "type": "tuple"
        }
      ],
      "name": "Subscribe",
      "type": "event"
    },
    {
      "anonymous": false,
      "inputs": [
        {
          "indexed": true,
          "internalType": "bytes32",
          "name": "subscriptionId",
          "type": "bytes32"
        },
        {
          "components": [
            {
              "internalType": "uint32",
              "name": "sourceChainId",
              "type": "uint32"
            },
            {
              "internalType": "address",
              "name": "sourceAddress",
              "type": "address"
            },
            {
              "internalType": "address",
              "name": "callbackAddress",
              "type": "address"
            },
            {
              "internalType": "bytes32",
              "name": "eventSig",
              "type": "bytes32"
            }
          ],
          "indexed": false,
          "internalType": "struct Subscription",
          "name": "subscription",
          "type": "tuple"
        }
      ],
      "name": "Unsubscribe",
      "type": "event"
    },
    {
      "inputs": [],
      "name": "VERSION",
      "outputs": [
        {
          "internalType": "uint8",
          "name": "",
          "type": "uint8"
        }
      ],
      "stateMutability": "view",
      "type": "function"
    },
    {
      "inputs": [
        {
          "internalType": "bytes32",
          "name": "",
          "type": "bytes32"
        }
      ],
      "name": "eventsPublished",
      "outputs": [
        {
          "internalType": "enum PublishStatus",
          "name": "",
          "type": "uint8"
        }
      ],
      "stateMutability": "view",
      "type": "function"
    },
    {
      "inputs": [
        {
          "internalType": "bytes",
          "name": "srcSlotTxSlotPack",
          "type": "bytes"
        },
        {
          "internalType": "bytes32[]",
          "name": "receiptsRootProof",
          "type": "bytes32[]"
        },
        {
          "internalType": "bytes32",
          "name": "receiptsRoot",
          "type": "bytes32"
        },
        {
          "internalType": "bytes[]",
          "name": "receiptProof",
          "type": "bytes[]"
        },
        {
          "internalType": "bytes",
          "name": "txIndexRLPEncoded",
          "type": "bytes"
        },
        {
          "internalType": "uint256",
          "name": "logIndex",
          "type": "uint256"
        },
        {
          "components": [
            {
              "internalType": "uint32",
              "name": "sourceChainId",
              "type": "uint32"
            },
            {
              "internalType": "address",
              "name": "sourceAddress",
              "type": "address"
            },
            {
              "internalType": "address",
              "name": "callbackAddress",
              "type": "address"
            },
            {
              "internalType": "bytes32",
              "name": "eventSig",
              "type": "bytes32"
            }
          ],
          "internalType": "struct Subscription",
          "name": "subscription",
          "type": "tuple"
        }
      ],
      "name": "publishEvent",
      "outputs": [],
      "stateMutability": "nonpayable",
      "type": "function"
    },
    {
      "inputs": [
        {
          "internalType": "uint32",
          "name": "_sourceChainId",
          "type": "uint32"
        },
        {
          "internalType": "address",
          "name": "_sourceAddress",
          "type": "address"
        },
        {
          "internalType": "address",
          "name": "_callbackAddress",
          "type": "address"
        },
        {
          "internalType": "bytes32",
          "name": "_eventSig",
          "type": "bytes32"
        },
        {
          "internalType": "uint64",
          "name": "_startSlot",
          "type": "uint64"
        },
        {
          "internalType": "uint64",
          "name": "_endSlot",
          "type": "uint64"
        }
      ],
      "name": "subscribe",
      "outputs": [
        {
          "internalType": "bytes32",
          "name": "",
          "type": "bytes32"
        }
      ],
      "stateMutability": "nonpayable",
      "type": "function"
    },
    {
      "inputs": [
        {
          "internalType": "bytes32",
          "name": "",
          "type": "bytes32"
        }
      ],
      "name": "subscriptions",
      "outputs": [
        {
          "internalType": "enum SubscriptionStatus",
          "name": "",
          "type": "uint8"
        }
      ],
      "stateMutability": "view",
      "type": "function"
    },
    {
      "inputs": [
        {
          "internalType": "uint32",
          "name": "_sourceChainId",
          "type": "uint32"
        },
        {
          "internalType": "address",
          "name": "_sourceAddress",
          "type": "address"
        },
        {
          "internalType": "bytes32",
          "name": "_eventSig",
          "type": "bytes32"
        }
      ],
      "name": "unsubscribe",
      "outputs": [
        {
          "internalType": "bytes32",
          "name": "",
          "type": "bytes32"
        }
      ],
      "stateMutability": "nonpayable",
      "type": "function"
    }
  ],
  "bytecode": {
    "object": "0x60806040523480156200001157600080fd5b5060405162003a7b38038062003a7b83398101604081905262000034916200005a565b600080546001600160a01b0319166001600160a01b03929092169190911790556200008c565b6000602082840312156200006d57600080fd5b81516001600160a01b03811681146200008557600080fd5b9392505050565b6139df806200009c6000396000f3fe608060405234801561001057600080fd5b50600436106100625760003560e01c80633cca331c1461006757806365138959146100a057806394259c6c146100c157806397229719146100f1578063bbe6d64214610104578063ffa1ad7414610119575b600080fd5b61008a610075366004613020565b60016020526000908152604090205460ff1681565b604051610097919061304f565b60405180910390f35b6100b36100ae3660046130ae565b610133565b604051908152602001610097565b6100e46100cf366004613020565b60026020526000908152604090205460ff1681565b604051610097919061311f565b6100b36100ff366004613133565b61029a565b6101176101123660046132cb565b6103a4565b005b610121600181565b60405160ff9091168152602001610097565b60008060405180608001604052808963ffffffff168152602001886001600160a01b03168152602001876001600160a01b0316815260200186815250905060008160405160200161018491906133ad565b60408051601f1981840301815291905280516020909101209050600160008281526002602052604090205460ff1660018111156101c3576101c3613039565b036101e957604051634702100760e11b8152600481018290526024015b60405180910390fd5b6000818152600260205260409020805460ff191660011790556001600160401b03808616908516101561024257604051633c04832160e21b81526001600160401b038087166004830152851660248201526044016101e0565b836001600160401b0316856001600160401b0316827f5c727204c662dd3d053e4f52d9c6872a50938b7af3f1497df385c3b5f4e5eb738560405161028691906133ad565b60405180910390a498975050505050505050565b60008060405180608001604052808663ffffffff168152602001856001600160a01b03168152602001336001600160a01b031681526020018481525090506000816040516020016102eb91906133ad565b60408051601f19818403018152919052805160209091012090506000808281526002602052604090205460ff16600181111561032957610329613039565b036103495760405162191d2960e11b8152600481018290526024016101e0565b60008181526002602052604090819020805460ff191690555181907f0a82aeeb867dc22c12ad75195fd9acfc1a0f838cd64348e4ed6a25e199def9c8906103919085906133ad565b60405180910390a29150505b9392505050565b6103b96103b460208301836133ef565b6106f1565b6103ce6103c960208301836133ef565b6108d7565b6000816040516020016103e1919061340a565b60405160208183030381529060405280519060200120905060008b8b8686856040516020016104149594939291906134b3565b60408051601f19818403018152919052805160209091012090506000808281526001602052604090205460ff16600281111561045257610452613039565b1461049f5760405162461bcd60e51b815260206004820152601760248201527f4576656e7420616c7265616479207075626c697368656400000000000000000060448201526064016101e0565b6000806104ae8d8f018f613506565b90925090506104c9826104c460208801886133ef565b61098c565b600080546001600160a01b0316637599735c6104e860208901896133ef565b6040516001600160e01b031960e084901b16815263ffffffff919091166004820152602401602060405180830381865afa15801561052a573d6000803e3d6000fd5b505050506040513d601f19601f8201168201806040525081019061054e9190613539565b6040516356f90d7960e01b81526001600160401b03851660048201526001600160a01b0391909116906356f90d7990602401602060405180830381865afa15801561059d573d6000803e3d6000fd5b505050506040513d601f19601f820116820180604052508101906105c19190613556565b9050806106085760405162461bcd60e51b8152602060048201526015602482015274486561646572526f6f74206973206d697373696e6760581b60448201526064016101e0565b600061064c8c8f8f80806020026020016040519081016040528093929190818152602001838360200280828437600092019190915250879250899150889050610d4a565b90508061069b5760405162461bcd60e51b815260206004820152601b60248201527f496e76616c696420726563656970747320726f6f742070726f6f66000000000060448201526064016101e0565b6000806106cb6106ab8d8f61356f565b8f8d8d8d60200160208101906106c191906135f2565b8e60600135610ef2565b915091506106dd888a8988868661123d565b505050505050505050505050505050505050565b60008054604051631d665cd760e21b815263ffffffff841660048201526001600160a01b0390911690637599735c90602401602060405180830381865afa158015610740573d6000803e3d6000fd5b505050506040513d601f19601f820116820180604052508101906107649190613539565b6001600160a01b0316036107b55760405162461bcd60e51b81526020600482015260186024820152772634b3b43a1031b634b2b73a1034b9903737ba1039b2ba1760411b60448201526064016101e0565b600054604051631d665cd760e21b815263ffffffff831660048201526001600160a01b0390911690637599735c90602401602060405180830381865afa158015610803573d6000803e3d6000fd5b505050506040513d601f19601f820116820180604052508101906108279190613539565b6001600160a01b0316632bcccca56040518163ffffffff1660e01b8152600401602060405180830381865afa158015610864573d6000803e3d6000fd5b505050506040513d601f19601f82011682018060405250810190610888919061360f565b6108d45760405162461bcd60e51b815260206004820152601d60248201527f4c6967687420636c69656e7420697320696e636f6e73697374656e742e00000060448201526064016101e0565b50565b6000546040516306d5cf8360e31b815263ffffffff831660048201526001600160a01b03909116906336ae7c1890602401602060405180830381865afa158015610925573d6000803e3d6000fd5b505050506040513d601f19601f82011682018060405250810190610949919061360f565b156108d45760405162461bcd60e51b815260206004820152601360248201527221b7b73a3930b1ba1034b990333937bd32b71760691b60448201526064016101e0565b60008054604051631d665cd760e21b815263ffffffff841660048201526001600160a01b0390911690637599735c90602401602060405180830381865afa1580156109db573d6000803e3d6000fd5b505050506040513d601f19601f820116820180604052508101906109ff9190613539565b6001600160a01b031603610a505760405162461bcd60e51b81526020600482015260186024820152772634b3b43a1031b634b2b73a1034b9903737ba1039b2ba1760411b60448201526064016101e0565b600054604051631d665cd760e21b815263ffffffff831660048201526001600160a01b0390911690637599735c90602401602060405180830381865afa158015610a9e573d6000803e3d6000fd5b505050506040513d601f19601f82011682018060405250810190610ac29190613539565b604051638bc33af360e01b81526001600160401b03841660048201526001600160a01b039190911690638bc33af390602401602060405180830381865afa158015610b11573d6000803e3d6000fd5b505050506040513d601f19601f82011682018060405250810190610b359190613556565b600003610b845760405162461bcd60e51b815260206004820152601e60248201527f54696d657374616d70206973206e6f742073657420666f7220736c6f742e000060448201526064016101e0565b60008054604051631d665cd760e21b815263ffffffff841660048201526001600160a01b0390911690637599735c90602401602060405180830381865afa158015610bd3573d6000803e3d6000fd5b505050506040513d601f19601f82011682018060405250810190610bf79190613539565b604051638bc33af360e01b81526001600160401b03851660048201526001600160a01b039190911690638bc33af390602401602060405180830381865afa158015610c46573d6000803e3d6000fd5b505050506040513d601f19601f82011682018060405250810190610c6a9190613556565b610c749042613647565b905060008054906101000a90046001600160a01b03166001600160a01b031663e4407b156040518163ffffffff1660e01b8152600401602060405180830381865afa158015610cc7573d6000803e3d6000fd5b505050506040513d601f19601f82011682018060405250810190610ceb9190613556565b811015610d455760405162461bcd60e51b815260206004820152602260248201527f4d7573742077616974206c6f6e67657220746f20757365207468697320736c6f6044820152613a1760f11b60648201526084016101e0565b505050565b600080826001600160401b0316846001600160401b031603610d885750600b610d758161020061365a565b610d8190610183613679565b9050610edb565b612000610d95848661368c565b6001600160401b031611610df75750600b610db181602061365a565b610dbc906006613679565b9050610dd36120006001600160401b0385166136c2565b610ddf6120008361365a565b610de99190613679565b9050610d758161020061365a565b836001600160401b0316836001600160401b03161015610e895750600b610e1f81602061365a565b610e2a906007613679565b9050610e3781600261365a565b610e42906000613679565b9050610e596120006001600160401b0385166136d6565b610e6763010000008361365a565b610e719190613679565b9050610e7e81600261365a565b610dbc906001613679565b60405162461bcd60e51b815260206004820152602160248201527f54727573746c657373414d423a20696e76616c69642074617267657420736c6f6044820152601d60fa1b60648201526084016101e0565b610ee787828888611432565b979650505050505050565b6060806000610f02878a8a61144c565b9050600081600081518110610f1957610f196136ea565b01602001516001600160f81b03191690506000600160f81b821480610f4b5750600160f91b6001600160f81b03198316145b15610f5857506001610fbd565b600360fe1b6001600160f81b0319831610610f7557506000610fbd565b60405162461bcd60e51b815260206004820152601c60248201527f556e737570706f72746564207472616e73616374696f6e20747970650000000060448201526064016101e0565b600060208401905060006040518060400160405280848751610fdf9190613647565b8152602001610fee8585613679565b905290506000610ffd82611cdf565b905080516004146110495760405162461bcd60e51b8152602060048201526016602482015275092dcecc2d8d2c840e4cac6cad2e0e840d8cadccee8d60531b60448201526064016101e0565b600061106e82600381518110611061576110616136ea565b6020026020010151611cdf565b905080518c106110c05760405162461bcd60e51b815260206004820152601760248201527f4c6f6720696e646578206f7574206f6620626f756e647300000000000000000060448201526064016101e0565b60006110d7828e81518110611061576110616136ea565b905060006110fe826000815181106110f1576110f16136ea565b6020026020010151611f04565b90508c6001600160a01b0316816001600160a01b0316146111725760405162461bcd60e51b815260206004820152602860248201527f4576656e7420776173206e6f7420656d697474656420627920736f757263652060448201526718dbdb9d1c9858dd60c21b60648201526084016101e0565b600061119261118d84600181518110611061576110616136ea565b611f78565b90508c816000815181106111a8576111a86136ea565b6020026020010151146111fd5760405162461bcd60e51b815260206004820152601e60248201527f4576656e74207369676e617475726520646f6573206e6f74206d61746368000060448201526064016101e0565b600061122284600281518110611215576112156136ea565b6020026020010151612028565b919c50909a5050505050505050505050965096945050505050565b6000606081635160951d60e11b8961125860208b018b6133ef565b61126860408c0160208d016135f2565b89898960405160240161128096959493929190613700565b60408051601f198184030181529181526020820180516001600160e01b03166001600160e01b03199094169390931790925291506112c49060608a01908a016135f2565b6001600160a01b0316816040516112db919061378f565b6000604051808303816000865af19150503d8060008114611318576040519150601f19603f3d011682016040523d82523d6000602084013e61131d565b606091505b50805191945092506000915060200361135d5760008280602001905181019061134691906137ab565b6001600160e01b031916635160951d60e11b149150505b8280156113675750805b1561138a576000878152600160205260409020805460ff191660021790556113a7565b6000878152600160208190526040909120805460ff191690911790555b6113b76040890160208a016135f2565b6001600160a01b03166113cd60208a018a6133ef565b63ffffffff168a7f47168527703e2b64019824d3deab18f025015c94de1e8bfe6091ab32e02d12ed61140560608d0160408e016135f2565b604080516001600160a01b03909216825288151560208301520160405180910390a4505050505050505050565b600080611440868686612154565b90921495945050505050565b606060008451116114975760405162461bcd60e51b81526020600482015260156024820152744d65726b6c65547269653a20656d707479206b657960581b60448201526064016101e0565b60006114a2846122ec565b905060006114af866123da565b90506000846040516020016114c691815260200190565b60405160208183030381529060405290506000805b8451811015611c885760008582815181106114f8576114f86136ea565b60200260200101519050845183111561156a5760405162461bcd60e51b815260206004820152602e60248201527f4d65726b6c65547269653a206b657920696e646578206578636565647320746f60448201526d0e8c2d840d6caf240d8cadccee8d60931b60648201526084016101e0565b8260000361160957805180516020918201206040516115b89261159292910190815260200190565b604051602081830303815290604052858051602091820120825192909101919091201490565b6116045760405162461bcd60e51b815260206004820152601d60248201527f4d65726b6c65547269653a20696e76616c696420726f6f74206861736800000060448201526064016101e0565b6116ff565b80515160201161168f57805180516020918201206040516116339261159292910190815260200190565b6116045760405162461bcd60e51b815260206004820152602760248201527f4d65726b6c65547269653a20696e76616c6964206c6172676520696e7465726e6044820152660c2d840d0c2e6d60cb1b60648201526084016101e0565b8051845160208087019190912082519190920120146116ff5760405162461bcd60e51b815260206004820152602660248201527f4d65726b6c65547269653a20696e76616c696420696e7465726e616c206e6f646044820152650ca40d0c2e6d60d31b60648201526084016101e0565b61170b60106001613679565b816020015151036118ab578451830361184357600061173a8260200151601081518110611215576112156136ea565b905060008151116117b35760405162461bcd60e51b815260206004820152603b60248201527f4d65726b6c65547269653a2076616c7565206c656e677468206d75737420626560448201527f2067726561746572207468616e207a65726f20286272616e636829000000000060648201526084016101e0565b600187516117c19190613647565b83146118355760405162461bcd60e51b815260206004820152603a60248201527f4d65726b6c65547269653a2076616c7565206e6f6465206d757374206265206c60448201527f617374206e6f646520696e2070726f6f6620286272616e63682900000000000060648201526084016101e0565b965061039d95505050505050565b6000858481518110611857576118576136ea565b602001015160f81c60f81b60f81c9050600082602001518260ff1681518110611882576118826136ea565b60200260200101519050611895816124f4565b95506118a2600186613679565b94505050611c75565b600281602001515103611c1c5760006118c382612519565b90506000816000815181106118da576118da6136ea565b016020015160f81c905060006118f16002836137d5565b6118fc9060026137f7565b9050600061190d848360ff1661253d565b9050600061191b8a8961253d565b905060006119298383612573565b9050808351146119a15760405162461bcd60e51b815260206004820152603a60248201527f4d65726b6c65547269653a20706174682072656d61696e646572206d7573742060448201527f736861726520616c6c206e6962626c65732077697468206b657900000000000060648201526084016101e0565b60ff8516600214806119b6575060ff85166003145b15611b5c5780825114611a315760405162461bcd60e51b815260206004820152603d60248201527f4d65726b6c65547269653a206b65792072656d61696e646572206d757374206260448201527f65206964656e746963616c20746f20706174682072656d61696e64657200000060648201526084016101e0565b6000611a4d8860200151600181518110611215576112156136ea565b90506000815111611ac65760405162461bcd60e51b815260206004820152603960248201527f4d65726b6c65547269653a2076616c7565206c656e677468206d75737420626560448201527f2067726561746572207468616e207a65726f20286c656166290000000000000060648201526084016101e0565b60018d51611ad49190613647565b8914611b485760405162461bcd60e51b815260206004820152603860248201527f4d65726b6c65547269653a2076616c7565206e6f6465206d757374206265206c60448201527f617374206e6f646520696e2070726f6f6620286c65616629000000000000000060648201526084016101e0565b9c5061039d9b505050505050505050505050565b60ff85161580611b6f575060ff85166001145b15611bae57611b9b8760200151600181518110611b8e57611b8e6136ea565b60200260200101516124f4565b9950611ba7818a613679565b9850611c11565b60405162461bcd60e51b815260206004820152603260248201527f4d65726b6c65547269653a2072656365697665642061206e6f64652077697468604482015271040c2dc40eadcd6dcdeeedc40e0e4caccd2f60731b60648201526084016101e0565b505050505050611c75565b60405162461bcd60e51b815260206004820152602860248201527f4d65726b6c65547269653a20726563656976656420616e20756e706172736561604482015267626c65206e6f646560c01b60648201526084016101e0565b5080611c8081613810565b9150506114db565b5060405162461bcd60e51b815260206004820152602560248201527f4d65726b6c65547269653a2072616e206f7574206f662070726f6f6620656c656044820152646d656e747360d81b60648201526084016101e0565b60606000806000611cef856125f2565b919450925090506001816001811115611d0a57611d0a613039565b14611d7d5760405162461bcd60e51b815260206004820152603860248201527f524c505265616465723a206465636f646564206974656d207479706520666f7260448201527f206c697374206973206e6f742061206c697374206974656d000000000000000060648201526084016101e0565b8451611d898385613679565b14611df15760405162461bcd60e51b815260206004820152603260248201527f524c505265616465723a206c697374206974656d2068617320616e20696e76616044820152713634b2103230ba30903932b6b0b4b73232b960711b60648201526084016101e0565b6040805160208082526104208201909252600091816020015b6040805180820190915260008082526020820152815260200190600190039081611e0a5790505090506000845b8751811015611ef857600080611e7d6040518060400160405280858d60000151611e619190613647565b8152602001858d60200151611e769190613679565b90526125f2565b509150915060405180604001604052808383611e999190613679565b8152602001848c60200151611eae9190613679565b815250858581518110611ec357611ec36136ea565b6020908102919091010152611ed9600185613679565b9350611ee58183613679565b611eef9084613679565b92505050611e37565b50815295945050505050565b8051600090600103611f1857506000919050565b8151601514611f695760405162461bcd60e51b815260206004820152601a60248201527f496e76616c696420524c5020616464726573732076616c75652e00000000000060448201526064016101e0565b611f7282612cb5565b92915050565b6060600082516001600160401b03811115611f9557611f956131fe565b604051908082528060200260200182016040528015611fbe578160200160208202803683370190505b50905060005b835181101561202157611fef848281518110611fe257611fe26136ea565b6020026020010151612cb5565b60001b828281518110612004576120046136ea565b60209081029190910101528061201981613810565b915050611fc4565b5092915050565b60606000806000612038856125f2565b91945092509050600081600181111561205357612053613039565b146120c65760405162461bcd60e51b815260206004820152603960248201527f524c505265616465723a206465636f646564206974656d207479706520666f7260448201527f206279746573206973206e6f7420612064617461206974656d0000000000000060648201526084016101e0565b6120d08284613679565b85511461213c5760405162461bcd60e51b815260206004820152603460248201527f524c505265616465723a2062797465732076616c756520636f6e7461696e732060448201527330b71034b73b30b634b2103932b6b0b4b73232b960611b60648201526084016101e0565b61214b85602001518484612cc0565b95945050505050565b600082825160016121659190613679565b61217090600261390d565b1161217a57600080fd5b8360005b846001146122e3576121916002866136c2565b6001036122305760028482815181106121ac576121ac6136ea565b6020026020010151836040516020016121cf929190918252602082015260400190565b60408051601f19818403018152908290526121e99161378f565b602060405180830381855afa158015612206573d6000803e3d6000fd5b5050506040513d601f19601f820116820180604052508101906122299190613556565b91506122c4565b600282858381518110612245576122456136ea565b6020026020010151604051602001612267929190918252602082015260400190565b60408051601f19818403018152908290526122819161378f565b602060405180830381855afa15801561229e573d6000803e3d6000fd5b5050506040513d601f19601f820116820180604052508101906122c19190613556565b91505b6122cf6002866136d6565b9450806122db81613810565b91505061217e565b50949350505050565b80516060906000816001600160401b0381111561230b5761230b6131fe565b60405190808252806020026020018201604052801561235057816020015b60408051808201909152606080825260208201528152602001906001900390816123295790505b50905060005b828110156123d257604051806040016040528086838151811061237b5761237b6136ea565b602002602001015181526020016123aa87848151811061239d5761239d6136ea565b6020026020010151612d60565b8152508282815181106123bf576123bf6136ea565b6020908102919091010152600101612356565b509392505050565b805160609060006123ec82600261365a565b6001600160401b03811115612403576124036131fe565b6040519080825280601f01601f19166020018201604052801561242d576020820181803683370190505b5090506000805b838110156124ea5785818151811061244e5761244e6136ea565b6020910101516001600160f81b03198116925060041c60ff60f41b168361247683600261365a565b81518110612486576124866136ea565b60200101906001600160f81b031916908160001a905350600f60f81b8216836124b083600261365a565b6124bb906001613679565b815181106124cb576124cb6136ea565b60200101906001600160f81b031916908160001a905350600101612434565b5090949350505050565b606060208260000151106125105761250b82612028565b611f72565b611f7282612d73565b6060611f726125388360200151600081518110611215576112156136ea565b6123da565b60608251821061255c5750604080516020810190915260008152611f72565b61039d838384865161256e9190613647565b612d89565b6000806000835185511061258857835161258b565b84515b90505b80821080156125e257508382815181106125aa576125aa6136ea565b602001015160f81c60f81b6001600160f81b0319168583815181106125d1576125d16136ea565b01602001516001600160f81b031916145b156123d25781600101915061258e565b60008060008084600001511161261a5760405162461bcd60e51b81526004016101e090613919565b6020840151805160001a607f811161263f576000600160009450945094505050612cae565b60b7811161279c576000612654608083613647565b9050808760000151116126d45760405162461bcd60e51b815260206004820152604e602482015260008051602061398a83398151915260448201527f742062652067726561746572207468616e20737472696e67206c656e6774682060648201526d2873686f727420737472696e672960901b608482015260a4016101e0565b6001838101516001600160f81b03191690821415806127015750600160ff1b6001600160f81b0319821610155b6127895760405162461bcd60e51b815260206004820152604d60248201527f524c505265616465723a20696e76616c6964207072656669782c2073696e676c60448201527f652062797465203c203078383020617265206e6f74207072656669786564202860648201526c73686f727420737472696e672960981b608482015260a4016101e0565b5060019550935060009250612cae915050565b60bf81116129dd5760006127b160b783613647565b9050808760000151116128345760405162461bcd60e51b8152602060048201526051602482015260008051602061398a83398151915260448201527f74206265203e207468616e206c656e677468206f6620737472696e67206c656e60648201527067746820286c6f6e6720737472696e672960781b608482015260a4016101e0565b60018301516001600160f81b03191660008190036128bb5760405162461bcd60e51b815260206004820152604a602482015260008051602061398a83398151915260448201527f74206e6f74206861766520616e79206c656164696e67207a65726f7320286c6f6064820152696e6720737472696e672960b01b608482015260a4016101e0565b600184015160088302610100031c6037811161293e5760405162461bcd60e51b8152602060048201526048602482015260008051602061398a83398151915260448201527f742062652067726561746572207468616e20353520627974657320286c6f6e6760648201526720737472696e672960c01b608482015260a4016101e0565b6129488184613679565b8951116129c05760405162461bcd60e51b815260206004820152604c602482015260008051602061398a83398151915260448201527f742062652067726561746572207468616e20746f74616c206c656e677468202860648201526b6c6f6e6720737472696e672960a01b608482015260a4016101e0565b6129cb836001613679565b9750955060009450612cae9350505050565b60f78111612a7f5760006129f260c083613647565b905080876000015111612a6e5760405162461bcd60e51b815260206004820152604a602482015260008051602061398a83398151915260448201527f742062652067726561746572207468616e206c697374206c656e677468202873606482015269686f7274206c6973742960b01b608482015260a4016101e0565b600195509350849250612cae915050565b6000612a8c60f783613647565b905080876000015111612b0b5760405162461bcd60e51b815260206004820152604d602482015260008051602061398a83398151915260448201527f74206265203e207468616e206c656e677468206f66206c697374206c656e677460648201526c6820286c6f6e67206c6973742960981b608482015260a4016101e0565b60018301516001600160f81b0319166000819003612b905760405162461bcd60e51b8152602060048201526048602482015260008051602061398a83398151915260448201527f74206e6f74206861766520616e79206c656164696e67207a65726f7320286c6f6064820152676e67206c6973742960c01b608482015260a4016101e0565b600184015160088302610100031c60378111612c115760405162461bcd60e51b8152602060048201526046602482015260008051602061398a83398151915260448201527f742062652067726561746572207468616e20353520627974657320286c6f6e67606482015265206c6973742960d01b608482015260a4016101e0565b612c1b8184613679565b895111612c915760405162461bcd60e51b815260206004820152604a602482015260008051602061398a83398151915260448201527f742062652067726561746572207468616e20746f74616c206c656e67746820286064820152696c6f6e67206c6973742960b01b608482015260a4016101e0565b612c9c836001613679565b9750955060019450612cae9350505050565b9193909250565b6000611f7282612eca565b60606000826001600160401b03811115612cdc57612cdc6131fe565b6040519080825280601f01601f191660200182016040528015612d06576020820181803683370190505b50905082600003612d1857905061039d565b6000612d248587613679565b90506020820160005b85811015612d45578281015182820152602001612d2d565b85811115612d54576000868301525b50919695505050505050565b6060611f72612d6e83612fcd565b611cdf565b6060611f72826020015160008460000151612cc0565b60608182601f011015612dcf5760405162461bcd60e51b815260206004820152600e60248201526d736c6963655f6f766572666c6f7760901b60448201526064016101e0565b828284011015612e125760405162461bcd60e51b815260206004820152600e60248201526d736c6963655f6f766572666c6f7760901b60448201526064016101e0565b81830184511015612e595760405162461bcd60e51b8152602060048201526011602482015270736c6963655f6f75744f66426f756e647360781b60448201526064016101e0565b606082158015612e7857604051915060008252602082016040526122e3565b6040519150601f8416801560200281840101858101878315602002848b0101015b81831015612eb1578051835260209283019201612e99565b5050858452601f01601f19166040525050949350505050565b6000602182600001511115612f215760405162461bcd60e51b815260206004820152601a60248201527f496e76616c696420524c5020627974657333322076616c75652e00000000000060448201526064016101e0565b6000806000612f2f856125f2565b919450925090506000816001811115612f4a57612f4a613039565b14612f975760405162461bcd60e51b815260206004820152601a60248201527f496e76616c696420524c5020627974657333322076616c75652e00000000000060448201526064016101e0565b6000838660200151612fa99190613679565b80519091506020841015612fc35760208490036101000a90045b9695505050505050565b604080518082019091526000808252602082015260008251116130025760405162461bcd60e51b81526004016101e090613919565b50604080518082019091528151815260209182019181019190915290565b60006020828403121561303257600080fd5b5035919050565b634e487b7160e01b600052602160045260246000fd5b602081016003831061306357613063613039565b91905290565b803563ffffffff8116811461307d57600080fd5b919050565b6001600160a01b03811681146108d457600080fd5b80356001600160401b038116811461307d57600080fd5b60008060008060008060c087890312156130c757600080fd5b6130d087613069565b955060208701356130e081613082565b945060408701356130f081613082565b93506060870135925061310560808801613097565b915061311360a08801613097565b90509295509295509295565b602081016002831061306357613063613039565b60008060006060848603121561314857600080fd5b61315184613069565b9250602084013561316181613082565b929592945050506040919091013590565b60008083601f84011261318457600080fd5b5081356001600160401b0381111561319b57600080fd5b6020830191508360208285010111156131b357600080fd5b9250929050565b60008083601f8401126131cc57600080fd5b5081356001600160401b038111156131e357600080fd5b6020830191508360208260051b85010111156131b357600080fd5b634e487b7160e01b600052604160045260246000fd5b604051601f8201601f191681016001600160401b038111828210171561323c5761323c6131fe565b604052919050565b600082601f83011261325557600080fd5b81356001600160401b0381111561326e5761326e6131fe565b613281601f8201601f1916602001613214565b81815284602083860101111561329657600080fd5b816020850160208301376000918101602001919091529392505050565b6000608082840312156132c557600080fd5b50919050565b6000806000806000806000806000806101408b8d0312156132eb57600080fd5b8a356001600160401b038082111561330257600080fd5b61330e8e838f01613172565b909c509a5060208d013591508082111561332757600080fd5b6133338e838f016131ba565b909a50985060408d0135975060608d013591508082111561335357600080fd5b61335f8e838f016131ba565b909750955060808d013591508082111561337857600080fd5b506133858d828e01613244565b93505060a08b0135915061339c8c60c08d016132b3565b90509295989b9194979a5092959850565b815163ffffffff1681526020808301516001600160a01b0390811691830191909152604080840151909116908201526060918201519181019190915260800190565b60006020828403121561340157600080fd5b61039d82613069565b6080810163ffffffff61341c84613069565b168252602083013561342d81613082565b6001600160a01b03908116602084015260408401359061344c82613082565b166040830152606092830135929091019190915290565b60005b8381101561347e578181015183820152602001613466565b50506000910152565b6000815180845261349f816020860160208601613463565b601f01601f19169290920160200192915050565b60808152846080820152848660a0830137600060a086830101526000601f19601f870116820160a08382030160208401526134f160a0820187613487565b60408401959095525050606001529392505050565b6000806040838503121561351957600080fd5b61352283613097565b915061353060208401613097565b90509250929050565b60006020828403121561354b57600080fd5b815161039d81613082565b60006020828403121561356857600080fd5b5051919050565b60006001600160401b0380841115613589576135896131fe565b8360051b602061359a818301613214565b8681529185019181810190368411156135b257600080fd5b865b848110156135e6578035868111156135cc5760008081fd5b6135d836828b01613244565b8452509183019183016135b4565b50979650505050505050565b60006020828403121561360457600080fd5b813561039d81613082565b60006020828403121561362157600080fd5b8151801515811461039d57600080fd5b634e487b7160e01b600052601160045260246000fd5b81810381811115611f7257611f72613631565b600081600019048311821515161561367457613674613631565b500290565b80820180821115611f7257611f72613631565b6001600160401b0382811682821603908082111561202157612021613631565b634e487b7160e01b600052601260045260246000fd5b6000826136d1576136d16136ac565b500690565b6000826136e5576136e56136ac565b500490565b634e487b7160e01b600052603260045260246000fd5b86815263ffffffff86166020808301919091526001600160a01b03861660408301526001600160401b038516606083015260c06080830181905284519083018190526000918581019160e0850190845b8181101561376c57845183529383019391830191600101613750565b505084810360a08601526137808187613487565b9b9a5050505050505050505050565b600082516137a1818460208701613463565b9190910192915050565b6000602082840312156137bd57600080fd5b81516001600160e01b03198116811461039d57600080fd5b600060ff8316806137e8576137e86136ac565b8060ff84160691505092915050565b60ff8281168282160390811115611f7257611f72613631565b60006001820161382257613822613631565b5060010190565b600181815b8085111561386457816000190482111561384a5761384a613631565b8085161561385757918102915b93841c939080029061382e565b509250929050565b60008261387b57506001611f72565b8161388857506000611f72565b816001811461389e57600281146138a8576138c4565b6001915050611f72565b60ff8411156138b9576138b9613631565b50506001821b611f72565b5060208310610133831016604e8410600b84101617156138e7575081810a611f72565b6138f18383613829565b806000190482111561390557613905613631565b029392505050565b600061039d838361386c565b6020808252604a908201527f524c505265616465723a206c656e677468206f6620616e20524c50206974656d60408201527f206d7573742062652067726561746572207468616e207a65726f20746f206265606082015269206465636f6461626c6560b01b608082015260a0019056fe524c505265616465723a206c656e677468206f6620636f6e74656e74206d7573a2646970667358221220602421baf00893da0a1ad83f848fb9ec680486abe80b75375eaf01610b6fd37564736f6c63430008100033",
    "linkReferences": {}
  },
  "methodIdentifiers": {
    "VERSION()": "ffa1ad74",
    "eventsPublished(bytes32)": "3cca331c",
    "publishEvent(bytes,bytes32[],bytes32,bytes[],bytes,uint256,(uint32,address,address,bytes32))": "bbe6d642",
    "subscribe(uint32,address,address,bytes32,uint64,uint64)": "65138959",
    "subscriptions(bytes32)": "94259c6c",
    "unsubscribe(uint32,address,bytes32)": "97229719"
  },
  "id": 122
}