{
  "abi": [
    {
      "anonymous": false,
      "inputs": [
        {
          "indexed": true,
          "internalType": "bytes32",
          "name": "subscriptionId",
          "type": "bytes32"
        },
        {
          "indexed": true,
          "internalType": "uint32",
          "name": "sourceChainId",
          "type": "uint32"
        },
        {
          "indexed": true,
          "internalType": "address",
          "name": "sourceAddress",
          "type": "address"
        },
        {
          "indexed": false,
          "internalType": "address",
          "name": "callbackAddress",
          "type": "address"
        },
        {
          "indexed": false,
          "internalType": "bool",
          "name": "success",
          "type": "bool"
        }
      ],
      "name": "Publish",
      "type": "event"
    },
    {
      "inputs": [
        {
          "internalType": "bytes32",
          "name": "",
          "type": "bytes32"
        }
      ],
      "name": "eventsPublished",
      "outputs": [
        {
          "internalType": "enum PublishStatus",
          "name": "",
          "type": "uint8"
        }
      ],
      "stateMutability": "view",
      "type": "function"
    },
    {
      "inputs": [
        {
          "internalType": "bytes",
          "name": "srcSlotTxSlotPack",
          "type": "bytes"
        },
        {
          "internalType": "bytes32[]",
          "name": "receiptsRootProof",
          "type": "bytes32[]"
        },
        {
          "internalType": "bytes32",
          "name": "receiptsRoot",
          "type": "bytes32"
        },
        {
          "internalType": "bytes[]",
          "name": "receiptProof",
          "type": "bytes[]"
        },
        {
          "internalType": "bytes",
          "name": "txIndexRLPEncoded",
          "type": "bytes"
        },
        {
          "internalType": "uint256",
          "name": "logIndex",
          "type": "uint256"
        },
        {
          "components": [
            {
              "internalType": "uint32",
              "name": "sourceChainId",
              "type": "uint32"
            },
            {
              "internalType": "address",
              "name": "sourceAddress",
              "type": "address"
            },
            {
              "internalType": "address",
              "name": "callbackAddress",
              "type": "address"
            },
            {
              "internalType": "bytes32",
              "name": "eventSig",
              "type": "bytes32"
            }
          ],
          "internalType": "struct Subscription",
          "name": "subscription",
          "type": "tuple"
        }
      ],
      "name": "publishEvent",
      "outputs": [],
      "stateMutability": "nonpayable",
      "type": "function"
    },
    {
      "inputs": [
        {
          "internalType": "bytes32",
          "name": "",
          "type": "bytes32"
        }
      ],
      "name": "subscriptions",
      "outputs": [
        {
          "internalType": "enum SubscriptionStatus",
          "name": "",
          "type": "uint8"
        }
      ],
      "stateMutability": "view",
      "type": "function"
    }
  ],
  "bytecode": {
    "object": "0x608060405234801561001057600080fd5b50613619806100206000396000f3fe608060405234801561001057600080fd5b50600436106100415760003560e01c80633cca331c1461004657806394259c6c1461007f578063bbe6d642146100af575b600080fd5b610069610054366004612d4c565b60016020526000908152604090205460ff1681565b6040516100769190612d7b565b60405180910390f35b6100a261008d366004612d4c565b60026020526000908152604090205460ff1681565b6040516100769190612d95565b6100c26100bd366004612f02565b6100c4565b005b6100d96100d46020830183612ffd565b610416565b6100ee6100e96020830183612ffd565b6105fc565b600081604051602001610101919061302d565b60405160208183030381529060405280519060200120905060008b8b8686856040516020016101349594939291906130d6565b60408051601f19818403018152919052805160209091012090506000808281526001602052604090205460ff16600281111561017257610172612d65565b146101c45760405162461bcd60e51b815260206004820152601760248201527f4576656e7420616c7265616479207075626c697368656400000000000000000060448201526064015b60405180910390fd5b6000806101d38d8f018f613140565b90925090506101ee826101e96020880188612ffd565b6106b1565b600080546001600160a01b0316637599735c61020d6020890189612ffd565b6040516001600160e01b031960e084901b16815263ffffffff919091166004820152602401602060405180830381865afa15801561024f573d6000803e3d6000fd5b505050506040513d601f19601f820116820180604052508101906102739190613173565b6040516356f90d7960e01b81526001600160401b03851660048201526001600160a01b0391909116906356f90d7990602401602060405180830381865afa1580156102c2573d6000803e3d6000fd5b505050506040513d601f19601f820116820180604052508101906102e69190613190565b90508061032d5760405162461bcd60e51b8152602060048201526015602482015274486561646572526f6f74206973206d697373696e6760581b60448201526064016101bb565b60006103718c8f8f80806020026020016040519081016040528093929190818152602001838360200280828437600092019190915250879250899150889050610a6f565b9050806103c05760405162461bcd60e51b815260206004820152601b60248201527f496e76616c696420726563656970747320726f6f742070726f6f66000000000060448201526064016101bb565b6000806103f06103d08d8f6131a9565b8f8d8d8d60200160208101906103e6919061322c565b8e60600135610c17565b91509150610402888a89888686610f62565b505050505050505050505050505050505050565b60008054604051631d665cd760e21b815263ffffffff841660048201526001600160a01b0390911690637599735c90602401602060405180830381865afa158015610465573d6000803e3d6000fd5b505050506040513d601f19601f820116820180604052508101906104899190613173565b6001600160a01b0316036104da5760405162461bcd60e51b81526020600482015260186024820152772634b3b43a1031b634b2b73a1034b9903737ba1039b2ba1760411b60448201526064016101bb565b600054604051631d665cd760e21b815263ffffffff831660048201526001600160a01b0390911690637599735c90602401602060405180830381865afa158015610528573d6000803e3d6000fd5b505050506040513d601f19601f8201168201806040525081019061054c9190613173565b6001600160a01b0316632bcccca56040518163ffffffff1660e01b8152600401602060405180830381865afa158015610589573d6000803e3d6000fd5b505050506040513d601f19601f820116820180604052508101906105ad9190613249565b6105f95760405162461bcd60e51b815260206004820152601d60248201527f4c6967687420636c69656e7420697320696e636f6e73697374656e742e00000060448201526064016101bb565b50565b6000546040516306d5cf8360e31b815263ffffffff831660048201526001600160a01b03909116906336ae7c1890602401602060405180830381865afa15801561064a573d6000803e3d6000fd5b505050506040513d601f19601f8201168201806040525081019061066e9190613249565b156105f95760405162461bcd60e51b815260206004820152601360248201527221b7b73a3930b1ba1034b990333937bd32b71760691b60448201526064016101bb565b60008054604051631d665cd760e21b815263ffffffff841660048201526001600160a01b0390911690637599735c90602401602060405180830381865afa158015610700573d6000803e3d6000fd5b505050506040513d601f19601f820116820180604052508101906107249190613173565b6001600160a01b0316036107755760405162461bcd60e51b81526020600482015260186024820152772634b3b43a1031b634b2b73a1034b9903737ba1039b2ba1760411b60448201526064016101bb565b600054604051631d665cd760e21b815263ffffffff831660048201526001600160a01b0390911690637599735c90602401602060405180830381865afa1580156107c3573d6000803e3d6000fd5b505050506040513d601f19601f820116820180604052508101906107e79190613173565b604051638bc33af360e01b81526001600160401b03841660048201526001600160a01b039190911690638bc33af390602401602060405180830381865afa158015610836573d6000803e3d6000fd5b505050506040513d601f19601f8201168201806040525081019061085a9190613190565b6000036108a95760405162461bcd60e51b815260206004820152601e60248201527f54696d657374616d70206973206e6f742073657420666f7220736c6f742e000060448201526064016101bb565b60008054604051631d665cd760e21b815263ffffffff841660048201526001600160a01b0390911690637599735c90602401602060405180830381865afa1580156108f8573d6000803e3d6000fd5b505050506040513d601f19601f8201168201806040525081019061091c9190613173565b604051638bc33af360e01b81526001600160401b03851660048201526001600160a01b039190911690638bc33af390602401602060405180830381865afa15801561096b573d6000803e3d6000fd5b505050506040513d601f19601f8201168201806040525081019061098f9190613190565b6109999042613281565b905060008054906101000a90046001600160a01b03166001600160a01b031663e4407b156040518163ffffffff1660e01b8152600401602060405180830381865afa1580156109ec573d6000803e3d6000fd5b505050506040513d601f19601f82011682018060405250810190610a109190613190565b811015610a6a5760405162461bcd60e51b815260206004820152602260248201527f4d7573742077616974206c6f6e67657220746f20757365207468697320736c6f6044820152613a1760f11b60648201526084016101bb565b505050565b600080826001600160401b0316846001600160401b031603610aad5750600b610a9a81610200613294565b610aa6906101836132b3565b9050610c00565b612000610aba84866132c6565b6001600160401b031611610b1c5750600b610ad6816020613294565b610ae19060066132b3565b9050610af86120006001600160401b0385166132fc565b610b0461200083613294565b610b0e91906132b3565b9050610a9a81610200613294565b836001600160401b0316836001600160401b03161015610bae5750600b610b44816020613294565b610b4f9060076132b3565b9050610b5c816002613294565b610b679060006132b3565b9050610b7e6120006001600160401b038516613310565b610b8c630100000083613294565b610b9691906132b3565b9050610ba3816002613294565b610ae19060016132b3565b60405162461bcd60e51b815260206004820152602160248201527f54727573746c657373414d423a20696e76616c69642074617267657420736c6f6044820152601d60fa1b60648201526084016101bb565b610c0c87828888611157565b979650505050505050565b6060806000610c27878a8a611171565b9050600081600081518110610c3e57610c3e613324565b01602001516001600160f81b03191690506000600160f81b821480610c705750600160f91b6001600160f81b03198316145b15610c7d57506001610ce2565b600360fe1b6001600160f81b0319831610610c9a57506000610ce2565b60405162461bcd60e51b815260206004820152601c60248201527f556e737570706f72746564207472616e73616374696f6e20747970650000000060448201526064016101bb565b600060208401905060006040518060400160405280848751610d049190613281565b8152602001610d1385856132b3565b905290506000610d2282611a0b565b90508051600414610d6e5760405162461bcd60e51b8152602060048201526016602482015275092dcecc2d8d2c840e4cac6cad2e0e840d8cadccee8d60531b60448201526064016101bb565b6000610d9382600381518110610d8657610d86613324565b6020026020010151611a0b565b905080518c10610de55760405162461bcd60e51b815260206004820152601760248201527f4c6f6720696e646578206f7574206f6620626f756e647300000000000000000060448201526064016101bb565b6000610dfc828e81518110610d8657610d86613324565b90506000610e2382600081518110610e1657610e16613324565b6020026020010151611c30565b90508c6001600160a01b0316816001600160a01b031614610e975760405162461bcd60e51b815260206004820152602860248201527f4576656e7420776173206e6f7420656d697474656420627920736f757263652060448201526718dbdb9d1c9858dd60c21b60648201526084016101bb565b6000610eb7610eb284600181518110610d8657610d86613324565b611ca4565b90508c81600081518110610ecd57610ecd613324565b602002602001015114610f225760405162461bcd60e51b815260206004820152601e60248201527f4576656e74207369676e617475726520646f6573206e6f74206d61746368000060448201526064016101bb565b6000610f4784600281518110610f3a57610f3a613324565b6020026020010151611d54565b919c50909a5050505050505050505050965096945050505050565b6000606081635160951d60e11b89610f7d60208b018b612ffd565b610f8d60408c0160208d0161322c565b898989604051602401610fa59695949392919061333a565b60408051601f198184030181529181526020820180516001600160e01b03166001600160e01b0319909416939093179092529150610fe99060608a01908a0161322c565b6001600160a01b03168160405161100091906133c9565b6000604051808303816000865af19150503d806000811461103d576040519150601f19603f3d011682016040523d82523d6000602084013e611042565b606091505b5080519194509250600091506020036110825760008280602001905181019061106b91906133e5565b6001600160e01b031916635160951d60e11b149150505b82801561108c5750805b156110af576000878152600160205260409020805460ff191660021790556110cc565b6000878152600160208190526040909120805460ff191690911790555b6110dc6040890160208a0161322c565b6001600160a01b03166110f260208a018a612ffd565b63ffffffff168a7f47168527703e2b64019824d3deab18f025015c94de1e8bfe6091ab32e02d12ed61112a60608d0160408e0161322c565b604080516001600160a01b03909216825288151560208301520160405180910390a4505050505050505050565b600080611165868686611e80565b90921495945050505050565b606060008451116111bc5760405162461bcd60e51b81526020600482015260156024820152744d65726b6c65547269653a20656d707479206b657960581b60448201526064016101bb565b60006111c784612018565b905060006111d486612106565b90506000846040516020016111eb91815260200190565b60405160208183030381529060405290506000805b84518110156119ad57600085828151811061121d5761121d613324565b60200260200101519050845183111561128f5760405162461bcd60e51b815260206004820152602e60248201527f4d65726b6c65547269653a206b657920696e646578206578636565647320746f60448201526d0e8c2d840d6caf240d8cadccee8d60931b60648201526084016101bb565b8260000361132e57805180516020918201206040516112dd926112b792910190815260200190565b604051602081830303815290604052858051602091820120825192909101919091201490565b6113295760405162461bcd60e51b815260206004820152601d60248201527f4d65726b6c65547269653a20696e76616c696420726f6f74206861736800000060448201526064016101bb565b611424565b8051516020116113b45780518051602091820120604051611358926112b792910190815260200190565b6113295760405162461bcd60e51b815260206004820152602760248201527f4d65726b6c65547269653a20696e76616c6964206c6172676520696e7465726e6044820152660c2d840d0c2e6d60cb1b60648201526084016101bb565b8051845160208087019190912082519190920120146114245760405162461bcd60e51b815260206004820152602660248201527f4d65726b6c65547269653a20696e76616c696420696e7465726e616c206e6f646044820152650ca40d0c2e6d60d31b60648201526084016101bb565b611430601060016132b3565b816020015151036115d0578451830361156857600061145f8260200151601081518110610f3a57610f3a613324565b905060008151116114d85760405162461bcd60e51b815260206004820152603b60248201527f4d65726b6c65547269653a2076616c7565206c656e677468206d75737420626560448201527f2067726561746572207468616e207a65726f20286272616e636829000000000060648201526084016101bb565b600187516114e69190613281565b831461155a5760405162461bcd60e51b815260206004820152603a60248201527f4d65726b6c65547269653a2076616c7565206e6f6465206d757374206265206c60448201527f617374206e6f646520696e2070726f6f6620286272616e63682900000000000060648201526084016101bb565b9650611a0495505050505050565b600085848151811061157c5761157c613324565b602001015160f81c60f81b60f81c9050600082602001518260ff16815181106115a7576115a7613324565b602002602001015190506115ba81612220565b95506115c76001866132b3565b9450505061199a565b6002816020015151036119415760006115e882612245565b90506000816000815181106115ff576115ff613324565b016020015160f81c9050600061161660028361340f565b611621906002613431565b90506000611632848360ff16612269565b905060006116408a89612269565b9050600061164e838361229f565b9050808351146116c65760405162461bcd60e51b815260206004820152603a60248201527f4d65726b6c65547269653a20706174682072656d61696e646572206d7573742060448201527f736861726520616c6c206e6962626c65732077697468206b657900000000000060648201526084016101bb565b60ff8516600214806116db575060ff85166003145b1561188157808251146117565760405162461bcd60e51b815260206004820152603d60248201527f4d65726b6c65547269653a206b65792072656d61696e646572206d757374206260448201527f65206964656e746963616c20746f20706174682072656d61696e64657200000060648201526084016101bb565b60006117728860200151600181518110610f3a57610f3a613324565b905060008151116117eb5760405162461bcd60e51b815260206004820152603960248201527f4d65726b6c65547269653a2076616c7565206c656e677468206d75737420626560448201527f2067726561746572207468616e207a65726f20286c656166290000000000000060648201526084016101bb565b60018d516117f99190613281565b891461186d5760405162461bcd60e51b815260206004820152603860248201527f4d65726b6c65547269653a2076616c7565206e6f6465206d757374206265206c60448201527f617374206e6f646520696e2070726f6f6620286c65616629000000000000000060648201526084016101bb565b9c50611a049b505050505050505050505050565b60ff85161580611894575060ff85166001145b156118d3576118c087602001516001815181106118b3576118b3613324565b6020026020010151612220565b99506118cc818a6132b3565b9850611936565b60405162461bcd60e51b815260206004820152603260248201527f4d65726b6c65547269653a2072656365697665642061206e6f64652077697468604482015271040c2dc40eadcd6dcdeeedc40e0e4caccd2f60731b60648201526084016101bb565b50505050505061199a565b60405162461bcd60e51b815260206004820152602860248201527f4d65726b6c65547269653a20726563656976656420616e20756e706172736561604482015267626c65206e6f646560c01b60648201526084016101bb565b50806119a58161344a565b915050611200565b5060405162461bcd60e51b815260206004820152602560248201527f4d65726b6c65547269653a2072616e206f7574206f662070726f6f6620656c656044820152646d656e747360d81b60648201526084016101bb565b9392505050565b60606000806000611a1b8561231e565b919450925090506001816001811115611a3657611a36612d65565b14611aa95760405162461bcd60e51b815260206004820152603860248201527f524c505265616465723a206465636f646564206974656d207479706520666f7260448201527f206c697374206973206e6f742061206c697374206974656d000000000000000060648201526084016101bb565b8451611ab583856132b3565b14611b1d5760405162461bcd60e51b815260206004820152603260248201527f524c505265616465723a206c697374206974656d2068617320616e20696e76616044820152713634b2103230ba30903932b6b0b4b73232b960711b60648201526084016101bb565b6040805160208082526104208201909252600091816020015b6040805180820190915260008082526020820152815260200190600190039081611b365790505090506000845b8751811015611c2457600080611ba96040518060400160405280858d60000151611b8d9190613281565b8152602001858d60200151611ba291906132b3565b905261231e565b509150915060405180604001604052808383611bc591906132b3565b8152602001848c60200151611bda91906132b3565b815250858581518110611bef57611bef613324565b6020908102919091010152611c056001856132b3565b9350611c1181836132b3565b611c1b90846132b3565b92505050611b63565b50815295945050505050565b8051600090600103611c4457506000919050565b8151601514611c955760405162461bcd60e51b815260206004820152601a60248201527f496e76616c696420524c5020616464726573732076616c75652e00000000000060448201526064016101bb565b611c9e826129e1565b92915050565b6060600082516001600160401b03811115611cc157611cc1612e35565b604051908082528060200260200182016040528015611cea578160200160208202803683370190505b50905060005b8351811015611d4d57611d1b848281518110611d0e57611d0e613324565b60200260200101516129e1565b60001b828281518110611d3057611d30613324565b602090810291909101015280611d458161344a565b915050611cf0565b5092915050565b60606000806000611d648561231e565b919450925090506000816001811115611d7f57611d7f612d65565b14611df25760405162461bcd60e51b815260206004820152603960248201527f524c505265616465723a206465636f646564206974656d207479706520666f7260448201527f206279746573206973206e6f7420612064617461206974656d0000000000000060648201526084016101bb565b611dfc82846132b3565b855114611e685760405162461bcd60e51b815260206004820152603460248201527f524c505265616465723a2062797465732076616c756520636f6e7461696e732060448201527330b71034b73b30b634b2103932b6b0b4b73232b960611b60648201526084016101bb565b611e77856020015184846129ec565b95945050505050565b60008282516001611e9191906132b3565b611e9c906002613547565b11611ea657600080fd5b8360005b8460011461200f57611ebd6002866132fc565b600103611f5c576002848281518110611ed857611ed8613324565b602002602001015183604051602001611efb929190918252602082015260400190565b60408051601f1981840301815290829052611f15916133c9565b602060405180830381855afa158015611f32573d6000803e3d6000fd5b5050506040513d601f19601f82011682018060405250810190611f559190613190565b9150611ff0565b600282858381518110611f7157611f71613324565b6020026020010151604051602001611f93929190918252602082015260400190565b60408051601f1981840301815290829052611fad916133c9565b602060405180830381855afa158015611fca573d6000803e3d6000fd5b5050506040513d601f19601f82011682018060405250810190611fed9190613190565b91505b611ffb600286613310565b9450806120078161344a565b915050611eaa565b50949350505050565b80516060906000816001600160401b0381111561203757612037612e35565b60405190808252806020026020018201604052801561207c57816020015b60408051808201909152606080825260208201528152602001906001900390816120555790505b50905060005b828110156120fe5760405180604001604052808683815181106120a7576120a7613324565b602002602001015181526020016120d68784815181106120c9576120c9613324565b6020026020010151612a8c565b8152508282815181106120eb576120eb613324565b6020908102919091010152600101612082565b509392505050565b80516060906000612118826002613294565b6001600160401b0381111561212f5761212f612e35565b6040519080825280601f01601f191660200182016040528015612159576020820181803683370190505b5090506000805b838110156122165785818151811061217a5761217a613324565b6020910101516001600160f81b03198116925060041c60ff60f41b16836121a2836002613294565b815181106121b2576121b2613324565b60200101906001600160f81b031916908160001a905350600f60f81b8216836121dc836002613294565b6121e79060016132b3565b815181106121f7576121f7613324565b60200101906001600160f81b031916908160001a905350600101612160565b5090949350505050565b6060602082600001511061223c5761223782611d54565b611c9e565b611c9e82612a9f565b6060611c9e6122648360200151600081518110610f3a57610f3a613324565b612106565b6060825182106122885750604080516020810190915260008152611c9e565b611a04838384865161229a9190613281565b612ab5565b600080600083518551106122b45783516122b7565b84515b90505b808210801561230e57508382815181106122d6576122d6613324565b602001015160f81c60f81b6001600160f81b0319168583815181106122fd576122fd613324565b01602001516001600160f81b031916145b156120fe578160010191506122ba565b6000806000808460000151116123465760405162461bcd60e51b81526004016101bb90613553565b6020840151805160001a607f811161236b5760006001600094509450945050506129da565b60b781116124c8576000612380608083613281565b9050808760000151116124005760405162461bcd60e51b815260206004820152604e60248201526000805160206135c483398151915260448201527f742062652067726561746572207468616e20737472696e67206c656e6774682060648201526d2873686f727420737472696e672960901b608482015260a4016101bb565b6001838101516001600160f81b031916908214158061242d5750600160ff1b6001600160f81b0319821610155b6124b55760405162461bcd60e51b815260206004820152604d60248201527f524c505265616465723a20696e76616c6964207072656669782c2073696e676c60448201527f652062797465203c203078383020617265206e6f74207072656669786564202860648201526c73686f727420737472696e672960981b608482015260a4016101bb565b50600195509350600092506129da915050565b60bf81116127095760006124dd60b783613281565b9050808760000151116125605760405162461bcd60e51b815260206004820152605160248201526000805160206135c483398151915260448201527f74206265203e207468616e206c656e677468206f6620737472696e67206c656e60648201527067746820286c6f6e6720737472696e672960781b608482015260a4016101bb565b60018301516001600160f81b03191660008190036125e75760405162461bcd60e51b815260206004820152604a60248201526000805160206135c483398151915260448201527f74206e6f74206861766520616e79206c656164696e67207a65726f7320286c6f6064820152696e6720737472696e672960b01b608482015260a4016101bb565b600184015160088302610100031c6037811161266a5760405162461bcd60e51b815260206004820152604860248201526000805160206135c483398151915260448201527f742062652067726561746572207468616e20353520627974657320286c6f6e6760648201526720737472696e672960c01b608482015260a4016101bb565b61267481846132b3565b8951116126ec5760405162461bcd60e51b815260206004820152604c60248201526000805160206135c483398151915260448201527f742062652067726561746572207468616e20746f74616c206c656e677468202860648201526b6c6f6e6720737472696e672960a01b608482015260a4016101bb565b6126f78360016132b3565b97509550600094506129da9350505050565b60f781116127ab57600061271e60c083613281565b90508087600001511161279a5760405162461bcd60e51b815260206004820152604a60248201526000805160206135c483398151915260448201527f742062652067726561746572207468616e206c697374206c656e677468202873606482015269686f7274206c6973742960b01b608482015260a4016101bb565b6001955093508492506129da915050565b60006127b860f783613281565b9050808760000151116128375760405162461bcd60e51b815260206004820152604d60248201526000805160206135c483398151915260448201527f74206265203e207468616e206c656e677468206f66206c697374206c656e677460648201526c6820286c6f6e67206c6973742960981b608482015260a4016101bb565b60018301516001600160f81b03191660008190036128bc5760405162461bcd60e51b815260206004820152604860248201526000805160206135c483398151915260448201527f74206e6f74206861766520616e79206c656164696e67207a65726f7320286c6f6064820152676e67206c6973742960c01b608482015260a4016101bb565b600184015160088302610100031c6037811161293d5760405162461bcd60e51b815260206004820152604660248201526000805160206135c483398151915260448201527f742062652067726561746572207468616e20353520627974657320286c6f6e67606482015265206c6973742960d01b608482015260a4016101bb565b61294781846132b3565b8951116129bd5760405162461bcd60e51b815260206004820152604a60248201526000805160206135c483398151915260448201527f742062652067726561746572207468616e20746f74616c206c656e67746820286064820152696c6f6e67206c6973742960b01b608482015260a4016101bb565b6129c88360016132b3565b97509550600194506129da9350505050565b9193909250565b6000611c9e82612bf6565b60606000826001600160401b03811115612a0857612a08612e35565b6040519080825280601f01601f191660200182016040528015612a32576020820181803683370190505b50905082600003612a44579050611a04565b6000612a5085876132b3565b90506020820160005b85811015612a71578281015182820152602001612a59565b85811115612a80576000868301525b50919695505050505050565b6060611c9e612a9a83612cf9565b611a0b565b6060611c9e8260200151600084600001516129ec565b60608182601f011015612afb5760405162461bcd60e51b815260206004820152600e60248201526d736c6963655f6f766572666c6f7760901b60448201526064016101bb565b828284011015612b3e5760405162461bcd60e51b815260206004820152600e60248201526d736c6963655f6f766572666c6f7760901b60448201526064016101bb565b81830184511015612b855760405162461bcd60e51b8152602060048201526011602482015270736c6963655f6f75744f66426f756e647360781b60448201526064016101bb565b606082158015612ba4576040519150600082526020820160405261200f565b6040519150601f8416801560200281840101858101878315602002848b0101015b81831015612bdd578051835260209283019201612bc5565b5050858452601f01601f19166040525050949350505050565b6000602182600001511115612c4d5760405162461bcd60e51b815260206004820152601a60248201527f496e76616c696420524c5020627974657333322076616c75652e00000000000060448201526064016101bb565b6000806000612c5b8561231e565b919450925090506000816001811115612c7657612c76612d65565b14612cc35760405162461bcd60e51b815260206004820152601a60248201527f496e76616c696420524c5020627974657333322076616c75652e00000000000060448201526064016101bb565b6000838660200151612cd591906132b3565b80519091506020841015612cef5760208490036101000a90045b9695505050505050565b60408051808201909152600080825260208201526000825111612d2e5760405162461bcd60e51b81526004016101bb90613553565b50604080518082019091528151815260209182019181019190915290565b600060208284031215612d5e57600080fd5b5035919050565b634e487b7160e01b600052602160045260246000fd5b6020810160038310612d8f57612d8f612d65565b91905290565b6020810160028310612d8f57612d8f612d65565b60008083601f840112612dbb57600080fd5b5081356001600160401b03811115612dd257600080fd5b602083019150836020828501011115612dea57600080fd5b9250929050565b60008083601f840112612e0357600080fd5b5081356001600160401b03811115612e1a57600080fd5b6020830191508360208260051b8501011115612dea57600080fd5b634e487b7160e01b600052604160045260246000fd5b604051601f8201601f191681016001600160401b0381118282101715612e7357612e73612e35565b604052919050565b600082601f830112612e8c57600080fd5b81356001600160401b03811115612ea557612ea5612e35565b612eb8601f8201601f1916602001612e4b565b818152846020838601011115612ecd57600080fd5b816020850160208301376000918101602001919091529392505050565b600060808284031215612efc57600080fd5b50919050565b6000806000806000806000806000806101408b8d031215612f2257600080fd5b8a356001600160401b0380821115612f3957600080fd5b612f458e838f01612da9565b909c509a5060208d0135915080821115612f5e57600080fd5b612f6a8e838f01612df1565b909a50985060408d0135975060608d0135915080821115612f8a57600080fd5b612f968e838f01612df1565b909750955060808d0135915080821115612faf57600080fd5b50612fbc8d828e01612e7b565b93505060a08b01359150612fd38c60c08d01612eea565b90509295989b9194979a5092959850565b803563ffffffff81168114612ff857600080fd5b919050565b60006020828403121561300f57600080fd5b611a0482612fe4565b6001600160a01b03811681146105f957600080fd5b6080810163ffffffff61303f84612fe4565b168252602083013561305081613018565b6001600160a01b03908116602084015260408401359061306f82613018565b166040830152606092830135929091019190915290565b60005b838110156130a1578181015183820152602001613089565b50506000910152565b600081518084526130c2816020860160208601613086565b601f01601f19169290920160200192915050565b60808152846080820152848660a0830137600060a086830101526000601f19601f870116820160a083820301602084015261311460a08201876130aa565b60408401959095525050606001529392505050565b80356001600160401b0381168114612ff857600080fd5b6000806040838503121561315357600080fd5b61315c83613129565b915061316a60208401613129565b90509250929050565b60006020828403121561318557600080fd5b8151611a0481613018565b6000602082840312156131a257600080fd5b5051919050565b60006001600160401b03808411156131c3576131c3612e35565b8360051b60206131d4818301612e4b565b8681529185019181810190368411156131ec57600080fd5b865b84811015613220578035868111156132065760008081fd5b61321236828b01612e7b565b8452509183019183016131ee565b50979650505050505050565b60006020828403121561323e57600080fd5b8135611a0481613018565b60006020828403121561325b57600080fd5b81518015158114611a0457600080fd5b634e487b7160e01b600052601160045260246000fd5b81810381811115611c9e57611c9e61326b565b60008160001904831182151516156132ae576132ae61326b565b500290565b80820180821115611c9e57611c9e61326b565b6001600160401b03828116828216039080821115611d4d57611d4d61326b565b634e487b7160e01b600052601260045260246000fd5b60008261330b5761330b6132e6565b500690565b60008261331f5761331f6132e6565b500490565b634e487b7160e01b600052603260045260246000fd5b86815263ffffffff86166020808301919091526001600160a01b03861660408301526001600160401b038516606083015260c06080830181905284519083018190526000918581019160e0850190845b818110156133a65784518352938301939183019160010161338a565b505084810360a08601526133ba81876130aa565b9b9a5050505050505050505050565b600082516133db818460208701613086565b9190910192915050565b6000602082840312156133f757600080fd5b81516001600160e01b031981168114611a0457600080fd5b600060ff831680613422576134226132e6565b8060ff84160691505092915050565b60ff8281168282160390811115611c9e57611c9e61326b565b60006001820161345c5761345c61326b565b5060010190565b600181815b8085111561349e5781600019048211156134845761348461326b565b8085161561349157918102915b93841c9390800290613468565b509250929050565b6000826134b557506001611c9e565b816134c257506000611c9e565b81600181146134d857600281146134e2576134fe565b6001915050611c9e565b60ff8411156134f3576134f361326b565b50506001821b611c9e565b5060208310610133831016604e8410600b8410161715613521575081810a611c9e565b61352b8383613463565b806000190482111561353f5761353f61326b565b029392505050565b6000611a0483836134a6565b6020808252604a908201527f524c505265616465723a206c656e677468206f6620616e20524c50206974656d60408201527f206d7573742062652067726561746572207468616e207a65726f20746f206265606082015269206465636f6461626c6560b01b608082015260a0019056fe524c505265616465723a206c656e677468206f6620636f6e74656e74206d7573a2646970667358221220bf4c477f9604417bba514c2e7432344a579165ab7c6cd02b3c3660704bb20b2864736f6c63430008100033",
    "linkReferences": {}
  },
  "methodIdentifiers": {
    "eventsPublished(bytes32)": "3cca331c",
    "publishEvent(bytes,bytes32[],bytes32,bytes[],bytes,uint256,(uint32,address,address,bytes32))": "bbe6d642",
    "subscriptions(bytes32)": "94259c6c"
  },
  "id": 123
}