{
  "abi": [
    {
      "anonymous": false,
      "inputs": [
        {
          "indexed": true,
          "internalType": "bytes32",
          "name": "subscriptionId",
          "type": "bytes32"
        },
        {
          "indexed": true,
          "internalType": "uint32",
          "name": "sourceChainId",
          "type": "uint32"
        },
        {
          "indexed": true,
          "internalType": "address",
          "name": "sourceAddress",
          "type": "address"
        },
        {
          "indexed": false,
          "internalType": "address",
          "name": "callbackAddress",
          "type": "address"
        },
        {
          "indexed": false,
          "internalType": "bool",
          "name": "success",
          "type": "bool"
        }
      ],
      "name": "Publish",
      "type": "event"
    },
    {
      "inputs": [
        {
          "internalType": "bytes32",
          "name": "",
          "type": "bytes32"
        }
      ],
      "name": "eventsPublished",
      "outputs": [
        {
          "internalType": "enum PublishStatus",
          "name": "",
          "type": "uint8"
        }
      ],
      "stateMutability": "view",
      "type": "function"
    },
    {
      "inputs": [
        {
          "internalType": "bytes",
          "name": "srcSlotTxSlotPack",
          "type": "bytes"
        },
        {
          "internalType": "bytes32[]",
          "name": "receiptsRootProof",
          "type": "bytes32[]"
        },
        {
          "internalType": "bytes32",
          "name": "receiptsRoot",
          "type": "bytes32"
        },
        {
          "internalType": "bytes[]",
          "name": "receiptProof",
          "type": "bytes[]"
        },
        {
          "internalType": "bytes",
          "name": "txIndexRLPEncoded",
          "type": "bytes"
        },
        {
          "internalType": "uint256",
          "name": "logIndex",
          "type": "uint256"
        },
        {
          "components": [
            {
              "internalType": "uint32",
              "name": "sourceChainId",
              "type": "uint32"
            },
            {
              "internalType": "address",
              "name": "sourceAddress",
              "type": "address"
            },
            {
              "internalType": "address",
              "name": "callbackAddress",
              "type": "address"
            },
            {
              "internalType": "bytes32",
              "name": "eventSig",
              "type": "bytes32"
            }
          ],
          "internalType": "struct Subscription",
          "name": "subscription",
          "type": "tuple"
        }
      ],
      "name": "publishEvent",
      "outputs": [],
      "stateMutability": "nonpayable",
      "type": "function"
    },
    {
      "inputs": [
        {
          "internalType": "bytes32",
          "name": "",
          "type": "bytes32"
        }
      ],
      "name": "subscriptions",
      "outputs": [
        {
          "internalType": "enum SubscriptionStatus",
          "name": "",
          "type": "uint8"
        }
      ],
      "stateMutability": "view",
      "type": "function"
    }
  ],
  "bytecode": {
    "object": "0x608060405234801561001057600080fd5b506136b4806100206000396000f3fe608060405234801561001057600080fd5b50600436106100415760003560e01c80633cca331c1461004657806394259c6c1461007f578063bbe6d642146100af575b600080fd5b610069610054366004612dfb565b60016020526000908152604090205460ff1681565b6040516100769190612e2a565b60405180910390f35b6100a261008d366004612dfb565b60026020526000908152604090205460ff1681565b6040516100769190612e44565b6100c26100bd366004612fb1565b6100c4565b005b6100d96100d460208301836130a7565b610423565b6100ee6100e960208301836130a7565b610609565b60008160405160200161010191906130d7565b60405160208183030381529060405280519060200120905060008b8b868685604051602001610134959493929190613180565b60408051601f19818403018152919052805160209091012090506000808281526001602052604090205460ff16600281111561017257610172612e14565b146101c45760405162461bcd60e51b815260206004820152601760248201527f4576656e7420616c7265616479207075626c697368656400000000000000000060448201526064015b60405180910390fd5b6000806101d38d8f018f6131ea565b90925090506101ee826101e960208801886130a7565b6106be565b600080546001600160a01b0316637599735c61020d60208901896130a7565b6040516001600160e01b031960e084901b16815263ffffffff919091166004820152602401602060405180830381865afa15801561024f573d6000803e3d6000fd5b505050506040513d601f19601f82011682018060405250810190610273919061321d565b6040516356f90d7960e01b81526001600160401b03851660048201526001600160a01b0391909116906356f90d7990602401602060405180830381865afa1580156102c2573d6000803e3d6000fd5b505050506040513d601f19601f820116820180604052508101906102e6919061323a565b90508061032d5760405162461bcd60e51b8152602060048201526015602482015274486561646572526f6f74206973206d697373696e6760581b60448201526064016101bb565b600061037e8c8f8f8080602002602001604051908101604052809392919081815260200183836020028082843760009201919091525087925089915088905061037960208e018e6130a7565b610a7c565b9050806103cd5760405162461bcd60e51b815260206004820152601b60248201527f496e76616c696420726563656970747320726f6f742070726f6f66000000000060448201526064016101bb565b6000806103fd6103dd8d8f613253565b8f8d8d8d60200160208101906103f391906132d6565b8e60600135610c86565b9150915061040f888a89888686610fd1565b505050505050505050505050505050505050565b60008054604051631d665cd760e21b815263ffffffff841660048201526001600160a01b0390911690637599735c90602401602060405180830381865afa158015610472573d6000803e3d6000fd5b505050506040513d601f19601f82011682018060405250810190610496919061321d565b6001600160a01b0316036104e75760405162461bcd60e51b81526020600482015260186024820152772634b3b43a1031b634b2b73a1034b9903737ba1039b2ba1760411b60448201526064016101bb565b600054604051631d665cd760e21b815263ffffffff831660048201526001600160a01b0390911690637599735c90602401602060405180830381865afa158015610535573d6000803e3d6000fd5b505050506040513d601f19601f82011682018060405250810190610559919061321d565b6001600160a01b0316632bcccca56040518163ffffffff1660e01b8152600401602060405180830381865afa158015610596573d6000803e3d6000fd5b505050506040513d601f19601f820116820180604052508101906105ba91906132f3565b6106065760405162461bcd60e51b815260206004820152601d60248201527f4c6967687420636c69656e7420697320696e636f6e73697374656e742e00000060448201526064016101bb565b50565b6000546040516306d5cf8360e31b815263ffffffff831660048201526001600160a01b03909116906336ae7c1890602401602060405180830381865afa158015610657573d6000803e3d6000fd5b505050506040513d601f19601f8201168201806040525081019061067b91906132f3565b156106065760405162461bcd60e51b815260206004820152601360248201527221b7b73a3930b1ba1034b990333937bd32b71760691b60448201526064016101bb565b60008054604051631d665cd760e21b815263ffffffff841660048201526001600160a01b0390911690637599735c90602401602060405180830381865afa15801561070d573d6000803e3d6000fd5b505050506040513d601f19601f82011682018060405250810190610731919061321d565b6001600160a01b0316036107825760405162461bcd60e51b81526020600482015260186024820152772634b3b43a1031b634b2b73a1034b9903737ba1039b2ba1760411b60448201526064016101bb565b600054604051631d665cd760e21b815263ffffffff831660048201526001600160a01b0390911690637599735c90602401602060405180830381865afa1580156107d0573d6000803e3d6000fd5b505050506040513d601f19601f820116820180604052508101906107f4919061321d565b604051638bc33af360e01b81526001600160401b03841660048201526001600160a01b039190911690638bc33af390602401602060405180830381865afa158015610843573d6000803e3d6000fd5b505050506040513d601f19601f82011682018060405250810190610867919061323a565b6000036108b65760405162461bcd60e51b815260206004820152601e60248201527f54696d657374616d70206973206e6f742073657420666f7220736c6f742e000060448201526064016101bb565b60008054604051631d665cd760e21b815263ffffffff841660048201526001600160a01b0390911690637599735c90602401602060405180830381865afa158015610905573d6000803e3d6000fd5b505050506040513d601f19601f82011682018060405250810190610929919061321d565b604051638bc33af360e01b81526001600160401b03851660048201526001600160a01b039190911690638bc33af390602401602060405180830381865afa158015610978573d6000803e3d6000fd5b505050506040513d601f19601f8201168201806040525081019061099c919061323a565b6109a6904261332b565b905060008054906101000a90046001600160a01b03166001600160a01b031663e4407b156040518163ffffffff1660e01b8152600401602060405180830381865afa1580156109f9573d6000803e3d6000fd5b505050506040513d601f19601f82011682018060405250810190610a1d919061323a565b811015610a775760405162461bcd60e51b815260206004820152602260248201527f4d7573742077616974206c6f6e67657220746f20757365207468697320736c6f6044820152613a1760f11b60648201526084016101bb565b505050565b600080610a88836111c6565b9050600081856001600160401b031610610aa357601b610aa6565b60075b60ff169050600082866001600160401b031610610ae257612000610ad3846001600160401b03891661332b565b610add9190613354565b610af7565b610af76120006001600160401b038816613354565b90506000866001600160401b0316886001600160401b031603610b365750600b610b2381610200613368565b610b2f90610183613387565b9050610c6b565b612000610b43888a61339a565b6001600160401b031611610ba55750600b610b5f816020613368565b610b6a906006613387565b9050610b816120006001600160401b0389166133ba565b610b8d61200083613368565b610b979190613387565b9050610b2381610200613368565b876001600160401b0316876001600160401b03161015610c235750600b82610bce826020613368565b610bd89190613387565b9050610be5816002613368565b610bf0906000613387565b905081610c01630100000083613368565b610c0b9190613387565b9050610c18816002613368565b610b6a906001613387565b60405162461bcd60e51b815260206004820152601e60248201527f546172676574414d423a20696e76616c69642074617267657420736c6f74000060448201526064016101bb565b610c778b828c8c611206565b9b9a5050505050505050505050565b6060806000610c96878a8a611220565b9050600081600081518110610cad57610cad6133ce565b01602001516001600160f81b03191690506000600160f81b821480610cdf5750600160f91b6001600160f81b03198316145b15610cec57506001610d51565b600360fe1b6001600160f81b0319831610610d0957506000610d51565b60405162461bcd60e51b815260206004820152601c60248201527f556e737570706f72746564207472616e73616374696f6e20747970650000000060448201526064016101bb565b600060208401905060006040518060400160405280848751610d73919061332b565b8152602001610d828585613387565b905290506000610d9182611aba565b90508051600414610ddd5760405162461bcd60e51b8152602060048201526016602482015275092dcecc2d8d2c840e4cac6cad2e0e840d8cadccee8d60531b60448201526064016101bb565b6000610e0282600381518110610df557610df56133ce565b6020026020010151611aba565b905080518c10610e545760405162461bcd60e51b815260206004820152601760248201527f4c6f6720696e646578206f7574206f6620626f756e647300000000000000000060448201526064016101bb565b6000610e6b828e81518110610df557610df56133ce565b90506000610e9282600081518110610e8557610e856133ce565b6020026020010151611cdf565b90508c6001600160a01b0316816001600160a01b031614610f065760405162461bcd60e51b815260206004820152602860248201527f4576656e7420776173206e6f7420656d697474656420627920736f757263652060448201526718dbdb9d1c9858dd60c21b60648201526084016101bb565b6000610f26610f2184600181518110610df557610df56133ce565b611d53565b90508c81600081518110610f3c57610f3c6133ce565b602002602001015114610f915760405162461bcd60e51b815260206004820152601e60248201527f4576656e74207369676e617475726520646f6573206e6f74206d61746368000060448201526064016101bb565b6000610fb684600281518110610fa957610fa96133ce565b6020026020010151611e03565b919c50909a5050505050505050505050965096945050505050565b6000606081635160951d60e11b89610fec60208b018b6130a7565b610ffc60408c0160208d016132d6565b898989604051602401611014969594939291906133e4565b60408051601f198184030181529181526020820180516001600160e01b03166001600160e01b03199094169390931790925291506110589060608a01908a016132d6565b6001600160a01b03168160405161106f9190613464565b6000604051808303816000865af19150503d80600081146110ac576040519150601f19603f3d011682016040523d82523d6000602084013e6110b1565b606091505b5080519194509250600091506020036110f1576000828060200190518101906110da9190613480565b6001600160e01b031916635160951d60e11b149150505b8280156110fb5750805b1561111e576000878152600160205260409020805460ff1916600217905561113b565b6000878152600160208190526040909120805460ff191690911790555b61114b6040890160208a016132d6565b6001600160a01b031661116160208a018a6130a7565b63ffffffff168a7f47168527703e2b64019824d3deab18f025015c94de1e8bfe6091ab32e02d12ed61119960608d0160408e016132d6565b604080516001600160a01b03909216825288151560208301520160405180910390a4505050505050505050565b60008163ffffffff166001036111e05750625ec000919050565b8163ffffffff166005036111f85750624f4000919050565b50600019919050565b919050565b600080611214868686611f2f565b90921495945050505050565b6060600084511161126b5760405162461bcd60e51b81526020600482015260156024820152744d65726b6c65547269653a20656d707479206b657960581b60448201526064016101bb565b6000611276846120c7565b90506000611283866121b5565b905060008460405160200161129a91815260200190565b60405160208183030381529060405290506000805b8451811015611a5c5760008582815181106112cc576112cc6133ce565b60200260200101519050845183111561133e5760405162461bcd60e51b815260206004820152602e60248201527f4d65726b6c65547269653a206b657920696e646578206578636565647320746f60448201526d0e8c2d840d6caf240d8cadccee8d60931b60648201526084016101bb565b826000036113dd578051805160209182012060405161138c9261136692910190815260200190565b604051602081830303815290604052858051602091820120825192909101919091201490565b6113d85760405162461bcd60e51b815260206004820152601d60248201527f4d65726b6c65547269653a20696e76616c696420726f6f74206861736800000060448201526064016101bb565b6114d3565b80515160201161146357805180516020918201206040516114079261136692910190815260200190565b6113d85760405162461bcd60e51b815260206004820152602760248201527f4d65726b6c65547269653a20696e76616c6964206c6172676520696e7465726e6044820152660c2d840d0c2e6d60cb1b60648201526084016101bb565b8051845160208087019190912082519190920120146114d35760405162461bcd60e51b815260206004820152602660248201527f4d65726b6c65547269653a20696e76616c696420696e7465726e616c206e6f646044820152650ca40d0c2e6d60d31b60648201526084016101bb565b6114df60106001613387565b8160200151510361167f578451830361161757600061150e8260200151601081518110610fa957610fa96133ce565b905060008151116115875760405162461bcd60e51b815260206004820152603b60248201527f4d65726b6c65547269653a2076616c7565206c656e677468206d75737420626560448201527f2067726561746572207468616e207a65726f20286272616e636829000000000060648201526084016101bb565b60018751611595919061332b565b83146116095760405162461bcd60e51b815260206004820152603a60248201527f4d65726b6c65547269653a2076616c7565206e6f6465206d757374206265206c60448201527f617374206e6f646520696e2070726f6f6620286272616e63682900000000000060648201526084016101bb565b9650611ab395505050505050565b600085848151811061162b5761162b6133ce565b602001015160f81c60f81b60f81c9050600082602001518260ff1681518110611656576116566133ce565b60200260200101519050611669816122cf565b9550611676600186613387565b94505050611a49565b6002816020015151036119f0576000611697826122f4565b90506000816000815181106116ae576116ae6133ce565b016020015160f81c905060006116c56002836134aa565b6116d09060026134cc565b905060006116e1848360ff16612318565b905060006116ef8a89612318565b905060006116fd838361234e565b9050808351146117755760405162461bcd60e51b815260206004820152603a60248201527f4d65726b6c65547269653a20706174682072656d61696e646572206d7573742060448201527f736861726520616c6c206e6962626c65732077697468206b657900000000000060648201526084016101bb565b60ff85166002148061178a575060ff85166003145b1561193057808251146118055760405162461bcd60e51b815260206004820152603d60248201527f4d65726b6c65547269653a206b65792072656d61696e646572206d757374206260448201527f65206964656e746963616c20746f20706174682072656d61696e64657200000060648201526084016101bb565b60006118218860200151600181518110610fa957610fa96133ce565b9050600081511161189a5760405162461bcd60e51b815260206004820152603960248201527f4d65726b6c65547269653a2076616c7565206c656e677468206d75737420626560448201527f2067726561746572207468616e207a65726f20286c656166290000000000000060648201526084016101bb565b60018d516118a8919061332b565b891461191c5760405162461bcd60e51b815260206004820152603860248201527f4d65726b6c65547269653a2076616c7565206e6f6465206d757374206265206c60448201527f617374206e6f646520696e2070726f6f6620286c65616629000000000000000060648201526084016101bb565b9c50611ab39b505050505050505050505050565b60ff85161580611943575060ff85166001145b156119825761196f8760200151600181518110611962576119626133ce565b60200260200101516122cf565b995061197b818a613387565b98506119e5565b60405162461bcd60e51b815260206004820152603260248201527f4d65726b6c65547269653a2072656365697665642061206e6f64652077697468604482015271040c2dc40eadcd6dcdeeedc40e0e4caccd2f60731b60648201526084016101bb565b505050505050611a49565b60405162461bcd60e51b815260206004820152602860248201527f4d65726b6c65547269653a20726563656976656420616e20756e706172736561604482015267626c65206e6f646560c01b60648201526084016101bb565b5080611a54816134e5565b9150506112af565b5060405162461bcd60e51b815260206004820152602560248201527f4d65726b6c65547269653a2072616e206f7574206f662070726f6f6620656c656044820152646d656e747360d81b60648201526084016101bb565b9392505050565b60606000806000611aca856123cd565b919450925090506001816001811115611ae557611ae5612e14565b14611b585760405162461bcd60e51b815260206004820152603860248201527f524c505265616465723a206465636f646564206974656d207479706520666f7260448201527f206c697374206973206e6f742061206c697374206974656d000000000000000060648201526084016101bb565b8451611b648385613387565b14611bcc5760405162461bcd60e51b815260206004820152603260248201527f524c505265616465723a206c697374206974656d2068617320616e20696e76616044820152713634b2103230ba30903932b6b0b4b73232b960711b60648201526084016101bb565b6040805160208082526104208201909252600091816020015b6040805180820190915260008082526020820152815260200190600190039081611be55790505090506000845b8751811015611cd357600080611c586040518060400160405280858d60000151611c3c919061332b565b8152602001858d60200151611c519190613387565b90526123cd565b509150915060405180604001604052808383611c749190613387565b8152602001848c60200151611c899190613387565b815250858581518110611c9e57611c9e6133ce565b6020908102919091010152611cb4600185613387565b9350611cc08183613387565b611cca9084613387565b92505050611c12565b50815295945050505050565b8051600090600103611cf357506000919050565b8151601514611d445760405162461bcd60e51b815260206004820152601a60248201527f496e76616c696420524c5020616464726573732076616c75652e00000000000060448201526064016101bb565b611d4d82612a90565b92915050565b6060600082516001600160401b03811115611d7057611d70612ee4565b604051908082528060200260200182016040528015611d99578160200160208202803683370190505b50905060005b8351811015611dfc57611dca848281518110611dbd57611dbd6133ce565b6020026020010151612a90565b60001b828281518110611ddf57611ddf6133ce565b602090810291909101015280611df4816134e5565b915050611d9f565b5092915050565b60606000806000611e13856123cd565b919450925090506000816001811115611e2e57611e2e612e14565b14611ea15760405162461bcd60e51b815260206004820152603960248201527f524c505265616465723a206465636f646564206974656d207479706520666f7260448201527f206279746573206973206e6f7420612064617461206974656d0000000000000060648201526084016101bb565b611eab8284613387565b855114611f175760405162461bcd60e51b815260206004820152603460248201527f524c505265616465723a2062797465732076616c756520636f6e7461696e732060448201527330b71034b73b30b634b2103932b6b0b4b73232b960611b60648201526084016101bb565b611f2685602001518484612a9b565b95945050505050565b60008282516001611f409190613387565b611f4b9060026135e2565b11611f5557600080fd5b8360005b846001146120be57611f6c6002866133ba565b60010361200b576002848281518110611f8757611f876133ce565b602002602001015183604051602001611faa929190918252602082015260400190565b60408051601f1981840301815290829052611fc491613464565b602060405180830381855afa158015611fe1573d6000803e3d6000fd5b5050506040513d601f19601f82011682018060405250810190612004919061323a565b915061209f565b600282858381518110612020576120206133ce565b6020026020010151604051602001612042929190918252602082015260400190565b60408051601f198184030181529082905261205c91613464565b602060405180830381855afa158015612079573d6000803e3d6000fd5b5050506040513d601f19601f8201168201806040525081019061209c919061323a565b91505b6120aa600286613354565b9450806120b6816134e5565b915050611f59565b50949350505050565b80516060906000816001600160401b038111156120e6576120e6612ee4565b60405190808252806020026020018201604052801561212b57816020015b60408051808201909152606080825260208201528152602001906001900390816121045790505b50905060005b828110156121ad576040518060400160405280868381518110612156576121566133ce565b60200260200101518152602001612185878481518110612178576121786133ce565b6020026020010151612b3b565b81525082828151811061219a5761219a6133ce565b6020908102919091010152600101612131565b509392505050565b805160609060006121c7826002613368565b6001600160401b038111156121de576121de612ee4565b6040519080825280601f01601f191660200182016040528015612208576020820181803683370190505b5090506000805b838110156122c557858181518110612229576122296133ce565b6020910101516001600160f81b03198116925060041c60ff60f41b1683612251836002613368565b81518110612261576122616133ce565b60200101906001600160f81b031916908160001a905350600f60f81b82168361228b836002613368565b612296906001613387565b815181106122a6576122a66133ce565b60200101906001600160f81b031916908160001a90535060010161220f565b5090949350505050565b606060208260000151106122eb576122e682611e03565b611d4d565b611d4d82612b4e565b6060611d4d6123138360200151600081518110610fa957610fa96133ce565b6121b5565b6060825182106123375750604080516020810190915260008152611d4d565b611ab38383848651612349919061332b565b612b64565b60008060008351855110612363578351612366565b84515b90505b80821080156123bd5750838281518110612385576123856133ce565b602001015160f81c60f81b6001600160f81b0319168583815181106123ac576123ac6133ce565b01602001516001600160f81b031916145b156121ad57816001019150612369565b6000806000808460000151116123f55760405162461bcd60e51b81526004016101bb906135ee565b6020840151805160001a607f811161241a576000600160009450945094505050612a89565b60b7811161257757600061242f60808361332b565b9050808760000151116124af5760405162461bcd60e51b815260206004820152604e602482015260008051602061365f83398151915260448201527f742062652067726561746572207468616e20737472696e67206c656e6774682060648201526d2873686f727420737472696e672960901b608482015260a4016101bb565b6001838101516001600160f81b03191690821415806124dc5750600160ff1b6001600160f81b0319821610155b6125645760405162461bcd60e51b815260206004820152604d60248201527f524c505265616465723a20696e76616c6964207072656669782c2073696e676c60448201527f652062797465203c203078383020617265206e6f74207072656669786564202860648201526c73686f727420737472696e672960981b608482015260a4016101bb565b5060019550935060009250612a89915050565b60bf81116127b857600061258c60b78361332b565b90508087600001511161260f5760405162461bcd60e51b8152602060048201526051602482015260008051602061365f83398151915260448201527f74206265203e207468616e206c656e677468206f6620737472696e67206c656e60648201527067746820286c6f6e6720737472696e672960781b608482015260a4016101bb565b60018301516001600160f81b03191660008190036126965760405162461bcd60e51b815260206004820152604a602482015260008051602061365f83398151915260448201527f74206e6f74206861766520616e79206c656164696e67207a65726f7320286c6f6064820152696e6720737472696e672960b01b608482015260a4016101bb565b600184015160088302610100031c603781116127195760405162461bcd60e51b8152602060048201526048602482015260008051602061365f83398151915260448201527f742062652067726561746572207468616e20353520627974657320286c6f6e6760648201526720737472696e672960c01b608482015260a4016101bb565b6127238184613387565b89511161279b5760405162461bcd60e51b815260206004820152604c602482015260008051602061365f83398151915260448201527f742062652067726561746572207468616e20746f74616c206c656e677468202860648201526b6c6f6e6720737472696e672960a01b608482015260a4016101bb565b6127a6836001613387565b9750955060009450612a899350505050565b60f7811161285a5760006127cd60c08361332b565b9050808760000151116128495760405162461bcd60e51b815260206004820152604a602482015260008051602061365f83398151915260448201527f742062652067726561746572207468616e206c697374206c656e677468202873606482015269686f7274206c6973742960b01b608482015260a4016101bb565b600195509350849250612a89915050565b600061286760f78361332b565b9050808760000151116128e65760405162461bcd60e51b815260206004820152604d602482015260008051602061365f83398151915260448201527f74206265203e207468616e206c656e677468206f66206c697374206c656e677460648201526c6820286c6f6e67206c6973742960981b608482015260a4016101bb565b60018301516001600160f81b031916600081900361296b5760405162461bcd60e51b8152602060048201526048602482015260008051602061365f83398151915260448201527f74206e6f74206861766520616e79206c656164696e67207a65726f7320286c6f6064820152676e67206c6973742960c01b608482015260a4016101bb565b600184015160088302610100031c603781116129ec5760405162461bcd60e51b8152602060048201526046602482015260008051602061365f83398151915260448201527f742062652067726561746572207468616e20353520627974657320286c6f6e67606482015265206c6973742960d01b608482015260a4016101bb565b6129f68184613387565b895111612a6c5760405162461bcd60e51b815260206004820152604a602482015260008051602061365f83398151915260448201527f742062652067726561746572207468616e20746f74616c206c656e67746820286064820152696c6f6e67206c6973742960b01b608482015260a4016101bb565b612a77836001613387565b9750955060019450612a899350505050565b9193909250565b6000611d4d82612ca5565b60606000826001600160401b03811115612ab757612ab7612ee4565b6040519080825280601f01601f191660200182016040528015612ae1576020820181803683370190505b50905082600003612af3579050611ab3565b6000612aff8587613387565b90506020820160005b85811015612b20578281015182820152602001612b08565b85811115612b2f576000868301525b50919695505050505050565b6060611d4d612b4983612da8565b611aba565b6060611d4d826020015160008460000151612a9b565b60608182601f011015612baa5760405162461bcd60e51b815260206004820152600e60248201526d736c6963655f6f766572666c6f7760901b60448201526064016101bb565b828284011015612bed5760405162461bcd60e51b815260206004820152600e60248201526d736c6963655f6f766572666c6f7760901b60448201526064016101bb565b81830184511015612c345760405162461bcd60e51b8152602060048201526011602482015270736c6963655f6f75744f66426f756e647360781b60448201526064016101bb565b606082158015612c5357604051915060008252602082016040526120be565b6040519150601f8416801560200281840101858101878315602002848b0101015b81831015612c8c578051835260209283019201612c74565b5050858452601f01601f19166040525050949350505050565b6000602182600001511115612cfc5760405162461bcd60e51b815260206004820152601a60248201527f496e76616c696420524c5020627974657333322076616c75652e00000000000060448201526064016101bb565b6000806000612d0a856123cd565b919450925090506000816001811115612d2557612d25612e14565b14612d725760405162461bcd60e51b815260206004820152601a60248201527f496e76616c696420524c5020627974657333322076616c75652e00000000000060448201526064016101bb565b6000838660200151612d849190613387565b80519091506020841015612d9e5760208490036101000a90045b9695505050505050565b60408051808201909152600080825260208201526000825111612ddd5760405162461bcd60e51b81526004016101bb906135ee565b50604080518082019091528151815260209182019181019190915290565b600060208284031215612e0d57600080fd5b5035919050565b634e487b7160e01b600052602160045260246000fd5b6020810160038310612e3e57612e3e612e14565b91905290565b6020810160028310612e3e57612e3e612e14565b60008083601f840112612e6a57600080fd5b5081356001600160401b03811115612e8157600080fd5b602083019150836020828501011115612e9957600080fd5b9250929050565b60008083601f840112612eb257600080fd5b5081356001600160401b03811115612ec957600080fd5b6020830191508360208260051b8501011115612e9957600080fd5b634e487b7160e01b600052604160045260246000fd5b604051601f8201601f191681016001600160401b0381118282101715612f2257612f22612ee4565b604052919050565b600082601f830112612f3b57600080fd5b81356001600160401b03811115612f5457612f54612ee4565b612f67601f8201601f1916602001612efa565b818152846020838601011115612f7c57600080fd5b816020850160208301376000918101602001919091529392505050565b600060808284031215612fab57600080fd5b50919050565b6000806000806000806000806000806101408b8d031215612fd157600080fd5b8a356001600160401b0380821115612fe857600080fd5b612ff48e838f01612e58565b909c509a5060208d013591508082111561300d57600080fd5b6130198e838f01612ea0565b909a50985060408d0135975060608d013591508082111561303957600080fd5b6130458e838f01612ea0565b909750955060808d013591508082111561305e57600080fd5b5061306b8d828e01612f2a565b93505060a08b013591506130828c60c08d01612f99565b90509295989b9194979a5092959850565b803563ffffffff8116811461120157600080fd5b6000602082840312156130b957600080fd5b611ab382613093565b6001600160a01b038116811461060657600080fd5b6080810163ffffffff6130e984613093565b16825260208301356130fa816130c2565b6001600160a01b039081166020840152604084013590613119826130c2565b166040830152606092830135929091019190915290565b60005b8381101561314b578181015183820152602001613133565b50506000910152565b6000815180845261316c816020860160208601613130565b601f01601f19169290920160200192915050565b60808152846080820152848660a0830137600060a086830101526000601f19601f870116820160a08382030160208401526131be60a0820187613154565b60408401959095525050606001529392505050565b80356001600160401b038116811461120157600080fd5b600080604083850312156131fd57600080fd5b613206836131d3565b9150613214602084016131d3565b90509250929050565b60006020828403121561322f57600080fd5b8151611ab3816130c2565b60006020828403121561324c57600080fd5b5051919050565b60006001600160401b038084111561326d5761326d612ee4565b8360051b602061327e818301612efa565b86815291850191818101903684111561329657600080fd5b865b848110156132ca578035868111156132b05760008081fd5b6132bc36828b01612f2a565b845250918301918301613298565b50979650505050505050565b6000602082840312156132e857600080fd5b8135611ab3816130c2565b60006020828403121561330557600080fd5b81518015158114611ab357600080fd5b634e487b7160e01b600052601160045260246000fd5b81810381811115611d4d57611d4d613315565b634e487b7160e01b600052601260045260246000fd5b6000826133635761336361333e565b500490565b600081600019048311821515161561338257613382613315565b500290565b80820180821115611d4d57611d4d613315565b6001600160401b03828116828216039080821115611dfc57611dfc613315565b6000826133c9576133c961333e565b500690565b634e487b7160e01b600052603260045260246000fd5b86815263ffffffff86166020808301919091526001600160a01b03861660408301526001600160401b038516606083015260c06080830181905284519083018190526000918581019160e0850190845b8181101561345057845183529383019391830191600101613434565b505084810360a0860152610c778187613154565b60008251613476818460208701613130565b9190910192915050565b60006020828403121561349257600080fd5b81516001600160e01b031981168114611ab357600080fd5b600060ff8316806134bd576134bd61333e565b8060ff84160691505092915050565b60ff8281168282160390811115611d4d57611d4d613315565b6000600182016134f7576134f7613315565b5060010190565b600181815b8085111561353957816000190482111561351f5761351f613315565b8085161561352c57918102915b93841c9390800290613503565b509250929050565b60008261355057506001611d4d565b8161355d57506000611d4d565b8160018114613573576002811461357d57613599565b6001915050611d4d565b60ff84111561358e5761358e613315565b50506001821b611d4d565b5060208310610133831016604e8410600b84101617156135bc575081810a611d4d565b6135c683836134fe565b80600019048211156135da576135da613315565b029392505050565b6000611ab38383613541565b6020808252604a908201527f524c505265616465723a206c656e677468206f6620616e20524c50206974656d60408201527f206d7573742062652067726561746572207468616e207a65726f20746f206265606082015269206465636f6461626c6560b01b608082015260a0019056fe524c505265616465723a206c656e677468206f6620636f6e74656e74206d7573a264697066735822122026db42a5fa22e30691e0bb7da88d8b225a81d80765f2b503c5bdcc5ee1a38b9064736f6c63430008100033",
    "linkReferences": {}
  },
  "methodIdentifiers": {
    "eventsPublished(bytes32)": "3cca331c",
    "publishEvent(bytes,bytes32[],bytes32,bytes[],bytes,uint256,(uint32,address,address,bytes32))": "bbe6d642",
    "subscriptions(bytes32)": "94259c6c"
  },
  "id": 124
}