{
  "abi": [
    {
      "anonymous": false,
      "inputs": [
        {
          "indexed": true,
          "internalType": "uint32",
          "name": "sourceChainId",
          "type": "uint32"
        },
        {
          "indexed": true,
          "internalType": "uint64",
          "name": "nonce",
          "type": "uint64"
        },
        {
          "indexed": true,
          "internalType": "bytes32",
          "name": "msgHash",
          "type": "bytes32"
        },
        {
          "indexed": false,
          "internalType": "bytes",
          "name": "message",
          "type": "bytes"
        },
        {
          "indexed": false,
          "internalType": "bool",
          "name": "status",
          "type": "bool"
        }
      ],
      "name": "ExecutedMessage",
      "type": "event"
    },
    {
      "anonymous": false,
      "inputs": [
        {
          "indexed": false,
          "internalType": "uint8",
          "name": "version",
          "type": "uint8"
        }
      ],
      "name": "Initialized",
      "type": "event"
    },
    {
      "inputs": [],
      "name": "MIN_LIGHT_CLIENT_DELAY",
      "outputs": [
        {
          "internalType": "uint256",
          "name": "",
          "type": "uint256"
        }
      ],
      "stateMutability": "view",
      "type": "function"
    },
    {
      "inputs": [
        {
          "internalType": "uint32",
          "name": "",
          "type": "uint32"
        }
      ],
      "name": "broadcasters",
      "outputs": [
        {
          "internalType": "address",
          "name": "",
          "type": "address"
        }
      ],
      "stateMutability": "view",
      "type": "function"
    },
    {
      "inputs": [
        {
          "internalType": "uint64",
          "name": "slot",
          "type": "uint64"
        },
        {
          "internalType": "bytes",
          "name": "messageBytes",
          "type": "bytes"
        },
        {
          "internalType": "bytes[]",
          "name": "accountProof",
          "type": "bytes[]"
        },
        {
          "internalType": "bytes[]",
          "name": "storageProof",
          "type": "bytes[]"
        }
      ],
      "name": "executeMessage",
      "outputs": [],
      "stateMutability": "nonpayable",
      "type": "function"
    },
    {
      "inputs": [
        {
          "internalType": "bytes",
          "name": "srcSlotTxSlotPack",
          "type": "bytes"
        },
        {
          "internalType": "bytes",
          "name": "messageBytes",
          "type": "bytes"
        },
        {
          "internalType": "bytes32[]",
          "name": "receiptsRootProof",
          "type": "bytes32[]"
        },
        {
          "internalType": "bytes32",
          "name": "receiptsRoot",
          "type": "bytes32"
        },
        {
          "internalType": "bytes[]",
          "name": "receiptProof",
          "type": "bytes[]"
        },
        {
          "internalType": "bytes",
          "name": "txIndexRLPEncoded",
          "type": "bytes"
        },
        {
          "internalType": "uint256",
          "name": "logIndex",
          "type": "uint256"
        }
      ],
      "name": "executeMessageFromLog",
      "outputs": [],
      "stateMutability": "nonpayable",
      "type": "function"
    },
    {
      "inputs": [
        {
          "internalType": "uint32",
          "name": "",
          "type": "uint32"
        }
      ],
      "name": "frozen",
      "outputs": [
        {
          "internalType": "bool",
          "name": "",
          "type": "bool"
        }
      ],
      "stateMutability": "view",
      "type": "function"
    },
    {
      "inputs": [
        {
          "internalType": "uint32",
          "name": "",
          "type": "uint32"
        }
      ],
      "name": "lightClients",
      "outputs": [
        {
          "internalType": "contract ILightClient",
          "name": "",
          "type": "address"
        }
      ],
      "stateMutability": "view",
      "type": "function"
    },
    {
      "inputs": [
        {
          "internalType": "bytes32",
          "name": "",
          "type": "bytes32"
        }
      ],
      "name": "messageStatus",
      "outputs": [
        {
          "internalType": "enum MessageStatus",
          "name": "",
          "type": "uint8"
        }
      ],
      "stateMutability": "view",
      "type": "function"
    },
    {
      "inputs": [
        {
          "internalType": "uint64",
          "name": "",
          "type": "uint64"
        }
      ],
      "name": "messages",
      "outputs": [
        {
          "internalType": "bytes32",
          "name": "",
          "type": "bytes32"
        }
      ],
      "stateMutability": "view",
      "type": "function"
    },
    {
      "inputs": [],
      "name": "nonce",
      "outputs": [
        {
          "internalType": "uint64",
          "name": "",
          "type": "uint64"
        }
      ],
      "stateMutability": "view",
      "type": "function"
    },
    {
      "inputs": [],
      "name": "sendingEnabled",
      "outputs": [
        {
          "internalType": "bool",
          "name": "",
          "type": "bool"
        }
      ],
      "stateMutability": "view",
      "type": "function"
    },
    {
      "inputs": [
        {
          "internalType": "uint256",
          "name": "",
          "type": "uint256"
        }
      ],
      "name": "sourceChainIds",
      "outputs": [
        {
          "internalType": "uint32",
          "name": "",
          "type": "uint32"
        }
      ],
      "stateMutability": "view",
      "type": "function"
    },
    {
      "inputs": [],
      "name": "sourceChainIdsLength",
      "outputs": [
        {
          "internalType": "uint256",
          "name": "",
          "type": "uint256"
        }
      ],
      "stateMutability": "view",
      "type": "function"
    },
    {
      "inputs": [
        {
          "internalType": "bytes32",
          "name": "",
          "type": "bytes32"
        }
      ],
      "name": "storageRootCache",
      "outputs": [
        {
          "internalType": "bytes32",
          "name": "",
          "type": "bytes32"
        }
      ],
      "stateMutability": "view",
      "type": "function"
    },
    {
      "inputs": [],
      "name": "version",
      "outputs": [
        {
          "internalType": "uint8",
          "name": "",
          "type": "uint8"
        }
      ],
      "stateMutability": "view",
      "type": "function"
    }
  ],
  "bytecode": {
    "object": "0x608060405234801561001057600080fd5b50613ccb806100206000396000f3fe608060405234801561001057600080fd5b50600436106100ea5760003560e01c806359f897871161008c5780638d080d1d116100665780638d080d1d1461024b5780639efeff1c1461026b578063affed0e014610293578063e4407b15146102be57600080fd5b806359f89787146101ce5780637599735c1461020f5780637acc67541461023857600080fd5b80633c6cf473116100c85780633c6cf4731461016a5780633e99e9ce1461019a5780634552f563146101a757806354fd4d50146101af57600080fd5b8063029d6713146100ef57806336ae7c181461012257806337d5af8414610155575b600080fd5b61010f6100fd36600461345f565b60016020526000908152604090205481565b6040519081526020015b60405180910390f35b61014561013036600461347a565b60066020526000908152604090205460ff1681565b6040519015158152602001610119565b6101686101633660046135da565b6102c6565b005b61018d6101783660046136d7565b60076020526000908152604090205460ff1681565b6040516101199190613706565b6000546101459060ff1681565b60035461010f565b6008546101bc9060ff1681565b60405160ff9091168152602001610119565b6101f76101dc36600461347a565b6005602052600090815260409020546001600160a01b031681565b6040516001600160a01b039091168152602001610119565b6101f761021d36600461347a565b6004602052600090815260409020546001600160a01b031681565b61016861024636600461372e565b610594565b61010f6102593660046136d7565b60096020526000908152604090205481565b61027e6102793660046136d7565b6108b7565b60405163ffffffff9091168152602001610119565b6002546102a6906001600160401b031681565b6040516001600160401b039091168152602001610119565b61010f607881565b6102ce6108f1565b6000806102db8b8b61094a565b915091506102ec8260400151610bb4565b6102f98260400151610ce6565b6000808e8e81019061030b91906137d8565b9150915061031d828560400151610d42565b60408481015163ffffffff166000908152600460208190528282205492516356f90d7960e01b81526001600160401b0386169181019190915290916001600160a01b0316906356f90d7990602401602060405180830381865afa158015610388573d6000803e3d6000fd5b505050506040513d601f19601f820116820180604052508101906103ac919061380b565b9050806103f85760405162461bcd60e51b8152602060048201526015602482015274486561646572526f6f74206973206d697373696e6760581b60448201526064015b60405180910390fd5b600061043c8b8e8e80806020026020016040519081016040528093929190818152602001838360200280828437600092019190915250879250899150889050610f7b565b90508061048b5760405162461bcd60e51b815260206004820152601b60248201527f496e76616c696420726563656970747320726f6f742070726f6f66000000000060448201526064016103ef565b5050505060006104f08787906104a19190613824565b60408086015163ffffffff166000908152600560205220548a90889088906001600160a01b03167fe5944a34d67c652e0ebf2304b48432aae0b55e40f79ba8a21a4d7054c169ffac6002611123565b90508181146105395760405162461bcd60e51b815260206004820152601560248201527424b73b30b634b21036b2b9b9b0b3b2903430b9b41760591b60448201526064016103ef565b5061057b82828d8d8080601f0160208091040260200160405190810160405280939291908181526020018383808284376000920191909152506114d692505050565b50506105876001603355565b5050505050505050505050565b61059c6108f1565b6000806105a9888861094a565b915091506105ba8260400151610bb4565b6105c78260400151610ce6565b6105d5898360400151610d42565b60408281015163ffffffff811660009081526005602090815283822054845160e09490941b6001600160e01b0319168483015260c08e901b6001600160c01b031916602485015260601b6bffffffffffffffffffffffff1916602c8401528351808403820181529284018452825192810192909220808252600990925291822054820361078c5760408085015163ffffffff16600090815260046020819052828220549251637623ee2960e01b81526001600160401b038f169181019190915290916001600160a01b031690637623ee2990602401602060405180830381865afa1580156106c7573d6000803e3d6000fd5b505050506040513d601f19601f820116820180604052508101906106eb919061380b565b9050600081900361073e5760405162461bcd60e51b815260206004820152601f60248201527f457865637574696f6e20537461746520526f6f74206973206e6f74207365740060448201526064016103ef565b61077261074b898b613824565b60408088015163ffffffff166000908152600560205220546001600160a01b03168361167d565b6000838152600960205260409020819055925061079e9050565b60008181526009602052604090205491505b6000846020015160016040516020016107cc9291906001600160401b03929092168252602082015260400190565b60408051808303601f19018152828252805160209182012081840152815180840382018152928201909152815191012090506000610814828561080f8a8c613824565b611779565b905084811461085d5760405162461bcd60e51b815260206004820152601560248201527424b73b30b634b21036b2b9b9b0b3b2903430b9b41760591b60448201526064016103ef565b505050506108a282828a8a8080601f0160208091040260200160405190810160405280939291908181526020018383808284376000920191909152506114d692505050565b50506108ae6001603355565b50505050505050565b600381815481106108c757600080fd5b9060005260206000209060089182820401919006600402915054906101000a900463ffffffff1681565b6002603354036109435760405162461bcd60e51b815260206004820152601f60248201527f5265656e7472616e637947756172643a207265656e7472616e742063616c6c0060448201526064016103ef565b6002603355565b6040805160e08101825260008082526020820181905291810182905260608082018390526080820183905260a082019290925260c08101919091526000806109c785858080601f01602080910402602001604051908101604052809392919081815260200183838082843760009201919091525061181592505050565b9050600085856040516109db9291906138a7565b60405190819003902090506000808281526007602052604090205460ff166002811115610a0a57610a0a6136f0565b14610a575760405162461bcd60e51b815260206004820152601960248201527f4d65737361676520616c72656164792065786563757465642e0000000000000060448201526064016103ef565b46826080015163ffffffff1614610a9f5760405162461bcd60e51b815260206004820152600c60248201526b2bb937b7339031b430b4b71760a11b60448201526064016103ef565b600854825160ff908116911614610ae95760405162461bcd60e51b815260206004820152600e60248201526d2bb937b733903b32b939b4b7b71760911b60448201526064016103ef565b60408083015163ffffffff166000908152600460205220546001600160a01b03161580610b34575060408083015163ffffffff166000908152600560205220546001600160a01b0316155b15610ba75760405162461bcd60e51b815260206004820152603760248201527f4c6967687420636c69656e74206f722062726f616463617374657220666f722060448201527f736f7572636520636861696e206973206e6f742073657400000000000000000060648201526084016103ef565b90925090505b9250929050565b63ffffffff81166000908152600460205260409020546001600160a01b0316610c1a5760405162461bcd60e51b81526020600482015260186024820152772634b3b43a1031b634b2b73a1034b9903737ba1039b2ba1760411b60448201526064016103ef565b63ffffffff8116600090815260046020818152604092839020548351632bcccca560e01b815293516001600160a01b0390911693632bcccca5938181019392918290030181865afa158015610c73573d6000803e3d6000fd5b505050506040513d601f19601f82011682018060405250810190610c9791906138b7565b610ce35760405162461bcd60e51b815260206004820152601d60248201527f4c6967687420636c69656e7420697320696e636f6e73697374656e742e00000060448201526064016103ef565b50565b63ffffffff811660009081526006602052604090205460ff1615610ce35760405162461bcd60e51b815260206004820152601360248201527221b7b73a3930b1ba1034b990333937bd32b71760691b60448201526064016103ef565b63ffffffff81166000908152600460205260409020546001600160a01b0316610da85760405162461bcd60e51b81526020600482015260186024820152772634b3b43a1031b634b2b73a1034b9903737ba1039b2ba1760411b60448201526064016103ef565b63ffffffff8116600090815260046020819052604091829020549151638bc33af360e01b81526001600160401b038516918101919091526001600160a01b0390911690638bc33af390602401602060405180830381865afa158015610e11573d6000803e3d6000fd5b505050506040513d601f19601f82011682018060405250810190610e35919061380b565b600003610e845760405162461bcd60e51b815260206004820152601e60248201527f54696d657374616d70206973206e6f742073657420666f7220736c6f742e000060448201526064016103ef565b63ffffffff81166000908152600460208190526040808320549051638bc33af360e01b81526001600160401b038616928101929092526001600160a01b031690638bc33af390602401602060405180830381865afa158015610eea573d6000803e3d6000fd5b505050506040513d601f19601f82011682018060405250810190610f0e919061380b565b610f1890426138ef565b90506078811015610f765760405162461bcd60e51b815260206004820152602260248201527f4d7573742077616974206c6f6e67657220746f20757365207468697320736c6f6044820152613a1760f11b60648201526084016103ef565b505050565b600080826001600160401b0316846001600160401b031603610fb95750600b610fa681610200613902565b610fb290610183613921565b905061110c565b612000610fc68486613934565b6001600160401b0316116110285750600b610fe2816020613902565b610fed906006613921565b90506110046120006001600160401b038516613971565b61101061200083613902565b61101a9190613921565b9050610fa681610200613902565b836001600160401b0316836001600160401b031610156110ba5750600b611050816020613902565b61105b906007613921565b9050611068816002613902565b611073906000613921565b905061108a6120006001600160401b038516613985565b611098630100000083613902565b6110a29190613921565b90506110af816002613902565b610fed906001613921565b60405162461bcd60e51b815260206004820152602160248201527f54727573746c657373414d423a20696e76616c69642074617267657420736c6f6044820152601d60fa1b60648201526084016103ef565b611118878288886118da565b979650505050505050565b600080611131878a8a6118f4565b905060008160008151811061114857611148613999565b01602001516001600160f81b03191690506000600160f81b82148061117a5750600160f91b6001600160f81b03198316145b15611187575060016111ec565b600360fe1b6001600160f81b03198316106111a4575060006111ec565b60405162461bcd60e51b815260206004820152601c60248201527f556e737570706f72746564207472616e73616374696f6e20747970650000000060448201526064016103ef565b60006020840190506000604051806040016040528084875161120e91906138ef565b815260200161121d8585613921565b90529050600061122c82612194565b905080516004146112785760405162461bcd60e51b8152602060048201526016602482015275092dcecc2d8d2c840e4cac6cad2e0e840d8cadccee8d60531b60448201526064016103ef565b600061129d8260038151811061129057611290613999565b6020026020010151612194565b905080518c106112ef5760405162461bcd60e51b815260206004820152601760248201527f4c6f6720696e646578206f7574206f6620626f756e647300000000000000000060448201526064016103ef565b6000611306828e8151811061129057611290613999565b905080516003146113645760405162461bcd60e51b815260206004820152602260248201527f4c6f672068617320696e636f7272656374206e756d626572206f66206669656c604482015261647360f01b60648201526084016103ef565b60006113898260008151811061137c5761137c613999565b60200260200101516123b9565b90508c6001600160a01b0316816001600160a01b0316146113fc5760405162461bcd60e51b815260206004820152602760248201527f4576656e7420776173206e6f7420656d697474656420627920636c61696d656460448201526622b6b4ba3a32b960c91b60648201526084016103ef565b60006114148360018151811061129057611290613999565b90508c61143a8260008151811061142d5761142d613999565b602002602001015161242d565b1461149d5760405162461bcd60e51b815260206004820152602d60248201527f4576656e74207369676e617475726520646f6573206e6f74206d61746368206560448201526c76656e745369676e617475726560981b60648201526084016103ef565b6114bf818d815181106114b2576114b2613999565b6020026020010151612434565b9a5050505050505050505050979650505050505050565b600060606000633bdc60d660e01b866040015187606001518860c00151604051602401611505939291906139ff565b60408051601f198184030181529190526020810180516001600160e01b03166001600160e01b03199093169290921790915260a0870151909150806001600160a01b0316826040516115579190613a2f565b6000604051808303816000865af19150503d8060008114611594576040519150601f19603f3d011682016040523d82523d6000602084013e611599565b606091505b50805191955093506000925060200390506115db576000828060200190518101906115c49190613a4b565b6001600160e01b031916631dee306b60e11b149150505b8280156115e55750805b15611608576000858152600760205260409020805460ff19166002179055611622565b6000858152600760205260409020805460ff191660011790555b8486602001516001600160401b0316876040015163ffffffff167f1f26985f3389d5ee1e49b37cdef193b3e98c927d7dd8b6a1f9cddd17a1fe8947878760405161166d929190613a75565b60405180910390a4505050505050565b6040516bffffffffffffffffffffffff19606084901b166020820152600090819060340160405160208183030381529060405280519060200120905060006116e7826040516020016116d191815260200190565b60405160208183030381529060405287866118f4565b905060008151116117335760405162461bcd60e51b81526020600482015260166024820152751058d8dbdd5b9d08191bd95cc81b9bdd08195e1a5cdd60521b60448201526064016103ef565b600061174661174183612537565b612194565b9050805160041461175657600080fd5b61176c8160028151811061142d5761142d613999565b93505050505b9392505050565b6000806117a88560405160200161179291815260200190565b60405160208183030381529060405284866118f4565b905060008151116117fb5760405162461bcd60e51b815260206004820152601c60248201527f53746f726167652076616c756520646f6573206e6f742065786973740000000060448201526064016103ef565b61180c61180782612537565b61242d565b95945050505050565b6040805160e08101825260008082526020820181905291810182905260608082018390526080820183905260a082019290925260c081019190915260018201516009830151600d8401516021850151602586015160458088015160ff871688526001600160401b038616602089015263ffffffff80861660408a01526001600160a01b03851660608a01528316608089015260a08801819052885190916118c9918a91906118c49082906138ef565b61258a565b60c088015250949695505050505050565b6000806118e8868686612676565b90921495945050505050565b6060600084511161193f5760405162461bcd60e51b81526020600482015260156024820152744d65726b6c65547269653a20656d707479206b657960581b60448201526064016103ef565b600061194a84612805565b90506000611957866128f3565b905060008460405160200161196e91815260200190565b60405160208183030381529060405290506000805b845181101561213d5760008582815181106119a0576119a0613999565b602002602001015190508451831115611a125760405162461bcd60e51b815260206004820152602e60248201527f4d65726b6c65547269653a206b657920696e646578206578636565647320746f60448201526d0e8c2d840d6caf240d8cadccee8d60931b60648201526084016103ef565b82600003611ab15780518051602091820120604051611a6092611a3a92910190815260200190565b604051602081830303815290604052858051602091820120825192909101919091201490565b611aac5760405162461bcd60e51b815260206004820152601d60248201527f4d65726b6c65547269653a20696e76616c696420726f6f74206861736800000060448201526064016103ef565b611ba7565b805151602011611b375780518051602091820120604051611adb92611a3a92910190815260200190565b611aac5760405162461bcd60e51b815260206004820152602760248201527f4d65726b6c65547269653a20696e76616c6964206c6172676520696e7465726e6044820152660c2d840d0c2e6d60cb1b60648201526084016103ef565b805184516020808701919091208251919092012014611ba75760405162461bcd60e51b815260206004820152602660248201527f4d65726b6c65547269653a20696e76616c696420696e7465726e616c206e6f646044820152650ca40d0c2e6d60d31b60648201526084016103ef565b611bb360106001613921565b81602001515103611d605784518303611cf8576000611bef8260200151601081518110611be257611be2613999565b6020026020010151612a0d565b90506000815111611c685760405162461bcd60e51b815260206004820152603b60248201527f4d65726b6c65547269653a2076616c7565206c656e677468206d75737420626560448201527f2067726561746572207468616e207a65726f20286272616e636829000000000060648201526084016103ef565b60018751611c7691906138ef565b8314611cea5760405162461bcd60e51b815260206004820152603a60248201527f4d65726b6c65547269653a2076616c7565206e6f6465206d757374206265206c60448201527f617374206e6f646520696e2070726f6f6620286272616e63682900000000000060648201526084016103ef565b965061177295505050505050565b6000858481518110611d0c57611d0c613999565b602001015160f81c60f81b60f81c9050600082602001518260ff1681518110611d3757611d37613999565b60200260200101519050611d4a81612b30565b9550611d57600186613921565b9450505061212a565b6002816020015151036120d1576000611d7882612b55565b9050600081600081518110611d8f57611d8f613999565b016020015160f81c90506000611da6600283613a99565b611db1906002613abb565b90506000611dc2848360ff16612b79565b90506000611dd08a89612b79565b90506000611dde8383612baf565b905080835114611e565760405162461bcd60e51b815260206004820152603a60248201527f4d65726b6c65547269653a20706174682072656d61696e646572206d7573742060448201527f736861726520616c6c206e6962626c65732077697468206b657900000000000060648201526084016103ef565b60ff851660021480611e6b575060ff85166003145b156120115780825114611ee65760405162461bcd60e51b815260206004820152603d60248201527f4d65726b6c65547269653a206b65792072656d61696e646572206d757374206260448201527f65206964656e746963616c20746f20706174682072656d61696e64657200000060648201526084016103ef565b6000611f028860200151600181518110611be257611be2613999565b90506000815111611f7b5760405162461bcd60e51b815260206004820152603960248201527f4d65726b6c65547269653a2076616c7565206c656e677468206d75737420626560448201527f2067726561746572207468616e207a65726f20286c656166290000000000000060648201526084016103ef565b60018d51611f8991906138ef565b8914611ffd5760405162461bcd60e51b815260206004820152603860248201527f4d65726b6c65547269653a2076616c7565206e6f6465206d757374206265206c60448201527f617374206e6f646520696e2070726f6f6620286c65616629000000000000000060648201526084016103ef565b9c506117729b505050505050505050505050565b60ff85161580612024575060ff85166001145b1561206357612050876020015160018151811061204357612043613999565b6020026020010151612b30565b995061205c818a613921565b98506120c6565b60405162461bcd60e51b815260206004820152603260248201527f4d65726b6c65547269653a2072656365697665642061206e6f64652077697468604482015271040c2dc40eadcd6dcdeeedc40e0e4caccd2f60731b60648201526084016103ef565b50505050505061212a565b60405162461bcd60e51b815260206004820152602860248201527f4d65726b6c65547269653a20726563656976656420616e20756e706172736561604482015267626c65206e6f646560c01b60648201526084016103ef565b508061213581613ad4565b915050611983565b5060405162461bcd60e51b815260206004820152602560248201527f4d65726b6c65547269653a2072616e206f7574206f662070726f6f6620656c656044820152646d656e747360d81b60648201526084016103ef565b606060008060006121a485612c2e565b9194509250905060018160018111156121bf576121bf6136f0565b146122325760405162461bcd60e51b815260206004820152603860248201527f524c505265616465723a206465636f646564206974656d207479706520666f7260448201527f206c697374206973206e6f742061206c697374206974656d000000000000000060648201526084016103ef565b845161223e8385613921565b146122a65760405162461bcd60e51b815260206004820152603260248201527f524c505265616465723a206c697374206974656d2068617320616e20696e76616044820152713634b2103230ba30903932b6b0b4b73232b960711b60648201526084016103ef565b6040805160208082526104208201909252600091816020015b60408051808201909152600080825260208201528152602001906001900390816122bf5790505090506000845b87518110156123ad576000806123326040518060400160405280858d6000015161231691906138ef565b8152602001858d6020015161232b9190613921565b9052612c2e565b50915091506040518060400160405280838361234e9190613921565b8152602001848c602001516123639190613921565b81525085858151811061237857612378613999565b602090810291909101015261238e600185613921565b935061239a8183613921565b6123a49084613921565b925050506122ec565b50815295945050505050565b80516000906001036123cd57506000919050565b815160151461241e5760405162461bcd60e51b815260206004820152601a60248201527f496e76616c696420524c5020616464726573732076616c75652e00000000000060448201526064016103ef565b6124278261242d565b92915050565b6000612427825b600060218260000151111561248b5760405162461bcd60e51b815260206004820152601a60248201527f496e76616c696420524c5020627974657333322076616c75652e00000000000060448201526064016103ef565b600080600061249985612c2e565b9194509250905060008160018111156124b4576124b46136f0565b146125015760405162461bcd60e51b815260206004820152601a60248201527f496e76616c696420524c5020627974657333322076616c75652e00000000000060448201526064016103ef565b60008386602001516125139190613921565b8051909150602084101561252d5760208490036101000a90045b9695505050505050565b6040805180820190915260008082526020820152600082511161256c5760405162461bcd60e51b81526004016103ef90613aed565b50604080518082019091528151815260209182019181019190915290565b60608161259881601f613921565b10156125b65760405162461bcd60e51b81526004016103ef90613b5d565b6125c08284613921565b845110156126045760405162461bcd60e51b8152602060048201526011602482015270736c6963655f6f75744f66426f756e647360781b60448201526064016103ef565b606082158015612623576040519150600082526020820160405261266d565b6040519150601f8416801560200281840101858101878315602002848b0101015b8183101561265c578051835260209283019201612644565b5050858452601f01601f1916604052505b50949350505050565b600082825160016126879190613921565b612692906002613c69565b1161269c57600080fd5b8360005b8460011461266d576126b3600286613971565b6001036127525760028482815181106126ce576126ce613999565b6020026020010151836040516020016126f1929190918252602082015260400190565b60408051601f198184030181529082905261270b91613a2f565b602060405180830381855afa158015612728573d6000803e3d6000fd5b5050506040513d601f19601f8201168201806040525081019061274b919061380b565b91506127e6565b60028285838151811061276757612767613999565b6020026020010151604051602001612789929190918252602082015260400190565b60408051601f19818403018152908290526127a391613a2f565b602060405180830381855afa1580156127c0573d6000803e3d6000fd5b5050506040513d601f19601f820116820180604052508101906127e3919061380b565b91505b6127f1600286613985565b9450806127fd81613ad4565b9150506126a0565b80516060906000816001600160401b0381111561282457612824613525565b60405190808252806020026020018201604052801561286957816020015b60408051808201909152606080825260208201528152602001906001900390816128425790505b50905060005b828110156128eb57604051806040016040528086838151811061289457612894613999565b602002602001015181526020016128c38784815181106128b6576128b6613999565b60200260200101516132f1565b8152508282815181106128d8576128d8613999565b602090810291909101015260010161286f565b509392505050565b80516060906000612905826002613902565b6001600160401b0381111561291c5761291c613525565b6040519080825280601f01601f191660200182016040528015612946576020820181803683370190505b5090506000805b83811015612a035785818151811061296757612967613999565b6020910101516001600160f81b03198116925060041c60ff60f41b168361298f836002613902565b8151811061299f5761299f613999565b60200101906001600160f81b031916908160001a905350600f60f81b8216836129c9836002613902565b6129d4906001613921565b815181106129e4576129e4613999565b60200101906001600160f81b031916908160001a90535060010161294d565b5090949350505050565b60606000806000612a1d85612c2e565b919450925090506000816001811115612a3857612a386136f0565b14612aab5760405162461bcd60e51b815260206004820152603960248201527f524c505265616465723a206465636f646564206974656d207479706520666f7260448201527f206279746573206973206e6f7420612064617461206974656d0000000000000060648201526084016103ef565b612ab58284613921565b855114612b215760405162461bcd60e51b815260206004820152603460248201527f524c505265616465723a2062797465732076616c756520636f6e7461696e732060448201527330b71034b73b30b634b2103932b6b0b4b73232b960611b60648201526084016103ef565b61180c856020015184846132ff565b60606020826000015110612b4c57612b4782612a0d565b612427565b6124278261339f565b6060612427612b748360200151600081518110611be257611be2613999565b6128f3565b606082518210612b985750604080516020810190915260008152612427565b6117728383848651612baa91906138ef565b6133b5565b60008060008351855110612bc4578351612bc7565b84515b90505b8082108015612c1e5750838281518110612be657612be6613999565b602001015160f81c60f81b6001600160f81b031916858381518110612c0d57612c0d613999565b01602001516001600160f81b031916145b156128eb57816001019150612bca565b600080600080846000015111612c565760405162461bcd60e51b81526004016103ef90613aed565b6020840151805160001a607f8111612c7b5760006001600094509450945050506132ea565b60b78111612dd8576000612c906080836138ef565b905080876000015111612d105760405162461bcd60e51b815260206004820152604e6024820152600080516020613c7683398151915260448201527f742062652067726561746572207468616e20737472696e67206c656e6774682060648201526d2873686f727420737472696e672960901b608482015260a4016103ef565b6001838101516001600160f81b0319169082141580612d3d5750600160ff1b6001600160f81b0319821610155b612dc55760405162461bcd60e51b815260206004820152604d60248201527f524c505265616465723a20696e76616c6964207072656669782c2073696e676c60448201527f652062797465203c203078383020617265206e6f74207072656669786564202860648201526c73686f727420737472696e672960981b608482015260a4016103ef565b50600195509350600092506132ea915050565b60bf8111613019576000612ded60b7836138ef565b905080876000015111612e705760405162461bcd60e51b81526020600482015260516024820152600080516020613c7683398151915260448201527f74206265203e207468616e206c656e677468206f6620737472696e67206c656e60648201527067746820286c6f6e6720737472696e672960781b608482015260a4016103ef565b60018301516001600160f81b0319166000819003612ef75760405162461bcd60e51b815260206004820152604a6024820152600080516020613c7683398151915260448201527f74206e6f74206861766520616e79206c656164696e67207a65726f7320286c6f6064820152696e6720737472696e672960b01b608482015260a4016103ef565b600184015160088302610100031c60378111612f7a5760405162461bcd60e51b81526020600482015260486024820152600080516020613c7683398151915260448201527f742062652067726561746572207468616e20353520627974657320286c6f6e6760648201526720737472696e672960c01b608482015260a4016103ef565b612f848184613921565b895111612ffc5760405162461bcd60e51b815260206004820152604c6024820152600080516020613c7683398151915260448201527f742062652067726561746572207468616e20746f74616c206c656e677468202860648201526b6c6f6e6720737472696e672960a01b608482015260a4016103ef565b613007836001613921565b97509550600094506132ea9350505050565b60f781116130bb57600061302e60c0836138ef565b9050808760000151116130aa5760405162461bcd60e51b815260206004820152604a6024820152600080516020613c7683398151915260448201527f742062652067726561746572207468616e206c697374206c656e677468202873606482015269686f7274206c6973742960b01b608482015260a4016103ef565b6001955093508492506132ea915050565b60006130c860f7836138ef565b9050808760000151116131475760405162461bcd60e51b815260206004820152604d6024820152600080516020613c7683398151915260448201527f74206265203e207468616e206c656e677468206f66206c697374206c656e677460648201526c6820286c6f6e67206c6973742960981b608482015260a4016103ef565b60018301516001600160f81b03191660008190036131cc5760405162461bcd60e51b81526020600482015260486024820152600080516020613c7683398151915260448201527f74206e6f74206861766520616e79206c656164696e67207a65726f7320286c6f6064820152676e67206c6973742960c01b608482015260a4016103ef565b600184015160088302610100031c6037811161324d5760405162461bcd60e51b81526020600482015260466024820152600080516020613c7683398151915260448201527f742062652067726561746572207468616e20353520627974657320286c6f6e67606482015265206c6973742960d01b608482015260a4016103ef565b6132578184613921565b8951116132cd5760405162461bcd60e51b815260206004820152604a6024820152600080516020613c7683398151915260448201527f742062652067726561746572207468616e20746f74616c206c656e67746820286064820152696c6f6e67206c6973742960b01b608482015260a4016103ef565b6132d8836001613921565b97509550600194506132ea9350505050565b9193909250565b606061242761174183612537565b60606000826001600160401b0381111561331b5761331b613525565b6040519080825280601f01601f191660200182016040528015613345576020820181803683370190505b50905082600003613357579050611772565b60006133638587613921565b90506020820160005b8581101561338457828101518282015260200161336c565b85811115613393576000868301525b50919695505050505050565b60606124278260200151600084600001516132ff565b60608182601f0110156133da5760405162461bcd60e51b81526004016103ef90613b5d565b8282840110156133fc5760405162461bcd60e51b81526004016103ef90613b5d565b818301845110156126045760405162461bcd60e51b8152602060048201526011602482015270736c6963655f6f75744f66426f756e647360781b60448201526064016103ef565b80356001600160401b038116811461345a57600080fd5b919050565b60006020828403121561347157600080fd5b61177282613443565b60006020828403121561348c57600080fd5b813563ffffffff8116811461177257600080fd5b60008083601f8401126134b257600080fd5b5081356001600160401b038111156134c957600080fd5b602083019150836020828501011115610bad57600080fd5b60008083601f8401126134f357600080fd5b5081356001600160401b0381111561350a57600080fd5b6020830191508360208260051b8501011115610bad57600080fd5b634e487b7160e01b600052604160045260246000fd5b604051601f8201601f191681016001600160401b038111828210171561356357613563613525565b604052919050565b600082601f83011261357c57600080fd5b81356001600160401b0381111561359557613595613525565b6135a8601f8201601f191660200161353b565b8181528460208386010111156135bd57600080fd5b816020850160208301376000918101602001919091529392505050565b600080600080600080600080600080600060e08c8e0312156135fb57600080fd5b6001600160401b03808d35111561361157600080fd5b61361e8e8e358f016134a0565b909c509a5060208d013581101561363457600080fd5b6136448e60208f01358f016134a0565b909a50985060408d013581101561365a57600080fd5b61366a8e60408f01358f016134e1565b909850965060608d0135955060808d013581101561368757600080fd5b6136978e60808f01358f016134e1565b909550935060a08d01358110156136ad57600080fd5b506136be8d60a08e01358e0161356b565b915060c08c013590509295989b509295989b9093969950565b6000602082840312156136e957600080fd5b5035919050565b634e487b7160e01b600052602160045260246000fd5b602081016003831061372857634e487b7160e01b600052602160045260246000fd5b91905290565b60008060008060008060006080888a03121561374957600080fd5b61375288613443565b965060208801356001600160401b038082111561376e57600080fd5b61377a8b838c016134a0565b909850965060408a013591508082111561379357600080fd5b61379f8b838c016134e1565b909650945060608a01359150808211156137b857600080fd5b506137c58a828b016134e1565b989b979a50959850939692959293505050565b600080604083850312156137eb57600080fd5b6137f483613443565b915061380260208401613443565b90509250929050565b60006020828403121561381d57600080fd5b5051919050565b60006001600160401b038084111561383e5761383e613525565b8360051b602061384f81830161353b565b86815291850191818101903684111561386757600080fd5b865b8481101561389b578035868111156138815760008081fd5b61388d36828b0161356b565b845250918301918301613869565b50979650505050505050565b8183823760009101908152919050565b6000602082840312156138c957600080fd5b8151801515811461177257600080fd5b634e487b7160e01b600052601160045260246000fd5b81810381811115612427576124276138d9565b600081600019048311821515161561391c5761391c6138d9565b500290565b80820180821115612427576124276138d9565b6001600160401b03828116828216039080821115613954576139546138d9565b5092915050565b634e487b7160e01b600052601260045260246000fd5b6000826139805761398061395b565b500690565b6000826139945761399461395b565b500490565b634e487b7160e01b600052603260045260246000fd5b60005b838110156139ca5781810151838201526020016139b2565b50506000910152565b600081518084526139eb8160208601602086016139af565b601f01601f19169290920160200192915050565b63ffffffff841681526001600160a01b038316602082015260606040820181905260009061180c908301846139d3565b60008251613a418184602087016139af565b9190910192915050565b600060208284031215613a5d57600080fd5b81516001600160e01b03198116811461177257600080fd5b604081526000613a8860408301856139d3565b905082151560208301529392505050565b600060ff831680613aac57613aac61395b565b8060ff84160691505092915050565b60ff8281168282160390811115612427576124276138d9565b600060018201613ae657613ae66138d9565b5060010190565b6020808252604a908201527f524c505265616465723a206c656e677468206f6620616e20524c50206974656d60408201527f206d7573742062652067726561746572207468616e207a65726f20746f206265606082015269206465636f6461626c6560b01b608082015260a00190565b6020808252600e908201526d736c6963655f6f766572666c6f7760901b604082015260600190565b600181815b80851115613bc0578160001904821115613ba657613ba66138d9565b80851615613bb357918102915b93841c9390800290613b8a565b509250929050565b600082613bd757506001612427565b81613be457506000612427565b8160018114613bfa5760028114613c0457613c20565b6001915050612427565b60ff841115613c1557613c156138d9565b50506001821b612427565b5060208310610133831016604e8410600b8410161715613c43575081810a612427565b613c4d8383613b85565b8060001904821115613c6157613c616138d9565b029392505050565b60006117728383613bc856fe524c505265616465723a206c656e677468206f6620636f6e74656e74206d7573a26469706673582212206a97625bc300e9ead0f59393fd498c078655fa8c3a42ebddbe4432362362406464736f6c63430008100033",
    "linkReferences": {}
  },
  "methodIdentifiers": {
    "MIN_LIGHT_CLIENT_DELAY()": "e4407b15",
    "broadcasters(uint32)": "59f89787",
    "executeMessage(uint64,bytes,bytes[],bytes[])": "7acc6754",
    "executeMessageFromLog(bytes,bytes,bytes32[],bytes32,bytes[],bytes,uint256)": "37d5af84",
    "frozen(uint32)": "36ae7c18",
    "lightClients(uint32)": "7599735c",
    "messageStatus(bytes32)": "3c6cf473",
    "messages(uint64)": "029d6713",
    "nonce()": "affed0e0",
    "sendingEnabled()": "3e99e9ce",
    "sourceChainIds(uint256)": "9efeff1c",
    "sourceChainIdsLength()": "4552f563",
    "storageRootCache(bytes32)": "8d080d1d",
    "version()": "54fd4d50"
  },
  "id": 100
}