{
  "abi": [
    {
      "anonymous": false,
      "inputs": [
        {
          "indexed": true,
          "internalType": "uint32",
          "name": "sourceChainId",
          "type": "uint32"
        },
        {
          "indexed": true,
          "internalType": "uint64",
          "name": "nonce",
          "type": "uint64"
        },
        {
          "indexed": true,
          "internalType": "bytes32",
          "name": "msgHash",
          "type": "bytes32"
        },
        {
          "indexed": false,
          "internalType": "bytes",
          "name": "message",
          "type": "bytes"
        },
        {
          "indexed": false,
          "internalType": "bool",
          "name": "status",
          "type": "bool"
        }
      ],
      "name": "ExecutedMessage",
      "type": "event"
    },
    {
      "anonymous": false,
      "inputs": [
        {
          "indexed": false,
          "internalType": "uint8",
          "name": "version",
          "type": "uint8"
        }
      ],
      "name": "Initialized",
      "type": "event"
    },
    {
      "inputs": [],
      "name": "MIN_LIGHT_CLIENT_DELAY",
      "outputs": [
        {
          "internalType": "uint256",
          "name": "",
          "type": "uint256"
        }
      ],
      "stateMutability": "view",
      "type": "function"
    },
    {
      "inputs": [
        {
          "internalType": "uint32",
          "name": "",
          "type": "uint32"
        }
      ],
      "name": "broadcasters",
      "outputs": [
        {
          "internalType": "address",
          "name": "",
          "type": "address"
        }
      ],
      "stateMutability": "view",
      "type": "function"
    },
    {
      "inputs": [
        {
          "internalType": "uint64",
          "name": "slot",
          "type": "uint64"
        },
        {
          "internalType": "bytes",
          "name": "messageBytes",
          "type": "bytes"
        },
        {
          "internalType": "bytes[]",
          "name": "accountProof",
          "type": "bytes[]"
        },
        {
          "internalType": "bytes[]",
          "name": "storageProof",
          "type": "bytes[]"
        }
      ],
      "name": "executeMessage",
      "outputs": [],
      "stateMutability": "nonpayable",
      "type": "function"
    },
    {
      "inputs": [
        {
          "internalType": "bytes",
          "name": "srcSlotTxSlotPack",
          "type": "bytes"
        },
        {
          "internalType": "bytes",
          "name": "messageBytes",
          "type": "bytes"
        },
        {
          "internalType": "bytes32[]",
          "name": "receiptsRootProof",
          "type": "bytes32[]"
        },
        {
          "internalType": "bytes32",
          "name": "receiptsRoot",
          "type": "bytes32"
        },
        {
          "internalType": "bytes[]",
          "name": "receiptProof",
          "type": "bytes[]"
        },
        {
          "internalType": "bytes",
          "name": "txIndexRLPEncoded",
          "type": "bytes"
        },
        {
          "internalType": "uint256",
          "name": "logIndex",
          "type": "uint256"
        }
      ],
      "name": "executeMessageFromLog",
      "outputs": [],
      "stateMutability": "nonpayable",
      "type": "function"
    },
    {
      "inputs": [
        {
          "internalType": "uint32",
          "name": "",
          "type": "uint32"
        }
      ],
      "name": "frozen",
      "outputs": [
        {
          "internalType": "bool",
          "name": "",
          "type": "bool"
        }
      ],
      "stateMutability": "view",
      "type": "function"
    },
    {
      "inputs": [
        {
          "internalType": "uint32",
          "name": "",
          "type": "uint32"
        }
      ],
      "name": "lightClients",
      "outputs": [
        {
          "internalType": "contract ILightClient",
          "name": "",
          "type": "address"
        }
      ],
      "stateMutability": "view",
      "type": "function"
    },
    {
      "inputs": [
        {
          "internalType": "bytes32",
          "name": "",
          "type": "bytes32"
        }
      ],
      "name": "messageStatus",
      "outputs": [
        {
          "internalType": "enum MessageStatus",
          "name": "",
          "type": "uint8"
        }
      ],
      "stateMutability": "view",
      "type": "function"
    },
    {
      "inputs": [
        {
          "internalType": "uint64",
          "name": "",
          "type": "uint64"
        }
      ],
      "name": "messages",
      "outputs": [
        {
          "internalType": "bytes32",
          "name": "",
          "type": "bytes32"
        }
      ],
      "stateMutability": "view",
      "type": "function"
    },
    {
      "inputs": [],
      "name": "nonce",
      "outputs": [
        {
          "internalType": "uint64",
          "name": "",
          "type": "uint64"
        }
      ],
      "stateMutability": "view",
      "type": "function"
    },
    {
      "inputs": [],
      "name": "sendingEnabled",
      "outputs": [
        {
          "internalType": "bool",
          "name": "",
          "type": "bool"
        }
      ],
      "stateMutability": "view",
      "type": "function"
    },
    {
      "inputs": [
        {
          "internalType": "uint256",
          "name": "",
          "type": "uint256"
        }
      ],
      "name": "sourceChainIds",
      "outputs": [
        {
          "internalType": "uint32",
          "name": "",
          "type": "uint32"
        }
      ],
      "stateMutability": "view",
      "type": "function"
    },
    {
      "inputs": [],
      "name": "sourceChainIdsLength",
      "outputs": [
        {
          "internalType": "uint256",
          "name": "",
          "type": "uint256"
        }
      ],
      "stateMutability": "view",
      "type": "function"
    },
    {
      "inputs": [
        {
          "internalType": "bytes32",
          "name": "",
          "type": "bytes32"
        }
      ],
      "name": "storageRootCache",
      "outputs": [
        {
          "internalType": "bytes32",
          "name": "",
          "type": "bytes32"
        }
      ],
      "stateMutability": "view",
      "type": "function"
    },
    {
      "inputs": [],
      "name": "version",
      "outputs": [
        {
          "internalType": "uint8",
          "name": "",
          "type": "uint8"
        }
      ],
      "stateMutability": "view",
      "type": "function"
    }
  ],
  "bytecode": {
    "object": "0x608060405234801561001057600080fd5b50613da4806100206000396000f3fe608060405234801561001057600080fd5b50600436106100ea5760003560e01c806359f897871161008c5780638d080d1d116100665780638d080d1d1461024b5780639efeff1c1461026b578063affed0e014610293578063e4407b15146102be57600080fd5b806359f89787146101ce5780637599735c1461020f5780637acc67541461023857600080fd5b80633c6cf473116100c85780633c6cf4731461016a5780633e99e9ce1461019a5780634552f563146101a757806354fd4d50146101af57600080fd5b8063029d6713146100ef57806336ae7c181461012257806337d5af8414610155575b600080fd5b61010f6100fd366004613538565b60016020526000908152604090205481565b6040519081526020015b60405180910390f35b610145610130366004613553565b60066020526000908152604090205460ff1681565b6040519015158152602001610119565b6101686101633660046136b3565b6102c6565b005b61018d6101783660046137b0565b60076020526000908152604090205460ff1681565b60405161011991906137df565b6000546101459060ff1681565b60035461010f565b6008546101bc9060ff1681565b60405160ff9091168152602001610119565b6101f76101dc366004613553565b6005602052600090815260409020546001600160a01b031681565b6040516001600160a01b039091168152602001610119565b6101f761021d366004613553565b6004602052600090815260409020546001600160a01b031681565b610168610246366004613807565b610599565b61010f6102593660046137b0565b60096020526000908152604090205481565b61027e6102793660046137b0565b6108bc565b60405163ffffffff9091168152602001610119565b6002546102a6906001600160401b031681565b6040516001600160401b039091168152602001610119565b61010f607881565b6102ce6108f6565b6000806102db8b8b61094f565b915091506102ec8260400151610bb9565b6102f98260400151610ceb565b6000808e8e81019061030b91906138b1565b9150915061031d828560400151610d47565b60408481015163ffffffff166000908152600460208190528282205492516356f90d7960e01b81526001600160401b0386169181019190915290916001600160a01b0316906356f90d7990602401602060405180830381865afa158015610388573d6000803e3d6000fd5b505050506040513d601f19601f820116820180604052508101906103ac91906138e4565b9050806103f85760405162461bcd60e51b8152602060048201526015602482015274486561646572526f6f74206973206d697373696e6760581b60448201526064015b60405180910390fd5b60006104418b8e8e80806020026020016040519081016040528093929190818152602001838360200280828437600092019190915250505060408a015186915088908890610f80565b9050806104905760405162461bcd60e51b815260206004820152601b60248201527f496e76616c696420726563656970747320726f6f742070726f6f66000000000060448201526064016103ef565b5050505060006104f58787906104a691906138fd565b60408086015163ffffffff166000908152600560205220548a90889088906001600160a01b03167fe5944a34d67c652e0ebf2304b48432aae0b55e40f79ba8a21a4d7054c169ffac60026111fc565b905081811461053e5760405162461bcd60e51b815260206004820152601560248201527424b73b30b634b21036b2b9b9b0b3b2903430b9b41760591b60448201526064016103ef565b5061058082828d8d8080601f0160208091040260200160405190810160405280939291908181526020018383808284376000920191909152506115af92505050565b505061058c6001603355565b5050505050505050505050565b6105a16108f6565b6000806105ae888861094f565b915091506105bf8260400151610bb9565b6105cc8260400151610ceb565b6105da898360400151610d47565b60408281015163ffffffff811660009081526005602090815283822054845160e09490941b6001600160e01b0319168483015260c08e901b6001600160c01b031916602485015260601b6bffffffffffffffffffffffff1916602c840152835180840382018152928401845282519281019290922080825260099092529182205482036107915760408085015163ffffffff16600090815260046020819052828220549251637623ee2960e01b81526001600160401b038f169181019190915290916001600160a01b031690637623ee2990602401602060405180830381865afa1580156106cc573d6000803e3d6000fd5b505050506040513d601f19601f820116820180604052508101906106f091906138e4565b905060008190036107435760405162461bcd60e51b815260206004820152601f60248201527f457865637574696f6e20537461746520526f6f74206973206e6f74207365740060448201526064016103ef565b610777610750898b6138fd565b60408088015163ffffffff166000908152600560205220546001600160a01b031683611756565b600083815260096020526040902081905592506107a39050565b60008181526009602052604090205491505b6000846020015160016040516020016107d19291906001600160401b03929092168252602082015260400190565b60408051808303601f1901815282825280516020918201208184015281518084038201815292820190915281519101209050600061081982856108148a8c6138fd565b611852565b90508481146108625760405162461bcd60e51b815260206004820152601560248201527424b73b30b634b21036b2b9b9b0b3b2903430b9b41760591b60448201526064016103ef565b505050506108a782828a8a8080601f0160208091040260200160405190810160405280939291908181526020018383808284376000920191909152506115af92505050565b50506108b36001603355565b50505050505050565b600381815481106108cc57600080fd5b9060005260206000209060089182820401919006600402915054906101000a900463ffffffff1681565b6002603354036109485760405162461bcd60e51b815260206004820152601f60248201527f5265656e7472616e637947756172643a207265656e7472616e742063616c6c0060448201526064016103ef565b6002603355565b6040805160e08101825260008082526020820181905291810182905260608082018390526080820183905260a082019290925260c08101919091526000806109cc85858080601f0160208091040260200160405190810160405280939291908181526020018383808284376000920191909152506118ee92505050565b9050600085856040516109e0929190613980565b60405190819003902090506000808281526007602052604090205460ff166002811115610a0f57610a0f6137c9565b14610a5c5760405162461bcd60e51b815260206004820152601960248201527f4d65737361676520616c72656164792065786563757465642e0000000000000060448201526064016103ef565b46826080015163ffffffff1614610aa45760405162461bcd60e51b815260206004820152600c60248201526b2bb937b7339031b430b4b71760a11b60448201526064016103ef565b600854825160ff908116911614610aee5760405162461bcd60e51b815260206004820152600e60248201526d2bb937b733903b32b939b4b7b71760911b60448201526064016103ef565b60408083015163ffffffff166000908152600460205220546001600160a01b03161580610b39575060408083015163ffffffff166000908152600560205220546001600160a01b0316155b15610bac5760405162461bcd60e51b815260206004820152603760248201527f4c6967687420636c69656e74206f722062726f616463617374657220666f722060448201527f736f7572636520636861696e206973206e6f742073657400000000000000000060648201526084016103ef565b90925090505b9250929050565b63ffffffff81166000908152600460205260409020546001600160a01b0316610c1f5760405162461bcd60e51b81526020600482015260186024820152772634b3b43a1031b634b2b73a1034b9903737ba1039b2ba1760411b60448201526064016103ef565b63ffffffff8116600090815260046020818152604092839020548351632bcccca560e01b815293516001600160a01b0390911693632bcccca5938181019392918290030181865afa158015610c78573d6000803e3d6000fd5b505050506040513d601f19601f82011682018060405250810190610c9c9190613990565b610ce85760405162461bcd60e51b815260206004820152601d60248201527f4c6967687420636c69656e7420697320696e636f6e73697374656e742e00000060448201526064016103ef565b50565b63ffffffff811660009081526006602052604090205460ff1615610ce85760405162461bcd60e51b815260206004820152601360248201527221b7b73a3930b1ba1034b990333937bd32b71760691b60448201526064016103ef565b63ffffffff81166000908152600460205260409020546001600160a01b0316610dad5760405162461bcd60e51b81526020600482015260186024820152772634b3b43a1031b634b2b73a1034b9903737ba1039b2ba1760411b60448201526064016103ef565b63ffffffff8116600090815260046020819052604091829020549151638bc33af360e01b81526001600160401b038516918101919091526001600160a01b0390911690638bc33af390602401602060405180830381865afa158015610e16573d6000803e3d6000fd5b505050506040513d601f19601f82011682018060405250810190610e3a91906138e4565b600003610e895760405162461bcd60e51b815260206004820152601e60248201527f54696d657374616d70206973206e6f742073657420666f7220736c6f742e000060448201526064016103ef565b63ffffffff81166000908152600460208190526040808320549051638bc33af360e01b81526001600160401b038616928101929092526001600160a01b031690638bc33af390602401602060405180830381865afa158015610eef573d6000803e3d6000fd5b505050506040513d601f19601f82011682018060405250810190610f1391906138e4565b610f1d90426139c8565b90506078811015610f7b5760405162461bcd60e51b815260206004820152602260248201527f4d7573742077616974206c6f6e67657220746f20757365207468697320736c6f6044820152613a1760f11b60648201526084016103ef565b505050565b60405163082b2af760e31b815263ffffffff82166004820152600090819073__$083586bac2d506cf8c8f15e692f942458b$__9063415957b890602401602060405180830381865af4158015610fda573d6000803e3d6000fd5b505050506040513d601f19601f82011682018060405250810190610ffe91906138e4565b9050600081856001600160401b03161061101957601b61101c565b60075b60ff169050600082866001600160401b03161061105857612000611049846001600160401b0389166139c8565b61105391906139f1565b61106d565b61106d6120006001600160401b0388166139f1565b90506000866001600160401b0316886001600160401b0316036110ac5750600b61109981610200613a05565b6110a590610183613a24565b90506111e1565b6120006110b9888a613a37565b6001600160401b03161161111b5750600b6110d5816020613a05565b6110e0906006613a24565b90506110f76120006001600160401b038916613a5e565b61110361200083613a05565b61110d9190613a24565b905061109981610200613a05565b876001600160401b0316876001600160401b031610156111995750600b82611144826020613a05565b61114e9190613a24565b905061115b816002613a05565b611166906000613a24565b905081611177630100000083613a05565b6111819190613a24565b905061118e816002613a05565b6110e0906001613a24565b60405162461bcd60e51b815260206004820152601e60248201527f546172676574414d423a20696e76616c69642074617267657420736c6f74000060448201526064016103ef565b6111ed8b828c8c6119b3565b9b9a5050505050505050505050565b60008061120a878a8a6119cd565b905060008160008151811061122157611221613a72565b01602001516001600160f81b03191690506000600160f81b8214806112535750600160f91b6001600160f81b03198316145b15611260575060016112c5565b600360fe1b6001600160f81b031983161061127d575060006112c5565b60405162461bcd60e51b815260206004820152601c60248201527f556e737570706f72746564207472616e73616374696f6e20747970650000000060448201526064016103ef565b6000602084019050600060405180604001604052808487516112e791906139c8565b81526020016112f68585613a24565b9052905060006113058261226d565b905080516004146113515760405162461bcd60e51b8152602060048201526016602482015275092dcecc2d8d2c840e4cac6cad2e0e840d8cadccee8d60531b60448201526064016103ef565b60006113768260038151811061136957611369613a72565b602002602001015161226d565b905080518c106113c85760405162461bcd60e51b815260206004820152601760248201527f4c6f6720696e646578206f7574206f6620626f756e647300000000000000000060448201526064016103ef565b60006113df828e8151811061136957611369613a72565b9050805160031461143d5760405162461bcd60e51b815260206004820152602260248201527f4c6f672068617320696e636f7272656374206e756d626572206f66206669656c604482015261647360f01b60648201526084016103ef565b60006114628260008151811061145557611455613a72565b6020026020010151612492565b90508c6001600160a01b0316816001600160a01b0316146114d55760405162461bcd60e51b815260206004820152602760248201527f4576656e7420776173206e6f7420656d697474656420627920636c61696d656460448201526622b6b4ba3a32b960c91b60648201526084016103ef565b60006114ed8360018151811061136957611369613a72565b90508c6115138260008151811061150657611506613a72565b6020026020010151612506565b146115765760405162461bcd60e51b815260206004820152602d60248201527f4576656e74207369676e617475726520646f6573206e6f74206d61746368206560448201526c76656e745369676e617475726560981b60648201526084016103ef565b611598818d8151811061158b5761158b613a72565b602002602001015161250d565b9a5050505050505050505050979650505050505050565b600060606000633bdc60d660e01b866040015187606001518860c001516040516024016115de93929190613ad8565b60408051601f198184030181529190526020810180516001600160e01b03166001600160e01b03199093169290921790915260a0870151909150806001600160a01b0316826040516116309190613b08565b6000604051808303816000865af19150503d806000811461166d576040519150601f19603f3d011682016040523d82523d6000602084013e611672565b606091505b50805191955093506000925060200390506116b45760008280602001905181019061169d9190613b24565b6001600160e01b031916631dee306b60e11b149150505b8280156116be5750805b156116e1576000858152600760205260409020805460ff191660021790556116fb565b6000858152600760205260409020805460ff191660011790555b8486602001516001600160401b0316876040015163ffffffff167f1f26985f3389d5ee1e49b37cdef193b3e98c927d7dd8b6a1f9cddd17a1fe89478787604051611746929190613b4e565b60405180910390a4505050505050565b6040516bffffffffffffffffffffffff19606084901b166020820152600090819060340160405160208183030381529060405280519060200120905060006117c0826040516020016117aa91815260200190565b60405160208183030381529060405287866119cd565b9050600081511161180c5760405162461bcd60e51b81526020600482015260166024820152751058d8dbdd5b9d08191bd95cc81b9bdd08195e1a5cdd60521b60448201526064016103ef565b600061181f61181a83612610565b61226d565b9050805160041461182f57600080fd5b6118458160028151811061150657611506613a72565b93505050505b9392505050565b6000806118818560405160200161186b91815260200190565b60405160208183030381529060405284866119cd565b905060008151116118d45760405162461bcd60e51b815260206004820152601c60248201527f53746f726167652076616c756520646f6573206e6f742065786973740000000060448201526064016103ef565b6118e56118e082612610565b612506565b95945050505050565b6040805160e08101825260008082526020820181905291810182905260608082018390526080820183905260a082019290925260c081019190915260018201516009830151600d8401516021850151602586015160458088015160ff871688526001600160401b038616602089015263ffffffff80861660408a01526001600160a01b03851660608a01528316608089015260a08801819052885190916119a2918a919061199d9082906139c8565b612663565b60c088015250949695505050505050565b6000806119c186868661274f565b90921495945050505050565b60606000845111611a185760405162461bcd60e51b81526020600482015260156024820152744d65726b6c65547269653a20656d707479206b657960581b60448201526064016103ef565b6000611a23846128de565b90506000611a30866129cc565b9050600084604051602001611a4791815260200190565b60405160208183030381529060405290506000805b8451811015612216576000858281518110611a7957611a79613a72565b602002602001015190508451831115611aeb5760405162461bcd60e51b815260206004820152602e60248201527f4d65726b6c65547269653a206b657920696e646578206578636565647320746f60448201526d0e8c2d840d6caf240d8cadccee8d60931b60648201526084016103ef565b82600003611b8a5780518051602091820120604051611b3992611b1392910190815260200190565b604051602081830303815290604052858051602091820120825192909101919091201490565b611b855760405162461bcd60e51b815260206004820152601d60248201527f4d65726b6c65547269653a20696e76616c696420726f6f74206861736800000060448201526064016103ef565b611c80565b805151602011611c105780518051602091820120604051611bb492611b1392910190815260200190565b611b855760405162461bcd60e51b815260206004820152602760248201527f4d65726b6c65547269653a20696e76616c6964206c6172676520696e7465726e6044820152660c2d840d0c2e6d60cb1b60648201526084016103ef565b805184516020808701919091208251919092012014611c805760405162461bcd60e51b815260206004820152602660248201527f4d65726b6c65547269653a20696e76616c696420696e7465726e616c206e6f646044820152650ca40d0c2e6d60d31b60648201526084016103ef565b611c8c60106001613a24565b81602001515103611e395784518303611dd1576000611cc88260200151601081518110611cbb57611cbb613a72565b6020026020010151612ae6565b90506000815111611d415760405162461bcd60e51b815260206004820152603b60248201527f4d65726b6c65547269653a2076616c7565206c656e677468206d75737420626560448201527f2067726561746572207468616e207a65726f20286272616e636829000000000060648201526084016103ef565b60018751611d4f91906139c8565b8314611dc35760405162461bcd60e51b815260206004820152603a60248201527f4d65726b6c65547269653a2076616c7565206e6f6465206d757374206265206c60448201527f617374206e6f646520696e2070726f6f6620286272616e63682900000000000060648201526084016103ef565b965061184b95505050505050565b6000858481518110611de557611de5613a72565b602001015160f81c60f81b60f81c9050600082602001518260ff1681518110611e1057611e10613a72565b60200260200101519050611e2381612c09565b9550611e30600186613a24565b94505050612203565b6002816020015151036121aa576000611e5182612c2e565b9050600081600081518110611e6857611e68613a72565b016020015160f81c90506000611e7f600283613b72565b611e8a906002613b94565b90506000611e9b848360ff16612c52565b90506000611ea98a89612c52565b90506000611eb78383612c88565b905080835114611f2f5760405162461bcd60e51b815260206004820152603a60248201527f4d65726b6c65547269653a20706174682072656d61696e646572206d7573742060448201527f736861726520616c6c206e6962626c65732077697468206b657900000000000060648201526084016103ef565b60ff851660021480611f44575060ff85166003145b156120ea5780825114611fbf5760405162461bcd60e51b815260206004820152603d60248201527f4d65726b6c65547269653a206b65792072656d61696e646572206d757374206260448201527f65206964656e746963616c20746f20706174682072656d61696e64657200000060648201526084016103ef565b6000611fdb8860200151600181518110611cbb57611cbb613a72565b905060008151116120545760405162461bcd60e51b815260206004820152603960248201527f4d65726b6c65547269653a2076616c7565206c656e677468206d75737420626560448201527f2067726561746572207468616e207a65726f20286c656166290000000000000060648201526084016103ef565b60018d5161206291906139c8565b89146120d65760405162461bcd60e51b815260206004820152603860248201527f4d65726b6c65547269653a2076616c7565206e6f6465206d757374206265206c60448201527f617374206e6f646520696e2070726f6f6620286c65616629000000000000000060648201526084016103ef565b9c5061184b9b505050505050505050505050565b60ff851615806120fd575060ff85166001145b1561213c57612129876020015160018151811061211c5761211c613a72565b6020026020010151612c09565b9950612135818a613a24565b985061219f565b60405162461bcd60e51b815260206004820152603260248201527f4d65726b6c65547269653a2072656365697665642061206e6f64652077697468604482015271040c2dc40eadcd6dcdeeedc40e0e4caccd2f60731b60648201526084016103ef565b505050505050612203565b60405162461bcd60e51b815260206004820152602860248201527f4d65726b6c65547269653a20726563656976656420616e20756e706172736561604482015267626c65206e6f646560c01b60648201526084016103ef565b508061220e81613bad565b915050611a5c565b5060405162461bcd60e51b815260206004820152602560248201527f4d65726b6c65547269653a2072616e206f7574206f662070726f6f6620656c656044820152646d656e747360d81b60648201526084016103ef565b6060600080600061227d85612d07565b919450925090506001816001811115612298576122986137c9565b1461230b5760405162461bcd60e51b815260206004820152603860248201527f524c505265616465723a206465636f646564206974656d207479706520666f7260448201527f206c697374206973206e6f742061206c697374206974656d000000000000000060648201526084016103ef565b84516123178385613a24565b1461237f5760405162461bcd60e51b815260206004820152603260248201527f524c505265616465723a206c697374206974656d2068617320616e20696e76616044820152713634b2103230ba30903932b6b0b4b73232b960711b60648201526084016103ef565b6040805160208082526104208201909252600091816020015b60408051808201909152600080825260208201528152602001906001900390816123985790505090506000845b87518110156124865760008061240b6040518060400160405280858d600001516123ef91906139c8565b8152602001858d602001516124049190613a24565b9052612d07565b5091509150604051806040016040528083836124279190613a24565b8152602001848c6020015161243c9190613a24565b81525085858151811061245157612451613a72565b6020908102919091010152612467600185613a24565b93506124738183613a24565b61247d9084613a24565b925050506123c5565b50815295945050505050565b80516000906001036124a657506000919050565b81516015146124f75760405162461bcd60e51b815260206004820152601a60248201527f496e76616c696420524c5020616464726573732076616c75652e00000000000060448201526064016103ef565b61250082612506565b92915050565b6000612500825b60006021826000015111156125645760405162461bcd60e51b815260206004820152601a60248201527f496e76616c696420524c5020627974657333322076616c75652e00000000000060448201526064016103ef565b600080600061257285612d07565b91945092509050600081600181111561258d5761258d6137c9565b146125da5760405162461bcd60e51b815260206004820152601a60248201527f496e76616c696420524c5020627974657333322076616c75652e00000000000060448201526064016103ef565b60008386602001516125ec9190613a24565b805190915060208410156126065760208490036101000a90045b9695505050505050565b604080518082019091526000808252602082015260008251116126455760405162461bcd60e51b81526004016103ef90613bc6565b50604080518082019091528151815260209182019181019190915290565b60608161267181601f613a24565b101561268f5760405162461bcd60e51b81526004016103ef90613c36565b6126998284613a24565b845110156126dd5760405162461bcd60e51b8152602060048201526011602482015270736c6963655f6f75744f66426f756e647360781b60448201526064016103ef565b6060821580156126fc5760405191506000825260208201604052612746565b6040519150601f8416801560200281840101858101878315602002848b0101015b8183101561273557805183526020928301920161271d565b5050858452601f01601f1916604052505b50949350505050565b600082825160016127609190613a24565b61276b906002613d42565b1161277557600080fd5b8360005b846001146127465761278c600286613a5e565b60010361282b5760028482815181106127a7576127a7613a72565b6020026020010151836040516020016127ca929190918252602082015260400190565b60408051601f19818403018152908290526127e491613b08565b602060405180830381855afa158015612801573d6000803e3d6000fd5b5050506040513d601f19601f8201168201806040525081019061282491906138e4565b91506128bf565b60028285838151811061284057612840613a72565b6020026020010151604051602001612862929190918252602082015260400190565b60408051601f198184030181529082905261287c91613b08565b602060405180830381855afa158015612899573d6000803e3d6000fd5b5050506040513d601f19601f820116820180604052508101906128bc91906138e4565b91505b6128ca6002866139f1565b9450806128d681613bad565b915050612779565b80516060906000816001600160401b038111156128fd576128fd6135fe565b60405190808252806020026020018201604052801561294257816020015b604080518082019091526060808252602082015281526020019060019003908161291b5790505b50905060005b828110156129c457604051806040016040528086838151811061296d5761296d613a72565b6020026020010151815260200161299c87848151811061298f5761298f613a72565b60200260200101516133ca565b8152508282815181106129b1576129b1613a72565b6020908102919091010152600101612948565b509392505050565b805160609060006129de826002613a05565b6001600160401b038111156129f5576129f56135fe565b6040519080825280601f01601f191660200182016040528015612a1f576020820181803683370190505b5090506000805b83811015612adc57858181518110612a4057612a40613a72565b6020910101516001600160f81b03198116925060041c60ff60f41b1683612a68836002613a05565b81518110612a7857612a78613a72565b60200101906001600160f81b031916908160001a905350600f60f81b821683612aa2836002613a05565b612aad906001613a24565b81518110612abd57612abd613a72565b60200101906001600160f81b031916908160001a905350600101612a26565b5090949350505050565b60606000806000612af685612d07565b919450925090506000816001811115612b1157612b116137c9565b14612b845760405162461bcd60e51b815260206004820152603960248201527f524c505265616465723a206465636f646564206974656d207479706520666f7260448201527f206279746573206973206e6f7420612064617461206974656d0000000000000060648201526084016103ef565b612b8e8284613a24565b855114612bfa5760405162461bcd60e51b815260206004820152603460248201527f524c505265616465723a2062797465732076616c756520636f6e7461696e732060448201527330b71034b73b30b634b2103932b6b0b4b73232b960611b60648201526084016103ef565b6118e5856020015184846133d8565b60606020826000015110612c2557612c2082612ae6565b612500565b61250082613478565b6060612500612c4d8360200151600081518110611cbb57611cbb613a72565b6129cc565b606082518210612c715750604080516020810190915260008152612500565b61184b8383848651612c8391906139c8565b61348e565b60008060008351855110612c9d578351612ca0565b84515b90505b8082108015612cf75750838281518110612cbf57612cbf613a72565b602001015160f81c60f81b6001600160f81b031916858381518110612ce657612ce6613a72565b01602001516001600160f81b031916145b156129c457816001019150612ca3565b600080600080846000015111612d2f5760405162461bcd60e51b81526004016103ef90613bc6565b6020840151805160001a607f8111612d545760006001600094509450945050506133c3565b60b78111612eb1576000612d696080836139c8565b905080876000015111612de95760405162461bcd60e51b815260206004820152604e6024820152600080516020613d4f83398151915260448201527f742062652067726561746572207468616e20737472696e67206c656e6774682060648201526d2873686f727420737472696e672960901b608482015260a4016103ef565b6001838101516001600160f81b0319169082141580612e165750600160ff1b6001600160f81b0319821610155b612e9e5760405162461bcd60e51b815260206004820152604d60248201527f524c505265616465723a20696e76616c6964207072656669782c2073696e676c60448201527f652062797465203c203078383020617265206e6f74207072656669786564202860648201526c73686f727420737472696e672960981b608482015260a4016103ef565b50600195509350600092506133c3915050565b60bf81116130f2576000612ec660b7836139c8565b905080876000015111612f495760405162461bcd60e51b81526020600482015260516024820152600080516020613d4f83398151915260448201527f74206265203e207468616e206c656e677468206f6620737472696e67206c656e60648201527067746820286c6f6e6720737472696e672960781b608482015260a4016103ef565b60018301516001600160f81b0319166000819003612fd05760405162461bcd60e51b815260206004820152604a6024820152600080516020613d4f83398151915260448201527f74206e6f74206861766520616e79206c656164696e67207a65726f7320286c6f6064820152696e6720737472696e672960b01b608482015260a4016103ef565b600184015160088302610100031c603781116130535760405162461bcd60e51b81526020600482015260486024820152600080516020613d4f83398151915260448201527f742062652067726561746572207468616e20353520627974657320286c6f6e6760648201526720737472696e672960c01b608482015260a4016103ef565b61305d8184613a24565b8951116130d55760405162461bcd60e51b815260206004820152604c6024820152600080516020613d4f83398151915260448201527f742062652067726561746572207468616e20746f74616c206c656e677468202860648201526b6c6f6e6720737472696e672960a01b608482015260a4016103ef565b6130e0836001613a24565b97509550600094506133c39350505050565b60f7811161319457600061310760c0836139c8565b9050808760000151116131835760405162461bcd60e51b815260206004820152604a6024820152600080516020613d4f83398151915260448201527f742062652067726561746572207468616e206c697374206c656e677468202873606482015269686f7274206c6973742960b01b608482015260a4016103ef565b6001955093508492506133c3915050565b60006131a160f7836139c8565b9050808760000151116132205760405162461bcd60e51b815260206004820152604d6024820152600080516020613d4f83398151915260448201527f74206265203e207468616e206c656e677468206f66206c697374206c656e677460648201526c6820286c6f6e67206c6973742960981b608482015260a4016103ef565b60018301516001600160f81b03191660008190036132a55760405162461bcd60e51b81526020600482015260486024820152600080516020613d4f83398151915260448201527f74206e6f74206861766520616e79206c656164696e67207a65726f7320286c6f6064820152676e67206c6973742960c01b608482015260a4016103ef565b600184015160088302610100031c603781116133265760405162461bcd60e51b81526020600482015260466024820152600080516020613d4f83398151915260448201527f742062652067726561746572207468616e20353520627974657320286c6f6e67606482015265206c6973742960d01b608482015260a4016103ef565b6133308184613a24565b8951116133a65760405162461bcd60e51b815260206004820152604a6024820152600080516020613d4f83398151915260448201527f742062652067726561746572207468616e20746f74616c206c656e67746820286064820152696c6f6e67206c6973742960b01b608482015260a4016103ef565b6133b1836001613a24565b97509550600194506133c39350505050565b9193909250565b606061250061181a83612610565b60606000826001600160401b038111156133f4576133f46135fe565b6040519080825280601f01601f19166020018201604052801561341e576020820181803683370190505b5090508260000361343057905061184b565b600061343c8587613a24565b90506020820160005b8581101561345d578281015182820152602001613445565b8581111561346c576000868301525b50919695505050505050565b60606125008260200151600084600001516133d8565b60608182601f0110156134b35760405162461bcd60e51b81526004016103ef90613c36565b8282840110156134d55760405162461bcd60e51b81526004016103ef90613c36565b818301845110156126dd5760405162461bcd60e51b8152602060048201526011602482015270736c6963655f6f75744f66426f756e647360781b60448201526064016103ef565b80356001600160401b038116811461353357600080fd5b919050565b60006020828403121561354a57600080fd5b61184b8261351c565b60006020828403121561356557600080fd5b813563ffffffff8116811461184b57600080fd5b60008083601f84011261358b57600080fd5b5081356001600160401b038111156135a257600080fd5b602083019150836020828501011115610bb257600080fd5b60008083601f8401126135cc57600080fd5b5081356001600160401b038111156135e357600080fd5b6020830191508360208260051b8501011115610bb257600080fd5b634e487b7160e01b600052604160045260246000fd5b604051601f8201601f191681016001600160401b038111828210171561363c5761363c6135fe565b604052919050565b600082601f83011261365557600080fd5b81356001600160401b0381111561366e5761366e6135fe565b613681601f8201601f1916602001613614565b81815284602083860101111561369657600080fd5b816020850160208301376000918101602001919091529392505050565b600080600080600080600080600080600060e08c8e0312156136d457600080fd5b6001600160401b03808d3511156136ea57600080fd5b6136f78e8e358f01613579565b909c509a5060208d013581101561370d57600080fd5b61371d8e60208f01358f01613579565b909a50985060408d013581101561373357600080fd5b6137438e60408f01358f016135ba565b909850965060608d0135955060808d013581101561376057600080fd5b6137708e60808f01358f016135ba565b909550935060a08d013581101561378657600080fd5b506137978d60a08e01358e01613644565b915060c08c013590509295989b509295989b9093969950565b6000602082840312156137c257600080fd5b5035919050565b634e487b7160e01b600052602160045260246000fd5b602081016003831061380157634e487b7160e01b600052602160045260246000fd5b91905290565b60008060008060008060006080888a03121561382257600080fd5b61382b8861351c565b965060208801356001600160401b038082111561384757600080fd5b6138538b838c01613579565b909850965060408a013591508082111561386c57600080fd5b6138788b838c016135ba565b909650945060608a013591508082111561389157600080fd5b5061389e8a828b016135ba565b989b979a50959850939692959293505050565b600080604083850312156138c457600080fd5b6138cd8361351c565b91506138db6020840161351c565b90509250929050565b6000602082840312156138f657600080fd5b5051919050565b60006001600160401b0380841115613917576139176135fe565b8360051b6020613928818301613614565b86815291850191818101903684111561394057600080fd5b865b848110156139745780358681111561395a5760008081fd5b61396636828b01613644565b845250918301918301613942565b50979650505050505050565b8183823760009101908152919050565b6000602082840312156139a257600080fd5b8151801515811461184b57600080fd5b634e487b7160e01b600052601160045260246000fd5b81810381811115612500576125006139b2565b634e487b7160e01b600052601260045260246000fd5b600082613a0057613a006139db565b500490565b6000816000190483118215151615613a1f57613a1f6139b2565b500290565b80820180821115612500576125006139b2565b6001600160401b03828116828216039080821115613a5757613a576139b2565b5092915050565b600082613a6d57613a6d6139db565b500690565b634e487b7160e01b600052603260045260246000fd5b60005b83811015613aa3578181015183820152602001613a8b565b50506000910152565b60008151808452613ac4816020860160208601613a88565b601f01601f19169290920160200192915050565b63ffffffff841681526001600160a01b03831660208201526060604082018190526000906118e590830184613aac565b60008251613b1a818460208701613a88565b9190910192915050565b600060208284031215613b3657600080fd5b81516001600160e01b03198116811461184b57600080fd5b604081526000613b616040830185613aac565b905082151560208301529392505050565b600060ff831680613b8557613b856139db565b8060ff84160691505092915050565b60ff8281168282160390811115612500576125006139b2565b600060018201613bbf57613bbf6139b2565b5060010190565b6020808252604a908201527f524c505265616465723a206c656e677468206f6620616e20524c50206974656d60408201527f206d7573742062652067726561746572207468616e207a65726f20746f206265606082015269206465636f6461626c6560b01b608082015260a00190565b6020808252600e908201526d736c6963655f6f766572666c6f7760901b604082015260600190565b600181815b80851115613c99578160001904821115613c7f57613c7f6139b2565b80851615613c8c57918102915b93841c9390800290613c63565b509250929050565b600082613cb057506001612500565b81613cbd57506000612500565b8160018114613cd35760028114613cdd57613cf9565b6001915050612500565b60ff841115613cee57613cee6139b2565b50506001821b612500565b5060208310610133831016604e8410600b8410161715613d1c575081810a612500565b613d268383613c5e565b8060001904821115613d3a57613d3a6139b2565b029392505050565b600061184b8383613ca156fe524c505265616465723a206c656e677468206f6620636f6e74656e74206d7573a26469706673582212200b05ed5ae63b09c514431342b32abbec5ca9ab35e53d2a4b1a886369d8b7f6b164736f6c63430008100033",
    "linkReferences": {
      "src/libraries/BeaconChainForks.sol": {
        "BeaconChainForks": [
          {
            "start": 4032,
            "length": 20
          }
        ]
      }
    }
  },
  "methodIdentifiers": {
    "MIN_LIGHT_CLIENT_DELAY()": "e4407b15",
    "broadcasters(uint32)": "59f89787",
    "executeMessage(uint64,bytes,bytes[],bytes[])": "7acc6754",
    "executeMessageFromLog(bytes,bytes,bytes32[],bytes32,bytes[],bytes,uint256)": "37d5af84",
    "frozen(uint32)": "36ae7c18",
    "lightClients(uint32)": "7599735c",
    "messageStatus(bytes32)": "3c6cf473",
    "messages(uint64)": "029d6713",
    "nonce()": "affed0e0",
    "sendingEnabled()": "3e99e9ce",
    "sourceChainIds(uint256)": "9efeff1c",
    "sourceChainIdsLength()": "4552f563",
    "storageRootCache(bytes32)": "8d080d1d",
    "version()": "54fd4d50"
  },
  "id": 100
}