{
  "abi": [
    {
      "inputs": [],
      "name": "CannotSendToSameChain",
      "type": "error"
    },
    {
      "inputs": [],
      "name": "SendingDisabled",
      "type": "error"
    },
    {
      "anonymous": false,
      "inputs": [
        {
          "indexed": true,
          "internalType": "uint64",
          "name": "nonce",
          "type": "uint64"
        },
        {
          "indexed": true,
          "internalType": "bytes32",
          "name": "msgHash",
          "type": "bytes32"
        },
        {
          "indexed": false,
          "internalType": "bytes",
          "name": "message",
          "type": "bytes"
        }
      ],
      "name": "SentMessage",
      "type": "event"
    },
    {
      "inputs": [
        {
          "internalType": "uint32",
          "name": "",
          "type": "uint32"
        }
      ],
      "name": "broadcasters",
      "outputs": [
        {
          "internalType": "address",
          "name": "",
          "type": "address"
        }
      ],
      "stateMutability": "view",
      "type": "function"
    },
    {
      "inputs": [
        {
          "internalType": "uint32",
          "name": "",
          "type": "uint32"
        }
      ],
      "name": "frozen",
      "outputs": [
        {
          "internalType": "bool",
          "name": "",
          "type": "bool"
        }
      ],
      "stateMutability": "view",
      "type": "function"
    },
    {
      "inputs": [
        {
          "internalType": "uint32",
          "name": "",
          "type": "uint32"
        }
      ],
      "name": "lightClients",
      "outputs": [
        {
          "internalType": "contract ILightClient",
          "name": "",
          "type": "address"
        }
      ],
      "stateMutability": "view",
      "type": "function"
    },
    {
      "inputs": [
        {
          "internalType": "bytes32",
          "name": "",
          "type": "bytes32"
        }
      ],
      "name": "messageStatus",
      "outputs": [
        {
          "internalType": "enum MessageStatus",
          "name": "",
          "type": "uint8"
        }
      ],
      "stateMutability": "view",
      "type": "function"
    },
    {
      "inputs": [
        {
          "internalType": "uint64",
          "name": "",
          "type": "uint64"
        }
      ],
      "name": "messages",
      "outputs": [
        {
          "internalType": "bytes32",
          "name": "",
          "type": "bytes32"
        }
      ],
      "stateMutability": "view",
      "type": "function"
    },
    {
      "inputs": [],
      "name": "nonce",
      "outputs": [
        {
          "internalType": "uint64",
          "name": "",
          "type": "uint64"
        }
      ],
      "stateMutability": "view",
      "type": "function"
    },
    {
      "inputs": [
        {
          "internalType": "uint32",
          "name": "destinationChainId",
          "type": "uint32"
        },
        {
          "internalType": "address",
          "name": "destinationAddress",
          "type": "address"
        },
        {
          "internalType": "bytes",
          "name": "data",
          "type": "bytes"
        }
      ],
      "name": "send",
      "outputs": [
        {
          "internalType": "bytes32",
          "name": "",
          "type": "bytes32"
        }
      ],
      "stateMutability": "nonpayable",
      "type": "function"
    },
    {
      "inputs": [
        {
          "internalType": "uint32",
          "name": "destinationChainId",
          "type": "uint32"
        },
        {
          "internalType": "bytes32",
          "name": "destinationAddress",
          "type": "bytes32"
        },
        {
          "internalType": "bytes",
          "name": "data",
          "type": "bytes"
        }
      ],
      "name": "send",
      "outputs": [
        {
          "internalType": "bytes32",
          "name": "",
          "type": "bytes32"
        }
      ],
      "stateMutability": "nonpayable",
      "type": "function"
    },
    {
      "inputs": [
        {
          "internalType": "uint32",
          "name": "destinationChainId",
          "type": "uint32"
        },
        {
          "internalType": "address",
          "name": "destinationAddress",
          "type": "address"
        },
        {
          "internalType": "bytes",
          "name": "data",
          "type": "bytes"
        }
      ],
      "name": "sendViaStorage",
      "outputs": [
        {
          "internalType": "bytes32",
          "name": "",
          "type": "bytes32"
        }
      ],
      "stateMutability": "nonpayable",
      "type": "function"
    },
    {
      "inputs": [
        {
          "internalType": "uint32",
          "name": "destinationChainId",
          "type": "uint32"
        },
        {
          "internalType": "bytes32",
          "name": "destinationAddress",
          "type": "bytes32"
        },
        {
          "internalType": "bytes",
          "name": "data",
          "type": "bytes"
        }
      ],
      "name": "sendViaStorage",
      "outputs": [
        {
          "internalType": "bytes32",
          "name": "",
          "type": "bytes32"
        }
      ],
      "stateMutability": "nonpayable",
      "type": "function"
    },
    {
      "inputs": [],
      "name": "sendingEnabled",
      "outputs": [
        {
          "internalType": "bool",
          "name": "",
          "type": "bool"
        }
      ],
      "stateMutability": "view",
      "type": "function"
    },
    {
      "inputs": [
        {
          "internalType": "uint256",
          "name": "",
          "type": "uint256"
        }
      ],
      "name": "sourceChainIds",
      "outputs": [
        {
          "internalType": "uint32",
          "name": "",
          "type": "uint32"
        }
      ],
      "stateMutability": "view",
      "type": "function"
    },
    {
      "inputs": [
        {
          "internalType": "bytes32",
          "name": "",
          "type": "bytes32"
        }
      ],
      "name": "storageRootCache",
      "outputs": [
        {
          "internalType": "bytes32",
          "name": "",
          "type": "bytes32"
        }
      ],
      "stateMutability": "view",
      "type": "function"
    },
    {
      "inputs": [],
      "name": "version",
      "outputs": [
        {
          "internalType": "uint8",
          "name": "",
          "type": "uint8"
        }
      ],
      "stateMutability": "view",
      "type": "function"
    }
  ],
  "bytecode": {
    "object": "0x608060405234801561001057600080fd5b506108e4806100206000396000f3fe608060405234801561001057600080fd5b50600436106100ea5760003560e01c806368346a921161008c5780638d080d1d116100665780638d080d1d146102545780639efeff1c14610274578063a96a2e921461029c578063affed0e0146102af57600080fd5b806368346a92146102055780636fdbccbf146102185780637599735c1461022b57600080fd5b80633c6cf473116100c85780633c6cf473146101685780633e99e9ce1461019857806354fd4d50146101a557806359f89787146101c457600080fd5b8063029d6713146100ef578063147bce491461012257806336ae7c1814610135575b600080fd5b61010f6100fd3660046105fb565b60016020526000908152604090205481565b6040519081526020015b60405180910390f35b61010f61013036600461068c565b6102da565b6101586101433660046106fa565b60066020526000908152604090205460ff1681565b6040519015158152602001610119565b61018b610176366004610715565b60076020526000908152604090205460ff1681565b604051610119919061072e565b6000546101589060ff1681565b6008546101b29060ff1681565b60405160ff9091168152602001610119565b6101ed6101d23660046106fa565b6005602052600090815260409020546001600160a01b031681565b6040516001600160a01b039091168152602001610119565b61010f61021336600461068c565b6103e0565b61010f610226366004610756565b610461565b6101ed6102393660046106fa565b6004602052600090815260409020546001600160a01b031681565b61010f610262366004610715565b60096020526000908152604090205481565b610287610282366004610715565b6104ba565b60405163ffffffff9091168152602001610119565b61010f6102aa366004610756565b6104f4565b6002546102c2906001600160401b031681565b6040516001600160401b039091168152602001610119565b6000805460ff166102fe57604051631492b62f60e11b815260040160405180910390fd5b468563ffffffff16036103245760405163b0747d8160e01b815260040160405180910390fd5b60008061033d876001600160a01b0388165b8787610549565b600280546001600160401b03908116600090815260016020526040812084905582549496509294508493169161037283610797565b91906101000a8154816001600160401b0302191690836001600160401b031602179055506001600160401b03167fe5944a34d67c652e0ebf2304b48432aae0b55e40f79ba8a21a4d7054c169ffac846040516103ce91906107ef565b60405180910390a39695505050505050565b6000805460ff1661040457604051631492b62f60e11b815260040160405180910390fd5b468563ffffffff160361042a5760405163b0747d8160e01b815260040160405180910390fd5b600080610440876001600160a01b038816610336565b6002805492945090925082916001600160401b031690600061037283610797565b6000805460ff1661048557604051631492b62f60e11b815260040160405180910390fd5b468563ffffffff16036104ab5760405163b0747d8160e01b815260040160405180910390fd5b60008061033d87878787610549565b600381815481106104ca57600080fd5b9060005260206000209060089182820401919006600402915054906101000a900463ffffffff1681565b6000805460ff1661051857604051631492b62f60e11b815260040160405180910390fd5b468563ffffffff160361053e5760405163b0747d8160e01b815260040160405180910390fd5b600080610440878787875b600854600254604080516020601f86018190048102820181019092528481526060936000936105ac9360ff909216926001600160401b0390911691469133918c918c918c908c90819084018382808284376000920191909152506105c092505050565b805160208201209097909650945050505050565b6060878787878787876040516020016105df9796959493929190610822565b6040516020818303038152906040529050979650505050505050565b60006020828403121561060d57600080fd5b81356001600160401b038116811461062457600080fd5b9392505050565b803563ffffffff8116811461063f57600080fd5b919050565b60008083601f84011261065657600080fd5b5081356001600160401b0381111561066d57600080fd5b60208301915083602082850101111561068557600080fd5b9250929050565b600080600080606085870312156106a257600080fd5b6106ab8561062b565b935060208501356001600160a01b03811681146106c757600080fd5b925060408501356001600160401b038111156106e257600080fd5b6106ee87828801610644565b95989497509550505050565b60006020828403121561070c57600080fd5b6106248261062b565b60006020828403121561072757600080fd5b5035919050565b602081016003831061075057634e487b7160e01b600052602160045260246000fd5b91905290565b6000806000806060858703121561076c57600080fd5b6107758561062b565b93506020850135925060408501356001600160401b038111156106e257600080fd5b60006001600160401b038083168181036107c157634e487b7160e01b600052601160045260246000fd5b6001019392505050565b60005b838110156107e65781810151838201526020016107ce565b50506000910152565b602081526000825180602084015261080e8160408501602087016107cb565b601f01601f19169190910160400192915050565b6001600160f81b031960f889901b1681526001600160c01b031960c088901b1660018201526001600160e01b031960e087811b821660098401526bffffffffffffffffffffffff19606088901b16600d84015285901b16602182015260258101839052815160009061089b8160458501602087016107cb565b919091016045019897505050505050505056fea2646970667358221220c55d27a2f7fa1e8ee8ea50b7be07b69395959c5dcf71ee86a979b17ae375333064736f6c63430008100033",
    "linkReferences": {}
  },
  "methodIdentifiers": {
    "broadcasters(uint32)": "59f89787",
    "frozen(uint32)": "36ae7c18",
    "lightClients(uint32)": "7599735c",
    "messageStatus(bytes32)": "3c6cf473",
    "messages(uint64)": "029d6713",
    "nonce()": "affed0e0",
    "send(uint32,address,bytes)": "68346a92",
    "send(uint32,bytes32,bytes)": "a96a2e92",
    "sendViaStorage(uint32,address,bytes)": "147bce49",
    "sendViaStorage(uint32,bytes32,bytes)": "6fdbccbf",
    "sendingEnabled()": "3e99e9ce",
    "sourceChainIds(uint256)": "9efeff1c",
    "storageRootCache(bytes32)": "8d080d1d",
    "version()": "54fd4d50"
  },
  "id": 99
}