{
  "abi": [
    {
      "inputs": [
        {
          "internalType": "address",
          "name": "_guardian",
          "type": "address"
        },
        {
          "internalType": "address",
          "name": "_emitter",
          "type": "address"
        }
      ],
      "stateMutability": "nonpayable",
      "type": "constructor"
    },
    {
      "anonymous": false,
      "inputs": [
        {
          "indexed": true,
          "internalType": "uint32",
          "name": "sourceChainId",
          "type": "uint32"
        },
        {
          "indexed": true,
          "internalType": "uint64",
          "name": "nonce",
          "type": "uint64"
        },
        {
          "indexed": true,
          "internalType": "bytes32",
          "name": "msgHash",
          "type": "bytes32"
        },
        {
          "indexed": false,
          "internalType": "bytes",
          "name": "message",
          "type": "bytes"
        },
        {
          "indexed": false,
          "internalType": "bool",
          "name": "status",
          "type": "bool"
        }
      ],
      "name": "ExecutedMessage",
      "type": "event"
    },
    {
      "anonymous": false,
      "inputs": [
        {
          "indexed": false,
          "internalType": "uint8",
          "name": "version",
          "type": "uint8"
        }
      ],
      "name": "Initialized",
      "type": "event"
    },
    {
      "inputs": [],
      "name": "MIN_LIGHT_CLIENT_DELAY",
      "outputs": [
        {
          "internalType": "uint256",
          "name": "",
          "type": "uint256"
        }
      ],
      "stateMutability": "view",
      "type": "function"
    },
    {
      "inputs": [
        {
          "internalType": "uint32",
          "name": "",
          "type": "uint32"
        }
      ],
      "name": "broadcasters",
      "outputs": [
        {
          "internalType": "address",
          "name": "",
          "type": "address"
        }
      ],
      "stateMutability": "view",
      "type": "function"
    },
    {
      "inputs": [
        {
          "internalType": "uint16",
          "name": "_chainId",
          "type": "uint16"
        },
        {
          "internalType": "uint64",
          "name": "_nonce",
          "type": "uint64"
        },
        {
          "internalType": "bytes32",
          "name": "_msgHash",
          "type": "bytes32"
        },
        {
          "internalType": "bytes",
          "name": "_message",
          "type": "bytes"
        },
        {
          "internalType": "bool",
          "name": "_status",
          "type": "bool"
        }
      ],
      "name": "emitFakeExecutedMessageEvent",
      "outputs": [],
      "stateMutability": "nonpayable",
      "type": "function"
    },
    {
      "inputs": [
        {
          "internalType": "uint64",
          "name": "slot",
          "type": "uint64"
        },
        {
          "internalType": "bytes",
          "name": "messageBytes",
          "type": "bytes"
        },
        {
          "internalType": "bytes[]",
          "name": "accountProof",
          "type": "bytes[]"
        },
        {
          "internalType": "bytes[]",
          "name": "storageProof",
          "type": "bytes[]"
        }
      ],
      "name": "executeMessage",
      "outputs": [],
      "stateMutability": "nonpayable",
      "type": "function"
    },
    {
      "inputs": [
        {
          "internalType": "bytes",
          "name": "srcSlotTxSlotPack",
          "type": "bytes"
        },
        {
          "internalType": "bytes",
          "name": "messageBytes",
          "type": "bytes"
        },
        {
          "internalType": "bytes32[]",
          "name": "receiptsRootProof",
          "type": "bytes32[]"
        },
        {
          "internalType": "bytes32",
          "name": "receiptsRoot",
          "type": "bytes32"
        },
        {
          "internalType": "bytes[]",
          "name": "receiptProof",
          "type": "bytes[]"
        },
        {
          "internalType": "bytes",
          "name": "txIndexRLPEncoded",
          "type": "bytes"
        },
        {
          "internalType": "uint256",
          "name": "logIndex",
          "type": "uint256"
        }
      ],
      "name": "executeMessageFromLog",
      "outputs": [],
      "stateMutability": "nonpayable",
      "type": "function"
    },
    {
      "inputs": [],
      "name": "freezeAll",
      "outputs": [],
      "stateMutability": "view",
      "type": "function"
    },
    {
      "inputs": [
        {
          "internalType": "uint32",
          "name": "",
          "type": "uint32"
        }
      ],
      "name": "frozen",
      "outputs": [
        {
          "internalType": "bool",
          "name": "",
          "type": "bool"
        }
      ],
      "stateMutability": "view",
      "type": "function"
    },
    {
      "inputs": [
        {
          "internalType": "uint32",
          "name": "",
          "type": "uint32"
        }
      ],
      "name": "lightClients",
      "outputs": [
        {
          "internalType": "contract ILightClient",
          "name": "",
          "type": "address"
        }
      ],
      "stateMutability": "view",
      "type": "function"
    },
    {
      "inputs": [
        {
          "internalType": "bytes32",
          "name": "",
          "type": "bytes32"
        }
      ],
      "name": "messageStatus",
      "outputs": [
        {
          "internalType": "enum MessageStatus",
          "name": "",
          "type": "uint8"
        }
      ],
      "stateMutability": "view",
      "type": "function"
    },
    {
      "inputs": [
        {
          "internalType": "uint64",
          "name": "",
          "type": "uint64"
        }
      ],
      "name": "messages",
      "outputs": [
        {
          "internalType": "bytes32",
          "name": "",
          "type": "bytes32"
        }
      ],
      "stateMutability": "view",
      "type": "function"
    },
    {
      "inputs": [],
      "name": "nonce",
      "outputs": [
        {
          "internalType": "uint64",
          "name": "",
          "type": "uint64"
        }
      ],
      "stateMutability": "view",
      "type": "function"
    },
    {
      "inputs": [],
      "name": "sendingEnabled",
      "outputs": [
        {
          "internalType": "bool",
          "name": "",
          "type": "bool"
        }
      ],
      "stateMutability": "view",
      "type": "function"
    },
    {
      "inputs": [
        {
          "internalType": "uint256",
          "name": "",
          "type": "uint256"
        }
      ],
      "name": "sourceChainIds",
      "outputs": [
        {
          "internalType": "uint32",
          "name": "",
          "type": "uint32"
        }
      ],
      "stateMutability": "view",
      "type": "function"
    },
    {
      "inputs": [],
      "name": "sourceChainIdsLength",
      "outputs": [
        {
          "internalType": "uint256",
          "name": "",
          "type": "uint256"
        }
      ],
      "stateMutability": "view",
      "type": "function"
    },
    {
      "inputs": [
        {
          "internalType": "bytes32",
          "name": "",
          "type": "bytes32"
        }
      ],
      "name": "storageRootCache",
      "outputs": [
        {
          "internalType": "bytes32",
          "name": "",
          "type": "bytes32"
        }
      ],
      "stateMutability": "view",
      "type": "function"
    },
    {
      "inputs": [],
      "name": "version",
      "outputs": [
        {
          "internalType": "uint8",
          "name": "",
          "type": "uint8"
        }
      ],
      "stateMutability": "view",
      "type": "function"
    }
  ],
  "bytecode": {
    "object": "0x60806040523480156200001157600080fd5b5060405162003fae38038062003fae833981016040819052620000349162000083565b606580546001600160a01b039384166001600160a01b03199182161790915560668054929093169116179055620000bb565b80516001600160a01b03811681146200007e57600080fd5b919050565b600080604083850312156200009757600080fd5b620000a28362000066565b9150620000b26020840162000066565b90509250929050565b613ee380620000cb6000396000f3fe608060405234801561001057600080fd5b50600436106101005760003560e01c80637599735c116100975780639efeff1c116100665780639efeff1c14610289578063affed0e0146102b1578063bd6a0134146102dc578063e4407b15146102ef57600080fd5b80637599735c146102255780637acc67541461024e5780638d080d1d1461026157806399464c891461028157600080fd5b80633e99e9ce116100d35780633e99e9ce146101b05780634552f563146101bd57806354fd4d50146101c557806359f89787146101e457600080fd5b8063029d67131461010557806336ae7c181461013857806337d5af841461016b5780633c6cf47314610180575b600080fd5b6101256101133660046135e9565b60016020526000908152604090205481565b6040519081526020015b60405180910390f35b61015b610146366004613604565b60066020526000908152604090205460ff1681565b604051901515815260200161012f565b61017e610179366004613764565b6102f7565b005b6101a361018e366004613861565b60076020526000908152604090205460ff1681565b60405161012f9190613890565b60005461015b9060ff1681565b600354610125565b6008546101d29060ff1681565b60405160ff909116815260200161012f565b61020d6101f2366004613604565b6005602052600090815260409020546001600160a01b031681565b6040516001600160a01b03909116815260200161012f565b61020d610233366004613604565b6004602052600090815260409020546001600160a01b031681565b61017e61025c3660046138b8565b6105ca565b61012561026f366004613861565b60096020526000908152604090205481565b61017e6108ed565b61029c610297366004613861565b610906565b60405163ffffffff909116815260200161012f565b6002546102c4906001600160401b031681565b6040516001600160401b03909116815260200161012f565b61017e6102ea366004613970565b610940565b610125607881565b6102ff6109a7565b60008061030c8b8b610a00565b9150915061031d8260400151610c6a565b61032a8260400151610d9c565b6000808e8e81019061033c91906139f5565b9150915061034e828560400151610df8565b60408481015163ffffffff166000908152600460208190528282205492516356f90d7960e01b81526001600160401b0386169181019190915290916001600160a01b0316906356f90d7990602401602060405180830381865afa1580156103b9573d6000803e3d6000fd5b505050506040513d601f19601f820116820180604052508101906103dd9190613a28565b9050806104295760405162461bcd60e51b8152602060048201526015602482015274486561646572526f6f74206973206d697373696e6760581b60448201526064015b60405180910390fd5b60006104728b8e8e80806020026020016040519081016040528093929190818152602001838360200280828437600092019190915250505060408a015186915088908890611031565b9050806104c15760405162461bcd60e51b815260206004820152601b60248201527f496e76616c696420726563656970747320726f6f742070726f6f6600000000006044820152606401610420565b5050505060006105268787906104d79190613a41565b60408086015163ffffffff166000908152600560205220548a90889088906001600160a01b03167fe5944a34d67c652e0ebf2304b48432aae0b55e40f79ba8a21a4d7054c169ffac60026112ad565b905081811461056f5760405162461bcd60e51b815260206004820152601560248201527424b73b30b634b21036b2b9b9b0b3b2903430b9b41760591b6044820152606401610420565b506105b182828d8d8080601f01602080910402602001604051908101604052809392919081815260200183838082843760009201919091525061166092505050565b50506105bd6001603355565b5050505050505050505050565b6105d26109a7565b6000806105df8888610a00565b915091506105f08260400151610c6a565b6105fd8260400151610d9c565b61060b898360400151610df8565b60408281015163ffffffff811660009081526005602090815283822054845160e09490941b6001600160e01b0319168483015260c08e901b6001600160c01b031916602485015260601b6bffffffffffffffffffffffff1916602c840152835180840382018152928401845282519281019290922080825260099092529182205482036107c25760408085015163ffffffff16600090815260046020819052828220549251637623ee2960e01b81526001600160401b038f169181019190915290916001600160a01b031690637623ee2990602401602060405180830381865afa1580156106fd573d6000803e3d6000fd5b505050506040513d601f19601f820116820180604052508101906107219190613a28565b905060008190036107745760405162461bcd60e51b815260206004820152601f60248201527f457865637574696f6e20537461746520526f6f74206973206e6f7420736574006044820152606401610420565b6107a8610781898b613a41565b60408088015163ffffffff166000908152600560205220546001600160a01b031683611807565b600083815260096020526040902081905592506107d49050565b60008181526009602052604090205491505b6000846020015160016040516020016108029291906001600160401b03929092168252602082015260400190565b60408051808303601f1901815282825280516020918201208184015281518084038201815292820190915281519101209050600061084a82856108458a8c613a41565b611903565b90508481146108935760405162461bcd60e51b815260206004820152601560248201527424b73b30b634b21036b2b9b9b0b3b2903430b9b41760591b6044820152606401610420565b505050506108d882828a8a8080601f01602080910402602001604051908101604052809392919081815260200183838082843760009201919091525061166092505050565b50506108e46001603355565b50505050505050565b6065546001600160a01b0316331461090457600080fd5b565b6003818154811061091657600080fd5b9060005260206000209060089182820401919006600402915054906101000a900463ffffffff1681565b6066546001600160a01b0316331461095757600080fd5b82846001600160401b03168661ffff167f1f26985f3389d5ee1e49b37cdef193b3e98c927d7dd8b6a1f9cddd17a1fe89478585604051610998929190613b14565b60405180910390a45050505050565b6002603354036109f95760405162461bcd60e51b815260206004820152601f60248201527f5265656e7472616e637947756172643a207265656e7472616e742063616c6c006044820152606401610420565b6002603355565b6040805160e08101825260008082526020820181905291810182905260608082018390526080820183905260a082019290925260c0810191909152600080610a7d85858080601f01602080910402602001604051908101604052809392919081815260200183838082843760009201919091525061199f92505050565b905060008585604051610a91929190613b38565b60405190819003902090506000808281526007602052604090205460ff166002811115610ac057610ac061387a565b14610b0d5760405162461bcd60e51b815260206004820152601960248201527f4d65737361676520616c72656164792065786563757465642e000000000000006044820152606401610420565b46826080015163ffffffff1614610b555760405162461bcd60e51b815260206004820152600c60248201526b2bb937b7339031b430b4b71760a11b6044820152606401610420565b600854825160ff908116911614610b9f5760405162461bcd60e51b815260206004820152600e60248201526d2bb937b733903b32b939b4b7b71760911b6044820152606401610420565b60408083015163ffffffff166000908152600460205220546001600160a01b03161580610bea575060408083015163ffffffff166000908152600560205220546001600160a01b0316155b15610c5d5760405162461bcd60e51b815260206004820152603760248201527f4c6967687420636c69656e74206f722062726f616463617374657220666f722060448201527f736f7572636520636861696e206973206e6f74207365740000000000000000006064820152608401610420565b90925090505b9250929050565b63ffffffff81166000908152600460205260409020546001600160a01b0316610cd05760405162461bcd60e51b81526020600482015260186024820152772634b3b43a1031b634b2b73a1034b9903737ba1039b2ba1760411b6044820152606401610420565b63ffffffff8116600090815260046020818152604092839020548351632bcccca560e01b815293516001600160a01b0390911693632bcccca5938181019392918290030181865afa158015610d29573d6000803e3d6000fd5b505050506040513d601f19601f82011682018060405250810190610d4d9190613b48565b610d995760405162461bcd60e51b815260206004820152601d60248201527f4c6967687420636c69656e7420697320696e636f6e73697374656e742e0000006044820152606401610420565b50565b63ffffffff811660009081526006602052604090205460ff1615610d995760405162461bcd60e51b815260206004820152601360248201527221b7b73a3930b1ba1034b990333937bd32b71760691b6044820152606401610420565b63ffffffff81166000908152600460205260409020546001600160a01b0316610e5e5760405162461bcd60e51b81526020600482015260186024820152772634b3b43a1031b634b2b73a1034b9903737ba1039b2ba1760411b6044820152606401610420565b63ffffffff8116600090815260046020819052604091829020549151638bc33af360e01b81526001600160401b038516918101919091526001600160a01b0390911690638bc33af390602401602060405180830381865afa158015610ec7573d6000803e3d6000fd5b505050506040513d601f19601f82011682018060405250810190610eeb9190613a28565b600003610f3a5760405162461bcd60e51b815260206004820152601e60248201527f54696d657374616d70206973206e6f742073657420666f7220736c6f742e00006044820152606401610420565b63ffffffff81166000908152600460208190526040808320549051638bc33af360e01b81526001600160401b038616928101929092526001600160a01b031690638bc33af390602401602060405180830381865afa158015610fa0573d6000803e3d6000fd5b505050506040513d601f19601f82011682018060405250810190610fc49190613a28565b610fce9042613b7b565b9050607881101561102c5760405162461bcd60e51b815260206004820152602260248201527f4d7573742077616974206c6f6e67657220746f20757365207468697320736c6f6044820152613a1760f11b6064820152608401610420565b505050565b60405163082b2af760e31b815263ffffffff82166004820152600090819073__$083586bac2d506cf8c8f15e692f942458b$__9063415957b890602401602060405180830381865af415801561108b573d6000803e3d6000fd5b505050506040513d601f19601f820116820180604052508101906110af9190613a28565b9050600081856001600160401b0316106110ca57601b6110cd565b60075b60ff169050600082866001600160401b031610611109576120006110fa846001600160401b038916613b7b565b6111049190613ba4565b61111e565b61111e6120006001600160401b038816613ba4565b90506000866001600160401b0316886001600160401b03160361115d5750600b61114a81610200613bb8565b61115690610183613bd7565b9050611292565b61200061116a888a613bea565b6001600160401b0316116111cc5750600b611186816020613bb8565b611191906006613bd7565b90506111a86120006001600160401b038916613c11565b6111b461200083613bb8565b6111be9190613bd7565b905061114a81610200613bb8565b876001600160401b0316876001600160401b0316101561124a5750600b826111f5826020613bb8565b6111ff9190613bd7565b905061120c816002613bb8565b611217906000613bd7565b905081611228630100000083613bb8565b6112329190613bd7565b905061123f816002613bb8565b611191906001613bd7565b60405162461bcd60e51b815260206004820152601e60248201527f546172676574414d423a20696e76616c69642074617267657420736c6f7400006044820152606401610420565b61129e8b828c8c611a64565b9b9a5050505050505050505050565b6000806112bb878a8a611a7e565b90506000816000815181106112d2576112d2613c25565b01602001516001600160f81b03191690506000600160f81b8214806113045750600160f91b6001600160f81b03198316145b1561131157506001611376565b600360fe1b6001600160f81b031983161061132e57506000611376565b60405162461bcd60e51b815260206004820152601c60248201527f556e737570706f72746564207472616e73616374696f6e2074797065000000006044820152606401610420565b6000602084019050600060405180604001604052808487516113989190613b7b565b81526020016113a78585613bd7565b9052905060006113b68261231e565b905080516004146114025760405162461bcd60e51b8152602060048201526016602482015275092dcecc2d8d2c840e4cac6cad2e0e840d8cadccee8d60531b6044820152606401610420565b60006114278260038151811061141a5761141a613c25565b602002602001015161231e565b905080518c106114795760405162461bcd60e51b815260206004820152601760248201527f4c6f6720696e646578206f7574206f6620626f756e64730000000000000000006044820152606401610420565b6000611490828e8151811061141a5761141a613c25565b905080516003146114ee5760405162461bcd60e51b815260206004820152602260248201527f4c6f672068617320696e636f7272656374206e756d626572206f66206669656c604482015261647360f01b6064820152608401610420565b60006115138260008151811061150657611506613c25565b6020026020010151612543565b90508c6001600160a01b0316816001600160a01b0316146115865760405162461bcd60e51b815260206004820152602760248201527f4576656e7420776173206e6f7420656d697474656420627920636c61696d656460448201526622b6b4ba3a32b960c91b6064820152608401610420565b600061159e8360018151811061141a5761141a613c25565b90508c6115c4826000815181106115b7576115b7613c25565b60200260200101516125b7565b146116275760405162461bcd60e51b815260206004820152602d60248201527f4576656e74207369676e617475726520646f6573206e6f74206d61746368206560448201526c76656e745369676e617475726560981b6064820152608401610420565b611649818d8151811061163c5761163c613c25565b60200260200101516125be565b9a5050505050505050505050979650505050505050565b600060606000633bdc60d660e01b866040015187606001518860c0015160405160240161168f93929190613c3b565b60408051601f198184030181529190526020810180516001600160e01b03166001600160e01b03199093169290921790915260a0870151909150806001600160a01b0316826040516116e19190613c6b565b6000604051808303816000865af19150503d806000811461171e576040519150601f19603f3d011682016040523d82523d6000602084013e611723565b606091505b50805191955093506000925060200390506117655760008280602001905181019061174e9190613c87565b6001600160e01b031916631dee306b60e11b149150505b82801561176f5750805b15611792576000858152600760205260409020805460ff191660021790556117ac565b6000858152600760205260409020805460ff191660011790555b8486602001516001600160401b0316876040015163ffffffff167f1f26985f3389d5ee1e49b37cdef193b3e98c927d7dd8b6a1f9cddd17a1fe894787876040516117f7929190613b14565b60405180910390a4505050505050565b6040516bffffffffffffffffffffffff19606084901b166020820152600090819060340160405160208183030381529060405280519060200120905060006118718260405160200161185b91815260200190565b6040516020818303038152906040528786611a7e565b905060008151116118bd5760405162461bcd60e51b81526020600482015260166024820152751058d8dbdd5b9d08191bd95cc81b9bdd08195e1a5cdd60521b6044820152606401610420565b60006118d06118cb836126c1565b61231e565b905080516004146118e057600080fd5b6118f6816002815181106115b7576115b7613c25565b93505050505b9392505050565b6000806119328560405160200161191c91815260200190565b6040516020818303038152906040528486611a7e565b905060008151116119855760405162461bcd60e51b815260206004820152601c60248201527f53746f726167652076616c756520646f6573206e6f74206578697374000000006044820152606401610420565b611996611991826126c1565b6125b7565b95945050505050565b6040805160e08101825260008082526020820181905291810182905260608082018390526080820183905260a082019290925260c081019190915260018201516009830151600d8401516021850151602586015160458088015160ff871688526001600160401b038616602089015263ffffffff80861660408a01526001600160a01b03851660608a01528316608089015260a0880181905288519091611a53918a9190611a4e908290613b7b565b612714565b60c088015250949695505050505050565b600080611a72868686612800565b90921495945050505050565b60606000845111611ac95760405162461bcd60e51b81526020600482015260156024820152744d65726b6c65547269653a20656d707479206b657960581b6044820152606401610420565b6000611ad48461298f565b90506000611ae186612a7d565b9050600084604051602001611af891815260200190565b60405160208183030381529060405290506000805b84518110156122c7576000858281518110611b2a57611b2a613c25565b602002602001015190508451831115611b9c5760405162461bcd60e51b815260206004820152602e60248201527f4d65726b6c65547269653a206b657920696e646578206578636565647320746f60448201526d0e8c2d840d6caf240d8cadccee8d60931b6064820152608401610420565b82600003611c3b5780518051602091820120604051611bea92611bc492910190815260200190565b604051602081830303815290604052858051602091820120825192909101919091201490565b611c365760405162461bcd60e51b815260206004820152601d60248201527f4d65726b6c65547269653a20696e76616c696420726f6f7420686173680000006044820152606401610420565b611d31565b805151602011611cc15780518051602091820120604051611c6592611bc492910190815260200190565b611c365760405162461bcd60e51b815260206004820152602760248201527f4d65726b6c65547269653a20696e76616c6964206c6172676520696e7465726e6044820152660c2d840d0c2e6d60cb1b6064820152608401610420565b805184516020808701919091208251919092012014611d315760405162461bcd60e51b815260206004820152602660248201527f4d65726b6c65547269653a20696e76616c696420696e7465726e616c206e6f646044820152650ca40d0c2e6d60d31b6064820152608401610420565b611d3d60106001613bd7565b81602001515103611eea5784518303611e82576000611d798260200151601081518110611d6c57611d6c613c25565b6020026020010151612b97565b90506000815111611df25760405162461bcd60e51b815260206004820152603b60248201527f4d65726b6c65547269653a2076616c7565206c656e677468206d75737420626560448201527f2067726561746572207468616e207a65726f20286272616e63682900000000006064820152608401610420565b60018751611e009190613b7b565b8314611e745760405162461bcd60e51b815260206004820152603a60248201527f4d65726b6c65547269653a2076616c7565206e6f6465206d757374206265206c60448201527f617374206e6f646520696e2070726f6f6620286272616e6368290000000000006064820152608401610420565b96506118fc95505050505050565b6000858481518110611e9657611e96613c25565b602001015160f81c60f81b60f81c9050600082602001518260ff1681518110611ec157611ec1613c25565b60200260200101519050611ed481612cba565b9550611ee1600186613bd7565b945050506122b4565b60028160200151510361225b576000611f0282612cdf565b9050600081600081518110611f1957611f19613c25565b016020015160f81c90506000611f30600283613cb1565b611f3b906002613cd3565b90506000611f4c848360ff16612d03565b90506000611f5a8a89612d03565b90506000611f688383612d39565b905080835114611fe05760405162461bcd60e51b815260206004820152603a60248201527f4d65726b6c65547269653a20706174682072656d61696e646572206d7573742060448201527f736861726520616c6c206e6962626c65732077697468206b65790000000000006064820152608401610420565b60ff851660021480611ff5575060ff85166003145b1561219b57808251146120705760405162461bcd60e51b815260206004820152603d60248201527f4d65726b6c65547269653a206b65792072656d61696e646572206d757374206260448201527f65206964656e746963616c20746f20706174682072656d61696e6465720000006064820152608401610420565b600061208c8860200151600181518110611d6c57611d6c613c25565b905060008151116121055760405162461bcd60e51b815260206004820152603960248201527f4d65726b6c65547269653a2076616c7565206c656e677468206d75737420626560448201527f2067726561746572207468616e207a65726f20286c65616629000000000000006064820152608401610420565b60018d516121139190613b7b565b89146121875760405162461bcd60e51b815260206004820152603860248201527f4d65726b6c65547269653a2076616c7565206e6f6465206d757374206265206c60448201527f617374206e6f646520696e2070726f6f6620286c6561662900000000000000006064820152608401610420565b9c506118fc9b505050505050505050505050565b60ff851615806121ae575060ff85166001145b156121ed576121da87602001516001815181106121cd576121cd613c25565b6020026020010151612cba565b99506121e6818a613bd7565b9850612250565b60405162461bcd60e51b815260206004820152603260248201527f4d65726b6c65547269653a2072656365697665642061206e6f64652077697468604482015271040c2dc40eadcd6dcdeeedc40e0e4caccd2f60731b6064820152608401610420565b5050505050506122b4565b60405162461bcd60e51b815260206004820152602860248201527f4d65726b6c65547269653a20726563656976656420616e20756e706172736561604482015267626c65206e6f646560c01b6064820152608401610420565b50806122bf81613cec565b915050611b0d565b5060405162461bcd60e51b815260206004820152602560248201527f4d65726b6c65547269653a2072616e206f7574206f662070726f6f6620656c656044820152646d656e747360d81b6064820152608401610420565b6060600080600061232e85612db8565b9194509250905060018160018111156123495761234961387a565b146123bc5760405162461bcd60e51b815260206004820152603860248201527f524c505265616465723a206465636f646564206974656d207479706520666f7260448201527f206c697374206973206e6f742061206c697374206974656d00000000000000006064820152608401610420565b84516123c88385613bd7565b146124305760405162461bcd60e51b815260206004820152603260248201527f524c505265616465723a206c697374206974656d2068617320616e20696e76616044820152713634b2103230ba30903932b6b0b4b73232b960711b6064820152608401610420565b6040805160208082526104208201909252600091816020015b60408051808201909152600080825260208201528152602001906001900390816124495790505090506000845b8751811015612537576000806124bc6040518060400160405280858d600001516124a09190613b7b565b8152602001858d602001516124b59190613bd7565b9052612db8565b5091509150604051806040016040528083836124d89190613bd7565b8152602001848c602001516124ed9190613bd7565b81525085858151811061250257612502613c25565b6020908102919091010152612518600185613bd7565b93506125248183613bd7565b61252e9084613bd7565b92505050612476565b50815295945050505050565b805160009060010361255757506000919050565b81516015146125a85760405162461bcd60e51b815260206004820152601a60248201527f496e76616c696420524c5020616464726573732076616c75652e0000000000006044820152606401610420565b6125b1826125b7565b92915050565b60006125b1825b60006021826000015111156126155760405162461bcd60e51b815260206004820152601a60248201527f496e76616c696420524c5020627974657333322076616c75652e0000000000006044820152606401610420565b600080600061262385612db8565b91945092509050600081600181111561263e5761263e61387a565b1461268b5760405162461bcd60e51b815260206004820152601a60248201527f496e76616c696420524c5020627974657333322076616c75652e0000000000006044820152606401610420565b600083866020015161269d9190613bd7565b805190915060208410156126b75760208490036101000a90045b9695505050505050565b604080518082019091526000808252602082015260008251116126f65760405162461bcd60e51b815260040161042090613d05565b50604080518082019091528151815260209182019181019190915290565b60608161272281601f613bd7565b10156127405760405162461bcd60e51b815260040161042090613d75565b61274a8284613bd7565b8451101561278e5760405162461bcd60e51b8152602060048201526011602482015270736c6963655f6f75744f66426f756e647360781b6044820152606401610420565b6060821580156127ad57604051915060008252602082016040526127f7565b6040519150601f8416801560200281840101858101878315602002848b0101015b818310156127e65780518352602092830192016127ce565b5050858452601f01601f1916604052505b50949350505050565b600082825160016128119190613bd7565b61281c906002613e81565b1161282657600080fd5b8360005b846001146127f75761283d600286613c11565b6001036128dc57600284828151811061285857612858613c25565b60200260200101518360405160200161287b929190918252602082015260400190565b60408051601f198184030181529082905261289591613c6b565b602060405180830381855afa1580156128b2573d6000803e3d6000fd5b5050506040513d601f19601f820116820180604052508101906128d59190613a28565b9150612970565b6002828583815181106128f1576128f1613c25565b6020026020010151604051602001612913929190918252602082015260400190565b60408051601f198184030181529082905261292d91613c6b565b602060405180830381855afa15801561294a573d6000803e3d6000fd5b5050506040513d601f19601f8201168201806040525081019061296d9190613a28565b91505b61297b600286613ba4565b94508061298781613cec565b91505061282a565b80516060906000816001600160401b038111156129ae576129ae6136af565b6040519080825280602002602001820160405280156129f357816020015b60408051808201909152606080825260208201528152602001906001900390816129cc5790505b50905060005b82811015612a75576040518060400160405280868381518110612a1e57612a1e613c25565b60200260200101518152602001612a4d878481518110612a4057612a40613c25565b602002602001015161347b565b815250828281518110612a6257612a62613c25565b60209081029190910101526001016129f9565b509392505050565b80516060906000612a8f826002613bb8565b6001600160401b03811115612aa657612aa66136af565b6040519080825280601f01601f191660200182016040528015612ad0576020820181803683370190505b5090506000805b83811015612b8d57858181518110612af157612af1613c25565b6020910101516001600160f81b03198116925060041c60ff60f41b1683612b19836002613bb8565b81518110612b2957612b29613c25565b60200101906001600160f81b031916908160001a905350600f60f81b821683612b53836002613bb8565b612b5e906001613bd7565b81518110612b6e57612b6e613c25565b60200101906001600160f81b031916908160001a905350600101612ad7565b5090949350505050565b60606000806000612ba785612db8565b919450925090506000816001811115612bc257612bc261387a565b14612c355760405162461bcd60e51b815260206004820152603960248201527f524c505265616465723a206465636f646564206974656d207479706520666f7260448201527f206279746573206973206e6f7420612064617461206974656d000000000000006064820152608401610420565b612c3f8284613bd7565b855114612cab5760405162461bcd60e51b815260206004820152603460248201527f524c505265616465723a2062797465732076616c756520636f6e7461696e732060448201527330b71034b73b30b634b2103932b6b0b4b73232b960611b6064820152608401610420565b61199685602001518484613489565b60606020826000015110612cd657612cd182612b97565b6125b1565b6125b182613529565b60606125b1612cfe8360200151600081518110611d6c57611d6c613c25565b612a7d565b606082518210612d2257506040805160208101909152600081526125b1565b6118fc8383848651612d349190613b7b565b61353f565b60008060008351855110612d4e578351612d51565b84515b90505b8082108015612da85750838281518110612d7057612d70613c25565b602001015160f81c60f81b6001600160f81b031916858381518110612d9757612d97613c25565b01602001516001600160f81b031916145b15612a7557816001019150612d54565b600080600080846000015111612de05760405162461bcd60e51b815260040161042090613d05565b6020840151805160001a607f8111612e05576000600160009450945094505050613474565b60b78111612f62576000612e1a608083613b7b565b905080876000015111612e9a5760405162461bcd60e51b815260206004820152604e6024820152600080516020613e8e83398151915260448201527f742062652067726561746572207468616e20737472696e67206c656e6774682060648201526d2873686f727420737472696e672960901b608482015260a401610420565b6001838101516001600160f81b0319169082141580612ec75750600160ff1b6001600160f81b0319821610155b612f4f5760405162461bcd60e51b815260206004820152604d60248201527f524c505265616465723a20696e76616c6964207072656669782c2073696e676c60448201527f652062797465203c203078383020617265206e6f74207072656669786564202860648201526c73686f727420737472696e672960981b608482015260a401610420565b5060019550935060009250613474915050565b60bf81116131a3576000612f7760b783613b7b565b905080876000015111612ffa5760405162461bcd60e51b81526020600482015260516024820152600080516020613e8e83398151915260448201527f74206265203e207468616e206c656e677468206f6620737472696e67206c656e60648201527067746820286c6f6e6720737472696e672960781b608482015260a401610420565b60018301516001600160f81b03191660008190036130815760405162461bcd60e51b815260206004820152604a6024820152600080516020613e8e83398151915260448201527f74206e6f74206861766520616e79206c656164696e67207a65726f7320286c6f6064820152696e6720737472696e672960b01b608482015260a401610420565b600184015160088302610100031c603781116131045760405162461bcd60e51b81526020600482015260486024820152600080516020613e8e83398151915260448201527f742062652067726561746572207468616e20353520627974657320286c6f6e6760648201526720737472696e672960c01b608482015260a401610420565b61310e8184613bd7565b8951116131865760405162461bcd60e51b815260206004820152604c6024820152600080516020613e8e83398151915260448201527f742062652067726561746572207468616e20746f74616c206c656e677468202860648201526b6c6f6e6720737472696e672960a01b608482015260a401610420565b613191836001613bd7565b97509550600094506134749350505050565b60f781116132455760006131b860c083613b7b565b9050808760000151116132345760405162461bcd60e51b815260206004820152604a6024820152600080516020613e8e83398151915260448201527f742062652067726561746572207468616e206c697374206c656e677468202873606482015269686f7274206c6973742960b01b608482015260a401610420565b600195509350849250613474915050565b600061325260f783613b7b565b9050808760000151116132d15760405162461bcd60e51b815260206004820152604d6024820152600080516020613e8e83398151915260448201527f74206265203e207468616e206c656e677468206f66206c697374206c656e677460648201526c6820286c6f6e67206c6973742960981b608482015260a401610420565b60018301516001600160f81b03191660008190036133565760405162461bcd60e51b81526020600482015260486024820152600080516020613e8e83398151915260448201527f74206e6f74206861766520616e79206c656164696e67207a65726f7320286c6f6064820152676e67206c6973742960c01b608482015260a401610420565b600184015160088302610100031c603781116133d75760405162461bcd60e51b81526020600482015260466024820152600080516020613e8e83398151915260448201527f742062652067726561746572207468616e20353520627974657320286c6f6e67606482015265206c6973742960d01b608482015260a401610420565b6133e18184613bd7565b8951116134575760405162461bcd60e51b815260206004820152604a6024820152600080516020613e8e83398151915260448201527f742062652067726561746572207468616e20746f74616c206c656e67746820286064820152696c6f6e67206c6973742960b01b608482015260a401610420565b613462836001613bd7565b97509550600194506134749350505050565b9193909250565b60606125b16118cb836126c1565b60606000826001600160401b038111156134a5576134a56136af565b6040519080825280601f01601f1916602001820160405280156134cf576020820181803683370190505b509050826000036134e15790506118fc565b60006134ed8587613bd7565b90506020820160005b8581101561350e5782810151828201526020016134f6565b8581111561351d576000868301525b50919695505050505050565b60606125b1826020015160008460000151613489565b60608182601f0110156135645760405162461bcd60e51b815260040161042090613d75565b8282840110156135865760405162461bcd60e51b815260040161042090613d75565b8183018451101561278e5760405162461bcd60e51b8152602060048201526011602482015270736c6963655f6f75744f66426f756e647360781b6044820152606401610420565b80356001600160401b03811681146135e457600080fd5b919050565b6000602082840312156135fb57600080fd5b6118fc826135cd565b60006020828403121561361657600080fd5b813563ffffffff811681146118fc57600080fd5b60008083601f84011261363c57600080fd5b5081356001600160401b0381111561365357600080fd5b602083019150836020828501011115610c6357600080fd5b60008083601f84011261367d57600080fd5b5081356001600160401b0381111561369457600080fd5b6020830191508360208260051b8501011115610c6357600080fd5b634e487b7160e01b600052604160045260246000fd5b604051601f8201601f191681016001600160401b03811182821017156136ed576136ed6136af565b604052919050565b600082601f83011261370657600080fd5b81356001600160401b0381111561371f5761371f6136af565b613732601f8201601f19166020016136c5565b81815284602083860101111561374757600080fd5b816020850160208301376000918101602001919091529392505050565b600080600080600080600080600080600060e08c8e03121561378557600080fd5b6001600160401b03808d35111561379b57600080fd5b6137a88e8e358f0161362a565b909c509a5060208d01358110156137be57600080fd5b6137ce8e60208f01358f0161362a565b909a50985060408d01358110156137e457600080fd5b6137f48e60408f01358f0161366b565b909850965060608d0135955060808d013581101561381157600080fd5b6138218e60808f01358f0161366b565b909550935060a08d013581101561383757600080fd5b506138488d60a08e01358e016136f5565b915060c08c013590509295989b509295989b9093969950565b60006020828403121561387357600080fd5b5035919050565b634e487b7160e01b600052602160045260246000fd5b60208101600383106138b257634e487b7160e01b600052602160045260246000fd5b91905290565b60008060008060008060006080888a0312156138d357600080fd5b6138dc886135cd565b965060208801356001600160401b03808211156138f857600080fd5b6139048b838c0161362a565b909850965060408a013591508082111561391d57600080fd5b6139298b838c0161366b565b909650945060608a013591508082111561394257600080fd5b5061394f8a828b0161366b565b989b979a50959850939692959293505050565b8015158114610d9957600080fd5b600080600080600060a0868803121561398857600080fd5b853561ffff8116811461399a57600080fd5b94506139a8602087016135cd565b93506040860135925060608601356001600160401b038111156139ca57600080fd5b6139d6888289016136f5565b92505060808601356139e781613962565b809150509295509295909350565b60008060408385031215613a0857600080fd5b613a11836135cd565b9150613a1f602084016135cd565b90509250929050565b600060208284031215613a3a57600080fd5b5051919050565b60006001600160401b0380841115613a5b57613a5b6136af565b8360051b6020613a6c8183016136c5565b868152918501918181019036841115613a8457600080fd5b865b84811015613ab857803586811115613a9e5760008081fd5b613aaa36828b016136f5565b845250918301918301613a86565b50979650505050505050565b60005b83811015613adf578181015183820152602001613ac7565b50506000910152565b60008151808452613b00816020860160208601613ac4565b601f01601f19169290920160200192915050565b604081526000613b276040830185613ae8565b905082151560208301529392505050565b8183823760009101908152919050565b600060208284031215613b5a57600080fd5b81516118fc81613962565b634e487b7160e01b600052601160045260246000fd5b818103818111156125b1576125b1613b65565b634e487b7160e01b600052601260045260246000fd5b600082613bb357613bb3613b8e565b500490565b6000816000190483118215151615613bd257613bd2613b65565b500290565b808201808211156125b1576125b1613b65565b6001600160401b03828116828216039080821115613c0a57613c0a613b65565b5092915050565b600082613c2057613c20613b8e565b500690565b634e487b7160e01b600052603260045260246000fd5b63ffffffff841681526001600160a01b038316602082015260606040820181905260009061199690830184613ae8565b60008251613c7d818460208701613ac4565b9190910192915050565b600060208284031215613c9957600080fd5b81516001600160e01b0319811681146118fc57600080fd5b600060ff831680613cc457613cc4613b8e565b8060ff84160691505092915050565b60ff82811682821603908111156125b1576125b1613b65565b600060018201613cfe57613cfe613b65565b5060010190565b6020808252604a908201527f524c505265616465723a206c656e677468206f6620616e20524c50206974656d60408201527f206d7573742062652067726561746572207468616e207a65726f20746f206265606082015269206465636f6461626c6560b01b608082015260a00190565b6020808252600e908201526d736c6963655f6f766572666c6f7760901b604082015260600190565b600181815b80851115613dd8578160001904821115613dbe57613dbe613b65565b80851615613dcb57918102915b93841c9390800290613da2565b509250929050565b600082613def575060016125b1565b81613dfc575060006125b1565b8160018114613e125760028114613e1c57613e38565b60019150506125b1565b60ff841115613e2d57613e2d613b65565b50506001821b6125b1565b5060208310610133831016604e8410600b8410161715613e5b575081810a6125b1565b613e658383613d9d565b8060001904821115613e7957613e79613b65565b029392505050565b60006118fc8383613de056fe524c505265616465723a206c656e677468206f6620636f6e74656e74206d7573a26469706673582212204d4990e12509e4c48efc701e947e64e5e407fb367cf36719c09908aab28dc2d964736f6c63430008100033",
    "linkReferences": {
      "src/libraries/BeaconChainForks.sol": {
        "BeaconChainForks": [
          {
            "start": 4380,
            "length": 20
          }
        ]
      }
    }
  },
  "methodIdentifiers": {
    "MIN_LIGHT_CLIENT_DELAY()": "e4407b15",
    "broadcasters(uint32)": "59f89787",
    "emitFakeExecutedMessageEvent(uint16,uint64,bytes32,bytes,bool)": "bd6a0134",
    "executeMessage(uint64,bytes,bytes[],bytes[])": "7acc6754",
    "executeMessageFromLog(bytes,bytes,bytes32[],bytes32,bytes[],bytes,uint256)": "37d5af84",
    "freezeAll()": "99464c89",
    "frozen(uint32)": "36ae7c18",
    "lightClients(uint32)": "7599735c",
    "messageStatus(bytes32)": "3c6cf473",
    "messages(uint64)": "029d6713",
    "nonce()": "affed0e0",
    "sendingEnabled()": "3e99e9ce",
    "sourceChainIds(uint256)": "9efeff1c",
    "sourceChainIdsLength()": "4552f563",
    "storageRootCache(bytes32)": "8d080d1d",
    "version()": "54fd4d50"
  },
  "id": 6
}