{
  "abi": [
    {
      "inputs": [
        {
          "internalType": "address",
          "name": "_guardian",
          "type": "address"
        },
        {
          "internalType": "address",
          "name": "_emitter",
          "type": "address"
        }
      ],
      "stateMutability": "nonpayable",
      "type": "constructor"
    },
    {
      "anonymous": false,
      "inputs": [
        {
          "indexed": true,
          "internalType": "uint32",
          "name": "sourceChainId",
          "type": "uint32"
        },
        {
          "indexed": true,
          "internalType": "uint64",
          "name": "nonce",
          "type": "uint64"
        },
        {
          "indexed": true,
          "internalType": "bytes32",
          "name": "msgHash",
          "type": "bytes32"
        },
        {
          "indexed": false,
          "internalType": "bytes",
          "name": "message",
          "type": "bytes"
        },
        {
          "indexed": false,
          "internalType": "bool",
          "name": "status",
          "type": "bool"
        }
      ],
      "name": "ExecutedMessage",
      "type": "event"
    },
    {
      "anonymous": false,
      "inputs": [
        {
          "indexed": false,
          "internalType": "uint8",
          "name": "version",
          "type": "uint8"
        }
      ],
      "name": "Initialized",
      "type": "event"
    },
    {
      "inputs": [],
      "name": "MIN_LIGHT_CLIENT_DELAY",
      "outputs": [
        {
          "internalType": "uint256",
          "name": "",
          "type": "uint256"
        }
      ],
      "stateMutability": "view",
      "type": "function"
    },
    {
      "inputs": [
        {
          "internalType": "uint32",
          "name": "",
          "type": "uint32"
        }
      ],
      "name": "broadcasters",
      "outputs": [
        {
          "internalType": "address",
          "name": "",
          "type": "address"
        }
      ],
      "stateMutability": "view",
      "type": "function"
    },
    {
      "inputs": [
        {
          "internalType": "uint16",
          "name": "_chainId",
          "type": "uint16"
        },
        {
          "internalType": "uint64",
          "name": "_nonce",
          "type": "uint64"
        },
        {
          "internalType": "bytes32",
          "name": "_msgHash",
          "type": "bytes32"
        },
        {
          "internalType": "bytes",
          "name": "_message",
          "type": "bytes"
        },
        {
          "internalType": "bool",
          "name": "_status",
          "type": "bool"
        }
      ],
      "name": "emitFakeExecutedMessageEvent",
      "outputs": [],
      "stateMutability": "nonpayable",
      "type": "function"
    },
    {
      "inputs": [
        {
          "internalType": "uint64",
          "name": "slot",
          "type": "uint64"
        },
        {
          "internalType": "bytes",
          "name": "messageBytes",
          "type": "bytes"
        },
        {
          "internalType": "bytes[]",
          "name": "accountProof",
          "type": "bytes[]"
        },
        {
          "internalType": "bytes[]",
          "name": "storageProof",
          "type": "bytes[]"
        }
      ],
      "name": "executeMessage",
      "outputs": [],
      "stateMutability": "nonpayable",
      "type": "function"
    },
    {
      "inputs": [
        {
          "internalType": "bytes",
          "name": "srcSlotTxSlotPack",
          "type": "bytes"
        },
        {
          "internalType": "bytes",
          "name": "messageBytes",
          "type": "bytes"
        },
        {
          "internalType": "bytes32[]",
          "name": "receiptsRootProof",
          "type": "bytes32[]"
        },
        {
          "internalType": "bytes32",
          "name": "receiptsRoot",
          "type": "bytes32"
        },
        {
          "internalType": "bytes[]",
          "name": "receiptProof",
          "type": "bytes[]"
        },
        {
          "internalType": "bytes",
          "name": "txIndexRLPEncoded",
          "type": "bytes"
        },
        {
          "internalType": "uint256",
          "name": "logIndex",
          "type": "uint256"
        }
      ],
      "name": "executeMessageFromLog",
      "outputs": [],
      "stateMutability": "nonpayable",
      "type": "function"
    },
    {
      "inputs": [],
      "name": "freezeAll",
      "outputs": [],
      "stateMutability": "view",
      "type": "function"
    },
    {
      "inputs": [
        {
          "internalType": "uint32",
          "name": "",
          "type": "uint32"
        }
      ],
      "name": "frozen",
      "outputs": [
        {
          "internalType": "bool",
          "name": "",
          "type": "bool"
        }
      ],
      "stateMutability": "view",
      "type": "function"
    },
    {
      "inputs": [
        {
          "internalType": "uint32",
          "name": "",
          "type": "uint32"
        }
      ],
      "name": "lightClients",
      "outputs": [
        {
          "internalType": "contract ILightClient",
          "name": "",
          "type": "address"
        }
      ],
      "stateMutability": "view",
      "type": "function"
    },
    {
      "inputs": [
        {
          "internalType": "bytes32",
          "name": "",
          "type": "bytes32"
        }
      ],
      "name": "messageStatus",
      "outputs": [
        {
          "internalType": "enum MessageStatus",
          "name": "",
          "type": "uint8"
        }
      ],
      "stateMutability": "view",
      "type": "function"
    },
    {
      "inputs": [
        {
          "internalType": "uint64",
          "name": "",
          "type": "uint64"
        }
      ],
      "name": "messages",
      "outputs": [
        {
          "internalType": "bytes32",
          "name": "",
          "type": "bytes32"
        }
      ],
      "stateMutability": "view",
      "type": "function"
    },
    {
      "inputs": [],
      "name": "nonce",
      "outputs": [
        {
          "internalType": "uint64",
          "name": "",
          "type": "uint64"
        }
      ],
      "stateMutability": "view",
      "type": "function"
    },
    {
      "inputs": [],
      "name": "sendingEnabled",
      "outputs": [
        {
          "internalType": "bool",
          "name": "",
          "type": "bool"
        }
      ],
      "stateMutability": "view",
      "type": "function"
    },
    {
      "inputs": [
        {
          "internalType": "uint256",
          "name": "",
          "type": "uint256"
        }
      ],
      "name": "sourceChainIds",
      "outputs": [
        {
          "internalType": "uint32",
          "name": "",
          "type": "uint32"
        }
      ],
      "stateMutability": "view",
      "type": "function"
    },
    {
      "inputs": [],
      "name": "sourceChainIdsLength",
      "outputs": [
        {
          "internalType": "uint256",
          "name": "",
          "type": "uint256"
        }
      ],
      "stateMutability": "view",
      "type": "function"
    },
    {
      "inputs": [
        {
          "internalType": "bytes32",
          "name": "",
          "type": "bytes32"
        }
      ],
      "name": "storageRootCache",
      "outputs": [
        {
          "internalType": "bytes32",
          "name": "",
          "type": "bytes32"
        }
      ],
      "stateMutability": "view",
      "type": "function"
    },
    {
      "inputs": [],
      "name": "version",
      "outputs": [
        {
          "internalType": "uint8",
          "name": "",
          "type": "uint8"
        }
      ],
      "stateMutability": "view",
      "type": "function"
    }
  ],
  "bytecode": {
    "object": "0x60806040523480156200001157600080fd5b5060405162003ed538038062003ed5833981016040819052620000349162000083565b606580546001600160a01b039384166001600160a01b03199182161790915560668054929093169116179055620000bb565b80516001600160a01b03811681146200007e57600080fd5b919050565b600080604083850312156200009757600080fd5b620000a28362000066565b9150620000b26020840162000066565b90509250929050565b613e0a80620000cb6000396000f3fe608060405234801561001057600080fd5b50600436106101005760003560e01c80637599735c116100975780639efeff1c116100665780639efeff1c14610289578063affed0e0146102b1578063bd6a0134146102dc578063e4407b15146102ef57600080fd5b80637599735c146102255780637acc67541461024e5780638d080d1d1461026157806399464c891461028157600080fd5b80633e99e9ce116100d35780633e99e9ce146101b05780634552f563146101bd57806354fd4d50146101c557806359f89787146101e457600080fd5b8063029d67131461010557806336ae7c181461013857806337d5af841461016b5780633c6cf47314610180575b600080fd5b610125610113366004613510565b60016020526000908152604090205481565b6040519081526020015b60405180910390f35b61015b61014636600461352b565b60066020526000908152604090205460ff1681565b604051901515815260200161012f565b61017e61017936600461368b565b6102f7565b005b6101a361018e366004613788565b60076020526000908152604090205460ff1681565b60405161012f91906137b7565b60005461015b9060ff1681565b600354610125565b6008546101d29060ff1681565b60405160ff909116815260200161012f565b61020d6101f236600461352b565b6005602052600090815260409020546001600160a01b031681565b6040516001600160a01b03909116815260200161012f565b61020d61023336600461352b565b6004602052600090815260409020546001600160a01b031681565b61017e61025c3660046137df565b6105c5565b61012561026f366004613788565b60096020526000908152604090205481565b61017e6108e8565b61029c610297366004613788565b610901565b60405163ffffffff909116815260200161012f565b6002546102c4906001600160401b031681565b6040516001600160401b03909116815260200161012f565b61017e6102ea366004613897565b61093b565b610125607881565b6102ff6109a2565b60008061030c8b8b6109fb565b9150915061031d8260400151610c65565b61032a8260400151610d97565b6000808e8e81019061033c919061391c565b9150915061034e828560400151610df3565b60408481015163ffffffff166000908152600460208190528282205492516356f90d7960e01b81526001600160401b0386169181019190915290916001600160a01b0316906356f90d7990602401602060405180830381865afa1580156103b9573d6000803e3d6000fd5b505050506040513d601f19601f820116820180604052508101906103dd919061394f565b9050806104295760405162461bcd60e51b8152602060048201526015602482015274486561646572526f6f74206973206d697373696e6760581b60448201526064015b60405180910390fd5b600061046d8b8e8e8080602002602001604051908101604052809392919081815260200183836020028082843760009201919091525087925089915088905061102c565b9050806104bc5760405162461bcd60e51b815260206004820152601b60248201527f496e76616c696420726563656970747320726f6f742070726f6f6600000000006044820152606401610420565b5050505060006105218787906104d29190613968565b60408086015163ffffffff166000908152600560205220548a90889088906001600160a01b03167fe5944a34d67c652e0ebf2304b48432aae0b55e40f79ba8a21a4d7054c169ffac60026111d4565b905081811461056a5760405162461bcd60e51b815260206004820152601560248201527424b73b30b634b21036b2b9b9b0b3b2903430b9b41760591b6044820152606401610420565b506105ac82828d8d8080601f01602080910402602001604051908101604052809392919081815260200183838082843760009201919091525061158792505050565b50506105b86001603355565b5050505050505050505050565b6105cd6109a2565b6000806105da88886109fb565b915091506105eb8260400151610c65565b6105f88260400151610d97565b610606898360400151610df3565b60408281015163ffffffff811660009081526005602090815283822054845160e09490941b6001600160e01b0319168483015260c08e901b6001600160c01b031916602485015260601b6bffffffffffffffffffffffff1916602c840152835180840382018152928401845282519281019290922080825260099092529182205482036107bd5760408085015163ffffffff16600090815260046020819052828220549251637623ee2960e01b81526001600160401b038f169181019190915290916001600160a01b031690637623ee2990602401602060405180830381865afa1580156106f8573d6000803e3d6000fd5b505050506040513d601f19601f8201168201806040525081019061071c919061394f565b9050600081900361076f5760405162461bcd60e51b815260206004820152601f60248201527f457865637574696f6e20537461746520526f6f74206973206e6f7420736574006044820152606401610420565b6107a361077c898b613968565b60408088015163ffffffff166000908152600560205220546001600160a01b03168361172e565b600083815260096020526040902081905592506107cf9050565b60008181526009602052604090205491505b6000846020015160016040516020016107fd9291906001600160401b03929092168252602082015260400190565b60408051808303601f1901815282825280516020918201208184015281518084038201815292820190915281519101209050600061084582856108408a8c613968565b61182a565b905084811461088e5760405162461bcd60e51b815260206004820152601560248201527424b73b30b634b21036b2b9b9b0b3b2903430b9b41760591b6044820152606401610420565b505050506108d382828a8a8080601f01602080910402602001604051908101604052809392919081815260200183838082843760009201919091525061158792505050565b50506108df6001603355565b50505050505050565b6065546001600160a01b031633146108ff57600080fd5b565b6003818154811061091157600080fd5b9060005260206000209060089182820401919006600402915054906101000a900463ffffffff1681565b6066546001600160a01b0316331461095257600080fd5b82846001600160401b03168661ffff167f1f26985f3389d5ee1e49b37cdef193b3e98c927d7dd8b6a1f9cddd17a1fe89478585604051610993929190613a3b565b60405180910390a45050505050565b6002603354036109f45760405162461bcd60e51b815260206004820152601f60248201527f5265656e7472616e637947756172643a207265656e7472616e742063616c6c006044820152606401610420565b6002603355565b6040805160e08101825260008082526020820181905291810182905260608082018390526080820183905260a082019290925260c0810191909152600080610a7885858080601f0160208091040260200160405190810160405280939291908181526020018383808284376000920191909152506118c692505050565b905060008585604051610a8c929190613a5f565b60405190819003902090506000808281526007602052604090205460ff166002811115610abb57610abb6137a1565b14610b085760405162461bcd60e51b815260206004820152601960248201527f4d65737361676520616c72656164792065786563757465642e000000000000006044820152606401610420565b46826080015163ffffffff1614610b505760405162461bcd60e51b815260206004820152600c60248201526b2bb937b7339031b430b4b71760a11b6044820152606401610420565b600854825160ff908116911614610b9a5760405162461bcd60e51b815260206004820152600e60248201526d2bb937b733903b32b939b4b7b71760911b6044820152606401610420565b60408083015163ffffffff166000908152600460205220546001600160a01b03161580610be5575060408083015163ffffffff166000908152600560205220546001600160a01b0316155b15610c585760405162461bcd60e51b815260206004820152603760248201527f4c6967687420636c69656e74206f722062726f616463617374657220666f722060448201527f736f7572636520636861696e206973206e6f74207365740000000000000000006064820152608401610420565b90925090505b9250929050565b63ffffffff81166000908152600460205260409020546001600160a01b0316610ccb5760405162461bcd60e51b81526020600482015260186024820152772634b3b43a1031b634b2b73a1034b9903737ba1039b2ba1760411b6044820152606401610420565b63ffffffff8116600090815260046020818152604092839020548351632bcccca560e01b815293516001600160a01b0390911693632bcccca5938181019392918290030181865afa158015610d24573d6000803e3d6000fd5b505050506040513d601f19601f82011682018060405250810190610d489190613a6f565b610d945760405162461bcd60e51b815260206004820152601d60248201527f4c6967687420636c69656e7420697320696e636f6e73697374656e742e0000006044820152606401610420565b50565b63ffffffff811660009081526006602052604090205460ff1615610d945760405162461bcd60e51b815260206004820152601360248201527221b7b73a3930b1ba1034b990333937bd32b71760691b6044820152606401610420565b63ffffffff81166000908152600460205260409020546001600160a01b0316610e595760405162461bcd60e51b81526020600482015260186024820152772634b3b43a1031b634b2b73a1034b9903737ba1039b2ba1760411b6044820152606401610420565b63ffffffff8116600090815260046020819052604091829020549151638bc33af360e01b81526001600160401b038516918101919091526001600160a01b0390911690638bc33af390602401602060405180830381865afa158015610ec2573d6000803e3d6000fd5b505050506040513d601f19601f82011682018060405250810190610ee6919061394f565b600003610f355760405162461bcd60e51b815260206004820152601e60248201527f54696d657374616d70206973206e6f742073657420666f7220736c6f742e00006044820152606401610420565b63ffffffff81166000908152600460208190526040808320549051638bc33af360e01b81526001600160401b038616928101929092526001600160a01b031690638bc33af390602401602060405180830381865afa158015610f9b573d6000803e3d6000fd5b505050506040513d601f19601f82011682018060405250810190610fbf919061394f565b610fc99042613aa2565b905060788110156110275760405162461bcd60e51b815260206004820152602260248201527f4d7573742077616974206c6f6e67657220746f20757365207468697320736c6f6044820152613a1760f11b6064820152608401610420565b505050565b600080826001600160401b0316846001600160401b03160361106a5750600b61105781610200613ab5565b61106390610183613ad4565b90506111bd565b6120006110778486613ae7565b6001600160401b0316116110d95750600b611093816020613ab5565b61109e906006613ad4565b90506110b56120006001600160401b038516613b24565b6110c161200083613ab5565b6110cb9190613ad4565b905061105781610200613ab5565b836001600160401b0316836001600160401b0316101561116b5750600b611101816020613ab5565b61110c906007613ad4565b9050611119816002613ab5565b611124906000613ad4565b905061113b6120006001600160401b038516613b38565b611149630100000083613ab5565b6111539190613ad4565b9050611160816002613ab5565b61109e906001613ad4565b60405162461bcd60e51b815260206004820152602160248201527f54727573746c657373414d423a20696e76616c69642074617267657420736c6f6044820152601d60fa1b6064820152608401610420565b6111c98782888861198b565b979650505050505050565b6000806111e2878a8a6119a5565b90506000816000815181106111f9576111f9613b4c565b01602001516001600160f81b03191690506000600160f81b82148061122b5750600160f91b6001600160f81b03198316145b156112385750600161129d565b600360fe1b6001600160f81b03198316106112555750600061129d565b60405162461bcd60e51b815260206004820152601c60248201527f556e737570706f72746564207472616e73616374696f6e2074797065000000006044820152606401610420565b6000602084019050600060405180604001604052808487516112bf9190613aa2565b81526020016112ce8585613ad4565b9052905060006112dd82612245565b905080516004146113295760405162461bcd60e51b8152602060048201526016602482015275092dcecc2d8d2c840e4cac6cad2e0e840d8cadccee8d60531b6044820152606401610420565b600061134e8260038151811061134157611341613b4c565b6020026020010151612245565b905080518c106113a05760405162461bcd60e51b815260206004820152601760248201527f4c6f6720696e646578206f7574206f6620626f756e64730000000000000000006044820152606401610420565b60006113b7828e8151811061134157611341613b4c565b905080516003146114155760405162461bcd60e51b815260206004820152602260248201527f4c6f672068617320696e636f7272656374206e756d626572206f66206669656c604482015261647360f01b6064820152608401610420565b600061143a8260008151811061142d5761142d613b4c565b602002602001015161246a565b90508c6001600160a01b0316816001600160a01b0316146114ad5760405162461bcd60e51b815260206004820152602760248201527f4576656e7420776173206e6f7420656d697474656420627920636c61696d656460448201526622b6b4ba3a32b960c91b6064820152608401610420565b60006114c58360018151811061134157611341613b4c565b90508c6114eb826000815181106114de576114de613b4c565b60200260200101516124de565b1461154e5760405162461bcd60e51b815260206004820152602d60248201527f4576656e74207369676e617475726520646f6573206e6f74206d61746368206560448201526c76656e745369676e617475726560981b6064820152608401610420565b611570818d8151811061156357611563613b4c565b60200260200101516124e5565b9a5050505050505050505050979650505050505050565b600060606000633bdc60d660e01b866040015187606001518860c001516040516024016115b693929190613b62565b60408051601f198184030181529190526020810180516001600160e01b03166001600160e01b03199093169290921790915260a0870151909150806001600160a01b0316826040516116089190613b92565b6000604051808303816000865af19150503d8060008114611645576040519150601f19603f3d011682016040523d82523d6000602084013e61164a565b606091505b508051919550935060009250602003905061168c576000828060200190518101906116759190613bae565b6001600160e01b031916631dee306b60e11b149150505b8280156116965750805b156116b9576000858152600760205260409020805460ff191660021790556116d3565b6000858152600760205260409020805460ff191660011790555b8486602001516001600160401b0316876040015163ffffffff167f1f26985f3389d5ee1e49b37cdef193b3e98c927d7dd8b6a1f9cddd17a1fe8947878760405161171e929190613a3b565b60405180910390a4505050505050565b6040516bffffffffffffffffffffffff19606084901b166020820152600090819060340160405160208183030381529060405280519060200120905060006117988260405160200161178291815260200190565b60405160208183030381529060405287866119a5565b905060008151116117e45760405162461bcd60e51b81526020600482015260166024820152751058d8dbdd5b9d08191bd95cc81b9bdd08195e1a5cdd60521b6044820152606401610420565b60006117f76117f2836125e8565b612245565b9050805160041461180757600080fd5b61181d816002815181106114de576114de613b4c565b93505050505b9392505050565b6000806118598560405160200161184391815260200190565b60405160208183030381529060405284866119a5565b905060008151116118ac5760405162461bcd60e51b815260206004820152601c60248201527f53746f726167652076616c756520646f6573206e6f74206578697374000000006044820152606401610420565b6118bd6118b8826125e8565b6124de565b95945050505050565b6040805160e08101825260008082526020820181905291810182905260608082018390526080820183905260a082019290925260c081019190915260018201516009830151600d8401516021850151602586015160458088015160ff871688526001600160401b038616602089015263ffffffff80861660408a01526001600160a01b03851660608a01528316608089015260a088018190528851909161197a918a9190611975908290613aa2565b61263b565b60c088015250949695505050505050565b600080611999868686612727565b90921495945050505050565b606060008451116119f05760405162461bcd60e51b81526020600482015260156024820152744d65726b6c65547269653a20656d707479206b657960581b6044820152606401610420565b60006119fb846128b6565b90506000611a08866129a4565b9050600084604051602001611a1f91815260200190565b60405160208183030381529060405290506000805b84518110156121ee576000858281518110611a5157611a51613b4c565b602002602001015190508451831115611ac35760405162461bcd60e51b815260206004820152602e60248201527f4d65726b6c65547269653a206b657920696e646578206578636565647320746f60448201526d0e8c2d840d6caf240d8cadccee8d60931b6064820152608401610420565b82600003611b625780518051602091820120604051611b1192611aeb92910190815260200190565b604051602081830303815290604052858051602091820120825192909101919091201490565b611b5d5760405162461bcd60e51b815260206004820152601d60248201527f4d65726b6c65547269653a20696e76616c696420726f6f7420686173680000006044820152606401610420565b611c58565b805151602011611be85780518051602091820120604051611b8c92611aeb92910190815260200190565b611b5d5760405162461bcd60e51b815260206004820152602760248201527f4d65726b6c65547269653a20696e76616c6964206c6172676520696e7465726e6044820152660c2d840d0c2e6d60cb1b6064820152608401610420565b805184516020808701919091208251919092012014611c585760405162461bcd60e51b815260206004820152602660248201527f4d65726b6c65547269653a20696e76616c696420696e7465726e616c206e6f646044820152650ca40d0c2e6d60d31b6064820152608401610420565b611c6460106001613ad4565b81602001515103611e115784518303611da9576000611ca08260200151601081518110611c9357611c93613b4c565b6020026020010151612abe565b90506000815111611d195760405162461bcd60e51b815260206004820152603b60248201527f4d65726b6c65547269653a2076616c7565206c656e677468206d75737420626560448201527f2067726561746572207468616e207a65726f20286272616e63682900000000006064820152608401610420565b60018751611d279190613aa2565b8314611d9b5760405162461bcd60e51b815260206004820152603a60248201527f4d65726b6c65547269653a2076616c7565206e6f6465206d757374206265206c60448201527f617374206e6f646520696e2070726f6f6620286272616e6368290000000000006064820152608401610420565b965061182395505050505050565b6000858481518110611dbd57611dbd613b4c565b602001015160f81c60f81b60f81c9050600082602001518260ff1681518110611de857611de8613b4c565b60200260200101519050611dfb81612be1565b9550611e08600186613ad4565b945050506121db565b600281602001515103612182576000611e2982612c06565b9050600081600081518110611e4057611e40613b4c565b016020015160f81c90506000611e57600283613bd8565b611e62906002613bfa565b90506000611e73848360ff16612c2a565b90506000611e818a89612c2a565b90506000611e8f8383612c60565b905080835114611f075760405162461bcd60e51b815260206004820152603a60248201527f4d65726b6c65547269653a20706174682072656d61696e646572206d7573742060448201527f736861726520616c6c206e6962626c65732077697468206b65790000000000006064820152608401610420565b60ff851660021480611f1c575060ff85166003145b156120c25780825114611f975760405162461bcd60e51b815260206004820152603d60248201527f4d65726b6c65547269653a206b65792072656d61696e646572206d757374206260448201527f65206964656e746963616c20746f20706174682072656d61696e6465720000006064820152608401610420565b6000611fb38860200151600181518110611c9357611c93613b4c565b9050600081511161202c5760405162461bcd60e51b815260206004820152603960248201527f4d65726b6c65547269653a2076616c7565206c656e677468206d75737420626560448201527f2067726561746572207468616e207a65726f20286c65616629000000000000006064820152608401610420565b60018d5161203a9190613aa2565b89146120ae5760405162461bcd60e51b815260206004820152603860248201527f4d65726b6c65547269653a2076616c7565206e6f6465206d757374206265206c60448201527f617374206e6f646520696e2070726f6f6620286c6561662900000000000000006064820152608401610420565b9c506118239b505050505050505050505050565b60ff851615806120d5575060ff85166001145b156121145761210187602001516001815181106120f4576120f4613b4c565b6020026020010151612be1565b995061210d818a613ad4565b9850612177565b60405162461bcd60e51b815260206004820152603260248201527f4d65726b6c65547269653a2072656365697665642061206e6f64652077697468604482015271040c2dc40eadcd6dcdeeedc40e0e4caccd2f60731b6064820152608401610420565b5050505050506121db565b60405162461bcd60e51b815260206004820152602860248201527f4d65726b6c65547269653a20726563656976656420616e20756e706172736561604482015267626c65206e6f646560c01b6064820152608401610420565b50806121e681613c13565b915050611a34565b5060405162461bcd60e51b815260206004820152602560248201527f4d65726b6c65547269653a2072616e206f7574206f662070726f6f6620656c656044820152646d656e747360d81b6064820152608401610420565b6060600080600061225585612cdf565b919450925090506001816001811115612270576122706137a1565b146122e35760405162461bcd60e51b815260206004820152603860248201527f524c505265616465723a206465636f646564206974656d207479706520666f7260448201527f206c697374206973206e6f742061206c697374206974656d00000000000000006064820152608401610420565b84516122ef8385613ad4565b146123575760405162461bcd60e51b815260206004820152603260248201527f524c505265616465723a206c697374206974656d2068617320616e20696e76616044820152713634b2103230ba30903932b6b0b4b73232b960711b6064820152608401610420565b6040805160208082526104208201909252600091816020015b60408051808201909152600080825260208201528152602001906001900390816123705790505090506000845b875181101561245e576000806123e36040518060400160405280858d600001516123c79190613aa2565b8152602001858d602001516123dc9190613ad4565b9052612cdf565b5091509150604051806040016040528083836123ff9190613ad4565b8152602001848c602001516124149190613ad4565b81525085858151811061242957612429613b4c565b602090810291909101015261243f600185613ad4565b935061244b8183613ad4565b6124559084613ad4565b9250505061239d565b50815295945050505050565b805160009060010361247e57506000919050565b81516015146124cf5760405162461bcd60e51b815260206004820152601a60248201527f496e76616c696420524c5020616464726573732076616c75652e0000000000006044820152606401610420565b6124d8826124de565b92915050565b60006124d8825b600060218260000151111561253c5760405162461bcd60e51b815260206004820152601a60248201527f496e76616c696420524c5020627974657333322076616c75652e0000000000006044820152606401610420565b600080600061254a85612cdf565b919450925090506000816001811115612565576125656137a1565b146125b25760405162461bcd60e51b815260206004820152601a60248201527f496e76616c696420524c5020627974657333322076616c75652e0000000000006044820152606401610420565b60008386602001516125c49190613ad4565b805190915060208410156125de5760208490036101000a90045b9695505050505050565b6040805180820190915260008082526020820152600082511161261d5760405162461bcd60e51b815260040161042090613c2c565b50604080518082019091528151815260209182019181019190915290565b60608161264981601f613ad4565b10156126675760405162461bcd60e51b815260040161042090613c9c565b6126718284613ad4565b845110156126b55760405162461bcd60e51b8152602060048201526011602482015270736c6963655f6f75744f66426f756e647360781b6044820152606401610420565b6060821580156126d4576040519150600082526020820160405261271e565b6040519150601f8416801560200281840101858101878315602002848b0101015b8183101561270d5780518352602092830192016126f5565b5050858452601f01601f1916604052505b50949350505050565b600082825160016127389190613ad4565b612743906002613da8565b1161274d57600080fd5b8360005b8460011461271e57612764600286613b24565b60010361280357600284828151811061277f5761277f613b4c565b6020026020010151836040516020016127a2929190918252602082015260400190565b60408051601f19818403018152908290526127bc91613b92565b602060405180830381855afa1580156127d9573d6000803e3d6000fd5b5050506040513d601f19601f820116820180604052508101906127fc919061394f565b9150612897565b60028285838151811061281857612818613b4c565b602002602001015160405160200161283a929190918252602082015260400190565b60408051601f198184030181529082905261285491613b92565b602060405180830381855afa158015612871573d6000803e3d6000fd5b5050506040513d601f19601f82011682018060405250810190612894919061394f565b91505b6128a2600286613b38565b9450806128ae81613c13565b915050612751565b80516060906000816001600160401b038111156128d5576128d56135d6565b60405190808252806020026020018201604052801561291a57816020015b60408051808201909152606080825260208201528152602001906001900390816128f35790505b50905060005b8281101561299c57604051806040016040528086838151811061294557612945613b4c565b6020026020010151815260200161297487848151811061296757612967613b4c565b60200260200101516133a2565b81525082828151811061298957612989613b4c565b6020908102919091010152600101612920565b509392505050565b805160609060006129b6826002613ab5565b6001600160401b038111156129cd576129cd6135d6565b6040519080825280601f01601f1916602001820160405280156129f7576020820181803683370190505b5090506000805b83811015612ab457858181518110612a1857612a18613b4c565b6020910101516001600160f81b03198116925060041c60ff60f41b1683612a40836002613ab5565b81518110612a5057612a50613b4c565b60200101906001600160f81b031916908160001a905350600f60f81b821683612a7a836002613ab5565b612a85906001613ad4565b81518110612a9557612a95613b4c565b60200101906001600160f81b031916908160001a9053506001016129fe565b5090949350505050565b60606000806000612ace85612cdf565b919450925090506000816001811115612ae957612ae96137a1565b14612b5c5760405162461bcd60e51b815260206004820152603960248201527f524c505265616465723a206465636f646564206974656d207479706520666f7260448201527f206279746573206973206e6f7420612064617461206974656d000000000000006064820152608401610420565b612b668284613ad4565b855114612bd25760405162461bcd60e51b815260206004820152603460248201527f524c505265616465723a2062797465732076616c756520636f6e7461696e732060448201527330b71034b73b30b634b2103932b6b0b4b73232b960611b6064820152608401610420565b6118bd856020015184846133b0565b60606020826000015110612bfd57612bf882612abe565b6124d8565b6124d882613450565b60606124d8612c258360200151600081518110611c9357611c93613b4c565b6129a4565b606082518210612c4957506040805160208101909152600081526124d8565b6118238383848651612c5b9190613aa2565b613466565b60008060008351855110612c75578351612c78565b84515b90505b8082108015612ccf5750838281518110612c9757612c97613b4c565b602001015160f81c60f81b6001600160f81b031916858381518110612cbe57612cbe613b4c565b01602001516001600160f81b031916145b1561299c57816001019150612c7b565b600080600080846000015111612d075760405162461bcd60e51b815260040161042090613c2c565b6020840151805160001a607f8111612d2c57600060016000945094509450505061339b565b60b78111612e89576000612d41608083613aa2565b905080876000015111612dc15760405162461bcd60e51b815260206004820152604e6024820152600080516020613db583398151915260448201527f742062652067726561746572207468616e20737472696e67206c656e6774682060648201526d2873686f727420737472696e672960901b608482015260a401610420565b6001838101516001600160f81b0319169082141580612dee5750600160ff1b6001600160f81b0319821610155b612e765760405162461bcd60e51b815260206004820152604d60248201527f524c505265616465723a20696e76616c6964207072656669782c2073696e676c60448201527f652062797465203c203078383020617265206e6f74207072656669786564202860648201526c73686f727420737472696e672960981b608482015260a401610420565b506001955093506000925061339b915050565b60bf81116130ca576000612e9e60b783613aa2565b905080876000015111612f215760405162461bcd60e51b81526020600482015260516024820152600080516020613db583398151915260448201527f74206265203e207468616e206c656e677468206f6620737472696e67206c656e60648201527067746820286c6f6e6720737472696e672960781b608482015260a401610420565b60018301516001600160f81b0319166000819003612fa85760405162461bcd60e51b815260206004820152604a6024820152600080516020613db583398151915260448201527f74206e6f74206861766520616e79206c656164696e67207a65726f7320286c6f6064820152696e6720737472696e672960b01b608482015260a401610420565b600184015160088302610100031c6037811161302b5760405162461bcd60e51b81526020600482015260486024820152600080516020613db583398151915260448201527f742062652067726561746572207468616e20353520627974657320286c6f6e6760648201526720737472696e672960c01b608482015260a401610420565b6130358184613ad4565b8951116130ad5760405162461bcd60e51b815260206004820152604c6024820152600080516020613db583398151915260448201527f742062652067726561746572207468616e20746f74616c206c656e677468202860648201526b6c6f6e6720737472696e672960a01b608482015260a401610420565b6130b8836001613ad4565b975095506000945061339b9350505050565b60f7811161316c5760006130df60c083613aa2565b90508087600001511161315b5760405162461bcd60e51b815260206004820152604a6024820152600080516020613db583398151915260448201527f742062652067726561746572207468616e206c697374206c656e677468202873606482015269686f7274206c6973742960b01b608482015260a401610420565b60019550935084925061339b915050565b600061317960f783613aa2565b9050808760000151116131f85760405162461bcd60e51b815260206004820152604d6024820152600080516020613db583398151915260448201527f74206265203e207468616e206c656e677468206f66206c697374206c656e677460648201526c6820286c6f6e67206c6973742960981b608482015260a401610420565b60018301516001600160f81b031916600081900361327d5760405162461bcd60e51b81526020600482015260486024820152600080516020613db583398151915260448201527f74206e6f74206861766520616e79206c656164696e67207a65726f7320286c6f6064820152676e67206c6973742960c01b608482015260a401610420565b600184015160088302610100031c603781116132fe5760405162461bcd60e51b81526020600482015260466024820152600080516020613db583398151915260448201527f742062652067726561746572207468616e20353520627974657320286c6f6e67606482015265206c6973742960d01b608482015260a401610420565b6133088184613ad4565b89511161337e5760405162461bcd60e51b815260206004820152604a6024820152600080516020613db583398151915260448201527f742062652067726561746572207468616e20746f74616c206c656e67746820286064820152696c6f6e67206c6973742960b01b608482015260a401610420565b613389836001613ad4565b975095506001945061339b9350505050565b9193909250565b60606124d86117f2836125e8565b60606000826001600160401b038111156133cc576133cc6135d6565b6040519080825280601f01601f1916602001820160405280156133f6576020820181803683370190505b50905082600003613408579050611823565b60006134148587613ad4565b90506020820160005b8581101561343557828101518282015260200161341d565b85811115613444576000868301525b50919695505050505050565b60606124d88260200151600084600001516133b0565b60608182601f01101561348b5760405162461bcd60e51b815260040161042090613c9c565b8282840110156134ad5760405162461bcd60e51b815260040161042090613c9c565b818301845110156126b55760405162461bcd60e51b8152602060048201526011602482015270736c6963655f6f75744f66426f756e647360781b6044820152606401610420565b80356001600160401b038116811461350b57600080fd5b919050565b60006020828403121561352257600080fd5b611823826134f4565b60006020828403121561353d57600080fd5b813563ffffffff8116811461182357600080fd5b60008083601f84011261356357600080fd5b5081356001600160401b0381111561357a57600080fd5b602083019150836020828501011115610c5e57600080fd5b60008083601f8401126135a457600080fd5b5081356001600160401b038111156135bb57600080fd5b6020830191508360208260051b8501011115610c5e57600080fd5b634e487b7160e01b600052604160045260246000fd5b604051601f8201601f191681016001600160401b0381118282101715613614576136146135d6565b604052919050565b600082601f83011261362d57600080fd5b81356001600160401b03811115613646576136466135d6565b613659601f8201601f19166020016135ec565b81815284602083860101111561366e57600080fd5b816020850160208301376000918101602001919091529392505050565b600080600080600080600080600080600060e08c8e0312156136ac57600080fd5b6001600160401b03808d3511156136c257600080fd5b6136cf8e8e358f01613551565b909c509a5060208d01358110156136e557600080fd5b6136f58e60208f01358f01613551565b909a50985060408d013581101561370b57600080fd5b61371b8e60408f01358f01613592565b909850965060608d0135955060808d013581101561373857600080fd5b6137488e60808f01358f01613592565b909550935060a08d013581101561375e57600080fd5b5061376f8d60a08e01358e0161361c565b915060c08c013590509295989b509295989b9093969950565b60006020828403121561379a57600080fd5b5035919050565b634e487b7160e01b600052602160045260246000fd5b60208101600383106137d957634e487b7160e01b600052602160045260246000fd5b91905290565b60008060008060008060006080888a0312156137fa57600080fd5b613803886134f4565b965060208801356001600160401b038082111561381f57600080fd5b61382b8b838c01613551565b909850965060408a013591508082111561384457600080fd5b6138508b838c01613592565b909650945060608a013591508082111561386957600080fd5b506138768a828b01613592565b989b979a50959850939692959293505050565b8015158114610d9457600080fd5b600080600080600060a086880312156138af57600080fd5b853561ffff811681146138c157600080fd5b94506138cf602087016134f4565b93506040860135925060608601356001600160401b038111156138f157600080fd5b6138fd8882890161361c565b925050608086013561390e81613889565b809150509295509295909350565b6000806040838503121561392f57600080fd5b613938836134f4565b9150613946602084016134f4565b90509250929050565b60006020828403121561396157600080fd5b5051919050565b60006001600160401b0380841115613982576139826135d6565b8360051b60206139938183016135ec565b8681529185019181810190368411156139ab57600080fd5b865b848110156139df578035868111156139c55760008081fd5b6139d136828b0161361c565b8452509183019183016139ad565b50979650505050505050565b60005b83811015613a065781810151838201526020016139ee565b50506000910152565b60008151808452613a278160208601602086016139eb565b601f01601f19169290920160200192915050565b604081526000613a4e6040830185613a0f565b905082151560208301529392505050565b8183823760009101908152919050565b600060208284031215613a8157600080fd5b815161182381613889565b634e487b7160e01b600052601160045260246000fd5b818103818111156124d8576124d8613a8c565b6000816000190483118215151615613acf57613acf613a8c565b500290565b808201808211156124d8576124d8613a8c565b6001600160401b03828116828216039080821115613b0757613b07613a8c565b5092915050565b634e487b7160e01b600052601260045260246000fd5b600082613b3357613b33613b0e565b500690565b600082613b4757613b47613b0e565b500490565b634e487b7160e01b600052603260045260246000fd5b63ffffffff841681526001600160a01b03831660208201526060604082018190526000906118bd90830184613a0f565b60008251613ba48184602087016139eb565b9190910192915050565b600060208284031215613bc057600080fd5b81516001600160e01b03198116811461182357600080fd5b600060ff831680613beb57613beb613b0e565b8060ff84160691505092915050565b60ff82811682821603908111156124d8576124d8613a8c565b600060018201613c2557613c25613a8c565b5060010190565b6020808252604a908201527f524c505265616465723a206c656e677468206f6620616e20524c50206974656d60408201527f206d7573742062652067726561746572207468616e207a65726f20746f206265606082015269206465636f6461626c6560b01b608082015260a00190565b6020808252600e908201526d736c6963655f6f766572666c6f7760901b604082015260600190565b600181815b80851115613cff578160001904821115613ce557613ce5613a8c565b80851615613cf257918102915b93841c9390800290613cc9565b509250929050565b600082613d16575060016124d8565b81613d23575060006124d8565b8160018114613d395760028114613d4357613d5f565b60019150506124d8565b60ff841115613d5457613d54613a8c565b50506001821b6124d8565b5060208310610133831016604e8410600b8410161715613d82575081810a6124d8565b613d8c8383613cc4565b8060001904821115613da057613da0613a8c565b029392505050565b60006118238383613d0756fe524c505265616465723a206c656e677468206f6620636f6e74656e74206d7573a2646970667358221220ffef3fe749371bc9cd6e39e07a20cc763031009832510c7d1e9d1a99c1483f0c64736f6c63430008100033",
    "linkReferences": {}
  },
  "methodIdentifiers": {
    "MIN_LIGHT_CLIENT_DELAY()": "e4407b15",
    "broadcasters(uint32)": "59f89787",
    "emitFakeExecutedMessageEvent(uint16,uint64,bytes32,bytes,bool)": "bd6a0134",
    "executeMessage(uint64,bytes,bytes[],bytes[])": "7acc6754",
    "executeMessageFromLog(bytes,bytes,bytes32[],bytes32,bytes[],bytes,uint256)": "37d5af84",
    "freezeAll()": "99464c89",
    "frozen(uint32)": "36ae7c18",
    "lightClients(uint32)": "7599735c",
    "messageStatus(bytes32)": "3c6cf473",
    "messages(uint64)": "029d6713",
    "nonce()": "affed0e0",
    "sendingEnabled()": "3e99e9ce",
    "sourceChainIds(uint256)": "9efeff1c",
    "sourceChainIdsLength()": "4552f563",
    "storageRootCache(bytes32)": "8d080d1d",
    "version()": "54fd4d50"
  },
  "id": 6
}