{
  "abi": [
    {
      "anonymous": false,
      "inputs": [
        {
          "indexed": true,
          "internalType": "uint256",
          "name": "slot",
          "type": "uint256"
        },
        {
          "indexed": true,
          "internalType": "bytes32",
          "name": "root",
          "type": "bytes32"
        }
      ],
      "name": "HeadUpdate",
      "type": "event"
    },
    {
      "inputs": [],
      "name": "consistent",
      "outputs": [
        {
          "internalType": "bool",
          "name": "",
          "type": "bool"
        }
      ],
      "stateMutability": "view",
      "type": "function"
    },
    {
      "inputs": [
        {
          "internalType": "uint256",
          "name": "",
          "type": "uint256"
        }
      ],
      "name": "executionStateRoots",
      "outputs": [
        {
          "internalType": "bytes32",
          "name": "",
          "type": "bytes32"
        }
      ],
      "stateMutability": "view",
      "type": "function"
    },
    {
      "inputs": [],
      "name": "head",
      "outputs": [
        {
          "internalType": "uint256",
          "name": "",
          "type": "uint256"
        }
      ],
      "stateMutability": "view",
      "type": "function"
    },
    {
      "inputs": [
        {
          "internalType": "uint256",
          "name": "",
          "type": "uint256"
        }
      ],
      "name": "headers",
      "outputs": [
        {
          "internalType": "bytes32",
          "name": "",
          "type": "bytes32"
        }
      ],
      "stateMutability": "view",
      "type": "function"
    },
    {
      "inputs": [
        {
          "internalType": "uint256",
          "name": "slot",
          "type": "uint256"
        },
        {
          "internalType": "bytes32",
          "name": "executionRoot",
          "type": "bytes32"
        }
      ],
      "name": "setExecutionRoot",
      "outputs": [],
      "stateMutability": "nonpayable",
      "type": "function"
    },
    {
      "inputs": [
        {
          "internalType": "uint256",
          "name": "slot",
          "type": "uint256"
        },
        {
          "internalType": "bytes32",
          "name": "headerRoot",
          "type": "bytes32"
        }
      ],
      "name": "setHeader",
      "outputs": [],
      "stateMutability": "nonpayable",
      "type": "function"
    },
    {
      "inputs": [
        {
          "internalType": "uint256",
          "name": "",
          "type": "uint256"
        }
      ],
      "name": "timestamps",
      "outputs": [
        {
          "internalType": "uint256",
          "name": "",
          "type": "uint256"
        }
      ],
      "stateMutability": "view",
      "type": "function"
    }
  ],
  "bytecode": {
    "object": "0x60806040526000805460ff1916600117905534801561001d57600080fd5b506102568061002d6000396000f3fe608060405234801561001057600080fd5b506004361061007d5760003560e01c80637623ee291161005b5780637623ee29146100e75780638bc33af3146101075780638f7dcfa314610127578063955cbb2b1461013057600080fd5b806303247e7c146100825780632bcccca51461009757806356f90d79146100b9575b600080fd5b6100956100903660046101e5565b610143565b005b6000546100a49060ff1681565b60405190151581526020015b60405180910390f35b6100d96100c7366004610207565b60026020526000908152604090205481565b6040519081526020016100b0565b6100d96100f5366004610207565b60036020526000908152604090205481565b6100d9610115366004610207565b60046020526000908152604090205481565b6100d960015481565b61009561013e3660046101e5565b610194565b60008281526003602090815260408083208490556004909152808220429055600184905551829184917ffefccbcf6acd2cac524c1cb2d70450cabbec5bc95873e927c121d2d9b7924a029190a35050565b60008281526002602090815260408083208490556004909152808220429055600184905551829184917ffefccbcf6acd2cac524c1cb2d70450cabbec5bc95873e927c121d2d9b7924a029190a35050565b600080604083850312156101f857600080fd5b50508035926020909101359150565b60006020828403121561021957600080fd5b503591905056fea264697066735822122046799f8b4de9028af946ca44115f076d489391e741964eb3a3706d9bf6b39f0064736f6c63430008100033",
    "linkReferences": {}
  },
  "methodIdentifiers": {
    "consistent()": "2bcccca5",
    "executionStateRoots(uint256)": "7623ee29",
    "head()": "8f7dcfa3",
    "headers(uint256)": "56f90d79",
    "setExecutionRoot(uint256,bytes32)": "03247e7c",
    "setHeader(uint256,bytes32)": "955cbb2b",
    "timestamps(uint256)": "8bc33af3"
  },
  "id": 128
}