{
  "abi": [
    {
      "inputs": [
        {
          "internalType": "address",
          "name": "emitter",
          "type": "address"
        }
      ],
      "stateMutability": "nonpayable",
      "type": "constructor"
    },
    {
      "anonymous": false,
      "inputs": [
        {
          "indexed": true,
          "internalType": "uint256",
          "name": "slot",
          "type": "uint256"
        },
        {
          "indexed": true,
          "internalType": "bytes32",
          "name": "root",
          "type": "bytes32"
        }
      ],
      "name": "HeadUpdate",
      "type": "event"
    },
    {
      "anonymous": false,
      "inputs": [
        {
          "indexed": true,
          "internalType": "address",
          "name": "previousOwner",
          "type": "address"
        },
        {
          "indexed": true,
          "internalType": "address",
          "name": "newOwner",
          "type": "address"
        }
      ],
      "name": "OwnershipTransferred",
      "type": "event"
    },
    {
      "anonymous": false,
      "inputs": [
        {
          "indexed": true,
          "internalType": "uint256",
          "name": "period",
          "type": "uint256"
        },
        {
          "indexed": true,
          "internalType": "bytes32",
          "name": "root",
          "type": "bytes32"
        }
      ],
      "name": "SyncCommitteeUpdate",
      "type": "event"
    },
    {
      "inputs": [],
      "name": "FINALITY_THRESHOLD",
      "outputs": [
        {
          "internalType": "uint16",
          "name": "",
          "type": "uint16"
        }
      ],
      "stateMutability": "view",
      "type": "function"
    },
    {
      "inputs": [],
      "name": "GENESIS_TIME",
      "outputs": [
        {
          "internalType": "uint256",
          "name": "",
          "type": "uint256"
        }
      ],
      "stateMutability": "view",
      "type": "function"
    },
    {
      "inputs": [],
      "name": "GENESIS_VALIDATORS_ROOT",
      "outputs": [
        {
          "internalType": "bytes32",
          "name": "",
          "type": "bytes32"
        }
      ],
      "stateMutability": "view",
      "type": "function"
    },
    {
      "inputs": [],
      "name": "SECONDS_PER_SLOT",
      "outputs": [
        {
          "internalType": "uint256",
          "name": "",
          "type": "uint256"
        }
      ],
      "stateMutability": "view",
      "type": "function"
    },
    {
      "inputs": [],
      "name": "SLOTS_PER_PERIOD",
      "outputs": [
        {
          "internalType": "uint256",
          "name": "",
          "type": "uint256"
        }
      ],
      "stateMutability": "view",
      "type": "function"
    },
    {
      "inputs": [],
      "name": "SOURCE_CHAIN_ID",
      "outputs": [
        {
          "internalType": "uint32",
          "name": "",
          "type": "uint32"
        }
      ],
      "stateMutability": "view",
      "type": "function"
    },
    {
      "inputs": [],
      "name": "consistent",
      "outputs": [
        {
          "internalType": "bool",
          "name": "",
          "type": "bool"
        }
      ],
      "stateMutability": "view",
      "type": "function"
    },
    {
      "inputs": [
        {
          "internalType": "uint256",
          "name": "_slot",
          "type": "uint256"
        },
        {
          "internalType": "bytes32",
          "name": "_root",
          "type": "bytes32"
        }
      ],
      "name": "emitFakeHeadUpdateEvent",
      "outputs": [],
      "stateMutability": "nonpayable",
      "type": "function"
    },
    {
      "inputs": [
        {
          "internalType": "uint256",
          "name": "_period",
          "type": "uint256"
        },
        {
          "internalType": "bytes32",
          "name": "_root",
          "type": "bytes32"
        }
      ],
      "name": "emitFakeSyncCommitteeUpdateEvent",
      "outputs": [],
      "stateMutability": "nonpayable",
      "type": "function"
    },
    {
      "inputs": [
        {
          "internalType": "uint256",
          "name": "",
          "type": "uint256"
        }
      ],
      "name": "executionStateRoots",
      "outputs": [
        {
          "internalType": "bytes32",
          "name": "",
          "type": "bytes32"
        }
      ],
      "stateMutability": "view",
      "type": "function"
    },
    {
      "inputs": [],
      "name": "head",
      "outputs": [
        {
          "internalType": "uint256",
          "name": "",
          "type": "uint256"
        }
      ],
      "stateMutability": "view",
      "type": "function"
    },
    {
      "inputs": [
        {
          "internalType": "uint256",
          "name": "",
          "type": "uint256"
        }
      ],
      "name": "headers",
      "outputs": [
        {
          "internalType": "bytes32",
          "name": "",
          "type": "bytes32"
        }
      ],
      "stateMutability": "view",
      "type": "function"
    },
    {
      "inputs": [],
      "name": "owner",
      "outputs": [
        {
          "internalType": "address",
          "name": "",
          "type": "address"
        }
      ],
      "stateMutability": "view",
      "type": "function"
    },
    {
      "inputs": [],
      "name": "renounceOwnership",
      "outputs": [],
      "stateMutability": "nonpayable",
      "type": "function"
    },
    {
      "inputs": [
        {
          "components": [
            {
              "components": [
                {
                  "internalType": "uint256",
                  "name": "attestedSlot",
                  "type": "uint256"
                },
                {
                  "internalType": "uint256",
                  "name": "finalizedSlot",
                  "type": "uint256"
                },
                {
                  "internalType": "uint256",
                  "name": "participation",
                  "type": "uint256"
                },
                {
                  "internalType": "bytes32",
                  "name": "finalizedHeaderRoot",
                  "type": "bytes32"
                },
                {
                  "internalType": "bytes32",
                  "name": "executionStateRoot",
                  "type": "bytes32"
                },
                {
                  "components": [
                    {
                      "internalType": "uint256[2]",
                      "name": "a",
                      "type": "uint256[2]"
                    },
                    {
                      "internalType": "uint256[2][2]",
                      "name": "b",
                      "type": "uint256[2][2]"
                    },
                    {
                      "internalType": "uint256[2]",
                      "name": "c",
                      "type": "uint256[2]"
                    }
                  ],
                  "internalType": "struct Groth16Proof",
                  "name": "proof",
                  "type": "tuple"
                }
              ],
              "internalType": "struct LightClientStep",
              "name": "step",
              "type": "tuple"
            },
            {
              "internalType": "bytes32",
              "name": "syncCommitteeSSZ",
              "type": "bytes32"
            },
            {
              "internalType": "bytes32",
              "name": "syncCommitteePoseidon",
              "type": "bytes32"
            },
            {
              "components": [
                {
                  "internalType": "uint256[2]",
                  "name": "a",
                  "type": "uint256[2]"
                },
                {
                  "internalType": "uint256[2][2]",
                  "name": "b",
                  "type": "uint256[2][2]"
                },
                {
                  "internalType": "uint256[2]",
                  "name": "c",
                  "type": "uint256[2]"
                }
              ],
              "internalType": "struct Groth16Proof",
              "name": "proof",
              "type": "tuple"
            }
          ],
          "internalType": "struct LightClientRotate",
          "name": "update",
          "type": "tuple"
        }
      ],
      "name": "rotate",
      "outputs": [],
      "stateMutability": "nonpayable",
      "type": "function"
    },
    {
      "inputs": [
        {
          "components": [
            {
              "internalType": "uint256",
              "name": "attestedSlot",
              "type": "uint256"
            },
            {
              "internalType": "uint256",
              "name": "finalizedSlot",
              "type": "uint256"
            },
            {
              "internalType": "uint256",
              "name": "participation",
              "type": "uint256"
            },
            {
              "internalType": "bytes32",
              "name": "finalizedHeaderRoot",
              "type": "bytes32"
            },
            {
              "internalType": "bytes32",
              "name": "executionStateRoot",
              "type": "bytes32"
            },
            {
              "components": [
                {
                  "internalType": "uint256[2]",
                  "name": "a",
                  "type": "uint256[2]"
                },
                {
                  "internalType": "uint256[2][2]",
                  "name": "b",
                  "type": "uint256[2][2]"
                },
                {
                  "internalType": "uint256[2]",
                  "name": "c",
                  "type": "uint256[2]"
                }
              ],
              "internalType": "struct Groth16Proof",
              "name": "proof",
              "type": "tuple"
            }
          ],
          "internalType": "struct LightClientStep",
          "name": "update",
          "type": "tuple"
        }
      ],
      "name": "step",
      "outputs": [],
      "stateMutability": "nonpayable",
      "type": "function"
    },
    {
      "inputs": [
        {
          "internalType": "uint256",
          "name": "",
          "type": "uint256"
        }
      ],
      "name": "syncCommitteePoseidons",
      "outputs": [
        {
          "internalType": "bytes32",
          "name": "",
          "type": "bytes32"
        }
      ],
      "stateMutability": "view",
      "type": "function"
    },
    {
      "inputs": [
        {
          "internalType": "uint256",
          "name": "",
          "type": "uint256"
        }
      ],
      "name": "timestamps",
      "outputs": [
        {
          "internalType": "uint256",
          "name": "",
          "type": "uint256"
        }
      ],
      "stateMutability": "view",
      "type": "function"
    },
    {
      "inputs": [
        {
          "internalType": "address",
          "name": "newOwner",
          "type": "address"
        }
      ],
      "name": "transferOwnership",
      "outputs": [],
      "stateMutability": "nonpayable",
      "type": "function"
    },
    {
      "inputs": [
        {
          "internalType": "uint256[2]",
          "name": "a",
          "type": "uint256[2]"
        },
        {
          "internalType": "uint256[2][2]",
          "name": "b",
          "type": "uint256[2][2]"
        },
        {
          "internalType": "uint256[2]",
          "name": "c",
          "type": "uint256[2]"
        },
        {
          "internalType": "uint256[65]",
          "name": "input",
          "type": "uint256[65]"
        }
      ],
      "name": "verifyProofRotate",
      "outputs": [
        {
          "internalType": "bool",
          "name": "r",
          "type": "bool"
        }
      ],
      "stateMutability": "view",
      "type": "function"
    },
    {
      "inputs": [
        {
          "internalType": "uint256[2]",
          "name": "a",
          "type": "uint256[2]"
        },
        {
          "internalType": "uint256[2][2]",
          "name": "b",
          "type": "uint256[2][2]"
        },
        {
          "internalType": "uint256[2]",
          "name": "c",
          "type": "uint256[2]"
        },
        {
          "internalType": "uint256[1]",
          "name": "input",
          "type": "uint256[1]"
        }
      ],
      "name": "verifyProofStep",
      "outputs": [
        {
          "internalType": "bool",
          "name": "r",
          "type": "bool"
        }
      ],
      "stateMutability": "view",
      "type": "function"
    }
  ],
  "bytecode": {
    "object": "0x6101406040526000805460ff191660019081178255553480156200002257600080fd5b5060405162004eb538038062004eb5833981016040819052620000459162000264565b6000608081905260a081905260c081905260e0819052610100819052610120819052808080808080806200007a8180620000ae565b50505050505050506200009c620000966200012d60201b60201c565b62000131565b620000a78162000183565b5062000296565b60008281526005602052604090205415801590620000da57506000828152600560205260409020548114155b15620000ee5750506000805460ff19169055565b60008281526005602052604080822083905551829184917f783ee45e8820a8249b1456ff4a715f3bd483b1a59bdc7a49bbc316bbd67a4e2f9190a35050565b3390565b600680546001600160a01b038381166001600160a01b0319831681179093556040519116919082907f8be0079c531659141344cd1fd0a4f28419497f9722a3daafe3b4186f6b6457e090600090a35050565b6200018d62000206565b6001600160a01b038116620001f85760405162461bcd60e51b815260206004820152602660248201527f4f776e61626c653a206e6577206f776e657220697320746865207a65726f206160448201526564647265737360d01b60648201526084015b60405180910390fd5b620002038162000131565b50565b6006546001600160a01b03163314620002625760405162461bcd60e51b815260206004820181905260248201527f4f776e61626c653a2063616c6c6572206973206e6f7420746865206f776e65726044820152606401620001ef565b565b6000602082840312156200027757600080fd5b81516001600160a01b03811681146200028f57600080fd5b9392505050565b60805160a05160c05160e0516101005161012051614bb3620003026000396000818161031c01526109ba0152600061022201526000818161014101526109e50152600081816101980152610dd401526000818161037c0152610df8015260006102c20152614bb36000f3fe608060405234801561001057600080fd5b50600436106101375760003560e01c80638bc33af3116100b8578063cb9709521161007c578063cb97095214610304578063da4b05e714610317578063e209e86314610351578063e5b708fe14610364578063f288246114610377578063f2fde38b1461039e57600080fd5b80638bc33af3146102795780638da5cb5b146102995780638f7dcfa3146102b4578063a8769acb146102bd578063b34711ab146102e457600080fd5b806356f90d79116100ff57806356f90d79146101e2578063715018a6146102025780637227d7851461020a57806374be21501461021d5780637623ee291461025957600080fd5b80632073ee701461013c5780632bcccca514610176578063304b907114610193578063474e04de146101ba5780634b4e4dff146101cf575b600080fd5b6101637f000000000000000000000000000000000000000000000000000000000000000081565b6040519081526020015b60405180910390f35b6000546101839060ff1681565b604051901515815260200161016d565b6101637f000000000000000000000000000000000000000000000000000000000000000081565b6101cd6101c836600461462b565b6103b1565b005b6101cd6101dd366004614821565b6103ea565b6101636101f0366004614896565b60026020526000908152604090205481565b6101cd61043d565b6101836102183660046148af565b610451565b6102447f000000000000000000000000000000000000000000000000000000000000000081565b60405163ffffffff909116815260200161016d565b610163610267366004614896565b60046020526000908152604090205481565b610163610287366004614896565b60036020526000908152604090205481565b6006546040516001600160a01b03909116815260200161016d565b61016360015481565b6101637f000000000000000000000000000000000000000000000000000000000000000081565b6101636102f2366004614896565b60056020526000908152604090205481565b6101cd610312366004614968565b610569565b61033e7f000000000000000000000000000000000000000000000000000000000000000081565b60405161ffff909116815260200161016d565b6101cd61035f36600461462b565b6106aa565b61018361037236600461498c565b6106e3565b6101637f000000000000000000000000000000000000000000000000000000000000000081565b6101cd6103ac366004614a44565b6107d7565b6103b9610850565b604051819083907f783ee45e8820a8249b1456ff4a715f3bd483b1a59bdc7a49bbc316bbd67a4e2f90600090a35050565b805160006103f7826108aa565b9050600061040883602001516109de565b90506000610417826001614a83565b905061042285610a10565b821561043657610436818660400151610b11565b5050505050565b610445610850565b61044f6000610b8e565b565b600061045b6144d2565b60408051808201825287518152602080890151818301529083528151608081018352875151818401908152885183015160608301528152825180840184528883018051518252518301518184015281830152838201528151808301835286518152868201518183015283830152815160418082526108408201909352600092909182016108208036833701905050905060005b604181101561053d5784816041811061050957610509614a96565b602002015182828151811061052057610520614a96565b60209081029190910101528061053581614aac565b9150506104ee565b506105488183610be0565b60000361055a57600192505050610561565b6000925050505b949350505050565b6000610574826108aa565b8251909150610581610dd0565b10156105e05760405162461bcd60e51b8152602060048201526024808201527f55706461746520736c6f7420697320746f6f2066617220696e207468652066756044820152637475726560e01b60648201526084015b60405180910390fd5b600154826020015110156106415760405162461bcd60e51b815260206004820152602260248201527f55706461746520736c6f74206c657373207468616e2063757272656e74206865604482015261185960f21b60648201526084016105d7565b80156106625761065e826020015183606001518460800151610e2c565b5050565b60405162461bcd60e51b815260206004820152601760248201527f4e6f7420656e6f756768207061727469636970616e747300000000000000000060448201526064016105d7565b6106b2610850565b604051819083907ffefccbcf6acd2cac524c1cb2d70450cabbec5bc95873e927c121d2d9b7924a0290600090a35050565b60006106ed6144d2565b60408051808201825287518152602080890151818301529083528151608081018352875151818401908152885183015160608301528152825180840184528883018051518252518301518184015281830152838201528151808301835286518152868201518183015283830152815160018082528184019093526000929091828101908036833701905050905060005b60018110156107cc5784816001811061079857610798614a96565b60200201518282815181106107af576107af614a96565b6020908102919091010152806107c481614aac565b91505061077d565b506105488183610ef9565b6107df610850565b6001600160a01b0381166108445760405162461bcd60e51b815260206004820152602660248201527f4f776e61626c653a206e6577206f776e657220697320746865207a65726f206160448201526564647265737360d01b60648201526084016105d7565b61084d81610b8e565b50565b6006546001600160a01b0316331461044f5760405162461bcd60e51b815260206004820181905260248201527f4f776e61626c653a2063616c6c6572206973206e6f7420746865206f776e657260448201526064016105d7565b6000806108ba83600001516109de565b600081815260056020526040812054919250036109375760405162461bcd60e51b815260206004820152603560248201527f53796e6320636f6d6d697474656520666f722063757272656e7420706572696f604482015274321034b9903737ba1034b734ba34b0b634bd32b21760591b60648201526084016105d7565b600a836040015110156109a65760405162461bcd60e51b815260206004820152603160248201527f4c657373207468616e204d494e5f53594e435f434f4d4d49545445455f5041526044820152702a24a1a4a820a72a299039b4b3b732b21760791b60648201526084016105d7565b6109af83611084565b50506040015161ffff7f0000000000000000000000000000000000000000000000000000000000000000161090565b6000610a0a7f000000000000000000000000000000000000000000000000000000000000000083614adb565b92915050565b6060810151610a1d614523565b602083015160005b6020811015610a7b57610a3a61010083614aef565b83610a4683601f614b03565b60418110610a5657610a56614a96565b6020020152610a6761010083614adb565b915080610a7381614aac565b915050610a25565b5083516060015160005b6020811015610adb57610a9a61010083614aef565b84610aa6836040614b03565b60418110610ab657610ab6614a96565b6020020152610ac761010083614adb565b915080610ad381614aac565b915050610a85565b506040850151610aea9061139d565b610400840152835160208501516040860151610b0892919086610451565b61043657600080fd5b60008281526005602052604090205415801590610b3c57506000828152600560205260409020548114155b15610b4f5750506000805460ff19169055565b60008281526005602052604080822083905551829184917f783ee45e8820a8249b1456ff4a715f3bd483b1a59bdc7a49bbc316bbd67a4e2f9190a35050565b600680546001600160a01b038381166001600160a01b0319831681179093556040519116919082907f8be0079c531659141344cd1fd0a4f28419497f9722a3daafe3b4186f6b6457e090600090a35050565b60007f30644e72e131a029b85045b68181585d2833e84879b9709143e1f593f000000181610c0c6114e5565b905080608001515185516001610c229190614a83565b14610c645760405162461bcd60e51b81526020600482015260126024820152711d995c9a599a595c8b5898590b5a5b9c1d5d60721b60448201526064016105d7565b604080518082019091526000808252602082018190525b8651811015610d555783878281518110610c9757610c97614a96565b602002602001015110610cec5760405162461bcd60e51b815260206004820152601f60248201527f76657269666965722d6774652d736e61726b2d7363616c61722d6669656c640060448201526064016105d7565b610d4182610d3c8560800151846001610d059190614a83565b81518110610d1557610d15614a96565b60200260200101518a8581518110610d2f57610d2f614a96565b602002602001015161363e565b6136d4565b915080610d4d81614aac565b915050610c7b565b50610d7e818360800151600081518110610d7157610d71614a96565b60200260200101516136d4565b9050610db4610d90866000015161376d565b8660200151846000015185602001518587604001518b60400151896060015161380c565b610dc45760019350505050610a0a565b50600095945050505050565b60007f0000000000000000000000000000000000000000000000000000000000000000610e1d7f000000000000000000000000000000000000000000000000000000000000000042614b03565b610e279190614adb565b905090565b60008381526002602052604090205415610e65576000838152600260205260409020548214610e60576000805460ff191690555b505050565b60008381526004602052604090205415610e9d576000838152600460205260409020548114610e60576000805460ff19169055505050565b6001839055600083815260026020908152604080832085905560048252808320849055600390915280822042905551839185917ffefccbcf6acd2cac524c1cb2d70450cabbec5bc95873e927c121d2d9b7924a029190a3505050565b60007f30644e72e131a029b85045b68181585d2833e84879b9709143e1f593f000000181610f25613997565b905080608001515185516001610f3b9190614a83565b14610f7d5760405162461bcd60e51b81526020600482015260126024820152711d995c9a599a595c8b5898590b5a5b9c1d5d60721b60448201526064016105d7565b604080518082019091526000808252602082018190525b86518110156110325783878281518110610fb057610fb0614a96565b6020026020010151106110055760405162461bcd60e51b815260206004820152601f60248201527f76657269666965722d6774652d736e61726b2d7363616c61722d6669656c640060448201526064016105d7565b61101e82610d3c8560800151846001610d059190614a83565b91508061102a81614aac565b915050610f94565b5061104e818360800151600081518110610d7157610d71614a96565b9050610db4611060866000015161376d565b8660200151846000015185602001518587604001518b604001518960600151613d22565b6000611093826000015161139d565b905060006110a4836020015161139d565b905060006110b5846040015161139d565b905060006110c685600001516109de565b600081815260056020908152604080832054815192830189905290820187905292935060029060600160408051601f198184030181529082905261110991614b16565b602060405180830381855afa158015611126573d6000803e3d6000fd5b5050506040513d601f19601f820116820180604052508101906111499190614b45565b9050600281886060015160405160200161116d929190918252602082015260400190565b60408051601f198184030181529082905261118791614b16565b602060405180830381855afa1580156111a4573d6000803e3d6000fd5b5050506040513d601f19601f820116820180604052508101906111c79190614b45565b9050600281856040516020016111e7929190918252602082015260400190565b60408051601f198184030181529082905261120191614b16565b602060405180830381855afa15801561121e573d6000803e3d6000fd5b5050506040513d601f19601f820116820180604052508101906112419190614b45565b90506002818860800151604051602001611265929190918252602082015260400190565b60408051601f198184030181529082905261127f91614b16565b602060405180830381855afa15801561129c573d6000803e3d6000fd5b5050506040513d601f19601f820116820180604052508101906112bf9190614b45565b9050600281836040516020016112df929190918252602082015260400190565b60408051601f19818403018152908290526112f991614b16565b602060405180830381855afa158015611316573d6000803e3d6000fd5b5050506040513d601f19601f820116820180604052508101906113399190614b45565b905060006113468261139d565b90506113576001600160fd1b614b03565b60a08901516040805160208082018352939094168085528251938301519183015190949293611388929091846106e3565b61139157600080fd5b50505050505050505050565b60006008827eff00ff00ff00ff00ff00ff00ff00ff00ff00ff00ff00ff00ff00ff00ff00ff16901b6008837fff00ff00ff00ff00ff00ff00ff00ff00ff00ff00ff00ff00ff00ff00ff00ff0016901c1791506010827dffff0000ffff0000ffff0000ffff0000ffff0000ffff0000ffff0000ffff16901b6010837fffff0000ffff0000ffff0000ffff0000ffff0000ffff0000ffff0000ffff000016901c1791506020827bffffffff00000000ffffffff00000000ffffffff00000000ffffffff16901b6020837fffffffff00000000ffffffff00000000ffffffff00000000ffffffff0000000016901c17915060408277ffffffffffffffff0000000000000000ffffffffffffffff16901b60408377ffffffffffffffff0000000000000000ffffffffffffffff1916901c179150608082901b608083901c1791508160001b9050919050565b6114ed614542565b6040805180820182527f2d4d9aa7e302d9df41749d5507949d05dbea33fbb16c643b22f599a2be6df2e281527f14bedd503c37ceb061d8ec60209fe345ce89830a19230301f076caff004d19266020808301919091529083528151608080820184527f0967032fcbf776d1afc985f88877f182d38480a653f2decaa9794cbc3bf3060c8285019081527f0e187847ad4c798374d0d6732bf501847dd68bc0e071241e0213bc7fc13db7ab606080850191909152908352845180860186527f304cfbd1e08a704a99f5e847d93f8c3caafddec46b7a0d379da69a4d112346a781527f1739c1b1a457a8c7313123d24d2f9192f896b7c63eea05a9d57f06547ad0cec8818601528385015285840192909252835180820185527f198e9393920d483a7260bfb731fb5d25f1aa493335a9e71297e485b7aef312c28186019081527f1800deef121f1e76426a00665e5c4479674322d4f75edadd46debd5cd992f6ed828501528152845180860186527f090689d0585ff075ec9e99ad690c3395bc4b313370b38ef355acdadcd122975b81527f12c85ea5db8c6deb4aab71808dcb408fe3d1e7690c43d37b4ce6cc0166fa7daa818601528185015285850152835190810184527f081ffbaf63754bc1a145b484f7a27c6e799a84f3a3966c7e85f9328d57a432e78185019081527f1823f1b56c4523a2f3d587eae4c49d16ba84fd47e2cc15d28869daee75c0ad63828401528152835180850185527e39d60aef946b208811537ce2e0a395e756e68509683904e8581dadd08d6b6c81527f0bde183126dc8a61e2affdcc5a5d41b99ea3662cb8e4ae7692f84aba6a61b9e4818501528184015290840152815160428082526108608201909352919082015b604080518082019091526000808252602082015281526020019060019003908161176857505060808201908152604080518082019091527f0c185f1ea7418bbc8948b534a1b2bb4b3c1e2392a66c321688abf6f237ad25bd81527f08e198c15d499483567f326e3b5734e00ac38359392f50b54830705de945cfa06020820152905180516000906117fb576117fb614a96565b602002602001018190525060405180604001604052807f1f90ac19aca208ad92bfb4bc6c69460b7711654d0b511fb531329443fde844fd81526020017f1f7b3fe00ce573d0a53bd980d7ecebc00f18260f242b76ed9c04a23cc0b68488815250816080015160018151811061187257611872614a96565b602002602001018190525060405180604001604052807f16ad1d36dcd31e0b6b872d6b76edf1243af076fa1a7985d18ad460820bba1c4381526020017f2d187e157d473ebafbbde67c7c648c6823dcf69281be41d826f43a61098d1b3a81525081608001516002815181106118e9576118e9614a96565b602002602001018190525060405180604001604052807f013754db9fc1af20cc4d28a2f570eb2ae2ecea653d44562f298c041a1e30483c81526020017f13f80b71299846ab483c0ec012e7b588006a2798ec9487b4069a5b89466e515d815250816080015160038151811061196057611960614a96565b602002602001018190525060405180604001604052807f30012147362dfe30f9d738a7bdb4779e739a20e4bbdf9d08185ceac30427471d81526020017f05e2702344dd9f21d642423976ec90d1a1cc6b2dbb002fd670e223e0333a323b81525081608001516004815181106119d7576119d7614a96565b602002602001018190525060405180604001604052807f1e4544057e1fa2c3d9a7b98a35cd7e488170cc8d1dd7f358f9fc1f151f194d1e81526020017f01abeb06148772ba12b7910297b9f42b26a6d70742168b1bf17cb71e3852c86f8152508160800151600581518110611a4e57611a4e614a96565b602002602001018190525060405180604001604052807f260d127a7e240607e6545c9b0ded8137ff05d56a7adbc39791d42b6605a09c6781526020017f249e598e9183e2a2946615bd00f95d5aa55844d27fc82e597e902cfd3b5b4fc88152508160800151600681518110611ac557611ac5614a96565b602002602001018190525060405180604001604052807f2fdece479eae335f3ed26fac523621e593143ed86f83f4b6e2b61bf11418b9aa81526020017f14e84ff1ed1947180cab465e94d036258f8f093f52671fbcb3a03cfd28cc39c58152508160800151600781518110611b3c57611b3c614a96565b602002602001018190525060405180604001604052807f1b7a08a6f0eda5d4d6c820b37a685ecb436d3801892512d23aa92569489836db81526020017f1549a1b15962b4b4f8fca7df25eb44db26ebc2304025d61e0007dbf913a00c8f8152508160800151600881518110611bb357611bb3614a96565b602002602001018190525060405180604001604052807f10c8b2788f9f5acb12814b6e9bfb5089283830b99af8b61597ee26e2b2b4e54181526020017f0b33ac288c666fff95c8e52e13b8435d6b2c3b19715aee6676259f484387b6148152508160800151600981518110611c2a57611c2a614a96565b602002602001018190525060405180604001604052807f20086fd677f58ec067de827ae677e976ddeb8188b50ed87dab74f7d5a046fb8d81526020017f0895fb19b25da8bf8f348ff6d170f6e9c55ef6cd883f492ec50b74655b8aabe48152508160800151600a81518110611ca157611ca1614a96565b602002602001018190525060405180604001604052807f1bf5431b670d0e6a87965eb5032ccfc7499df7d5644f55a0fb009b58abe1512f81526020017f251307c8769dc821db058112627207b7a1d76c4add8fa375d51db5517b7261dc8152508160800151600b81518110611d1857611d18614a96565b602002602001018190525060405180604001604052807f1229c91e36dee04e6fadd8d0142a20cabc1bb5129f32b3811cc3c05c4d014a7c81526020017f0ebee4cacdb93de594742b856ae152aee821654e2fb0a820fa385e33c9f3930f8152508160800151600c81518110611d8f57611d8f614a96565b602002602001018190525060405180604001604052807f064a3632895685cac8bd44a85b851c3ef0f6236b0414f0ae47eebd9aa905b4ec81526020017f2b5afabb351106c7b3aa6012858fb3c6006b7057eb4abebb63f640ff39d5d7cc8152508160800151600d81518110611e0657611e06614a96565b602002602001018190525060405180604001604052807f0f908fc07f599881da8a14cdad7730eaa5c8c000427c8cd0529bccbf1216661981526020017f0349b42333ed910b2255a991b948d14a7622dc993ab641d5ab309a14a909dbd28152508160800151600e81518110611e7d57611e7d614a96565b602002602001018190525060405180604001604052807f1b6d6fef86c857cee40fd60d8c8694645e19cc1997856e741f1c0e0afe91731081526020017f22404e5e1d1ed9755cfb646ebb21d2684dc9cf0de6f6f4ee14b81df0170772c78152508160800151600f81518110611ef457611ef4614a96565b602002602001018190525060405180604001604052807f1d5f14362e065e9967264221c54c1fe00484fb5ba4204771e246e9d8e2ae97e681526020017f26aa5b46e6fd4442a7a8a4aa32bc89c7df945ca81b9c5fafd9cc665c59ee3a5f8152508160800151601081518110611f6b57611f6b614a96565b602002602001018190525060405180604001604052807f1305723a5d8f2c2d7c068e782987afd7bd884559776e936de6bbac61770989c181526020017f14cd0e752bb435a203433c40301ed26ac1c596670d3b393f95dc1da7f1a704058152508160800151601181518110611fe257611fe2614a96565b602002602001018190525060405180604001604052807f029cbabd9a0e36f737c34cc61d4f3f5fd00e0176cde2d6a8d02a33520725930a81526020017f24b1e5eac57c4895ab1831e13e125e2d530759e0554c94c47cdd060c0d24ad9d815250816080015160128151811061205957612059614a96565b602002602001018190525060405180604001604052807f1fdaf56fc3f15e84e669028ab720f17c8a1a43131c93ac66ad2785855f0636a781526020017f101367ee8537bb6e40f68da7ecd22cc27bf3b039e273bfa4e0889a77644c4fa581525081608001516013815181106120d0576120d0614a96565b602002602001018190525060405180604001604052807f26e7b761f9c9349a820b6f265d207595a4c46eae94e381e0d34295adce56d9d681526020017e89346cb404d99fab5a38c0a1ffca937270d8cedffe7790e43f3b4f0cbe5bf1815250816080015160148151811061214657612146614a96565b602002602001018190525060405180604001604052807f2c7dceafcd7c3c8af9f845956614809595c756f7a229dbd97c93dbecda9928ff81526020017f1ef86d199ba7aa1e34b3a63c7ebe9d6321936824e0d3c5c063fd532353f5bed381525081608001516015815181106121bd576121bd614a96565b602002602001018190525060405180604001604052807f1db08ce94a36fa802f539a60ae73857b7c56da4c9fe59ee1db07886843a1e13e81526020017f26ed3913b246e4d62758e160a0b7025832e026a10ea8ebaed0e2246fb73993d7815250816080015160168151811061223457612234614a96565b602002602001018190525060405180604001604052807f01636a5481ebe538ee1c398f559a5a3ca25ca5374bc08b6361f5d510936e748c81526020017f104d50194944aac2f36c50d53c62bace5f55b55708ee996cf5307305197cddb481525081608001516017815181106122ab576122ab614a96565b602002602001018190525060405180604001604052807f1ae314f9ecf9cfe277f346e4ab84cad818e09692a41ab4e12077326abb4b65a481526020017f0e7e319197d06b350b8e891b46bd367b87a3fa3646473f4ba0b13f110263ab84815250816080015160188151811061232257612322614a96565b602002602001018190525060405180604001604052807f15fb4c1f6cfafff21dadf5ad7ee8ce1c4f4ca8f3510bc4ccdb072ede9610718781526020017f2c43cef065002f9e3e1bd5008ccc154abb61aa9a8998bc1c2037c240647a05cb815250816080015160198151811061239957612399614a96565b602002602001018190525060405180604001604052807f2799023c82b0c8ea13964f101c80d0bff8355eae4ace890bd80343993e0ae1c481526020017f10ba509ab3f8c5ceafd6a94f040eeb44838fc3bb09467dc5047fbf28d5209ce58152508160800151601a8151811061241057612410614a96565b602002602001018190525060405180604001604052807f16c23384e2441341a98531c9363033ea2f397734b03ab157e2d3350a800383bc81526020017f186ee2652fcfeafd32fc1fc498a3a557b88ca9a8f7a079daad66901ac81bd6578152508160800151601b8151811061248757612487614a96565b602002602001018190525060405180604001604052807f26332965976c772ec9519a330c8925c1ea579a7afaf34e0853b229307957d06681526020017f1bec8b8225e04ddbf4d81cd2292fb8869e1670189adba5183c373aa4a2e88b038152508160800151601c815181106124fe576124fe614a96565b602002602001018190525060405180604001604052807f2dcef9e4232462945edfcf282c6d46622549c490699a09ea75e878c17f39997981526020017f1b10aaae3115dfb31e317e8742366bfc10e3545a6c58d8d29510b81183eeef628152508160800151601d8151811061257557612575614a96565b602002602001018190525060405180604001604052807f114d1d8f62a23df07b405646e4bc22b1dbcb5c30a3d14fc6d1f0bfc56e946d6481526020017f1a105012b99a1ef69addd9a37ebd168f5e926f59652200dfd81bbb6df90059518152508160800151601e815181106125ec576125ec614a96565b602002602001018190525060405180604001604052807f16ad365555143dbbc6edd78746b22d1a8c36d570cf2c8dcec78ec3b7b92006a681526020017f2dc9ece757eeb3a9a5c73b0fa93bd6912f62d373190876973ce77a3d769015628152508160800151601f8151811061266357612663614a96565b602002602001018190525060405180604001604052807f10bdb935e0a83f3288b74aec36586157d96c14be6fd7d892d88bac500ae2ddad81526020017f0db0fb2317f7040c086613e348884377e241a6fc1ff06950088892f29eb1c2b781525081608001516020815181106126da576126da614a96565b602002602001018190525060405180604001604052807f22075082f5a9939cde5fdbc5cc9d1b24c8a76919259413c4603c2c9ae3dd053481526020017f1083d28dc9a805506ee600a41ce7ab90245753a0850cfe5fbfba845f8855d39b815250816080015160218151811061275157612751614a96565b602002602001018190525060405180604001604052807f04fb45f8e3393f3f2bec33f016e066a8d9a4db0312338730e04feb84de409bab81526020017f076fb28590fbd6736d9e7a3c8bee92f8840335ca1933ea8b138e1a5e88ccbd6f81525081608001516022815181106127c8576127c8614a96565b602002602001018190525060405180604001604052807f27c476204812bc91df24cc551597d8961d0554b9394db61bc2fc11e574ec165681526020017f0242ef58b307be956117d23453ef691016c3c24d5f82772360c8bf3a0623d418815250816080015160238151811061283f5761283f614a96565b602002602001018190525060405180604001604052807f05bcd391353777652504c324832c34fb149b5f47732b72266e4786d87b894d9f81526020017f235f9b6bc8590d671533b15e9e4d3f24cb913fd9b12ee93d7f9d85f26e88d79481525081608001516024815181106128b6576128b6614a96565b602002602001018190525060405180604001604052807f2645912441857c00f18d20417b85f75262dfbeadf84f9de9f73c48a101f38b3181526020017f26ac45b6b26ec2e6d1ad7e5a2e4349f3bdb6da67b151881f7a0408090096906f815250816080015160258151811061292d5761292d614a96565b602002602001018190525060405180604001604052807f2b897340451fa6942e1ccfb552aaeba95e3212272d2d352d2a73a6d543a74cdc81526020017f1da4217277fddccdb106aee8e1a879df237c0842817b9e38b9a889454d7363d281525081608001516026815181106129a4576129a4614a96565b602002602001018190525060405180604001604052807f16ba6ec88cfd8fb3b567950de8cac6327f8303108524d5ff56bfc40aadf1298181526020017f1c763c69d689b8306bccc3670727c97caec78cb6e500f6ffca61b27f96f1ad728152508160800151602781518110612a1b57612a1b614a96565b602002602001018190525060405180604001604052807f21c27b1fb03651bf3cb6f14a56c968b70c3ca2d59ead05e387556805a175f9c181526020017eb2d10f7b548000104bbdfebcc3818da8f268d2e6518179c80196c6f8ab2f048152508160800151602881518110612a9157612a91614a96565b602002602001018190525060405180604001604052807f2963360d6b274ee4009993e71e464d9b67d60bd5ebc8b77f93b002e6e1a74f4b81526020017f26eef1be0306ae60879a4bed63269d742086e7590047c9d294a666d450665ba98152508160800151602981518110612b0857612b08614a96565b602002602001018190525060405180604001604052807f26a1963eb0febfe0e9147228011c5f23d5228f98f7bd7b48abab636a7b43282581526020017f186c2cf96c5efba832d86919538cffad728b690a999ad7865b23630b139bc2418152508160800151602a81518110612b7f57612b7f614a96565b602002602001018190525060405180604001604052807f02805fe8c4f74c7bd1af67fc004bdc572b0476ec747bd206a69f1315ce170cb981526020017f20bc65b8df5cd49f6198f46db813ecaed841980f0e87baa1200b8f01975c6de78152508160800151602b81518110612bf657612bf6614a96565b602002602001018190525060405180604001604052807f075ebb277ded6bebfb100ddc5e20f66094142e02c06c16897872e5440d39128281526020017f02fbab6a92406edb96006f595a537eea2ffb04dacfac469c2bc3217b390fab978152508160800151602c81518110612c6d57612c6d614a96565b602002602001018190525060405180604001604052807f1ed1c6c90367329960a42d1e58f4af970b2cf3321beb52e250c5eba0d7a063d581526020017f072187e6da92135040017d380376ca89ffd689f146134093d97212e6a5e9ecf68152508160800151602d81518110612ce457612ce4614a96565b602002602001018190525060405180604001604052807f2b976dd40cd66beb72ac6345676ebeaec22aa170742a389eec790093bd69cdbf81526020017f070b65eb513c318176fa538eefe77c88f02b188695aeee638214db6f53b70afb8152508160800151602e81518110612d5b57612d5b614a96565b602002602001018190525060405180604001604052807f24cb1f2432bed8cb514e9f4438b61e767e49565737438b45b0e0a66050088dc581526020017f27918ec01627729289304c6d79c8fd9eb06aeb58f5c47f3b923094a618441ccd8152508160800151602f81518110612dd257612dd2614a96565b602002602001018190525060405180604001604052807f1f51c44f34d12849869a0e2cf525f7410e78fe05be1a605dd6b03d98c330b67d81526020017f033df715599f32cbc5f2d6f558a425bd913b89129bf05a7f44eba925d4dadc6f8152508160800151603081518110612e4957612e49614a96565b602002602001018190525060405180604001604052807f142a7c772647727c2560066d774128c5988fa1c7b1188a88cd53b58f5ca687a681526020017f2e1258339657e9c87bb109506f8a4a72533f307b4c1381b34a1b8bd0770ee27d8152508160800151603181518110612ec057612ec0614a96565b602002602001018190525060405180604001604052807f248a3ca935380fb7705a9231bf4e96d9bd56abb4f033aea4bdc201427d47cd6381526020017f2df363c1782f03bfc9c202b2cb1eb63a8b3df7f749847f48899615312d246a7d8152508160800151603281518110612f3757612f37614a96565b602002602001018190525060405180604001604052807f2ef54017ac766421771a10a316067e3f72dbb08f7a704d0a3cb18a0da5ef05b681526020017f2fea998cb0147927da4515b37a8ebde387e6adfd195188ad6774459ac0b30adf8152508160800151603381518110612fae57612fae614a96565b602002602001018190525060405180604001604052807f11db735a04e3b4c9d7ba8d6a37efdaa23994e4cf0327cc792daa8c5211014f9181526020017f11535163983fb260c197f52ac9aa89aaf355efb9dad3aad42d17f89adcaed863815250816080015160348151811061302557613025614a96565b602002602001018190525060405180604001604052807f2017f387b59c5c6e47c9193c085f2b358e640b43c0efd014987cee2cd2cebce181526020017f2dd0b8904079adb505d93cce9300d000fccd80089133d03265d496df36aef408815250816080015160358151811061309c5761309c614a96565b602002602001018190525060405180604001604052807f05e6d6654ac843c8e1169fe55b0b2037c8ed1fb82704e9b25dd028189f0f382b81526020017f305e51977fb583c5ace4f7ae07bdb49d253fdc762816ddc3d127d8127f50223b815250816080015160368151811061311357613113614a96565b602002602001018190525060405180604001604052807f0cb1da2395c5d94afc442c5558674e100983462af3a9661123233e94cc85864d81526020017f28a081b7cfb6f1b3861c98c6493903a23a6b8e72c8a69ec1a9e0a1ad178ad759815250816080015160378151811061318a5761318a614a96565b602002602001018190525060405180604001604052807f11c0034b576435411e464624c7e922b7557631f3c49c986faac124f90b5c1d8081526020017f29bfd443533c8556f867dfe367a9a779031aa1901adcc6382bdb5ddd204351b0815250816080015160388151811061320157613201614a96565b602002602001018190525060405180604001604052807f254402d45d6ef32c13748d57197cbbd5dea85e58f0b742d4b07974bce73c12bf81526020017f01752980cc8b6a27b8805b6b3f08e6ba24c55d7be7f4d04b1fad91e6013b1ac7815250816080015160398151811061327857613278614a96565b602002602001018190525060405180604001604052807f2c30ef5598bce54d4a2f92a7c667f5fbc280e3c3615474a24e4210e109085dc081526020017f1eda46b5f7010302261dadf6588c5b84db5a78cba5a6a786c7956b4b7273253d8152508160800151603a815181106132ef576132ef614a96565b602002602001018190525060405180604001604052807f22120e152738deac0c9376a3369764bd6a078e207489515a5b75681752c8c74081526020017f1ae7e0719d5052e16e1c119efaed27ccf9503d8a9807df78e5e227a60dab226a8152508160800151603b8151811061336657613366614a96565b602002602001018190525060405180604001604052807f04c5fc76fbb4f3e2155c61ba703f08b42f7514f251f2cdb48bd007406d1a79de81526020017f0cff7fe0459d763301c08ace9c2954c2475983538e56a9500f1434b5a9716c908152508160800151603c815181106133dd576133dd614a96565b602002602001018190525060405180604001604052807f093ae82aa71c2cc010adb2c5986a5e6b04154ad75415152163a74529c879507a81526020017f161cfcb21613f247fb648baad9c7c20215fb34517b8aeee327f756548a825f528152508160800151603d8151811061345457613454614a96565b602002602001018190525060405180604001604052807f21e776b3bb5b389f63d39ecd8e20d4f15f0a9c75795d62963d24eda268a42b9a81526020017f23031be05095731766a38484e85bdb577f999841368d8ea5812ff1ada765d46d8152508160800151603e815181106134cb576134cb614a96565b602002602001018190525060405180604001604052807f2185e37cebc843c0449335273043e2920e141d0cf48f367fd8e857f5d64fa2b681526020017f2f5b704b445b34caf65e5fc214112d01e617a7fd40070c7673bf28091dfc278c8152508160800151603f8151811061354257613542614a96565b602002602001018190525060405180604001604052807f1a4dc8daf63f9748338fac8123ca5b346ec8f2760bc5809eda591f760d6464bb81526020017f1d963dc2cde9d4bc001c4fa140fce8386e9fa42666aade490931ce469fe5bb7081525081608001516040815181106135b9576135b9614a96565b602002602001018190525060405180604001604052807f03ea2ef922aea40b927e35e5f3f03e441cdefaeb5e2cc43467d016c6a40886fb81526020017f027096550d04b560e795485d370b6b415c872aab042cf487e04ca0113198f862815250816080015160418151811061363057613630614a96565b602002602001018190525090565b604080518082019091526000808252602082015261365a614593565b835181526020808501519082015260408101839052600060608360808460076107d05a03fa9050808061368957fe5b50806136cc5760405162461bcd60e51b81526020600482015260126024820152711c185a5c9a5b99cb5b5d5b0b59985a5b195960721b60448201526064016105d7565b505092915050565b60408051808201909152600080825260208201526136f06145b1565b8351815260208085015181830152835160408301528301516060808301919091526000908360c08460066107d05a03fa9050808061372a57fe5b50806136cc5760405162461bcd60e51b81526020600482015260126024820152711c185a5c9a5b99cb5859190b59985a5b195960721b60448201526064016105d7565b604080518082019091526000808252602082015281517f30644e72e131a029b85045b68181585d97816a916871ca8d3c208c16d87cfd47901580156137b457506020830151155b156137d45750506040805180820190915260008082526020820152919050565b6040518060400160405280846000015181526020018285602001516137f99190614aef565b6138039084614b03565b90529392505050565b60408051600480825260a08201909252600091829190816020015b604080518082019091526000808252602082015281526020019060019003908161382757505060408051600480825260a0820190925291925060009190602082015b6138716145cf565b8152602001906001900390816138695790505090508a8260008151811061389a5761389a614a96565b602002602001018190525088826001815181106138b9576138b9614a96565b602002602001018190525086826002815181106138d8576138d8614a96565b602002602001018190525084826003815181106138f7576138f7614a96565b6020026020010181905250898160008151811061391657613916614a96565b6020026020010181905250878160018151811061393557613935614a96565b6020026020010181905250858160028151811061395457613954614a96565b6020026020010181905250838160038151811061397357613973614a96565b60200260200101819052506139888282613e9e565b9b9a5050505050505050505050565b61399f614542565b6040805180820182527f2d4d9aa7e302d9df41749d5507949d05dbea33fbb16c643b22f599a2be6df2e281527f14bedd503c37ceb061d8ec60209fe345ce89830a19230301f076caff004d19266020808301919091529083528151608080820184527f0967032fcbf776d1afc985f88877f182d38480a653f2decaa9794cbc3bf3060c8285019081527f0e187847ad4c798374d0d6732bf501847dd68bc0e071241e0213bc7fc13db7ab606080850191909152908352845180860186527f304cfbd1e08a704a99f5e847d93f8c3caafddec46b7a0d379da69a4d112346a781527f1739c1b1a457a8c7313123d24d2f9192f896b7c63eea05a9d57f06547ad0cec8818601528385015285840192909252835180820185527f198e9393920d483a7260bfb731fb5d25f1aa493335a9e71297e485b7aef312c28186019081527f1800deef121f1e76426a00665e5c4479674322d4f75edadd46debd5cd992f6ed828501528152845180860186527f090689d0585ff075ec9e99ad690c3395bc4b313370b38ef355acdadcd122975b81527f12c85ea5db8c6deb4aab71808dcb408fe3d1e7690c43d37b4ce6cc0166fa7daa818601528185015285850152835190810184527f14399a918550d748b6fd3ed36d60643cd690b024759f9f38bd5b3e04e07c833a8185019081527f170e53f30bbc1d546e7d4f6eddc734c9d2a51d6b697cc2ca69398b455e8124fc828401528152835180850185527f048d5b27add7de76d699d515632043c93fa82f3d37b7f22f052412906a479ffc81527f1308539799f7f1f53e9190d1fdafb18dc0f9269ac783b67c83244ca2f610c60a818501528184015281850152825160028082529181019093529082015b6040805180820190915260008082526020820152815260200190600190039081613c1857505060808201908152604080518082019091527f2ea4aba81d2ca82fdbb6b7a71047b58a997df0d0b7e9c92cdb3ab6be7b2aea5281527f0783b4f84ad8390440cbf1f175ccb50fbc7aa73de097eed53dffd8d4545fad91602082015290518051600090613cab57613cab614a96565b602002602001018190525060405180604001604052807f269664be903c2510bbebdd1a0e8a27378f9a61012bad3624d3833412894d3dcd81526020017f267587b5874ab4dd5eeace61bd60bbdbe528206aa801b7e2207b9c6bdeb15156815250816080015160018151811061363057613630614a96565b60408051600480825260a08201909252600091829190816020015b6040805180820190915260008082526020820152815260200190600190039081613d3d57505060408051600480825260a0820190925291925060009190602082015b613d876145cf565b815260200190600190039081613d7f5790505090508a82600081518110613db057613db0614a96565b60200260200101819052508882600181518110613dcf57613dcf614a96565b60200260200101819052508682600281518110613dee57613dee614a96565b60200260200101819052508482600381518110613e0d57613e0d614a96565b60200260200101819052508981600081518110613e2c57613e2c614a96565b60200260200101819052508781600181518110613e4b57613e4b614a96565b60200260200101819052508581600281518110613e6a57613e6a614a96565b60200260200101819052508381600381518110613e8957613e89614a96565b602002602001018190525061398882826141f6565b60008151835114613eea5760405162461bcd60e51b81526020600482015260166024820152751c185a5c9a5b99cb5b195b99dd1a1ccb59985a5b195960521b60448201526064016105d7565b82516000613ef9826006614b5e565b905060008167ffffffffffffffff811115613f1657613f1661464d565b604051908082528060200260200182016040528015613f3f578160200160208202803683370190505b50905060005b8381101561417a57868181518110613f5f57613f5f614a96565b60200260200101516000015182826006613f799190614b5e565b613f84906000614a83565b81518110613f9457613f94614a96565b602002602001018181525050868181518110613fb257613fb2614a96565b60200260200101516020015182826006613fcc9190614b5e565b613fd7906001614a83565b81518110613fe757613fe7614a96565b60200260200101818152505085818151811061400557614005614a96565b602090810291909101015151518261401e836006614b5e565b614029906002614a83565b8151811061403957614039614a96565b60200260200101818152505085818151811061405757614057614a96565b60209081029190910181015151015182614072836006614b5e565b61407d906003614a83565b8151811061408d5761408d614a96565b6020026020010181815250508581815181106140ab576140ab614a96565b6020026020010151602001516000600281106140c9576140c9614a96565b6020020151826140da836006614b5e565b6140e5906004614a83565b815181106140f5576140f5614a96565b60200260200101818152505085818151811061411357614113614a96565b60200260200101516020015160016002811061413157614131614a96565b602002015182614142836006614b5e565b61414d906005614a83565b8151811061415d5761415d614a96565b60209081029190910101528061417281614aac565b915050613f45565b506141836145ef565b6000602082602086026020860160086107d05a03fa905080806141a257fe5b50806141e85760405162461bcd60e51b81526020600482015260156024820152741c185a5c9a5b99cb5bdc18dbd9194b59985a5b1959605a1b60448201526064016105d7565b505115159695505050505050565b600081518351146142425760405162461bcd60e51b81526020600482015260166024820152751c185a5c9a5b99cb5b195b99dd1a1ccb59985a5b195960521b60448201526064016105d7565b82516000614251826006614b5e565b905060008167ffffffffffffffff81111561426e5761426e61464d565b604051908082528060200260200182016040528015614297578160200160208202803683370190505b50905060005b8381101561417a578681815181106142b7576142b7614a96565b602002602001015160000151828260066142d19190614b5e565b6142dc906000614a83565b815181106142ec576142ec614a96565b60200260200101818152505086818151811061430a5761430a614a96565b602002602001015160200151828260066143249190614b5e565b61432f906001614a83565b8151811061433f5761433f614a96565b60200260200101818152505085818151811061435d5761435d614a96565b6020908102919091010151515182614376836006614b5e565b614381906002614a83565b8151811061439157614391614a96565b6020026020010181815250508581815181106143af576143af614a96565b602090810291909101810151510151826143ca836006614b5e565b6143d5906003614a83565b815181106143e5576143e5614a96565b60200260200101818152505085818151811061440357614403614a96565b60200260200101516020015160006002811061442157614421614a96565b602002015182614432836006614b5e565b61443d906004614a83565b8151811061444d5761444d614a96565b60200260200101818152505085818151811061446b5761446b614a96565b60200260200101516020015160016002811061448957614489614a96565b60200201518261449a836006614b5e565b6144a5906005614a83565b815181106144b5576144b5614a96565b6020908102919091010152806144ca81614aac565b91505061429d565b6040805160a0810190915260006060820181815260808301919091528152602081016144fc6145cf565b815260200161451e604051806040016040528060008152602001600081525090565b905290565b6040518061082001604052806041906020820280368337509192915050565b6040805160e08101909152600060a0820181815260c083019190915281526020810161456c6145cf565b81526020016145796145cf565b81526020016145866145cf565b8152602001606081525090565b60405180606001604052806003906020820280368337509192915050565b60405180608001604052806004906020820280368337509192915050565b60405180604001604052806145e261460d565b815260200161451e61460d565b60405180602001604052806001906020820280368337509192915050565b60405180604001604052806002906020820280368337509192915050565b6000806040838503121561463e57600080fd5b50508035926020909101359150565b634e487b7160e01b600052604160045260246000fd5b6040805190810167ffffffffffffffff811182821017156146865761468661464d565b60405290565b600082601f83011261469d57600080fd5b6146a5614663565b8060408401858111156146b757600080fd5b845b818110156146d15780358452602093840193016146b9565b509095945050505050565b600082601f8301126146ed57600080fd5b6146f5614663565b80608084018581111561470757600080fd5b845b818110156146d15761471b878261468c565b8452602090930192604001614709565b6000610100828403121561473e57600080fd5b6040516060810181811067ffffffffffffffff821117156147615761476161464d565b604052905080614771848461468c565b815261478084604085016146dc565b60208201526147928460c0850161468c565b60408201525092915050565b60006101a082840312156147b157600080fd5b60405160c0810181811067ffffffffffffffff821117156147d4576147d461464d565b806040525080915082358152602083013560208201526040830135604082015260608301356060820152608083013560808201526148158460a0850161472b565b60a08201525092915050565b60006102e0828403121561483457600080fd5b6040516080810181811067ffffffffffffffff821117156148575761485761464d565b604052614864848461479e565b81526101a083013560208201526101c0830135604082015261488a846101e0850161472b565b60608201529392505050565b6000602082840312156148a857600080fd5b5035919050565b6000806000806109208086880312156148c757600080fd5b6148d1878761468c565b94506148e087604088016146dc565b93506148ef8760c0880161468c565b92508661011f87011261490157600080fd5b604051610820810181811067ffffffffffffffff821117156149255761492561464d565b60405290860190808883111561493a57600080fd5b61010088015b83811015614958578035825260209182019101614940565b5050809250505092959194509250565b60006101a0828403121561497b57600080fd5b614985838361479e565b9392505050565b6000806000806101208086880312156149a457600080fd5b6149ae878761468c565b94506149bd87604088016146dc565b93506149cc8760c0880161468c565b92508661011f8701126149de57600080fd5b604051602080820182811067ffffffffffffffff82111715614a0257614a0261464d565b604052918701918189841115614a1757600080fd5b61010089015b84811015614a345780358252908201908201614a1d565b5096999598509396509450505050565b600060208284031215614a5657600080fd5b81356001600160a01b038116811461498557600080fd5b634e487b7160e01b600052601160045260246000fd5b80820180821115610a0a57610a0a614a6d565b634e487b7160e01b600052603260045260246000fd5b600060018201614abe57614abe614a6d565b5060010190565b634e487b7160e01b600052601260045260246000fd5b600082614aea57614aea614ac5565b500490565b600082614afe57614afe614ac5565b500690565b81810381811115610a0a57610a0a614a6d565b6000825160005b81811015614b375760208186018101518583015201614b1d565b506000920191825250919050565b600060208284031215614b5757600080fd5b5051919050565b6000816000190483118215151615614b7857614b78614a6d565b50029056fea264697066735822122017945066ca6c713004947a77e2bb2320465ad725456bc0d1a314008a03241ebd64736f6c63430008100033",
    "linkReferences": {}
  },
  "methodIdentifiers": {
    "FINALITY_THRESHOLD()": "da4b05e7",
    "GENESIS_TIME()": "f2882461",
    "GENESIS_VALIDATORS_ROOT()": "a8769acb",
    "SECONDS_PER_SLOT()": "304b9071",
    "SLOTS_PER_PERIOD()": "2073ee70",
    "SOURCE_CHAIN_ID()": "74be2150",
    "consistent()": "2bcccca5",
    "emitFakeHeadUpdateEvent(uint256,bytes32)": "e209e863",
    "emitFakeSyncCommitteeUpdateEvent(uint256,bytes32)": "474e04de",
    "executionStateRoots(uint256)": "7623ee29",
    "head()": "8f7dcfa3",
    "headers(uint256)": "56f90d79",
    "owner()": "8da5cb5b",
    "renounceOwnership()": "715018a6",
    "rotate(((uint256,uint256,uint256,bytes32,bytes32,(uint256[2],uint256[2][2],uint256[2])),bytes32,bytes32,(uint256[2],uint256[2][2],uint256[2])))": "4b4e4dff",
    "step((uint256,uint256,uint256,bytes32,bytes32,(uint256[2],uint256[2][2],uint256[2])))": "cb970952",
    "syncCommitteePoseidons(uint256)": "b34711ab",
    "timestamps(uint256)": "8bc33af3",
    "transferOwnership(address)": "f2fde38b",
    "verifyProofRotate(uint256[2],uint256[2][2],uint256[2],uint256[65])": "7227d785",
    "verifyProofStep(uint256[2],uint256[2][2],uint256[2],uint256[1])": "e5b708fe"
  },
  "id": 5
}